{
	"contracts/HierarchyInheritace.sol": {
		"caller": {
			"abi": [
				{
					"inputs": [],
					"name": "warisan",
					"outputs": [
						{
							"internalType": "string",
							"name": "",
							"type": "string"
						},
						{
							"internalType": "string",
							"name": "",
							"type": "string"
						}
					],
					"stateMutability": "view",
					"type": "function"
				}
			],
			"devdoc": {
				"kind": "dev",
				"methods": {},
				"version": 1
			},
			"evm": {
				"assembly": "    /* \"contracts/HierarchyInheritace.sol\":372:591  contract caller {... */\n  mstore(0x40, 0x80)\n    /* \"contracts/HierarchyInheritace.sol\":408:415  new B() */\n  mload(0x40)\n  tag_1\n  swap1\n  tag_2\n  jump\t// in\ntag_1:\n  mload(0x40)\n  dup1\n  swap2\n  sub\n  swap1\n  0x00\n  create\n  dup1\n  iszero\n  dup1\n  iszero\n  tag_3\n  jumpi\n  returndatacopy(0x00, 0x00, returndatasize)\n  revert(0x00, returndatasize)\ntag_3:\n  pop\n    /* \"contracts/HierarchyInheritace.sol\":394:415  B contractB = new B() */\n  0x00\n  exp(0x0100, 0x00)\n  dup2\n  sload\n  dup2\n  0xffffffffffffffffffffffffffffffffffffffff\n  mul\n  not\n  and\n  swap1\n  dup4\n  0xffffffffffffffffffffffffffffffffffffffff\n  and\n  mul\n  or\n  swap1\n  sstore\n  pop\n    /* \"contracts/HierarchyInheritace.sol\":435:442  new C() */\n  mload(0x40)\n  tag_4\n  swap1\n  tag_5\n  jump\t// in\ntag_4:\n  mload(0x40)\n  dup1\n  swap2\n  sub\n  swap1\n  0x00\n  create\n  dup1\n  iszero\n  dup1\n  iszero\n  tag_6\n  jumpi\n  returndatacopy(0x00, 0x00, returndatasize)\n  revert(0x00, returndatasize)\ntag_6:\n  pop\n    /* \"contracts/HierarchyInheritace.sol\":421:442  C contractC = new C() */\n  0x01\n  exp(0x0100, 0x00)\n  dup2\n  sload\n  dup2\n  0xffffffffffffffffffffffffffffffffffffffff\n  mul\n  not\n  and\n  swap1\n  dup4\n  0xffffffffffffffffffffffffffffffffffffffff\n  and\n  mul\n  or\n  swap1\n  sstore\n  pop\n    /* \"contracts/HierarchyInheritace.sol\":372:591  contract caller {... */\n  callvalue\n  dup1\n  iszero\n  tag_7\n  jumpi\n  revert(0x00, 0x00)\ntag_7:\n  pop\n  jump(tag_8)\ntag_2:\n  dataSize(sub_1)\n  dup1\n  dataOffset(sub_1)\n  dup4\n  codecopy\n  add\n  swap1\n  jump\t// out\ntag_5:\n  dataSize(sub_2)\n  dup1\n  dataOffset(sub_2)\n  dup4\n  codecopy\n  add\n  swap1\n  jump\t// out\ntag_8:\n  dataSize(sub_0)\n  dup1\n  dataOffset(sub_0)\n  0x00\n  codecopy\n  0x00\n  return\nstop\n\nsub_0: assembly {\n        /* \"contracts/HierarchyInheritace.sol\":372:591  contract caller {... */\n      mstore(0x40, 0x80)\n      callvalue\n      dup1\n      iszero\n      tag_1\n      jumpi\n      revert(0x00, 0x00)\n    tag_1:\n      pop\n      jumpi(tag_2, lt(calldatasize, 0x04))\n      shr(0xe0, calldataload(0x00))\n      dup1\n      0x85392892\n      eq\n      tag_3\n      jumpi\n    tag_2:\n      revert(0x00, 0x00)\n        /* \"contracts/HierarchyInheritace.sol\":449:589  function warisan() public view returns (string memory, string memory) {... */\n    tag_3:\n      tag_4\n      tag_5\n      jump\t// in\n    tag_4:\n      mload(0x40)\n      tag_6\n      swap3\n      swap2\n      swap1\n      tag_7\n      jump\t// in\n    tag_6:\n      mload(0x40)\n      dup1\n      swap2\n      sub\n      swap1\n      return\n    tag_5:\n        /* \"contracts/HierarchyInheritace.sol\":489:502  string memory */\n      0x60\n        /* \"contracts/HierarchyInheritace.sol\":504:517  string memory */\n      dup1\n        /* \"contracts/HierarchyInheritace.sol\":537:546  contractC */\n      0x01\n      0x00\n      swap1\n      sload\n      swap1\n      0x0100\n      exp\n      swap1\n      div\n      0xffffffffffffffffffffffffffffffffffffffff\n      and\n        /* \"contracts/HierarchyInheritace.sol\":537:556  contractC.getValueA */\n      0xffffffffffffffffffffffffffffffffffffffff\n      and\n      0xeb3a436f\n        /* \"contracts/HierarchyInheritace.sol\":537:558  contractC.getValueA() */\n      mload(0x40)\n      dup2\n      0xffffffff\n      and\n      0xe0\n      shl\n      dup2\n      mstore\n      0x04\n      add\n      0x00\n      mload(0x40)\n      dup1\n      dup4\n      sub\n      dup2\n      dup7\n      gas\n      staticcall\n      iszero\n      dup1\n      iszero\n      tag_10\n      jumpi\n      returndatacopy(0x00, 0x00, returndatasize)\n      revert(0x00, returndatasize)\n    tag_10:\n      pop\n      pop\n      pop\n      pop\n      mload(0x40)\n      returndatasize\n      0x00\n      dup3\n      returndatacopy\n      returndatasize\n      not(0x1f)\n      0x1f\n      dup3\n      add\n      and\n      dup3\n      add\n      dup1\n      0x40\n      mstore\n      pop\n      dup2\n      add\n      swap1\n      tag_11\n      swap2\n      swap1\n      tag_12\n      jump\t// in\n    tag_11:\n        /* \"contracts/HierarchyInheritace.sol\":560:569  contractB */\n      0x00\n      0x00\n      swap1\n      sload\n      swap1\n      0x0100\n      exp\n      swap1\n      div\n      0xffffffffffffffffffffffffffffffffffffffff\n      and\n        /* \"contracts/HierarchyInheritace.sol\":560:579  contractB.getValueA */\n      0xffffffffffffffffffffffffffffffffffffffff\n      and\n      0xeb3a436f\n        /* \"contracts/HierarchyInheritace.sol\":560:581  contractB.getValueA() */\n      mload(0x40)\n      dup2\n      0xffffffff\n      and\n      0xe0\n      shl\n      dup2\n      mstore\n      0x04\n      add\n      0x00\n      mload(0x40)\n      dup1\n      dup4\n      sub\n      dup2\n      dup7\n      gas\n      staticcall\n      iszero\n      dup1\n      iszero\n      tag_14\n      jumpi\n      returndatacopy(0x00, 0x00, returndatasize)\n      revert(0x00, returndatasize)\n    tag_14:\n      pop\n      pop\n      pop\n      pop\n      mload(0x40)\n      returndatasize\n      0x00\n      dup3\n      returndatacopy\n      returndatasize\n      not(0x1f)\n      0x1f\n      dup3\n      add\n      and\n      dup3\n      add\n      dup1\n      0x40\n      mstore\n      pop\n      dup2\n      add\n      swap1\n      tag_15\n      swap2\n      swap1\n      tag_12\n      jump\t// in\n    tag_15:\n        /* \"contracts/HierarchyInheritace.sol\":529:582  return (contractC.getValueA(), contractB.getValueA()) */\n      swap2\n      pop\n      swap2\n      pop\n        /* \"contracts/HierarchyInheritace.sol\":449:589  function warisan() public view returns (string memory, string memory) {... */\n      swap1\n      swap2\n      jump\t// out\n        /* \"#utility.yul\":7:106   */\n    tag_16:\n        /* \"#utility.yul\":59:65   */\n      0x00\n        /* \"#utility.yul\":93:98   */\n      dup2\n        /* \"#utility.yul\":87:99   */\n      mload\n        /* \"#utility.yul\":77:99   */\n      swap1\n      pop\n        /* \"#utility.yul\":7:106   */\n      swap2\n      swap1\n      pop\n      jump\t// out\n        /* \"#utility.yul\":112:281   */\n    tag_17:\n        /* \"#utility.yul\":196:207   */\n      0x00\n        /* \"#utility.yul\":230:236   */\n      dup3\n        /* \"#utility.yul\":225:228   */\n      dup3\n        /* \"#utility.yul\":218:237   */\n      mstore\n        /* \"#utility.yul\":270:274   */\n      0x20\n        /* \"#utility.yul\":265:268   */\n      dup3\n        /* \"#utility.yul\":261:275   */\n      add\n        /* \"#utility.yul\":246:275   */\n      swap1\n      pop\n        /* \"#utility.yul\":112:281   */\n      swap3\n      swap2\n      pop\n      pop\n      jump\t// out\n        /* \"#utility.yul\":287:426   */\n    tag_18:\n        /* \"#utility.yul\":376:382   */\n      dup3\n        /* \"#utility.yul\":371:374   */\n      dup2\n        /* \"#utility.yul\":366:369   */\n      dup4\n        /* \"#utility.yul\":360:383   */\n      mcopy\n        /* \"#utility.yul\":417:418   */\n      0x00\n        /* \"#utility.yul\":408:414   */\n      dup4\n        /* \"#utility.yul\":403:406   */\n      dup4\n        /* \"#utility.yul\":399:415   */\n      add\n        /* \"#utility.yul\":392:419   */\n      mstore\n        /* \"#utility.yul\":287:426   */\n      pop\n      pop\n      pop\n      jump\t// out\n        /* \"#utility.yul\":432:534   */\n    tag_19:\n        /* \"#utility.yul\":473:479   */\n      0x00\n        /* \"#utility.yul\":524:526   */\n      0x1f\n        /* \"#utility.yul\":520:527   */\n      not\n        /* \"#utility.yul\":515:517   */\n      0x1f\n        /* \"#utility.yul\":508:513   */\n      dup4\n        /* \"#utility.yul\":504:518   */\n      add\n        /* \"#utility.yul\":500:528   */\n      and\n        /* \"#utility.yul\":490:528   */\n      swap1\n      pop\n        /* \"#utility.yul\":432:534   */\n      swap2\n      swap1\n      pop\n      jump\t// out\n        /* \"#utility.yul\":540:917   */\n    tag_20:\n        /* \"#utility.yul\":628:631   */\n      0x00\n        /* \"#utility.yul\":656:695   */\n      tag_38\n        /* \"#utility.yul\":689:694   */\n      dup3\n        /* \"#utility.yul\":656:695   */\n      tag_16\n      jump\t// in\n    tag_38:\n        /* \"#utility.yul\":711:782   */\n      tag_39\n        /* \"#utility.yul\":775:781   */\n      dup2\n        /* \"#utility.yul\":770:773   */\n      dup6\n        /* \"#utility.yul\":711:782   */\n      tag_17\n      jump\t// in\n    tag_39:\n        /* \"#utility.yul\":704:782   */\n      swap4\n      pop\n        /* \"#utility.yul\":791:856   */\n      tag_40\n        /* \"#utility.yul\":849:855   */\n      dup2\n        /* \"#utility.yul\":844:847   */\n      dup6\n        /* \"#utility.yul\":837:841   */\n      0x20\n        /* \"#utility.yul\":830:835   */\n      dup7\n        /* \"#utility.yul\":826:842   */\n      add\n        /* \"#utility.yul\":791:856   */\n      tag_18\n      jump\t// in\n    tag_40:\n        /* \"#utility.yul\":881:910   */\n      tag_41\n        /* \"#utility.yul\":903:909   */\n      dup2\n        /* \"#utility.yul\":881:910   */\n      tag_19\n      jump\t// in\n    tag_41:\n        /* \"#utility.yul\":876:879   */\n      dup5\n        /* \"#utility.yul\":872:911   */\n      add\n        /* \"#utility.yul\":865:911   */\n      swap2\n      pop\n        /* \"#utility.yul\":632:917   */\n      pop\n        /* \"#utility.yul\":540:917   */\n      swap3\n      swap2\n      pop\n      pop\n      jump\t// out\n        /* \"#utility.yul\":923:1437   */\n    tag_7:\n        /* \"#utility.yul\":1084:1088   */\n      0x00\n        /* \"#utility.yul\":1122:1124   */\n      0x40\n        /* \"#utility.yul\":1111:1120   */\n      dup3\n        /* \"#utility.yul\":1107:1125   */\n      add\n        /* \"#utility.yul\":1099:1125   */\n      swap1\n      pop\n        /* \"#utility.yul\":1171:1180   */\n      dup2\n        /* \"#utility.yul\":1165:1169   */\n      dup2\n        /* \"#utility.yul\":1161:1181   */\n      sub\n        /* \"#utility.yul\":1157:1158   */\n      0x00\n        /* \"#utility.yul\":1146:1155   */\n      dup4\n        /* \"#utility.yul\":1142:1159   */\n      add\n        /* \"#utility.yul\":1135:1182   */\n      mstore\n        /* \"#utility.yul\":1199:1277   */\n      tag_43\n        /* \"#utility.yul\":1272:1276   */\n      dup2\n        /* \"#utility.yul\":1263:1269   */\n      dup6\n        /* \"#utility.yul\":1199:1277   */\n      tag_20\n      jump\t// in\n    tag_43:\n        /* \"#utility.yul\":1191:1277   */\n      swap1\n      pop\n        /* \"#utility.yul\":1324:1333   */\n      dup2\n        /* \"#utility.yul\":1318:1322   */\n      dup2\n        /* \"#utility.yul\":1314:1334   */\n      sub\n        /* \"#utility.yul\":1309:1311   */\n      0x20\n        /* \"#utility.yul\":1298:1307   */\n      dup4\n        /* \"#utility.yul\":1294:1312   */\n      add\n        /* \"#utility.yul\":1287:1335   */\n      mstore\n        /* \"#utility.yul\":1352:1430   */\n      tag_44\n        /* \"#utility.yul\":1425:1429   */\n      dup2\n        /* \"#utility.yul\":1416:1422   */\n      dup5\n        /* \"#utility.yul\":1352:1430   */\n      tag_20\n      jump\t// in\n    tag_44:\n        /* \"#utility.yul\":1344:1430   */\n      swap1\n      pop\n        /* \"#utility.yul\":923:1437   */\n      swap4\n      swap3\n      pop\n      pop\n      pop\n      jump\t// out\n        /* \"#utility.yul\":1443:1518   */\n    tag_21:\n        /* \"#utility.yul\":1476:1482   */\n      0x00\n        /* \"#utility.yul\":1509:1511   */\n      0x40\n        /* \"#utility.yul\":1503:1512   */\n      mload\n        /* \"#utility.yul\":1493:1512   */\n      swap1\n      pop\n        /* \"#utility.yul\":1443:1518   */\n      swap1\n      jump\t// out\n        /* \"#utility.yul\":1524:1641   */\n    tag_22:\n        /* \"#utility.yul\":1633:1634   */\n      0x00\n        /* \"#utility.yul\":1630:1631   */\n      0x00\n        /* \"#utility.yul\":1623:1635   */\n      revert\n        /* \"#utility.yul\":1647:1764   */\n    tag_23:\n        /* \"#utility.yul\":1756:1757   */\n      0x00\n        /* \"#utility.yul\":1753:1754   */\n      0x00\n        /* \"#utility.yul\":1746:1758   */\n      revert\n        /* \"#utility.yul\":1770:1887   */\n    tag_24:\n        /* \"#utility.yul\":1879:1880   */\n      0x00\n        /* \"#utility.yul\":1876:1877   */\n      0x00\n        /* \"#utility.yul\":1869:1881   */\n      revert\n        /* \"#utility.yul\":1893:2010   */\n    tag_25:\n        /* \"#utility.yul\":2002:2003   */\n      0x00\n        /* \"#utility.yul\":1999:2000   */\n      0x00\n        /* \"#utility.yul\":1992:2004   */\n      revert\n        /* \"#utility.yul\":2016:2196   */\n    tag_26:\n        /* \"#utility.yul\":2064:2141   */\n      0x4e487b7100000000000000000000000000000000000000000000000000000000\n        /* \"#utility.yul\":2061:2062   */\n      0x00\n        /* \"#utility.yul\":2054:2142   */\n      mstore\n        /* \"#utility.yul\":2161:2165   */\n      0x41\n        /* \"#utility.yul\":2158:2159   */\n      0x04\n        /* \"#utility.yul\":2151:2166   */\n      mstore\n        /* \"#utility.yul\":2185:2189   */\n      0x24\n        /* \"#utility.yul\":2182:2183   */\n      0x00\n        /* \"#utility.yul\":2175:2190   */\n      revert\n        /* \"#utility.yul\":2202:2483   */\n    tag_27:\n        /* \"#utility.yul\":2285:2312   */\n      tag_52\n        /* \"#utility.yul\":2307:2311   */\n      dup3\n        /* \"#utility.yul\":2285:2312   */\n      tag_19\n      jump\t// in\n    tag_52:\n        /* \"#utility.yul\":2277:2283   */\n      dup2\n        /* \"#utility.yul\":2273:2313   */\n      add\n        /* \"#utility.yul\":2415:2421   */\n      dup2\n        /* \"#utility.yul\":2403:2413   */\n      dup2\n        /* \"#utility.yul\":2400:2422   */\n      lt\n        /* \"#utility.yul\":2379:2397   */\n      0xffffffffffffffff\n        /* \"#utility.yul\":2367:2377   */\n      dup3\n        /* \"#utility.yul\":2364:2398   */\n      gt\n        /* \"#utility.yul\":2361:2423   */\n      or\n        /* \"#utility.yul\":2358:2446   */\n      iszero\n      tag_53\n      jumpi\n        /* \"#utility.yul\":2426:2444   */\n      tag_54\n      tag_26\n      jump\t// in\n    tag_54:\n        /* \"#utility.yul\":2358:2446   */\n    tag_53:\n        /* \"#utility.yul\":2466:2476   */\n      dup1\n        /* \"#utility.yul\":2462:2464   */\n      0x40\n        /* \"#utility.yul\":2455:2477   */\n      mstore\n        /* \"#utility.yul\":2245:2483   */\n      pop\n        /* \"#utility.yul\":2202:2483   */\n      pop\n      pop\n      jump\t// out\n        /* \"#utility.yul\":2489:2618   */\n    tag_28:\n        /* \"#utility.yul\":2523:2529   */\n      0x00\n        /* \"#utility.yul\":2550:2570   */\n      tag_56\n      tag_21\n      jump\t// in\n    tag_56:\n        /* \"#utility.yul\":2540:2570   */\n      swap1\n      pop\n        /* \"#utility.yul\":2579:2612   */\n      tag_57\n        /* \"#utility.yul\":2607:2611   */\n      dup3\n        /* \"#utility.yul\":2599:2605   */\n      dup3\n        /* \"#utility.yul\":2579:2612   */\n      tag_27\n      jump\t// in\n    tag_57:\n        /* \"#utility.yul\":2489:2618   */\n      swap2\n      swap1\n      pop\n      jump\t// out\n        /* \"#utility.yul\":2624:2932   */\n    tag_29:\n        /* \"#utility.yul\":2686:2690   */\n      0x00\n        /* \"#utility.yul\":2776:2794   */\n      0xffffffffffffffff\n        /* \"#utility.yul\":2768:2774   */\n      dup3\n        /* \"#utility.yul\":2765:2795   */\n      gt\n        /* \"#utility.yul\":2762:2818   */\n      iszero\n      tag_59\n      jumpi\n        /* \"#utility.yul\":2798:2816   */\n      tag_60\n      tag_26\n      jump\t// in\n    tag_60:\n        /* \"#utility.yul\":2762:2818   */\n    tag_59:\n        /* \"#utility.yul\":2836:2865   */\n      tag_61\n        /* \"#utility.yul\":2858:2864   */\n      dup3\n        /* \"#utility.yul\":2836:2865   */\n      tag_19\n      jump\t// in\n    tag_61:\n        /* \"#utility.yul\":2828:2865   */\n      swap1\n      pop\n        /* \"#utility.yul\":2920:2924   */\n      0x20\n        /* \"#utility.yul\":2914:2918   */\n      dup2\n        /* \"#utility.yul\":2910:2925   */\n      add\n        /* \"#utility.yul\":2902:2925   */\n      swap1\n      pop\n        /* \"#utility.yul\":2624:2932   */\n      swap2\n      swap1\n      pop\n      jump\t// out\n        /* \"#utility.yul\":2938:3372   */\n    tag_30:\n        /* \"#utility.yul\":3027:3032   */\n      0x00\n        /* \"#utility.yul\":3052:3118   */\n      tag_63\n        /* \"#utility.yul\":3068:3117   */\n      tag_64\n        /* \"#utility.yul\":3110:3116   */\n      dup5\n        /* \"#utility.yul\":3068:3117   */\n      tag_29\n      jump\t// in\n    tag_64:\n        /* \"#utility.yul\":3052:3118   */\n      tag_28\n      jump\t// in\n    tag_63:\n        /* \"#utility.yul\":3043:3118   */\n      swap1\n      pop\n        /* \"#utility.yul\":3141:3147   */\n      dup3\n        /* \"#utility.yul\":3134:3139   */\n      dup2\n        /* \"#utility.yul\":3127:3148   */\n      mstore\n        /* \"#utility.yul\":3179:3183   */\n      0x20\n        /* \"#utility.yul\":3172:3177   */\n      dup2\n        /* \"#utility.yul\":3168:3184   */\n      add\n        /* \"#utility.yul\":3217:3220   */\n      dup5\n        /* \"#utility.yul\":3208:3214   */\n      dup5\n        /* \"#utility.yul\":3203:3206   */\n      dup5\n        /* \"#utility.yul\":3199:3215   */\n      add\n        /* \"#utility.yul\":3196:3221   */\n      gt\n        /* \"#utility.yul\":3193:3305   */\n      iszero\n      tag_65\n      jumpi\n        /* \"#utility.yul\":3224:3303   */\n      tag_66\n      tag_25\n      jump\t// in\n    tag_66:\n        /* \"#utility.yul\":3193:3305   */\n    tag_65:\n        /* \"#utility.yul\":3314:3366   */\n      tag_67\n        /* \"#utility.yul\":3359:3365   */\n      dup5\n        /* \"#utility.yul\":3354:3357   */\n      dup3\n        /* \"#utility.yul\":3349:3352   */\n      dup6\n        /* \"#utility.yul\":3314:3366   */\n      tag_18\n      jump\t// in\n    tag_67:\n        /* \"#utility.yul\":3033:3372   */\n      pop\n        /* \"#utility.yul\":2938:3372   */\n      swap4\n      swap3\n      pop\n      pop\n      pop\n      jump\t// out\n        /* \"#utility.yul\":3392:3747   */\n    tag_31:\n        /* \"#utility.yul\":3459:3464   */\n      0x00\n        /* \"#utility.yul\":3508:3511   */\n      dup3\n        /* \"#utility.yul\":3501:3505   */\n      0x1f\n        /* \"#utility.yul\":3493:3499   */\n      dup4\n        /* \"#utility.yul\":3489:3506   */\n      add\n        /* \"#utility.yul\":3485:3512   */\n      slt\n        /* \"#utility.yul\":3475:3597   */\n      tag_69\n      jumpi\n        /* \"#utility.yul\":3516:3595   */\n      tag_70\n      tag_24\n      jump\t// in\n    tag_70:\n        /* \"#utility.yul\":3475:3597   */\n    tag_69:\n        /* \"#utility.yul\":3626:3632   */\n      dup2\n        /* \"#utility.yul\":3620:3633   */\n      mload\n        /* \"#utility.yul\":3651:3741   */\n      tag_71\n        /* \"#utility.yul\":3737:3740   */\n      dup5\n        /* \"#utility.yul\":3729:3735   */\n      dup3\n        /* \"#utility.yul\":3722:3726   */\n      0x20\n        /* \"#utility.yul\":3714:3720   */\n      dup7\n        /* \"#utility.yul\":3710:3727   */\n      add\n        /* \"#utility.yul\":3651:3741   */\n      tag_30\n      jump\t// in\n    tag_71:\n        /* \"#utility.yul\":3642:3741   */\n      swap2\n      pop\n        /* \"#utility.yul\":3465:3747   */\n      pop\n        /* \"#utility.yul\":3392:3747   */\n      swap3\n      swap2\n      pop\n      pop\n      jump\t// out\n        /* \"#utility.yul\":3753:4277   */\n    tag_12:\n        /* \"#utility.yul\":3833:3839   */\n      0x00\n        /* \"#utility.yul\":3882:3884   */\n      0x20\n        /* \"#utility.yul\":3870:3879   */\n      dup3\n        /* \"#utility.yul\":3861:3868   */\n      dup5\n        /* \"#utility.yul\":3857:3880   */\n      sub\n        /* \"#utility.yul\":3853:3885   */\n      slt\n        /* \"#utility.yul\":3850:3969   */\n      iszero\n      tag_73\n      jumpi\n        /* \"#utility.yul\":3888:3967   */\n      tag_74\n      tag_22\n      jump\t// in\n    tag_74:\n        /* \"#utility.yul\":3850:3969   */\n    tag_73:\n        /* \"#utility.yul\":4029:4030   */\n      0x00\n        /* \"#utility.yul\":4018:4027   */\n      dup3\n        /* \"#utility.yul\":4014:4031   */\n      add\n        /* \"#utility.yul\":4008:4032   */\n      mload\n        /* \"#utility.yul\":4059:4077   */\n      0xffffffffffffffff\n        /* \"#utility.yul\":4051:4057   */\n      dup2\n        /* \"#utility.yul\":4048:4078   */\n      gt\n        /* \"#utility.yul\":4045:4162   */\n      iszero\n      tag_75\n      jumpi\n        /* \"#utility.yul\":4081:4160   */\n      tag_76\n      tag_23\n      jump\t// in\n    tag_76:\n        /* \"#utility.yul\":4045:4162   */\n    tag_75:\n        /* \"#utility.yul\":4186:4260   */\n      tag_77\n        /* \"#utility.yul\":4252:4259   */\n      dup5\n        /* \"#utility.yul\":4243:4249   */\n      dup3\n        /* \"#utility.yul\":4232:4241   */\n      dup6\n        /* \"#utility.yul\":4228:4250   */\n      add\n        /* \"#utility.yul\":4186:4260   */\n      tag_31\n      jump\t// in\n    tag_77:\n        /* \"#utility.yul\":4176:4260   */\n      swap2\n      pop\n        /* \"#utility.yul\":3979:4270   */\n      pop\n        /* \"#utility.yul\":3753:4277   */\n      swap3\n      swap2\n      pop\n      pop\n      jump\t// out\n\n    auxdata: 0xa26469706673582212207f741dd7ce563116beab347b1291795bd92dc18847332c3eba50d7a716ccf4ac64736f6c634300081e0033\n}\n\nsub_1: assembly {\n        /* \"contracts/HierarchyInheritace.sol\":321:339  contract B is A {} */\n      mstore(0x40, 0x80)\n      callvalue\n      dup1\n      iszero\n      tag_1\n      jumpi\n      revert(0x00, 0x00)\n    tag_1:\n      pop\n      dataSize(sub_0)\n      dup1\n      dataOffset(sub_0)\n      0x00\n      codecopy\n      0x00\n      return\n    stop\n\n    sub_0: assembly {\n            /* \"contracts/HierarchyInheritace.sol\":321:339  contract B is A {} */\n          mstore(0x40, 0x80)\n          callvalue\n          dup1\n          iszero\n          tag_1\n          jumpi\n          revert(0x00, 0x00)\n        tag_1:\n          pop\n          jumpi(tag_2, lt(calldatasize, 0x04))\n          shr(0xe0, calldataload(0x00))\n          dup1\n          0xeb3a436f\n          eq\n          tag_3\n          jumpi\n        tag_2:\n          revert(0x00, 0x00)\n            /* \"contracts/HierarchyInheritace.sol\":212:317  function getValueA() external pure returns (string memory) {... */\n        tag_3:\n          tag_4\n          tag_5\n          jump\t// in\n        tag_4:\n          mload(0x40)\n          tag_6\n          swap2\n          swap1\n          tag_7\n          jump\t// in\n        tag_6:\n          mload(0x40)\n          dup1\n          swap2\n          sub\n          swap1\n          return\n        tag_5:\n            /* \"contracts/HierarchyInheritace.sol\":256:269  string memory */\n          0x60\n            /* \"contracts/HierarchyInheritace.sol\":281:310  return \"Contract A dipanggil\" */\n          mload(0x40)\n          dup1\n          0x40\n          add\n          0x40\n          mstore\n          dup1\n          0x14\n          dup2\n          mstore\n          0x20\n          add\n          0x436f6e7472616374204120646970616e6767696c000000000000000000000000\n          dup2\n          mstore\n          pop\n          swap1\n          pop\n            /* \"contracts/HierarchyInheritace.sol\":212:317  function getValueA() external pure returns (string memory) {... */\n          swap1\n          jump\t// out\n            /* \"#utility.yul\":7:106   */\n        tag_9:\n            /* \"#utility.yul\":59:65   */\n          0x00\n            /* \"#utility.yul\":93:98   */\n          dup2\n            /* \"#utility.yul\":87:99   */\n          mload\n            /* \"#utility.yul\":77:99   */\n          swap1\n          pop\n            /* \"#utility.yul\":7:106   */\n          swap2\n          swap1\n          pop\n          jump\t// out\n            /* \"#utility.yul\":112:281   */\n        tag_10:\n            /* \"#utility.yul\":196:207   */\n          0x00\n            /* \"#utility.yul\":230:236   */\n          dup3\n            /* \"#utility.yul\":225:228   */\n          dup3\n            /* \"#utility.yul\":218:237   */\n          mstore\n            /* \"#utility.yul\":270:274   */\n          0x20\n            /* \"#utility.yul\":265:268   */\n          dup3\n            /* \"#utility.yul\":261:275   */\n          add\n            /* \"#utility.yul\":246:275   */\n          swap1\n          pop\n            /* \"#utility.yul\":112:281   */\n          swap3\n          swap2\n          pop\n          pop\n          jump\t// out\n            /* \"#utility.yul\":287:426   */\n        tag_11:\n            /* \"#utility.yul\":376:382   */\n          dup3\n            /* \"#utility.yul\":371:374   */\n          dup2\n            /* \"#utility.yul\":366:369   */\n          dup4\n            /* \"#utility.yul\":360:383   */\n          mcopy\n            /* \"#utility.yul\":417:418   */\n          0x00\n            /* \"#utility.yul\":408:414   */\n          dup4\n            /* \"#utility.yul\":403:406   */\n          dup4\n            /* \"#utility.yul\":399:415   */\n          add\n            /* \"#utility.yul\":392:419   */\n          mstore\n            /* \"#utility.yul\":287:426   */\n          pop\n          pop\n          pop\n          jump\t// out\n            /* \"#utility.yul\":432:534   */\n        tag_12:\n            /* \"#utility.yul\":473:479   */\n          0x00\n            /* \"#utility.yul\":524:526   */\n          0x1f\n            /* \"#utility.yul\":520:527   */\n          not\n            /* \"#utility.yul\":515:517   */\n          0x1f\n            /* \"#utility.yul\":508:513   */\n          dup4\n            /* \"#utility.yul\":504:518   */\n          add\n            /* \"#utility.yul\":500:528   */\n          and\n            /* \"#utility.yul\":490:528   */\n          swap1\n          pop\n            /* \"#utility.yul\":432:534   */\n          swap2\n          swap1\n          pop\n          jump\t// out\n            /* \"#utility.yul\":540:917   */\n        tag_13:\n            /* \"#utility.yul\":628:631   */\n          0x00\n            /* \"#utility.yul\":656:695   */\n          tag_20\n            /* \"#utility.yul\":689:694   */\n          dup3\n            /* \"#utility.yul\":656:695   */\n          tag_9\n          jump\t// in\n        tag_20:\n            /* \"#utility.yul\":711:782   */\n          tag_21\n            /* \"#utility.yul\":775:781   */\n          dup2\n            /* \"#utility.yul\":770:773   */\n          dup6\n            /* \"#utility.yul\":711:782   */\n          tag_10\n          jump\t// in\n        tag_21:\n            /* \"#utility.yul\":704:782   */\n          swap4\n          pop\n            /* \"#utility.yul\":791:856   */\n          tag_22\n            /* \"#utility.yul\":849:855   */\n          dup2\n            /* \"#utility.yul\":844:847   */\n          dup6\n            /* \"#utility.yul\":837:841   */\n          0x20\n            /* \"#utility.yul\":830:835   */\n          dup7\n            /* \"#utility.yul\":826:842   */\n          add\n            /* \"#utility.yul\":791:856   */\n          tag_11\n          jump\t// in\n        tag_22:\n            /* \"#utility.yul\":881:910   */\n          tag_23\n            /* \"#utility.yul\":903:909   */\n          dup2\n            /* \"#utility.yul\":881:910   */\n          tag_12\n          jump\t// in\n        tag_23:\n            /* \"#utility.yul\":876:879   */\n          dup5\n            /* \"#utility.yul\":872:911   */\n          add\n            /* \"#utility.yul\":865:911   */\n          swap2\n          pop\n            /* \"#utility.yul\":632:917   */\n          pop\n            /* \"#utility.yul\":540:917   */\n          swap3\n          swap2\n          pop\n          pop\n          jump\t// out\n            /* \"#utility.yul\":923:1236   */\n        tag_7:\n            /* \"#utility.yul\":1036:1040   */\n          0x00\n            /* \"#utility.yul\":1074:1076   */\n          0x20\n            /* \"#utility.yul\":1063:1072   */\n          dup3\n            /* \"#utility.yul\":1059:1077   */\n          add\n            /* \"#utility.yul\":1051:1077   */\n          swap1\n          pop\n            /* \"#utility.yul\":1123:1132   */\n          dup2\n            /* \"#utility.yul\":1117:1121   */\n          dup2\n            /* \"#utility.yul\":1113:1133   */\n          sub\n            /* \"#utility.yul\":1109:1110   */\n          0x00\n            /* \"#utility.yul\":1098:1107   */\n          dup4\n            /* \"#utility.yul\":1094:1111   */\n          add\n            /* \"#utility.yul\":1087:1134   */\n          mstore\n            /* \"#utility.yul\":1151:1229   */\n          tag_25\n            /* \"#utility.yul\":1224:1228   */\n          dup2\n            /* \"#utility.yul\":1215:1221   */\n          dup5\n            /* \"#utility.yul\":1151:1229   */\n          tag_13\n          jump\t// in\n        tag_25:\n            /* \"#utility.yul\":1143:1229   */\n          swap1\n          pop\n            /* \"#utility.yul\":923:1236   */\n          swap3\n          swap2\n          pop\n          pop\n          jump\t// out\n\n        auxdata: 0xa26469706673582212203c04f899aa0f3281d9d428d0d2be194d40d69cd0fba5a5e0a61a99c897de2f4664736f6c634300081e0033\n    }\n}\n\nsub_2: assembly {\n        /* \"contracts/HierarchyInheritace.sol\":341:359  contract C is A {} */\n      mstore(0x40, 0x80)\n      callvalue\n      dup1\n      iszero\n      tag_1\n      jumpi\n      revert(0x00, 0x00)\n    tag_1:\n      pop\n      dataSize(sub_0)\n      dup1\n      dataOffset(sub_0)\n      0x00\n      codecopy\n      0x00\n      return\n    stop\n\n    sub_0: assembly {\n            /* \"contracts/HierarchyInheritace.sol\":341:359  contract C is A {} */\n          mstore(0x40, 0x80)\n          callvalue\n          dup1\n          iszero\n          tag_1\n          jumpi\n          revert(0x00, 0x00)\n        tag_1:\n          pop\n          jumpi(tag_2, lt(calldatasize, 0x04))\n          shr(0xe0, calldataload(0x00))\n          dup1\n          0xeb3a436f\n          eq\n          tag_3\n          jumpi\n        tag_2:\n          revert(0x00, 0x00)\n            /* \"contracts/HierarchyInheritace.sol\":212:317  function getValueA() external pure returns (string memory) {... */\n        tag_3:\n          tag_4\n          tag_5\n          jump\t// in\n        tag_4:\n          mload(0x40)\n          tag_6\n          swap2\n          swap1\n          tag_7\n          jump\t// in\n        tag_6:\n          mload(0x40)\n          dup1\n          swap2\n          sub\n          swap1\n          return\n        tag_5:\n            /* \"contracts/HierarchyInheritace.sol\":256:269  string memory */\n          0x60\n            /* \"contracts/HierarchyInheritace.sol\":281:310  return \"Contract A dipanggil\" */\n          mload(0x40)\n          dup1\n          0x40\n          add\n          0x40\n          mstore\n          dup1\n          0x14\n          dup2\n          mstore\n          0x20\n          add\n          0x436f6e7472616374204120646970616e6767696c000000000000000000000000\n          dup2\n          mstore\n          pop\n          swap1\n          pop\n            /* \"contracts/HierarchyInheritace.sol\":212:317  function getValueA() external pure returns (string memory) {... */\n          swap1\n          jump\t// out\n            /* \"#utility.yul\":7:106   */\n        tag_9:\n            /* \"#utility.yul\":59:65   */\n          0x00\n            /* \"#utility.yul\":93:98   */\n          dup2\n            /* \"#utility.yul\":87:99   */\n          mload\n            /* \"#utility.yul\":77:99   */\n          swap1\n          pop\n            /* \"#utility.yul\":7:106   */\n          swap2\n          swap1\n          pop\n          jump\t// out\n            /* \"#utility.yul\":112:281   */\n        tag_10:\n            /* \"#utility.yul\":196:207   */\n          0x00\n            /* \"#utility.yul\":230:236   */\n          dup3\n            /* \"#utility.yul\":225:228   */\n          dup3\n            /* \"#utility.yul\":218:237   */\n          mstore\n            /* \"#utility.yul\":270:274   */\n          0x20\n            /* \"#utility.yul\":265:268   */\n          dup3\n            /* \"#utility.yul\":261:275   */\n          add\n            /* \"#utility.yul\":246:275   */\n          swap1\n          pop\n            /* \"#utility.yul\":112:281   */\n          swap3\n          swap2\n          pop\n          pop\n          jump\t// out\n            /* \"#utility.yul\":287:426   */\n        tag_11:\n            /* \"#utility.yul\":376:382   */\n          dup3\n            /* \"#utility.yul\":371:374   */\n          dup2\n            /* \"#utility.yul\":366:369   */\n          dup4\n            /* \"#utility.yul\":360:383   */\n          mcopy\n            /* \"#utility.yul\":417:418   */\n          0x00\n            /* \"#utility.yul\":408:414   */\n          dup4\n            /* \"#utility.yul\":403:406   */\n          dup4\n            /* \"#utility.yul\":399:415   */\n          add\n            /* \"#utility.yul\":392:419   */\n          mstore\n            /* \"#utility.yul\":287:426   */\n          pop\n          pop\n          pop\n          jump\t// out\n            /* \"#utility.yul\":432:534   */\n        tag_12:\n            /* \"#utility.yul\":473:479   */\n          0x00\n            /* \"#utility.yul\":524:526   */\n          0x1f\n            /* \"#utility.yul\":520:527   */\n          not\n            /* \"#utility.yul\":515:517   */\n          0x1f\n            /* \"#utility.yul\":508:513   */\n          dup4\n            /* \"#utility.yul\":504:518   */\n          add\n            /* \"#utility.yul\":500:528   */\n          and\n            /* \"#utility.yul\":490:528   */\n          swap1\n          pop\n            /* \"#utility.yul\":432:534   */\n          swap2\n          swap1\n          pop\n          jump\t// out\n            /* \"#utility.yul\":540:917   */\n        tag_13:\n            /* \"#utility.yul\":628:631   */\n          0x00\n            /* \"#utility.yul\":656:695   */\n          tag_20\n            /* \"#utility.yul\":689:694   */\n          dup3\n            /* \"#utility.yul\":656:695   */\n          tag_9\n          jump\t// in\n        tag_20:\n            /* \"#utility.yul\":711:782   */\n          tag_21\n            /* \"#utility.yul\":775:781   */\n          dup2\n            /* \"#utility.yul\":770:773   */\n          dup6\n            /* \"#utility.yul\":711:782   */\n          tag_10\n          jump\t// in\n        tag_21:\n            /* \"#utility.yul\":704:782   */\n          swap4\n          pop\n            /* \"#utility.yul\":791:856   */\n          tag_22\n            /* \"#utility.yul\":849:855   */\n          dup2\n            /* \"#utility.yul\":844:847   */\n          dup6\n            /* \"#utility.yul\":837:841   */\n          0x20\n            /* \"#utility.yul\":830:835   */\n          dup7\n            /* \"#utility.yul\":826:842   */\n          add\n            /* \"#utility.yul\":791:856   */\n          tag_11\n          jump\t// in\n        tag_22:\n            /* \"#utility.yul\":881:910   */\n          tag_23\n            /* \"#utility.yul\":903:909   */\n          dup2\n            /* \"#utility.yul\":881:910   */\n          tag_12\n          jump\t// in\n        tag_23:\n            /* \"#utility.yul\":876:879   */\n          dup5\n            /* \"#utility.yul\":872:911   */\n          add\n            /* \"#utility.yul\":865:911   */\n          swap2\n          pop\n            /* \"#utility.yul\":632:917   */\n          pop\n            /* \"#utility.yul\":540:917   */\n          swap3\n          swap2\n          pop\n          pop\n          jump\t// out\n            /* \"#utility.yul\":923:1236   */\n        tag_7:\n            /* \"#utility.yul\":1036:1040   */\n          0x00\n            /* \"#utility.yul\":1074:1076   */\n          0x20\n            /* \"#utility.yul\":1063:1072   */\n          dup3\n            /* \"#utility.yul\":1059:1077   */\n          add\n            /* \"#utility.yul\":1051:1077   */\n          swap1\n          pop\n            /* \"#utility.yul\":1123:1132   */\n          dup2\n            /* \"#utility.yul\":1117:1121   */\n          dup2\n            /* \"#utility.yul\":1113:1133   */\n          sub\n            /* \"#utility.yul\":1109:1110   */\n          0x00\n            /* \"#utility.yul\":1098:1107   */\n          dup4\n            /* \"#utility.yul\":1094:1111   */\n          add\n            /* \"#utility.yul\":1087:1134   */\n          mstore\n            /* \"#utility.yul\":1151:1229   */\n          tag_25\n            /* \"#utility.yul\":1224:1228   */\n          dup2\n            /* \"#utility.yul\":1215:1221   */\n          dup5\n            /* \"#utility.yul\":1151:1229   */\n          tag_13\n          jump\t// in\n        tag_25:\n            /* \"#utility.yul\":1143:1229   */\n          swap1\n          pop\n            /* \"#utility.yul\":923:1236   */\n          swap3\n          swap2\n          pop\n          pop\n          jump\t// out\n\n        auxdata: 0xa26469706673582212208dac053978236077b628a46d1ebdd9790a062b3ede7f1891febf583289d0c21764736f6c634300081e0033\n    }\n}\n",
				"bytecode": {
					"linkReferences": {},
					"object": "6080604052604051610010906100de565b604051809103905ff080158015610029573d5f5f3e3d5ffd5b505f5f6101000a81548173ffffffffffffffffffffffffffffffffffffffff021916908373ffffffffffffffffffffffffffffffffffffffff160217905550604051610074906100eb565b604051809103905ff08015801561008d573d5f5f3e3d5ffd5b5060015f6101000a81548173ffffffffffffffffffffffffffffffffffffffff021916908373ffffffffffffffffffffffffffffffffffffffff1602179055503480156100d8575f5ffd5b506100f8565b61016a806104ce83390190565b61016a8061063883390190565b6103c9806101055f395ff3fe608060405234801561000f575f5ffd5b5060043610610029575f3560e01c8063853928921461002d575b5f5ffd5b61003561004c565b6040516100439291906101e8565b60405180910390f35b60608060015f9054906101000a900473ffffffffffffffffffffffffffffffffffffffff1673ffffffffffffffffffffffffffffffffffffffff1663eb3a436f6040518163ffffffff1660e01b81526004015f60405180830381865afa1580156100b8573d5f5f3e3d5ffd5b505050506040513d5f823e3d601f19601f820116820180604052508101906100e0919061034c565b5f5f9054906101000a900473ffffffffffffffffffffffffffffffffffffffff1673ffffffffffffffffffffffffffffffffffffffff1663eb3a436f6040518163ffffffff1660e01b81526004015f60405180830381865afa158015610148573d5f5f3e3d5ffd5b505050506040513d5f823e3d601f19601f82011682018060405250810190610170919061034c565b915091509091565b5f81519050919050565b5f82825260208201905092915050565b8281835e5f83830152505050565b5f601f19601f8301169050919050565b5f6101ba82610178565b6101c48185610182565b93506101d4818560208601610192565b6101dd816101a0565b840191505092915050565b5f6040820190508181035f83015261020081856101b0565b9050818103602083015261021481846101b0565b90509392505050565b5f604051905090565b5f5ffd5b5f5ffd5b5f5ffd5b5f5ffd5b7f4e487b71000000000000000000000000000000000000000000000000000000005f52604160045260245ffd5b61026c826101a0565b810181811067ffffffffffffffff8211171561028b5761028a610236565b5b80604052505050565b5f61029d61021d565b90506102a98282610263565b919050565b5f67ffffffffffffffff8211156102c8576102c7610236565b5b6102d1826101a0565b9050602081019050919050565b5f6102f06102eb846102ae565b610294565b90508281526020810184848401111561030c5761030b610232565b5b610317848285610192565b509392505050565b5f82601f8301126103335761033261022e565b5b81516103438482602086016102de565b91505092915050565b5f6020828403121561036157610360610226565b5b5f82015167ffffffffffffffff81111561037e5761037d61022a565b5b61038a8482850161031f565b9150509291505056fea26469706673582212207f741dd7ce563116beab347b1291795bd92dc18847332c3eba50d7a716ccf4ac64736f6c634300081e00336080604052348015600e575f5ffd5b5061014e8061001c5f395ff3fe608060405234801561000f575f5ffd5b5060043610610029575f3560e01c8063eb3a436f1461002d575b5f5ffd5b61003561004b565b60405161004291906100f8565b60405180910390f35b60606040518060400160405280601481526020017f436f6e7472616374204120646970616e6767696c000000000000000000000000815250905090565b5f81519050919050565b5f82825260208201905092915050565b8281835e5f83830152505050565b5f601f19601f8301169050919050565b5f6100ca82610088565b6100d48185610092565b93506100e48185602086016100a2565b6100ed816100b0565b840191505092915050565b5f6020820190508181035f83015261011081846100c0565b90509291505056fea26469706673582212203c04f899aa0f3281d9d428d0d2be194d40d69cd0fba5a5e0a61a99c897de2f4664736f6c634300081e00336080604052348015600e575f5ffd5b5061014e8061001c5f395ff3fe608060405234801561000f575f5ffd5b5060043610610029575f3560e01c8063eb3a436f1461002d575b5f5ffd5b61003561004b565b60405161004291906100f8565b60405180910390f35b60606040518060400160405280601481526020017f436f6e7472616374204120646970616e6767696c000000000000000000000000815250905090565b5f81519050919050565b5f82825260208201905092915050565b8281835e5f83830152505050565b5f601f19601f8301169050919050565b5f6100ca82610088565b6100d48185610092565b93506100e48185602086016100a2565b6100ed816100b0565b840191505092915050565b5f6020820190508181035f83015261011081846100c0565b90509291505056fea26469706673582212208dac053978236077b628a46d1ebdd9790a062b3ede7f1891febf583289d0c21764736f6c634300081e0033",
					"opcodes": "PUSH1 0x80 PUSH1 0x40 MSTORE PUSH1 0x40 MLOAD PUSH2 0x10 SWAP1 PUSH2 0xDE JUMP JUMPDEST PUSH1 0x40 MLOAD DUP1 SWAP2 SUB SWAP1 PUSH0 CREATE DUP1 ISZERO DUP1 ISZERO PUSH2 0x29 JUMPI RETURNDATASIZE PUSH0 PUSH0 RETURNDATACOPY RETURNDATASIZE PUSH0 REVERT JUMPDEST POP PUSH0 PUSH0 PUSH2 0x100 EXP DUP2 SLOAD DUP2 PUSH20 0xFFFFFFFFFFFFFFFFFFFFFFFFFFFFFFFFFFFFFFFF MUL NOT AND SWAP1 DUP4 PUSH20 0xFFFFFFFFFFFFFFFFFFFFFFFFFFFFFFFFFFFFFFFF AND MUL OR SWAP1 SSTORE POP PUSH1 0x40 MLOAD PUSH2 0x74 SWAP1 PUSH2 0xEB JUMP JUMPDEST PUSH1 0x40 MLOAD DUP1 SWAP2 SUB SWAP1 PUSH0 CREATE DUP1 ISZERO DUP1 ISZERO PUSH2 0x8D JUMPI RETURNDATASIZE PUSH0 PUSH0 RETURNDATACOPY RETURNDATASIZE PUSH0 REVERT JUMPDEST POP PUSH1 0x1 PUSH0 PUSH2 0x100 EXP DUP2 SLOAD DUP2 PUSH20 0xFFFFFFFFFFFFFFFFFFFFFFFFFFFFFFFFFFFFFFFF MUL NOT AND SWAP1 DUP4 PUSH20 0xFFFFFFFFFFFFFFFFFFFFFFFFFFFFFFFFFFFFFFFF AND MUL OR SWAP1 SSTORE POP CALLVALUE DUP1 ISZERO PUSH2 0xD8 JUMPI PUSH0 PUSH0 REVERT JUMPDEST POP PUSH2 0xF8 JUMP JUMPDEST PUSH2 0x16A DUP1 PUSH2 0x4CE DUP4 CODECOPY ADD SWAP1 JUMP JUMPDEST PUSH2 0x16A DUP1 PUSH2 0x638 DUP4 CODECOPY ADD SWAP1 JUMP JUMPDEST PUSH2 0x3C9 DUP1 PUSH2 0x105 PUSH0 CODECOPY PUSH0 RETURN INVALID PUSH1 0x80 PUSH1 0x40 MSTORE CALLVALUE DUP1 ISZERO PUSH2 0xF JUMPI PUSH0 PUSH0 REVERT JUMPDEST POP PUSH1 0x4 CALLDATASIZE LT PUSH2 0x29 JUMPI PUSH0 CALLDATALOAD PUSH1 0xE0 SHR DUP1 PUSH4 0x85392892 EQ PUSH2 0x2D JUMPI JUMPDEST PUSH0 PUSH0 REVERT JUMPDEST PUSH2 0x35 PUSH2 0x4C JUMP JUMPDEST PUSH1 0x40 MLOAD PUSH2 0x43 SWAP3 SWAP2 SWAP1 PUSH2 0x1E8 JUMP JUMPDEST PUSH1 0x40 MLOAD DUP1 SWAP2 SUB SWAP1 RETURN JUMPDEST PUSH1 0x60 DUP1 PUSH1 0x1 PUSH0 SWAP1 SLOAD SWAP1 PUSH2 0x100 EXP SWAP1 DIV PUSH20 0xFFFFFFFFFFFFFFFFFFFFFFFFFFFFFFFFFFFFFFFF AND PUSH20 0xFFFFFFFFFFFFFFFFFFFFFFFFFFFFFFFFFFFFFFFF AND PUSH4 0xEB3A436F PUSH1 0x40 MLOAD DUP2 PUSH4 0xFFFFFFFF AND PUSH1 0xE0 SHL DUP2 MSTORE PUSH1 0x4 ADD PUSH0 PUSH1 0x40 MLOAD DUP1 DUP4 SUB DUP2 DUP7 GAS STATICCALL ISZERO DUP1 ISZERO PUSH2 0xB8 JUMPI RETURNDATASIZE PUSH0 PUSH0 RETURNDATACOPY RETURNDATASIZE PUSH0 REVERT JUMPDEST POP POP POP POP PUSH1 0x40 MLOAD RETURNDATASIZE PUSH0 DUP3 RETURNDATACOPY RETURNDATASIZE PUSH1 0x1F NOT PUSH1 0x1F DUP3 ADD AND DUP3 ADD DUP1 PUSH1 0x40 MSTORE POP DUP2 ADD SWAP1 PUSH2 0xE0 SWAP2 SWAP1 PUSH2 0x34C JUMP JUMPDEST PUSH0 PUSH0 SWAP1 SLOAD SWAP1 PUSH2 0x100 EXP SWAP1 DIV PUSH20 0xFFFFFFFFFFFFFFFFFFFFFFFFFFFFFFFFFFFFFFFF AND PUSH20 0xFFFFFFFFFFFFFFFFFFFFFFFFFFFFFFFFFFFFFFFF AND PUSH4 0xEB3A436F PUSH1 0x40 MLOAD DUP2 PUSH4 0xFFFFFFFF AND PUSH1 0xE0 SHL DUP2 MSTORE PUSH1 0x4 ADD PUSH0 PUSH1 0x40 MLOAD DUP1 DUP4 SUB DUP2 DUP7 GAS STATICCALL ISZERO DUP1 ISZERO PUSH2 0x148 JUMPI RETURNDATASIZE PUSH0 PUSH0 RETURNDATACOPY RETURNDATASIZE PUSH0 REVERT JUMPDEST POP POP POP POP PUSH1 0x40 MLOAD RETURNDATASIZE PUSH0 DUP3 RETURNDATACOPY RETURNDATASIZE PUSH1 0x1F NOT PUSH1 0x1F DUP3 ADD AND DUP3 ADD DUP1 PUSH1 0x40 MSTORE POP DUP2 ADD SWAP1 PUSH2 0x170 SWAP2 SWAP1 PUSH2 0x34C JUMP JUMPDEST SWAP2 POP SWAP2 POP SWAP1 SWAP2 JUMP JUMPDEST PUSH0 DUP2 MLOAD SWAP1 POP SWAP2 SWAP1 POP JUMP JUMPDEST PUSH0 DUP3 DUP3 MSTORE PUSH1 0x20 DUP3 ADD SWAP1 POP SWAP3 SWAP2 POP POP JUMP JUMPDEST DUP3 DUP2 DUP4 MCOPY PUSH0 DUP4 DUP4 ADD MSTORE POP POP POP JUMP JUMPDEST PUSH0 PUSH1 0x1F NOT PUSH1 0x1F DUP4 ADD AND SWAP1 POP SWAP2 SWAP1 POP JUMP JUMPDEST PUSH0 PUSH2 0x1BA DUP3 PUSH2 0x178 JUMP JUMPDEST PUSH2 0x1C4 DUP2 DUP6 PUSH2 0x182 JUMP JUMPDEST SWAP4 POP PUSH2 0x1D4 DUP2 DUP6 PUSH1 0x20 DUP7 ADD PUSH2 0x192 JUMP JUMPDEST PUSH2 0x1DD DUP2 PUSH2 0x1A0 JUMP JUMPDEST DUP5 ADD SWAP2 POP POP SWAP3 SWAP2 POP POP JUMP JUMPDEST PUSH0 PUSH1 0x40 DUP3 ADD SWAP1 POP DUP2 DUP2 SUB PUSH0 DUP4 ADD MSTORE PUSH2 0x200 DUP2 DUP6 PUSH2 0x1B0 JUMP JUMPDEST SWAP1 POP DUP2 DUP2 SUB PUSH1 0x20 DUP4 ADD MSTORE PUSH2 0x214 DUP2 DUP5 PUSH2 0x1B0 JUMP JUMPDEST SWAP1 POP SWAP4 SWAP3 POP POP POP JUMP JUMPDEST PUSH0 PUSH1 0x40 MLOAD SWAP1 POP SWAP1 JUMP JUMPDEST PUSH0 PUSH0 REVERT JUMPDEST PUSH0 PUSH0 REVERT JUMPDEST PUSH0 PUSH0 REVERT JUMPDEST PUSH0 PUSH0 REVERT JUMPDEST PUSH32 0x4E487B7100000000000000000000000000000000000000000000000000000000 PUSH0 MSTORE PUSH1 0x41 PUSH1 0x4 MSTORE PUSH1 0x24 PUSH0 REVERT JUMPDEST PUSH2 0x26C DUP3 PUSH2 0x1A0 JUMP JUMPDEST DUP2 ADD DUP2 DUP2 LT PUSH8 0xFFFFFFFFFFFFFFFF DUP3 GT OR ISZERO PUSH2 0x28B JUMPI PUSH2 0x28A PUSH2 0x236 JUMP JUMPDEST JUMPDEST DUP1 PUSH1 0x40 MSTORE POP POP POP JUMP JUMPDEST PUSH0 PUSH2 0x29D PUSH2 0x21D JUMP JUMPDEST SWAP1 POP PUSH2 0x2A9 DUP3 DUP3 PUSH2 0x263 JUMP JUMPDEST SWAP2 SWAP1 POP JUMP JUMPDEST PUSH0 PUSH8 0xFFFFFFFFFFFFFFFF DUP3 GT ISZERO PUSH2 0x2C8 JUMPI PUSH2 0x2C7 PUSH2 0x236 JUMP JUMPDEST JUMPDEST PUSH2 0x2D1 DUP3 PUSH2 0x1A0 JUMP JUMPDEST SWAP1 POP PUSH1 0x20 DUP2 ADD SWAP1 POP SWAP2 SWAP1 POP JUMP JUMPDEST PUSH0 PUSH2 0x2F0 PUSH2 0x2EB DUP5 PUSH2 0x2AE JUMP JUMPDEST PUSH2 0x294 JUMP JUMPDEST SWAP1 POP DUP3 DUP2 MSTORE PUSH1 0x20 DUP2 ADD DUP5 DUP5 DUP5 ADD GT ISZERO PUSH2 0x30C JUMPI PUSH2 0x30B PUSH2 0x232 JUMP JUMPDEST JUMPDEST PUSH2 0x317 DUP5 DUP3 DUP6 PUSH2 0x192 JUMP JUMPDEST POP SWAP4 SWAP3 POP POP POP JUMP JUMPDEST PUSH0 DUP3 PUSH1 0x1F DUP4 ADD SLT PUSH2 0x333 JUMPI PUSH2 0x332 PUSH2 0x22E JUMP JUMPDEST JUMPDEST DUP2 MLOAD PUSH2 0x343 DUP5 DUP3 PUSH1 0x20 DUP7 ADD PUSH2 0x2DE JUMP JUMPDEST SWAP2 POP POP SWAP3 SWAP2 POP POP JUMP JUMPDEST PUSH0 PUSH1 0x20 DUP3 DUP5 SUB SLT ISZERO PUSH2 0x361 JUMPI PUSH2 0x360 PUSH2 0x226 JUMP JUMPDEST JUMPDEST PUSH0 DUP3 ADD MLOAD PUSH8 0xFFFFFFFFFFFFFFFF DUP2 GT ISZERO PUSH2 0x37E JUMPI PUSH2 0x37D PUSH2 0x22A JUMP JUMPDEST JUMPDEST PUSH2 0x38A DUP5 DUP3 DUP6 ADD PUSH2 0x31F JUMP JUMPDEST SWAP2 POP POP SWAP3 SWAP2 POP POP JUMP INVALID LOG2 PUSH5 0x6970667358 0x22 SLT KECCAK256 PUSH32 0x741DD7CE563116BEAB347B1291795BD92DC18847332C3EBA50D7A716CCF4AC64 PUSH20 0x6F6C634300081E00336080604052348015600E57 PUSH0 PUSH0 REVERT JUMPDEST POP PUSH2 0x14E DUP1 PUSH2 0x1C PUSH0 CODECOPY PUSH0 RETURN INVALID PUSH1 0x80 PUSH1 0x40 MSTORE CALLVALUE DUP1 ISZERO PUSH2 0xF JUMPI PUSH0 PUSH0 REVERT JUMPDEST POP PUSH1 0x4 CALLDATASIZE LT PUSH2 0x29 JUMPI PUSH0 CALLDATALOAD PUSH1 0xE0 SHR DUP1 PUSH4 0xEB3A436F EQ PUSH2 0x2D JUMPI JUMPDEST PUSH0 PUSH0 REVERT JUMPDEST PUSH2 0x35 PUSH2 0x4B JUMP JUMPDEST PUSH1 0x40 MLOAD PUSH2 0x42 SWAP2 SWAP1 PUSH2 0xF8 JUMP JUMPDEST PUSH1 0x40 MLOAD DUP1 SWAP2 SUB SWAP1 RETURN JUMPDEST PUSH1 0x60 PUSH1 0x40 MLOAD DUP1 PUSH1 0x40 ADD PUSH1 0x40 MSTORE DUP1 PUSH1 0x14 DUP2 MSTORE PUSH1 0x20 ADD PUSH32 0x436F6E7472616374204120646970616E6767696C000000000000000000000000 DUP2 MSTORE POP SWAP1 POP SWAP1 JUMP JUMPDEST PUSH0 DUP2 MLOAD SWAP1 POP SWAP2 SWAP1 POP JUMP JUMPDEST PUSH0 DUP3 DUP3 MSTORE PUSH1 0x20 DUP3 ADD SWAP1 POP SWAP3 SWAP2 POP POP JUMP JUMPDEST DUP3 DUP2 DUP4 MCOPY PUSH0 DUP4 DUP4 ADD MSTORE POP POP POP JUMP JUMPDEST PUSH0 PUSH1 0x1F NOT PUSH1 0x1F DUP4 ADD AND SWAP1 POP SWAP2 SWAP1 POP JUMP JUMPDEST PUSH0 PUSH2 0xCA DUP3 PUSH2 0x88 JUMP JUMPDEST PUSH2 0xD4 DUP2 DUP6 PUSH2 0x92 JUMP JUMPDEST SWAP4 POP PUSH2 0xE4 DUP2 DUP6 PUSH1 0x20 DUP7 ADD PUSH2 0xA2 JUMP JUMPDEST PUSH2 0xED DUP2 PUSH2 0xB0 JUMP JUMPDEST DUP5 ADD SWAP2 POP POP SWAP3 SWAP2 POP POP JUMP JUMPDEST PUSH0 PUSH1 0x20 DUP3 ADD SWAP1 POP DUP2 DUP2 SUB PUSH0 DUP4 ADD MSTORE PUSH2 0x110 DUP2 DUP5 PUSH2 0xC0 JUMP JUMPDEST SWAP1 POP SWAP3 SWAP2 POP POP JUMP INVALID LOG2 PUSH5 0x6970667358 0x22 SLT KECCAK256 EXTCODECOPY DIV EXTCALL SWAP10 0xAA 0xF ORIGIN DUP2 0xD9 0xD4 0x28 0xD0 0xD2 0xBE NOT 0x4D BLOCKHASH 0xD6 SWAP13 0xD0 EXTSTATICCALL 0xA5 0xA5 RJUMP 0xA61A SWAP10 0xC8 SWAP8 0xDE 0x2F CHAINID PUSH5 0x736F6C6343 STOP ADDMOD 0x1E STOP CALLER PUSH1 0x80 PUSH1 0x40 MSTORE CALLVALUE DUP1 ISZERO PUSH1 0xE JUMPI PUSH0 PUSH0 REVERT JUMPDEST POP PUSH2 0x14E DUP1 PUSH2 0x1C PUSH0 CODECOPY PUSH0 RETURN INVALID PUSH1 0x80 PUSH1 0x40 MSTORE CALLVALUE DUP1 ISZERO PUSH2 0xF JUMPI PUSH0 PUSH0 REVERT JUMPDEST POP PUSH1 0x4 CALLDATASIZE LT PUSH2 0x29 JUMPI PUSH0 CALLDATALOAD PUSH1 0xE0 SHR DUP1 PUSH4 0xEB3A436F EQ PUSH2 0x2D JUMPI JUMPDEST PUSH0 PUSH0 REVERT JUMPDEST PUSH2 0x35 PUSH2 0x4B JUMP JUMPDEST PUSH1 0x40 MLOAD PUSH2 0x42 SWAP2 SWAP1 PUSH2 0xF8 JUMP JUMPDEST PUSH1 0x40 MLOAD DUP1 SWAP2 SUB SWAP1 RETURN JUMPDEST PUSH1 0x60 PUSH1 0x40 MLOAD DUP1 PUSH1 0x40 ADD PUSH1 0x40 MSTORE DUP1 PUSH1 0x14 DUP2 MSTORE PUSH1 0x20 ADD PUSH32 0x436F6E7472616374204120646970616E6767696C000000000000000000000000 DUP2 MSTORE POP SWAP1 POP SWAP1 JUMP JUMPDEST PUSH0 DUP2 MLOAD SWAP1 POP SWAP2 SWAP1 POP JUMP JUMPDEST PUSH0 DUP3 DUP3 MSTORE PUSH1 0x20 DUP3 ADD SWAP1 POP SWAP3 SWAP2 POP POP JUMP JUMPDEST DUP3 DUP2 DUP4 MCOPY PUSH0 DUP4 DUP4 ADD MSTORE POP POP POP JUMP JUMPDEST PUSH0 PUSH1 0x1F NOT PUSH1 0x1F DUP4 ADD AND SWAP1 POP SWAP2 SWAP1 POP JUMP JUMPDEST PUSH0 PUSH2 0xCA DUP3 PUSH2 0x88 JUMP JUMPDEST PUSH2 0xD4 DUP2 DUP6 PUSH2 0x92 JUMP JUMPDEST SWAP4 POP PUSH2 0xE4 DUP2 DUP6 PUSH1 0x20 DUP7 ADD PUSH2 0xA2 JUMP JUMPDEST PUSH2 0xED DUP2 PUSH2 0xB0 JUMP JUMPDEST DUP5 ADD SWAP2 POP POP SWAP3 SWAP2 POP POP JUMP JUMPDEST PUSH0 PUSH1 0x20 DUP3 ADD SWAP1 POP DUP2 DUP2 SUB PUSH0 DUP4 ADD MSTORE PUSH2 0x110 DUP2 DUP5 PUSH2 0xC0 JUMP JUMPDEST SWAP1 POP SWAP3 SWAP2 POP POP JUMP INVALID LOG2 PUSH5 0x6970667358 0x22 SLT KECCAK256 DUP14 0xAC SDIV CODECOPY PUSH25 0x236077B628A46D1EBDD9790A062B3EDE7F1891FEBF583289D0 0xC2 OR PUSH5 0x736F6C6343 STOP ADDMOD 0x1E STOP CALLER "
				},
				"gasEstimates": {
					"creation": {
						"codeDepositCost": "193800",
						"executionCost": "infinite",
						"totalCost": "infinite"
					},
					"external": {
						"warisan()": "infinite"
					}
				},
				"methodIdentifiers": {
					"warisan()": "85392892"
				}
			},
			"storageLayout": {
				"storage": [
					{
						"astId": 23,
						"contract": "contracts/HierarchyInheritace.sol:caller",
						"label": "contractB",
						"offset": 0,
						"slot": "0",
						"type": "t_contract(B)13"
					},
					{
						"astId": 30,
						"contract": "contracts/HierarchyInheritace.sol:caller",
						"label": "contractC",
						"offset": 0,
						"slot": "1",
						"type": "t_contract(C)16"
					}
				],
				"types": {
					"t_contract(B)13": {
						"encoding": "inplace",
						"label": "contract B",
						"numberOfBytes": "20"
					},
					"t_contract(C)16": {
						"encoding": "inplace",
						"label": "contract C",
						"numberOfBytes": "20"
					}
				}
			},
			"userdoc": {
				"kind": "user",
				"methods": {},
				"version": 1
			}
		}
	}
}