{
	"contracts/ArrayContract.sol": {
		"ArrayContract": {
			"abi": [
				{
					"inputs": [],
					"name": "arrayExample",
					"outputs": [
						{
							"internalType": "uint256[7]",
							"name": "",
							"type": "uint256[7]"
						}
					],
					"stateMutability": "payable",
					"type": "function"
				},
				{
					"inputs": [],
					"name": "arrayLength",
					"outputs": [
						{
							"internalType": "uint256",
							"name": "",
							"type": "uint256"
						}
					],
					"stateMutability": "view",
					"type": "function"
				},
				{
					"inputs": [],
					"name": "dinamisArray",
					"outputs": [
						{
							"internalType": "uint256[]",
							"name": "",
							"type": "uint256[]"
						}
					],
					"stateMutability": "nonpayable",
					"type": "function"
				},
				{
					"inputs": [],
					"name": "getArray",
					"outputs": [
						{
							"internalType": "uint256[5]",
							"name": "",
							"type": "uint256[5]"
						}
					],
					"stateMutability": "pure",
					"type": "function"
				},
				{
					"inputs": [],
					"name": "getArrayIndex",
					"outputs": [
						{
							"internalType": "uint256",
							"name": "",
							"type": "uint256"
						}
					],
					"stateMutability": "pure",
					"type": "function"
				},
				{
					"inputs": [],
					"name": "getArrayState",
					"outputs": [
						{
							"internalType": "uint256",
							"name": "",
							"type": "uint256"
						}
					],
					"stateMutability": "nonpayable",
					"type": "function"
				},
				{
					"inputs": [],
					"name": "popArrayFunc",
					"outputs": [
						{
							"internalType": "uint256[]",
							"name": "",
							"type": "uint256[]"
						}
					],
					"stateMutability": "nonpayable",
					"type": "function"
				},
				{
					"inputs": [],
					"name": "pushArrayFunc",
					"outputs": [
						{
							"internalType": "uint256[]",
							"name": "",
							"type": "uint256[]"
						}
					],
					"stateMutability": "nonpayable",
					"type": "function"
				},
				{
					"inputs": [],
					"name": "tambahArrayFunc",
					"outputs": [
						{
							"internalType": "uint256[]",
							"name": "",
							"type": "uint256[]"
						}
					],
					"stateMutability": "nonpayable",
					"type": "function"
				}
			],
			"devdoc": {
				"kind": "dev",
				"methods": {},
				"version": 1
			},
			"evm": {
				"assembly": "    /* \"contracts/ArrayContract.sol\":65:2072  contract ArrayContract {... */\n  mstore(0x40, 0x80)\n  callvalue\n  dup1\n  iszero\n  tag_1\n  jumpi\n  revert(0x00, 0x00)\ntag_1:\n  pop\n  dataSize(sub_0)\n  dup1\n  dataOffset(sub_0)\n  0x00\n  codecopy\n  0x00\n  return\nstop\n\nsub_0: assembly {\n        /* \"contracts/ArrayContract.sol\":65:2072  contract ArrayContract {... */\n      mstore(0x40, 0x80)\n      jumpi(tag_1, lt(calldatasize, 0x04))\n      shr(0xe0, calldataload(0x00))\n      dup1\n      0x9f5b5e06\n      gt\n      tag_11\n      jumpi\n      dup1\n      0x9f5b5e06\n      eq\n      tag_6\n      jumpi\n      dup1\n      0xbdd23414\n      eq\n      tag_7\n      jumpi\n      dup1\n      0xc22eeb62\n      eq\n      tag_8\n      jumpi\n      dup1\n      0xd504ea1d\n      eq\n      tag_9\n      jumpi\n      dup1\n      0xe554482e\n      eq\n      tag_10\n      jumpi\n      jump(tag_1)\n    tag_11:\n      dup1\n      0x0ef95ecd\n      eq\n      tag_2\n      jumpi\n      dup1\n      0x2fef9248\n      eq\n      tag_3\n      jumpi\n      dup1\n      0x54afdd7c\n      eq\n      tag_4\n      jumpi\n      dup1\n      0x67276cb9\n      eq\n      tag_5\n      jumpi\n    tag_1:\n      revert(0x00, 0x00)\n        /* \"contracts/ArrayContract.sol\":1261:1396  function arrayExample() public payable returns (uint[7] memory) {... */\n    tag_2:\n      tag_12\n      tag_13\n      jump\t// in\n    tag_12:\n      mload(0x40)\n      tag_14\n      swap2\n      swap1\n      tag_15\n      jump\t// in\n    tag_14:\n      mload(0x40)\n      dup1\n      swap2\n      sub\n      swap1\n      return\n        /* \"contracts/ArrayContract.sol\":570:702  function getArrayState() public returns (uint) {... */\n    tag_3:\n      callvalue\n      dup1\n      iszero\n      tag_16\n      jumpi\n      revert(0x00, 0x00)\n    tag_16:\n      pop\n      tag_17\n      tag_18\n      jump\t// in\n    tag_17:\n      mload(0x40)\n      tag_19\n      swap2\n      swap1\n      tag_20\n      jump\t// in\n    tag_19:\n      mload(0x40)\n      dup1\n      swap2\n      sub\n      swap1\n      return\n        /* \"contracts/ArrayContract.sol\":791:935  function dinamisArray() public returns (uint[] memory) {... */\n    tag_4:\n      callvalue\n      dup1\n      iszero\n      tag_21\n      jumpi\n      revert(0x00, 0x00)\n    tag_21:\n      pop\n      tag_22\n      tag_23\n      jump\t// in\n    tag_22:\n      mload(0x40)\n      tag_24\n      swap2\n      swap1\n      tag_25\n      jump\t// in\n    tag_24:\n      mload(0x40)\n      dup1\n      swap2\n      sub\n      swap1\n      return\n        /* \"contracts/ArrayContract.sol\":965:1185  function tambahArrayFunc() public returns (uint[] memory) {... */\n    tag_5:\n      callvalue\n      dup1\n      iszero\n      tag_26\n      jumpi\n      revert(0x00, 0x00)\n    tag_26:\n      pop\n      tag_27\n      tag_28\n      jump\t// in\n    tag_27:\n      mload(0x40)\n      tag_29\n      swap2\n      swap1\n      tag_25\n      jump\t// in\n    tag_29:\n      mload(0x40)\n      dup1\n      swap2\n      sub\n      swap1\n      return\n        /* \"contracts/ArrayContract.sol\":1646:1819  function pushArrayFunc() public returns (uint[] memory) {... */\n    tag_6:\n      callvalue\n      dup1\n      iszero\n      tag_30\n      jumpi\n      revert(0x00, 0x00)\n    tag_30:\n      pop\n      tag_31\n      tag_32\n      jump\t// in\n    tag_31:\n      mload(0x40)\n      tag_33\n      swap2\n      swap1\n      tag_25\n      jump\t// in\n    tag_33:\n      mload(0x40)\n      dup1\n      swap2\n      sub\n      swap1\n      return\n        /* \"contracts/ArrayContract.sol\":348:490  function getArrayIndex() public pure returns (uint) {... */\n    tag_7:\n      callvalue\n      dup1\n      iszero\n      tag_34\n      jumpi\n      revert(0x00, 0x00)\n    tag_34:\n      pop\n      tag_35\n      tag_36\n      jump\t// in\n    tag_35:\n      mload(0x40)\n      tag_37\n      swap2\n      swap1\n      tag_20\n      jump\t// in\n    tag_37:\n      mload(0x40)\n      dup1\n      swap2\n      sub\n      swap1\n      return\n        /* \"contracts/ArrayContract.sol\":1902:2070  function popArrayFunc() public returns (uint[] memory) {... */\n    tag_8:\n      callvalue\n      dup1\n      iszero\n      tag_38\n      jumpi\n      revert(0x00, 0x00)\n    tag_38:\n      pop\n      tag_39\n      tag_40\n      jump\t// in\n    tag_39:\n      mload(0x40)\n      tag_41\n      swap2\n      swap1\n      tag_25\n      jump\t// in\n    tag_41:\n      mload(0x40)\n      dup1\n      swap2\n      sub\n      swap1\n      return\n        /* \"contracts/ArrayContract.sol\":145:289  function getArray() public pure returns (uint[5] memory) {... */\n    tag_9:\n      callvalue\n      dup1\n      iszero\n      tag_42\n      jumpi\n      revert(0x00, 0x00)\n    tag_42:\n      pop\n      tag_43\n      tag_44\n      jump\t// in\n    tag_43:\n      mload(0x40)\n      tag_45\n      swap2\n      swap1\n      tag_46\n      jump\t// in\n    tag_45:\n      mload(0x40)\n      dup1\n      swap2\n      sub\n      swap1\n      return\n        /* \"contracts/ArrayContract.sol\":1445:1551  function arrayLength() public  view returns (uint) {... */\n    tag_10:\n      callvalue\n      dup1\n      iszero\n      tag_47\n      jumpi\n      revert(0x00, 0x00)\n    tag_47:\n      pop\n      tag_48\n      tag_49\n      jump\t// in\n    tag_48:\n      mload(0x40)\n      tag_50\n      swap2\n      swap1\n      tag_20\n      jump\t// in\n    tag_50:\n      mload(0x40)\n      dup1\n      swap2\n      sub\n      swap1\n      return\n        /* \"contracts/ArrayContract.sol\":1261:1396  function arrayExample() public payable returns (uint[7] memory) {... */\n    tag_13:\n        /* \"contracts/ArrayContract.sol\":1309:1323  uint[7] memory */\n      tag_51\n      tag_52\n      jump\t// in\n    tag_51:\n        /* \"contracts/ArrayContract.sol\":1335:1368  data = [10, 20,30, 40, 50, 60,70] */\n      mload(0x40)\n      dup1\n      0xe0\n      add\n      0x40\n      mstore\n      dup1\n        /* \"contracts/ArrayContract.sol\":1343:1345  10 */\n      0x0a\n        /* \"contracts/ArrayContract.sol\":1335:1368  data = [10, 20,30, 40, 50, 60,70] */\n      0xff\n      and\n      dup2\n      mstore\n      0x20\n      add\n        /* \"contracts/ArrayContract.sol\":1347:1349  20 */\n      0x14\n        /* \"contracts/ArrayContract.sol\":1335:1368  data = [10, 20,30, 40, 50, 60,70] */\n      0xff\n      and\n      dup2\n      mstore\n      0x20\n      add\n        /* \"contracts/ArrayContract.sol\":1350:1352  30 */\n      0x1e\n        /* \"contracts/ArrayContract.sol\":1335:1368  data = [10, 20,30, 40, 50, 60,70] */\n      0xff\n      and\n      dup2\n      mstore\n      0x20\n      add\n        /* \"contracts/ArrayContract.sol\":1354:1356  40 */\n      0x28\n        /* \"contracts/ArrayContract.sol\":1335:1368  data = [10, 20,30, 40, 50, 60,70] */\n      0xff\n      and\n      dup2\n      mstore\n      0x20\n      add\n        /* \"contracts/ArrayContract.sol\":1358:1360  50 */\n      0x32\n        /* \"contracts/ArrayContract.sol\":1335:1368  data = [10, 20,30, 40, 50, 60,70] */\n      0xff\n      and\n      dup2\n      mstore\n      0x20\n      add\n        /* \"contracts/ArrayContract.sol\":1362:1364  60 */\n      0x3c\n        /* \"contracts/ArrayContract.sol\":1335:1368  data = [10, 20,30, 40, 50, 60,70] */\n      0xff\n      and\n      dup2\n      mstore\n      0x20\n      add\n        /* \"contracts/ArrayContract.sol\":1365:1367  70 */\n      0x46\n        /* \"contracts/ArrayContract.sol\":1335:1368  data = [10, 20,30, 40, 50, 60,70] */\n      0xff\n      and\n      dup2\n      mstore\n      pop\n        /* \"contracts/ArrayContract.sol\":1335:1339  data */\n      0x07\n        /* \"contracts/ArrayContract.sol\":1335:1368  data = [10, 20,30, 40, 50, 60,70] */\n      swap1\n      0x07\n      tag_54\n      swap3\n      swap2\n      swap1\n      tag_55\n      jump\t// in\n    tag_54:\n      pop\n        /* \"contracts/ArrayContract.sol\":1385:1389  data */\n      0x07\n        /* \"contracts/ArrayContract.sol\":1378:1389  return data */\n      dup1\n      dup1\n      0x20\n      mul\n      mload(0x40)\n      swap1\n      dup2\n      add\n      0x40\n      mstore\n      dup1\n      swap3\n      swap2\n      swap1\n      dup3\n      0x07\n      dup1\n      iszero\n      tag_56\n      jumpi\n      0x20\n      mul\n      dup3\n      add\n      swap2\n    tag_57:\n      dup2\n      sload\n      dup2\n      mstore\n      0x20\n      add\n      swap1\n      0x01\n      add\n      swap1\n      dup1\n      dup4\n      gt\n      tag_57\n      jumpi\n    tag_56:\n      pop\n      pop\n      pop\n      pop\n      pop\n      swap1\n      pop\n        /* \"contracts/ArrayContract.sol\":1261:1396  function arrayExample() public payable returns (uint[7] memory) {... */\n      swap1\n      jump\t// out\n        /* \"contracts/ArrayContract.sol\":570:702  function getArrayState() public returns (uint) {... */\n    tag_18:\n        /* \"contracts/ArrayContract.sol\":611:615  uint */\n      0x00\n        /* \"contracts/ArrayContract.sol\":627:666  dataState = [uint(50), 60, 70, 80, 100] */\n      mload(0x40)\n      dup1\n      0xa0\n      add\n      0x40\n      mstore\n      dup1\n        /* \"contracts/ArrayContract.sol\":645:647  50 */\n      0x32\n        /* \"contracts/ArrayContract.sol\":627:666  dataState = [uint(50), 60, 70, 80, 100] */\n      dup2\n      mstore\n      0x20\n      add\n        /* \"contracts/ArrayContract.sol\":650:652  60 */\n      0x3c\n        /* \"contracts/ArrayContract.sol\":627:666  dataState = [uint(50), 60, 70, 80, 100] */\n      dup2\n      mstore\n      0x20\n      add\n        /* \"contracts/ArrayContract.sol\":654:656  70 */\n      0x46\n        /* \"contracts/ArrayContract.sol\":627:666  dataState = [uint(50), 60, 70, 80, 100] */\n      dup2\n      mstore\n      0x20\n      add\n        /* \"contracts/ArrayContract.sol\":658:660  80 */\n      0x50\n        /* \"contracts/ArrayContract.sol\":627:666  dataState = [uint(50), 60, 70, 80, 100] */\n      dup2\n      mstore\n      0x20\n      add\n        /* \"contracts/ArrayContract.sol\":662:665  100 */\n      0x64\n        /* \"contracts/ArrayContract.sol\":627:666  dataState = [uint(50), 60, 70, 80, 100] */\n      dup2\n      mstore\n      pop\n        /* \"contracts/ArrayContract.sol\":627:636  dataState */\n      0x00\n        /* \"contracts/ArrayContract.sol\":627:666  dataState = [uint(50), 60, 70, 80, 100] */\n      swap1\n      0x05\n      tag_59\n      swap3\n      swap2\n      swap1\n      tag_60\n      jump\t// in\n    tag_59:\n      pop\n        /* \"contracts/ArrayContract.sol\":683:692  dataState */\n      0x00\n        /* \"contracts/ArrayContract.sol\":693:694  1 */\n      0x01\n        /* \"contracts/ArrayContract.sol\":683:695  dataState[1] */\n      0x05\n      dup2\n      lt\n      tag_61\n      jumpi\n      tag_62\n      tag_63\n      jump\t// in\n    tag_62:\n    tag_61:\n      add\n      sload\n        /* \"contracts/ArrayContract.sol\":676:695  return dataState[1] */\n      swap1\n      pop\n        /* \"contracts/ArrayContract.sol\":570:702  function getArrayState() public returns (uint) {... */\n      swap1\n      jump\t// out\n        /* \"contracts/ArrayContract.sol\":791:935  function dinamisArray() public returns (uint[] memory) {... */\n    tag_23:\n        /* \"contracts/ArrayContract.sol\":831:844  uint[] memory */\n      0x60\n        /* \"contracts/ArrayContract.sol\":856:890  dinamisArrayInline = [10,20,30,50] */\n      mload(0x40)\n      dup1\n      0x80\n      add\n      0x40\n      mstore\n      dup1\n        /* \"contracts/ArrayContract.sol\":878:880  10 */\n      0x0a\n        /* \"contracts/ArrayContract.sol\":856:890  dinamisArrayInline = [10,20,30,50] */\n      0xff\n      and\n      dup2\n      mstore\n      0x20\n      add\n        /* \"contracts/ArrayContract.sol\":881:883  20 */\n      0x14\n        /* \"contracts/ArrayContract.sol\":856:890  dinamisArrayInline = [10,20,30,50] */\n      0xff\n      and\n      dup2\n      mstore\n      0x20\n      add\n        /* \"contracts/ArrayContract.sol\":884:886  30 */\n      0x1e\n        /* \"contracts/ArrayContract.sol\":856:890  dinamisArrayInline = [10,20,30,50] */\n      0xff\n      and\n      dup2\n      mstore\n      0x20\n      add\n        /* \"contracts/ArrayContract.sol\":887:889  50 */\n      0x32\n        /* \"contracts/ArrayContract.sol\":856:890  dinamisArrayInline = [10,20,30,50] */\n      0xff\n      and\n      dup2\n      mstore\n      pop\n        /* \"contracts/ArrayContract.sol\":856:874  dinamisArrayInline */\n      0x05\n        /* \"contracts/ArrayContract.sol\":856:890  dinamisArrayInline = [10,20,30,50] */\n      swap1\n      0x04\n      tag_66\n      swap3\n      swap2\n      swap1\n      tag_67\n      jump\t// in\n    tag_66:\n      pop\n        /* \"contracts/ArrayContract.sol\":908:926  dinamisArrayInline */\n      0x05\n        /* \"contracts/ArrayContract.sol\":900:926  return  dinamisArrayInline */\n      dup1\n      sload\n      dup1\n      0x20\n      mul\n      0x20\n      add\n      mload(0x40)\n      swap1\n      dup2\n      add\n      0x40\n      mstore\n      dup1\n      swap3\n      swap2\n      swap1\n      dup2\n      dup2\n      mstore\n      0x20\n      add\n      dup3\n      dup1\n      sload\n      dup1\n      iszero\n      tag_68\n      jumpi\n      0x20\n      mul\n      dup3\n      add\n      swap2\n      swap1\n      0x00\n      mstore\n      keccak256(0x00, 0x20)\n      swap1\n    tag_69:\n      dup2\n      sload\n      dup2\n      mstore\n      0x20\n      add\n      swap1\n      0x01\n      add\n      swap1\n      dup1\n      dup4\n      gt\n      tag_69\n      jumpi\n    tag_68:\n      pop\n      pop\n      pop\n      pop\n      pop\n      swap1\n      pop\n        /* \"contracts/ArrayContract.sol\":791:935  function dinamisArray() public returns (uint[] memory) {... */\n      swap1\n      jump\t// out\n        /* \"contracts/ArrayContract.sol\":965:1185  function tambahArrayFunc() public returns (uint[] memory) {... */\n    tag_28:\n        /* \"contracts/ArrayContract.sol\":1008:1021  uint[] memory */\n      0x60\n        /* \"contracts/ArrayContract.sol\":1058:1059  3 */\n      0x03\n        /* \"contracts/ArrayContract.sol\":1047:1060  new uint[](3) */\n      0xffffffffffffffff\n      dup2\n      gt\n      iszero\n      tag_71\n      jumpi\n      tag_72\n      tag_73\n      jump\t// in\n    tag_72:\n    tag_71:\n      mload(0x40)\n      swap1\n      dup1\n      dup3\n      mstore\n      dup1\n      0x20\n      mul\n      0x20\n      add\n      dup3\n      add\n      0x40\n      mstore\n      dup1\n      iszero\n      tag_74\n      jumpi\n      dup2\n      0x20\n      add\n      0x20\n      dup3\n      mul\n      dup1\n      calldatasize\n      dup4\n      calldatacopy\n      dup1\n      dup3\n      add\n      swap2\n      pop\n      pop\n      swap1\n      pop\n    tag_74:\n      pop\n        /* \"contracts/ArrayContract.sol\":1033:1044  tambahArray */\n      0x06\n        /* \"contracts/ArrayContract.sol\":1033:1060  tambahArray = new uint[](3) */\n      swap1\n      dup1\n      mload\n      swap1\n      0x20\n      add\n      swap1\n      tag_75\n      swap3\n      swap2\n      swap1\n      tag_76\n      jump\t// in\n    tag_75:\n      pop\n        /* \"contracts/ArrayContract.sol\":1087:1089  10 */\n      0x0a\n        /* \"contracts/ArrayContract.sol\":1070:1081  tambahArray */\n      0x06\n        /* \"contracts/ArrayContract.sol\":1082:1083  0 */\n      0x00\n        /* \"contracts/ArrayContract.sol\":1070:1084  tambahArray[0] */\n      dup2\n      sload\n      dup2\n      lt\n      tag_77\n      jumpi\n      tag_78\n      tag_63\n      jump\t// in\n    tag_78:\n    tag_77:\n      swap1\n      0x00\n      mstore\n      keccak256(0x00, 0x20)\n      add\n        /* \"contracts/ArrayContract.sol\":1070:1089  tambahArray[0] = 10 */\n      dup2\n      swap1\n      sstore\n      pop\n        /* \"contracts/ArrayContract.sol\":1116:1118  20 */\n      0x14\n        /* \"contracts/ArrayContract.sol\":1099:1110  tambahArray */\n      0x06\n        /* \"contracts/ArrayContract.sol\":1111:1112  1 */\n      0x01\n        /* \"contracts/ArrayContract.sol\":1099:1113  tambahArray[1] */\n      dup2\n      sload\n      dup2\n      lt\n      tag_80\n      jumpi\n      tag_81\n      tag_63\n      jump\t// in\n    tag_81:\n    tag_80:\n      swap1\n      0x00\n      mstore\n      keccak256(0x00, 0x20)\n      add\n        /* \"contracts/ArrayContract.sol\":1099:1118  tambahArray[1] = 20 */\n      dup2\n      swap1\n      sstore\n      pop\n        /* \"contracts/ArrayContract.sol\":1145:1147  30 */\n      0x1e\n        /* \"contracts/ArrayContract.sol\":1128:1139  tambahArray */\n      0x06\n        /* \"contracts/ArrayContract.sol\":1140:1141  2 */\n      0x02\n        /* \"contracts/ArrayContract.sol\":1128:1142  tambahArray[2] */\n      dup2\n      sload\n      dup2\n      lt\n      tag_83\n      jumpi\n      tag_84\n      tag_63\n      jump\t// in\n    tag_84:\n    tag_83:\n      swap1\n      0x00\n      mstore\n      keccak256(0x00, 0x20)\n      add\n        /* \"contracts/ArrayContract.sol\":1128:1147  tambahArray[2] = 30 */\n      dup2\n      swap1\n      sstore\n      pop\n        /* \"contracts/ArrayContract.sol\":1166:1177  tambahArray */\n      0x06\n        /* \"contracts/ArrayContract.sol\":1158:1178  return (tambahArray) */\n      dup1\n      sload\n      dup1\n      0x20\n      mul\n      0x20\n      add\n      mload(0x40)\n      swap1\n      dup2\n      add\n      0x40\n      mstore\n      dup1\n      swap3\n      swap2\n      swap1\n      dup2\n      dup2\n      mstore\n      0x20\n      add\n      dup3\n      dup1\n      sload\n      dup1\n      iszero\n      tag_86\n      jumpi\n      0x20\n      mul\n      dup3\n      add\n      swap2\n      swap1\n      0x00\n      mstore\n      keccak256(0x00, 0x20)\n      swap1\n    tag_87:\n      dup2\n      sload\n      dup2\n      mstore\n      0x20\n      add\n      swap1\n      0x01\n      add\n      swap1\n      dup1\n      dup4\n      gt\n      tag_87\n      jumpi\n    tag_86:\n      pop\n      pop\n      pop\n      pop\n      pop\n      swap1\n      pop\n        /* \"contracts/ArrayContract.sol\":965:1185  function tambahArrayFunc() public returns (uint[] memory) {... */\n      swap1\n      jump\t// out\n        /* \"contracts/ArrayContract.sol\":1646:1819  function pushArrayFunc() public returns (uint[] memory) {... */\n    tag_32:\n        /* \"contracts/ArrayContract.sol\":1687:1700  uint[] memory */\n      0x60\n        /* \"contracts/ArrayContract.sol\":1712:1731  pushArray = [1,2,3] */\n      mload(0x40)\n      dup1\n      0x60\n      add\n      0x40\n      mstore\n      dup1\n        /* \"contracts/ArrayContract.sol\":1725:1726  1 */\n      0x01\n        /* \"contracts/ArrayContract.sol\":1712:1731  pushArray = [1,2,3] */\n      0xff\n      and\n      dup2\n      mstore\n      0x20\n      add\n        /* \"contracts/ArrayContract.sol\":1727:1728  2 */\n      0x02\n        /* \"contracts/ArrayContract.sol\":1712:1731  pushArray = [1,2,3] */\n      0xff\n      and\n      dup2\n      mstore\n      0x20\n      add\n        /* \"contracts/ArrayContract.sol\":1729:1730  3 */\n      0x03\n        /* \"contracts/ArrayContract.sol\":1712:1731  pushArray = [1,2,3] */\n      0xff\n      and\n      dup2\n      mstore\n      pop\n        /* \"contracts/ArrayContract.sol\":1712:1721  pushArray */\n      0x0e\n        /* \"contracts/ArrayContract.sol\":1712:1731  pushArray = [1,2,3] */\n      swap1\n      0x03\n      tag_89\n      swap3\n      swap2\n      swap1\n      tag_90\n      jump\t// in\n    tag_89:\n      pop\n        /* \"contracts/ArrayContract.sol\":1741:1750  pushArray */\n      0x0e\n        /* \"contracts/ArrayContract.sol\":1756:1757  4 */\n      0x04\n        /* \"contracts/ArrayContract.sol\":1741:1758  pushArray.push(4) */\n      swap1\n      dup1\n      0x01\n      dup2\n      sload\n      add\n      dup1\n      dup3\n      sstore\n      dup1\n      swap2\n      pop\n      pop\n      0x01\n      swap1\n      sub\n      swap1\n      0x00\n      mstore\n      keccak256(0x00, 0x20)\n      add\n      0x00\n      swap1\n      swap2\n      swap1\n      swap2\n      swap1\n      swap2\n      pop\n      sstore\n        /* \"contracts/ArrayContract.sol\":1768:1777  pushArray */\n      0x0e\n        /* \"contracts/ArrayContract.sol\":1783:1784  5 */\n      0x05\n        /* \"contracts/ArrayContract.sol\":1768:1785  pushArray.push(5) */\n      swap1\n      dup1\n      0x01\n      dup2\n      sload\n      add\n      dup1\n      dup3\n      sstore\n      dup1\n      swap2\n      pop\n      pop\n      0x01\n      swap1\n      sub\n      swap1\n      0x00\n      mstore\n      keccak256(0x00, 0x20)\n      add\n      0x00\n      swap1\n      swap2\n      swap1\n      swap2\n      swap1\n      swap2\n      pop\n      sstore\n        /* \"contracts/ArrayContract.sol\":1803:1812  pushArray */\n      0x0e\n        /* \"contracts/ArrayContract.sol\":1796:1812  return pushArray */\n      dup1\n      sload\n      dup1\n      0x20\n      mul\n      0x20\n      add\n      mload(0x40)\n      swap1\n      dup2\n      add\n      0x40\n      mstore\n      dup1\n      swap3\n      swap2\n      swap1\n      dup2\n      dup2\n      mstore\n      0x20\n      add\n      dup3\n      dup1\n      sload\n      dup1\n      iszero\n      tag_93\n      jumpi\n      0x20\n      mul\n      dup3\n      add\n      swap2\n      swap1\n      0x00\n      mstore\n      keccak256(0x00, 0x20)\n      swap1\n    tag_94:\n      dup2\n      sload\n      dup2\n      mstore\n      0x20\n      add\n      swap1\n      0x01\n      add\n      swap1\n      dup1\n      dup4\n      gt\n      tag_94\n      jumpi\n    tag_93:\n      pop\n      pop\n      pop\n      pop\n      pop\n      swap1\n      pop\n        /* \"contracts/ArrayContract.sol\":1646:1819  function pushArrayFunc() public returns (uint[] memory) {... */\n      swap1\n      jump\t// out\n        /* \"contracts/ArrayContract.sol\":348:490  function getArrayIndex() public pure returns (uint) {... */\n    tag_36:\n        /* \"contracts/ArrayContract.sol\":394:398  uint */\n      0x00\n        /* \"contracts/ArrayContract.sol\":410:429  uint[5] memory data */\n      0x00\n        /* \"contracts/ArrayContract.sol\":410:459  uint[5] memory data = [uint(50), 60, 70, 80, 100] */\n      mload(0x40)\n      dup1\n      0xa0\n      add\n      0x40\n      mstore\n      dup1\n        /* \"contracts/ArrayContract.sol\":438:440  50 */\n      0x32\n        /* \"contracts/ArrayContract.sol\":410:459  uint[5] memory data = [uint(50), 60, 70, 80, 100] */\n      dup2\n      mstore\n      0x20\n      add\n        /* \"contracts/ArrayContract.sol\":443:445  60 */\n      0x3c\n        /* \"contracts/ArrayContract.sol\":410:459  uint[5] memory data = [uint(50), 60, 70, 80, 100] */\n      dup2\n      mstore\n      0x20\n      add\n        /* \"contracts/ArrayContract.sol\":447:449  70 */\n      0x46\n        /* \"contracts/ArrayContract.sol\":410:459  uint[5] memory data = [uint(50), 60, 70, 80, 100] */\n      dup2\n      mstore\n      0x20\n      add\n        /* \"contracts/ArrayContract.sol\":451:453  80 */\n      0x50\n        /* \"contracts/ArrayContract.sol\":410:459  uint[5] memory data = [uint(50), 60, 70, 80, 100] */\n      dup2\n      mstore\n      0x20\n      add\n        /* \"contracts/ArrayContract.sol\":455:458  100 */\n      0x64\n        /* \"contracts/ArrayContract.sol\":410:459  uint[5] memory data = [uint(50), 60, 70, 80, 100] */\n      dup2\n      mstore\n      pop\n      swap1\n      pop\n        /* \"contracts/ArrayContract.sol\":476:480  data */\n      dup1\n        /* \"contracts/ArrayContract.sol\":481:482  1 */\n      0x01\n        /* \"contracts/ArrayContract.sol\":476:483  data[1] */\n      0x05\n      dup2\n      lt\n      tag_96\n      jumpi\n      tag_97\n      tag_63\n      jump\t// in\n    tag_97:\n    tag_96:\n      0x20\n      mul\n      add\n      mload\n        /* \"contracts/ArrayContract.sol\":469:483  return data[1] */\n      swap2\n      pop\n      pop\n        /* \"contracts/ArrayContract.sol\":348:490  function getArrayIndex() public pure returns (uint) {... */\n      swap1\n      jump\t// out\n        /* \"contracts/ArrayContract.sol\":1902:2070  function popArrayFunc() public returns (uint[] memory) {... */\n    tag_40:\n        /* \"contracts/ArrayContract.sol\":1942:1955  uint[] memory */\n      0x60\n        /* \"contracts/ArrayContract.sol\":1967:1989  popArray = [1,2,3,4,5] */\n      mload(0x40)\n      dup1\n      0xa0\n      add\n      0x40\n      mstore\n      dup1\n        /* \"contracts/ArrayContract.sol\":1979:1980  1 */\n      0x01\n        /* \"contracts/ArrayContract.sol\":1967:1989  popArray = [1,2,3,4,5] */\n      0xff\n      and\n      dup2\n      mstore\n      0x20\n      add\n        /* \"contracts/ArrayContract.sol\":1981:1982  2 */\n      0x02\n        /* \"contracts/ArrayContract.sol\":1967:1989  popArray = [1,2,3,4,5] */\n      0xff\n      and\n      dup2\n      mstore\n      0x20\n      add\n        /* \"contracts/ArrayContract.sol\":1983:1984  3 */\n      0x03\n        /* \"contracts/ArrayContract.sol\":1967:1989  popArray = [1,2,3,4,5] */\n      0xff\n      and\n      dup2\n      mstore\n      0x20\n      add\n        /* \"contracts/ArrayContract.sol\":1985:1986  4 */\n      0x04\n        /* \"contracts/ArrayContract.sol\":1967:1989  popArray = [1,2,3,4,5] */\n      0xff\n      and\n      dup2\n      mstore\n      0x20\n      add\n        /* \"contracts/ArrayContract.sol\":1987:1988  5 */\n      0x05\n        /* \"contracts/ArrayContract.sol\":1967:1989  popArray = [1,2,3,4,5] */\n      0xff\n      and\n      dup2\n      mstore\n      pop\n        /* \"contracts/ArrayContract.sol\":1967:1975  popArray */\n      0x0f\n        /* \"contracts/ArrayContract.sol\":1967:1989  popArray = [1,2,3,4,5] */\n      swap1\n      0x05\n      tag_99\n      swap3\n      swap2\n      swap1\n      tag_100\n      jump\t// in\n    tag_99:\n      pop\n        /* \"contracts/ArrayContract.sol\":1999:2007  popArray */\n      0x0f\n        /* \"contracts/ArrayContract.sol\":1999:2013  popArray.pop() */\n      dup1\n      sload\n      dup1\n      tag_101\n      jumpi\n      tag_102\n      tag_103\n      jump\t// in\n    tag_102:\n    tag_101:\n      0x01\n      swap1\n      sub\n      dup2\n      dup2\n      swap1\n      0x00\n      mstore\n      keccak256(0x00, 0x20)\n      add\n      0x00\n      swap1\n      sstore\n      swap1\n      sstore\n        /* \"contracts/ArrayContract.sol\":2023:2031  popArray */\n      0x0f\n        /* \"contracts/ArrayContract.sol\":2023:2037  popArray.pop() */\n      dup1\n      sload\n      dup1\n      tag_105\n      jumpi\n      tag_106\n      tag_103\n      jump\t// in\n    tag_106:\n    tag_105:\n      0x01\n      swap1\n      sub\n      dup2\n      dup2\n      swap1\n      0x00\n      mstore\n      keccak256(0x00, 0x20)\n      add\n      0x00\n      swap1\n      sstore\n      swap1\n      sstore\n        /* \"contracts/ArrayContract.sol\":2055:2063  popArray */\n      0x0f\n        /* \"contracts/ArrayContract.sol\":2048:2063  return popArray */\n      dup1\n      sload\n      dup1\n      0x20\n      mul\n      0x20\n      add\n      mload(0x40)\n      swap1\n      dup2\n      add\n      0x40\n      mstore\n      dup1\n      swap3\n      swap2\n      swap1\n      dup2\n      dup2\n      mstore\n      0x20\n      add\n      dup3\n      dup1\n      sload\n      dup1\n      iszero\n      tag_108\n      jumpi\n      0x20\n      mul\n      dup3\n      add\n      swap2\n      swap1\n      0x00\n      mstore\n      keccak256(0x00, 0x20)\n      swap1\n    tag_109:\n      dup2\n      sload\n      dup2\n      mstore\n      0x20\n      add\n      swap1\n      0x01\n      add\n      swap1\n      dup1\n      dup4\n      gt\n      tag_109\n      jumpi\n    tag_108:\n      pop\n      pop\n      pop\n      pop\n      pop\n      swap1\n      pop\n        /* \"contracts/ArrayContract.sol\":1902:2070  function popArrayFunc() public returns (uint[] memory) {... */\n      swap1\n      jump\t// out\n        /* \"contracts/ArrayContract.sol\":145:289  function getArray() public pure returns (uint[5] memory) {... */\n    tag_44:\n        /* \"contracts/ArrayContract.sol\":186:200  uint[5] memory */\n      tag_110\n      tag_111\n      jump\t// in\n    tag_110:\n        /* \"contracts/ArrayContract.sol\":212:231  uint[5] memory data */\n      0x00\n        /* \"contracts/ArrayContract.sol\":212:261  uint[5] memory data = [uint(50), 60, 70, 80, 100] */\n      mload(0x40)\n      dup1\n      0xa0\n      add\n      0x40\n      mstore\n      dup1\n        /* \"contracts/ArrayContract.sol\":240:242  50 */\n      0x32\n        /* \"contracts/ArrayContract.sol\":212:261  uint[5] memory data = [uint(50), 60, 70, 80, 100] */\n      dup2\n      mstore\n      0x20\n      add\n        /* \"contracts/ArrayContract.sol\":245:247  60 */\n      0x3c\n        /* \"contracts/ArrayContract.sol\":212:261  uint[5] memory data = [uint(50), 60, 70, 80, 100] */\n      dup2\n      mstore\n      0x20\n      add\n        /* \"contracts/ArrayContract.sol\":249:251  70 */\n      0x46\n        /* \"contracts/ArrayContract.sol\":212:261  uint[5] memory data = [uint(50), 60, 70, 80, 100] */\n      dup2\n      mstore\n      0x20\n      add\n        /* \"contracts/ArrayContract.sol\":253:255  80 */\n      0x50\n        /* \"contracts/ArrayContract.sol\":212:261  uint[5] memory data = [uint(50), 60, 70, 80, 100] */\n      dup2\n      mstore\n      0x20\n      add\n        /* \"contracts/ArrayContract.sol\":257:260  100 */\n      0x64\n        /* \"contracts/ArrayContract.sol\":212:261  uint[5] memory data = [uint(50), 60, 70, 80, 100] */\n      dup2\n      mstore\n      pop\n      swap1\n      pop\n        /* \"contracts/ArrayContract.sol\":278:282  data */\n      dup1\n        /* \"contracts/ArrayContract.sol\":271:282  return data */\n      swap2\n      pop\n      pop\n        /* \"contracts/ArrayContract.sol\":145:289  function getArray() public pure returns (uint[5] memory) {... */\n      swap1\n      jump\t// out\n        /* \"contracts/ArrayContract.sol\":1445:1551  function arrayLength() public  view returns (uint) {... */\n    tag_49:\n        /* \"contracts/ArrayContract.sol\":1490:1494  uint */\n      0x00\n        /* \"contracts/ArrayContract.sol\":1506:1512  uint x */\n      0x00\n        /* \"contracts/ArrayContract.sol\":1515:1526  data.length */\n      0x07\n        /* \"contracts/ArrayContract.sol\":1506:1526  uint x = data.length */\n      swap1\n      pop\n        /* \"contracts/ArrayContract.sol\":1543:1544  x */\n      dup1\n        /* \"contracts/ArrayContract.sol\":1536:1544  return x */\n      swap2\n      pop\n      pop\n        /* \"contracts/ArrayContract.sol\":1445:1551  function arrayLength() public  view returns (uint) {... */\n      swap1\n      jump\t// out\n    tag_52:\n      mload(0x40)\n      dup1\n      0xe0\n      add\n      0x40\n      mstore\n      dup1\n      0x07\n      swap1\n      0x20\n      dup3\n      mul\n      dup1\n      calldatasize\n      dup4\n      calldatacopy\n      dup1\n      dup3\n      add\n      swap2\n      pop\n      pop\n      swap1\n      pop\n      pop\n      swap1\n      jump\t// out\n    tag_55:\n      dup3\n      0x07\n      dup2\n      add\n      swap3\n      dup3\n      iszero\n      tag_114\n      jumpi\n      swap2\n      0x20\n      mul\n      dup3\n      add\n    tag_115:\n      dup3\n      dup2\n      gt\n      iszero\n      tag_116\n      jumpi\n      dup3\n      mload\n      dup3\n      swap1\n      0xff\n      and\n      swap1\n      sstore\n      swap2\n      0x20\n      add\n      swap2\n      swap1\n      0x01\n      add\n      swap1\n      jump(tag_115)\n    tag_116:\n    tag_114:\n      pop\n      swap1\n      pop\n      tag_117\n      swap2\n      swap1\n      tag_118\n      jump\t// in\n    tag_117:\n      pop\n      swap1\n      jump\t// out\n    tag_60:\n      dup3\n      0x05\n      dup2\n      add\n      swap3\n      dup3\n      iszero\n      tag_119\n      jumpi\n      swap2\n      0x20\n      mul\n      dup3\n      add\n    tag_120:\n      dup3\n      dup2\n      gt\n      iszero\n      tag_121\n      jumpi\n      dup3\n      mload\n      dup3\n      sstore\n      swap2\n      0x20\n      add\n      swap2\n      swap1\n      0x01\n      add\n      swap1\n      jump(tag_120)\n    tag_121:\n    tag_119:\n      pop\n      swap1\n      pop\n      tag_122\n      swap2\n      swap1\n      tag_118\n      jump\t// in\n    tag_122:\n      pop\n      swap1\n      jump\t// out\n    tag_67:\n      dup3\n      dup1\n      sload\n      dup3\n      dup3\n      sstore\n      swap1\n      0x00\n      mstore\n      keccak256(0x00, 0x20)\n      swap1\n      dup2\n      add\n      swap3\n      dup3\n      iszero\n      tag_123\n      jumpi\n      swap2\n      0x20\n      mul\n      dup3\n      add\n    tag_124:\n      dup3\n      dup2\n      gt\n      iszero\n      tag_125\n      jumpi\n      dup3\n      mload\n      dup3\n      swap1\n      0xff\n      and\n      swap1\n      sstore\n      swap2\n      0x20\n      add\n      swap2\n      swap1\n      0x01\n      add\n      swap1\n      jump(tag_124)\n    tag_125:\n    tag_123:\n      pop\n      swap1\n      pop\n      tag_126\n      swap2\n      swap1\n      tag_118\n      jump\t// in\n    tag_126:\n      pop\n      swap1\n      jump\t// out\n    tag_76:\n      dup3\n      dup1\n      sload\n      dup3\n      dup3\n      sstore\n      swap1\n      0x00\n      mstore\n      keccak256(0x00, 0x20)\n      swap1\n      dup2\n      add\n      swap3\n      dup3\n      iszero\n      tag_127\n      jumpi\n      swap2\n      0x20\n      mul\n      dup3\n      add\n    tag_128:\n      dup3\n      dup2\n      gt\n      iszero\n      tag_129\n      jumpi\n      dup3\n      mload\n      dup3\n      sstore\n      swap2\n      0x20\n      add\n      swap2\n      swap1\n      0x01\n      add\n      swap1\n      jump(tag_128)\n    tag_129:\n    tag_127:\n      pop\n      swap1\n      pop\n      tag_130\n      swap2\n      swap1\n      tag_118\n      jump\t// in\n    tag_130:\n      pop\n      swap1\n      jump\t// out\n    tag_90:\n      dup3\n      dup1\n      sload\n      dup3\n      dup3\n      sstore\n      swap1\n      0x00\n      mstore\n      keccak256(0x00, 0x20)\n      swap1\n      dup2\n      add\n      swap3\n      dup3\n      iszero\n      tag_131\n      jumpi\n      swap2\n      0x20\n      mul\n      dup3\n      add\n    tag_132:\n      dup3\n      dup2\n      gt\n      iszero\n      tag_133\n      jumpi\n      dup3\n      mload\n      dup3\n      swap1\n      0xff\n      and\n      swap1\n      sstore\n      swap2\n      0x20\n      add\n      swap2\n      swap1\n      0x01\n      add\n      swap1\n      jump(tag_132)\n    tag_133:\n    tag_131:\n      pop\n      swap1\n      pop\n      tag_134\n      swap2\n      swap1\n      tag_118\n      jump\t// in\n    tag_134:\n      pop\n      swap1\n      jump\t// out\n    tag_100:\n      dup3\n      dup1\n      sload\n      dup3\n      dup3\n      sstore\n      swap1\n      0x00\n      mstore\n      keccak256(0x00, 0x20)\n      swap1\n      dup2\n      add\n      swap3\n      dup3\n      iszero\n      tag_135\n      jumpi\n      swap2\n      0x20\n      mul\n      dup3\n      add\n    tag_136:\n      dup3\n      dup2\n      gt\n      iszero\n      tag_137\n      jumpi\n      dup3\n      mload\n      dup3\n      swap1\n      0xff\n      and\n      swap1\n      sstore\n      swap2\n      0x20\n      add\n      swap2\n      swap1\n      0x01\n      add\n      swap1\n      jump(tag_136)\n    tag_137:\n    tag_135:\n      pop\n      swap1\n      pop\n      tag_138\n      swap2\n      swap1\n      tag_118\n      jump\t// in\n    tag_138:\n      pop\n      swap1\n      jump\t// out\n    tag_111:\n      mload(0x40)\n      dup1\n      0xa0\n      add\n      0x40\n      mstore\n      dup1\n      0x05\n      swap1\n      0x20\n      dup3\n      mul\n      dup1\n      calldatasize\n      dup4\n      calldatacopy\n      dup1\n      dup3\n      add\n      swap2\n      pop\n      pop\n      swap1\n      pop\n      pop\n      swap1\n      jump\t// out\n    tag_118:\n    tag_139:\n      dup1\n      dup3\n      gt\n      iszero\n      tag_140\n      jumpi\n      0x00\n      dup2\n      0x00\n      swap1\n      sstore\n      pop\n      0x01\n      add\n      jump(tag_139)\n    tag_140:\n      pop\n      swap1\n      jump\t// out\n        /* \"#utility.yul\":7:111   */\n    tag_141:\n        /* \"#utility.yul\":72:78   */\n      0x00\n        /* \"#utility.yul\":100:104   */\n      0x07\n        /* \"#utility.yul\":90:104   */\n      swap1\n      pop\n        /* \"#utility.yul\":7:111   */\n      swap2\n      swap1\n      pop\n      jump\t// out\n        /* \"#utility.yul\":117:260   */\n    tag_142:\n        /* \"#utility.yul\":214:225   */\n      0x00\n        /* \"#utility.yul\":251:254   */\n      dup2\n        /* \"#utility.yul\":236:254   */\n      swap1\n      pop\n        /* \"#utility.yul\":117:260   */\n      swap3\n      swap2\n      pop\n      pop\n      jump\t// out\n        /* \"#utility.yul\":266:364   */\n    tag_143:\n        /* \"#utility.yul\":331:335   */\n      0x00\n        /* \"#utility.yul\":354:357   */\n      dup2\n        /* \"#utility.yul\":346:357   */\n      swap1\n      pop\n        /* \"#utility.yul\":266:364   */\n      swap2\n      swap1\n      pop\n      jump\t// out\n        /* \"#utility.yul\":370:447   */\n    tag_144:\n        /* \"#utility.yul\":407:414   */\n      0x00\n        /* \"#utility.yul\":436:441   */\n      dup2\n        /* \"#utility.yul\":425:441   */\n      swap1\n      pop\n        /* \"#utility.yul\":370:447   */\n      swap2\n      swap1\n      pop\n      jump\t// out\n        /* \"#utility.yul\":453:561   */\n    tag_145:\n        /* \"#utility.yul\":530:554   */\n      tag_166\n        /* \"#utility.yul\":548:553   */\n      dup2\n        /* \"#utility.yul\":530:554   */\n      tag_144\n      jump\t// in\n    tag_166:\n        /* \"#utility.yul\":525:528   */\n      dup3\n        /* \"#utility.yul\":518:555   */\n      mstore\n        /* \"#utility.yul\":453:561   */\n      pop\n      pop\n      jump\t// out\n        /* \"#utility.yul\":567:746   */\n    tag_146:\n        /* \"#utility.yul\":636:646   */\n      0x00\n        /* \"#utility.yul\":657:703   */\n      tag_168\n        /* \"#utility.yul\":699:702   */\n      dup4\n        /* \"#utility.yul\":691:697   */\n      dup4\n        /* \"#utility.yul\":657:703   */\n      tag_145\n      jump\t// in\n    tag_168:\n        /* \"#utility.yul\":735:739   */\n      0x20\n        /* \"#utility.yul\":730:733   */\n      dup4\n        /* \"#utility.yul\":726:740   */\n      add\n        /* \"#utility.yul\":712:740   */\n      swap1\n      pop\n        /* \"#utility.yul\":567:746   */\n      swap3\n      swap2\n      pop\n      pop\n      jump\t// out\n        /* \"#utility.yul\":752:863   */\n    tag_147:\n        /* \"#utility.yul\":820:824   */\n      0x00\n        /* \"#utility.yul\":852:856   */\n      0x20\n        /* \"#utility.yul\":847:850   */\n      dup3\n        /* \"#utility.yul\":843:857   */\n      add\n        /* \"#utility.yul\":835:857   */\n      swap1\n      pop\n        /* \"#utility.yul\":752:863   */\n      swap2\n      swap1\n      pop\n      jump\t// out\n        /* \"#utility.yul\":901:1595   */\n    tag_148:\n        /* \"#utility.yul\":1037:1089   */\n      tag_171\n        /* \"#utility.yul\":1083:1088   */\n      dup2\n        /* \"#utility.yul\":1037:1089   */\n      tag_141\n      jump\t// in\n    tag_171:\n        /* \"#utility.yul\":1105:1189   */\n      tag_172\n        /* \"#utility.yul\":1182:1188   */\n      dup2\n        /* \"#utility.yul\":1177:1180   */\n      dup5\n        /* \"#utility.yul\":1105:1189   */\n      tag_142\n      jump\t// in\n    tag_172:\n        /* \"#utility.yul\":1098:1189   */\n      swap3\n      pop\n        /* \"#utility.yul\":1213:1267   */\n      tag_173\n        /* \"#utility.yul\":1261:1266   */\n      dup3\n        /* \"#utility.yul\":1213:1267   */\n      tag_143\n      jump\t// in\n    tag_173:\n        /* \"#utility.yul\":1290:1297   */\n      dup1\n        /* \"#utility.yul\":1321:1322   */\n      0x00\n        /* \"#utility.yul\":1306:1588   */\n    tag_174:\n        /* \"#utility.yul\":1331:1337   */\n      dup4\n        /* \"#utility.yul\":1328:1329   */\n      dup2\n        /* \"#utility.yul\":1325:1338   */\n      lt\n        /* \"#utility.yul\":1306:1588   */\n      iszero\n      tag_176\n      jumpi\n        /* \"#utility.yul\":1407:1413   */\n      dup2\n        /* \"#utility.yul\":1401:1414   */\n      mload\n        /* \"#utility.yul\":1434:1497   */\n      tag_177\n        /* \"#utility.yul\":1493:1496   */\n      dup8\n        /* \"#utility.yul\":1478:1491   */\n      dup3\n        /* \"#utility.yul\":1434:1497   */\n      tag_146\n      jump\t// in\n    tag_177:\n        /* \"#utility.yul\":1427:1497   */\n      swap7\n      pop\n        /* \"#utility.yul\":1520:1578   */\n      tag_178\n        /* \"#utility.yul\":1571:1577   */\n      dup4\n        /* \"#utility.yul\":1520:1578   */\n      tag_147\n      jump\t// in\n    tag_178:\n        /* \"#utility.yul\":1510:1578   */\n      swap3\n      pop\n        /* \"#utility.yul\":1366:1588   */\n      pop\n        /* \"#utility.yul\":1353:1354   */\n      0x01\n        /* \"#utility.yul\":1350:1351   */\n      dup2\n        /* \"#utility.yul\":1346:1355   */\n      add\n        /* \"#utility.yul\":1341:1355   */\n      swap1\n      pop\n        /* \"#utility.yul\":1306:1588   */\n      jump(tag_174)\n    tag_176:\n        /* \"#utility.yul\":1310:1324   */\n      pop\n        /* \"#utility.yul\":1013:1595   */\n      pop\n      pop\n      pop\n        /* \"#utility.yul\":901:1595   */\n      pop\n      pop\n      jump\t// out\n        /* \"#utility.yul\":1601:1916   */\n    tag_15:\n        /* \"#utility.yul\":1740:1744   */\n      0x00\n        /* \"#utility.yul\":1778:1781   */\n      0xe0\n        /* \"#utility.yul\":1767:1776   */\n      dup3\n        /* \"#utility.yul\":1763:1782   */\n      add\n        /* \"#utility.yul\":1755:1782   */\n      swap1\n      pop\n        /* \"#utility.yul\":1792:1909   */\n      tag_180\n        /* \"#utility.yul\":1906:1907   */\n      0x00\n        /* \"#utility.yul\":1895:1904   */\n      dup4\n        /* \"#utility.yul\":1891:1908   */\n      add\n        /* \"#utility.yul\":1882:1888   */\n      dup5\n        /* \"#utility.yul\":1792:1909   */\n      tag_148\n      jump\t// in\n    tag_180:\n        /* \"#utility.yul\":1601:1916   */\n      swap3\n      swap2\n      pop\n      pop\n      jump\t// out\n        /* \"#utility.yul\":1922:2040   */\n    tag_149:\n        /* \"#utility.yul\":2009:2033   */\n      tag_182\n        /* \"#utility.yul\":2027:2032   */\n      dup2\n        /* \"#utility.yul\":2009:2033   */\n      tag_144\n      jump\t// in\n    tag_182:\n        /* \"#utility.yul\":2004:2007   */\n      dup3\n        /* \"#utility.yul\":1997:2034   */\n      mstore\n        /* \"#utility.yul\":1922:2040   */\n      pop\n      pop\n      jump\t// out\n        /* \"#utility.yul\":2046:2268   */\n    tag_20:\n        /* \"#utility.yul\":2139:2143   */\n      0x00\n        /* \"#utility.yul\":2177:2179   */\n      0x20\n        /* \"#utility.yul\":2166:2175   */\n      dup3\n        /* \"#utility.yul\":2162:2180   */\n      add\n        /* \"#utility.yul\":2154:2180   */\n      swap1\n      pop\n        /* \"#utility.yul\":2190:2261   */\n      tag_184\n        /* \"#utility.yul\":2258:2259   */\n      0x00\n        /* \"#utility.yul\":2247:2256   */\n      dup4\n        /* \"#utility.yul\":2243:2260   */\n      add\n        /* \"#utility.yul\":2234:2240   */\n      dup5\n        /* \"#utility.yul\":2190:2261   */\n      tag_149\n      jump\t// in\n    tag_184:\n        /* \"#utility.yul\":2046:2268   */\n      swap3\n      swap2\n      pop\n      pop\n      jump\t// out\n        /* \"#utility.yul\":2274:2388   */\n    tag_150:\n        /* \"#utility.yul\":2341:2347   */\n      0x00\n        /* \"#utility.yul\":2375:2380   */\n      dup2\n        /* \"#utility.yul\":2369:2381   */\n      mload\n        /* \"#utility.yul\":2359:2381   */\n      swap1\n      pop\n        /* \"#utility.yul\":2274:2388   */\n      swap2\n      swap1\n      pop\n      jump\t// out\n        /* \"#utility.yul\":2394:2578   */\n    tag_151:\n        /* \"#utility.yul\":2493:2504   */\n      0x00\n        /* \"#utility.yul\":2527:2533   */\n      dup3\n        /* \"#utility.yul\":2522:2525   */\n      dup3\n        /* \"#utility.yul\":2515:2534   */\n      mstore\n        /* \"#utility.yul\":2567:2571   */\n      0x20\n        /* \"#utility.yul\":2562:2565   */\n      dup3\n        /* \"#utility.yul\":2558:2572   */\n      add\n        /* \"#utility.yul\":2543:2572   */\n      swap1\n      pop\n        /* \"#utility.yul\":2394:2578   */\n      swap3\n      swap2\n      pop\n      pop\n      jump\t// out\n        /* \"#utility.yul\":2584:2716   */\n    tag_152:\n        /* \"#utility.yul\":2651:2655   */\n      0x00\n        /* \"#utility.yul\":2674:2677   */\n      dup2\n        /* \"#utility.yul\":2666:2677   */\n      swap1\n      pop\n        /* \"#utility.yul\":2704:2708   */\n      0x20\n        /* \"#utility.yul\":2699:2702   */\n      dup3\n        /* \"#utility.yul\":2695:2709   */\n      add\n        /* \"#utility.yul\":2687:2709   */\n      swap1\n      pop\n        /* \"#utility.yul\":2584:2716   */\n      swap2\n      swap1\n      pop\n      jump\t// out\n        /* \"#utility.yul\":2722:2835   */\n    tag_153:\n        /* \"#utility.yul\":2792:2796   */\n      0x00\n        /* \"#utility.yul\":2824:2828   */\n      0x20\n        /* \"#utility.yul\":2819:2822   */\n      dup3\n        /* \"#utility.yul\":2815:2829   */\n      add\n        /* \"#utility.yul\":2807:2829   */\n      swap1\n      pop\n        /* \"#utility.yul\":2722:2835   */\n      swap2\n      swap1\n      pop\n      jump\t// out\n        /* \"#utility.yul\":2871:3603   */\n    tag_154:\n        /* \"#utility.yul\":2990:2993   */\n      0x00\n        /* \"#utility.yul\":3019:3073   */\n      tag_190\n        /* \"#utility.yul\":3067:3072   */\n      dup3\n        /* \"#utility.yul\":3019:3073   */\n      tag_150\n      jump\t// in\n    tag_190:\n        /* \"#utility.yul\":3089:3175   */\n      tag_191\n        /* \"#utility.yul\":3168:3174   */\n      dup2\n        /* \"#utility.yul\":3163:3166   */\n      dup6\n        /* \"#utility.yul\":3089:3175   */\n      tag_151\n      jump\t// in\n    tag_191:\n        /* \"#utility.yul\":3082:3175   */\n      swap4\n      pop\n        /* \"#utility.yul\":3199:3255   */\n      tag_192\n        /* \"#utility.yul\":3249:3254   */\n      dup4\n        /* \"#utility.yul\":3199:3255   */\n      tag_152\n      jump\t// in\n    tag_192:\n        /* \"#utility.yul\":3278:3285   */\n      dup1\n        /* \"#utility.yul\":3309:3310   */\n      0x00\n        /* \"#utility.yul\":3294:3578   */\n    tag_193:\n        /* \"#utility.yul\":3319:3325   */\n      dup4\n        /* \"#utility.yul\":3316:3317   */\n      dup2\n        /* \"#utility.yul\":3313:3326   */\n      lt\n        /* \"#utility.yul\":3294:3578   */\n      iszero\n      tag_195\n      jumpi\n        /* \"#utility.yul\":3395:3401   */\n      dup2\n        /* \"#utility.yul\":3389:3402   */\n      mload\n        /* \"#utility.yul\":3422:3485   */\n      tag_196\n        /* \"#utility.yul\":3481:3484   */\n      dup9\n        /* \"#utility.yul\":3466:3479   */\n      dup3\n        /* \"#utility.yul\":3422:3485   */\n      tag_146\n      jump\t// in\n    tag_196:\n        /* \"#utility.yul\":3415:3485   */\n      swap8\n      pop\n        /* \"#utility.yul\":3508:3568   */\n      tag_197\n        /* \"#utility.yul\":3561:3567   */\n      dup4\n        /* \"#utility.yul\":3508:3568   */\n      tag_153\n      jump\t// in\n    tag_197:\n        /* \"#utility.yul\":3498:3568   */\n      swap3\n      pop\n        /* \"#utility.yul\":3354:3578   */\n      pop\n        /* \"#utility.yul\":3341:3342   */\n      0x01\n        /* \"#utility.yul\":3338:3339   */\n      dup2\n        /* \"#utility.yul\":3334:3343   */\n      add\n        /* \"#utility.yul\":3329:3343   */\n      swap1\n      pop\n        /* \"#utility.yul\":3294:3578   */\n      jump(tag_193)\n    tag_195:\n        /* \"#utility.yul\":3298:3312   */\n      pop\n        /* \"#utility.yul\":3594:3597   */\n      dup6\n        /* \"#utility.yul\":3587:3597   */\n      swap4\n      pop\n        /* \"#utility.yul\":2995:3603   */\n      pop\n      pop\n      pop\n        /* \"#utility.yul\":2871:3603   */\n      swap3\n      swap2\n      pop\n      pop\n      jump\t// out\n        /* \"#utility.yul\":3609:3982   */\n    tag_25:\n        /* \"#utility.yul\":3752:3756   */\n      0x00\n        /* \"#utility.yul\":3790:3792   */\n      0x20\n        /* \"#utility.yul\":3779:3788   */\n      dup3\n        /* \"#utility.yul\":3775:3793   */\n      add\n        /* \"#utility.yul\":3767:3793   */\n      swap1\n      pop\n        /* \"#utility.yul\":3839:3848   */\n      dup2\n        /* \"#utility.yul\":3833:3837   */\n      dup2\n        /* \"#utility.yul\":3829:3849   */\n      sub\n        /* \"#utility.yul\":3825:3826   */\n      0x00\n        /* \"#utility.yul\":3814:3823   */\n      dup4\n        /* \"#utility.yul\":3810:3827   */\n      add\n        /* \"#utility.yul\":3803:3850   */\n      mstore\n        /* \"#utility.yul\":3867:3975   */\n      tag_199\n        /* \"#utility.yul\":3970:3974   */\n      dup2\n        /* \"#utility.yul\":3961:3967   */\n      dup5\n        /* \"#utility.yul\":3867:3975   */\n      tag_154\n      jump\t// in\n    tag_199:\n        /* \"#utility.yul\":3859:3975   */\n      swap1\n      pop\n        /* \"#utility.yul\":3609:3982   */\n      swap3\n      swap2\n      pop\n      pop\n      jump\t// out\n        /* \"#utility.yul\":3988:4092   */\n    tag_155:\n        /* \"#utility.yul\":4053:4059   */\n      0x00\n        /* \"#utility.yul\":4081:4085   */\n      0x05\n        /* \"#utility.yul\":4071:4085   */\n      swap1\n      pop\n        /* \"#utility.yul\":3988:4092   */\n      swap2\n      swap1\n      pop\n      jump\t// out\n        /* \"#utility.yul\":4098:4241   */\n    tag_156:\n        /* \"#utility.yul\":4195:4206   */\n      0x00\n        /* \"#utility.yul\":4232:4235   */\n      dup2\n        /* \"#utility.yul\":4217:4235   */\n      swap1\n      pop\n        /* \"#utility.yul\":4098:4241   */\n      swap3\n      swap2\n      pop\n      pop\n      jump\t// out\n        /* \"#utility.yul\":4247:4345   */\n    tag_157:\n        /* \"#utility.yul\":4312:4316   */\n      0x00\n        /* \"#utility.yul\":4335:4338   */\n      dup2\n        /* \"#utility.yul\":4327:4338   */\n      swap1\n      pop\n        /* \"#utility.yul\":4247:4345   */\n      swap2\n      swap1\n      pop\n      jump\t// out\n        /* \"#utility.yul\":4351:4462   */\n    tag_158:\n        /* \"#utility.yul\":4419:4423   */\n      0x00\n        /* \"#utility.yul\":4451:4455   */\n      0x20\n        /* \"#utility.yul\":4446:4449   */\n      dup3\n        /* \"#utility.yul\":4442:4456   */\n      add\n        /* \"#utility.yul\":4434:4456   */\n      swap1\n      pop\n        /* \"#utility.yul\":4351:4462   */\n      swap2\n      swap1\n      pop\n      jump\t// out\n        /* \"#utility.yul\":4500:5194   */\n    tag_159:\n        /* \"#utility.yul\":4636:4688   */\n      tag_205\n        /* \"#utility.yul\":4682:4687   */\n      dup2\n        /* \"#utility.yul\":4636:4688   */\n      tag_155\n      jump\t// in\n    tag_205:\n        /* \"#utility.yul\":4704:4788   */\n      tag_206\n        /* \"#utility.yul\":4781:4787   */\n      dup2\n        /* \"#utility.yul\":4776:4779   */\n      dup5\n        /* \"#utility.yul\":4704:4788   */\n      tag_156\n      jump\t// in\n    tag_206:\n        /* \"#utility.yul\":4697:4788   */\n      swap3\n      pop\n        /* \"#utility.yul\":4812:4866   */\n      tag_207\n        /* \"#utility.yul\":4860:4865   */\n      dup3\n        /* \"#utility.yul\":4812:4866   */\n      tag_157\n      jump\t// in\n    tag_207:\n        /* \"#utility.yul\":4889:4896   */\n      dup1\n        /* \"#utility.yul\":4920:4921   */\n      0x00\n        /* \"#utility.yul\":4905:5187   */\n    tag_208:\n        /* \"#utility.yul\":4930:4936   */\n      dup4\n        /* \"#utility.yul\":4927:4928   */\n      dup2\n        /* \"#utility.yul\":4924:4937   */\n      lt\n        /* \"#utility.yul\":4905:5187   */\n      iszero\n      tag_210\n      jumpi\n        /* \"#utility.yul\":5006:5012   */\n      dup2\n        /* \"#utility.yul\":5000:5013   */\n      mload\n        /* \"#utility.yul\":5033:5096   */\n      tag_211\n        /* \"#utility.yul\":5092:5095   */\n      dup8\n        /* \"#utility.yul\":5077:5090   */\n      dup3\n        /* \"#utility.yul\":5033:5096   */\n      tag_146\n      jump\t// in\n    tag_211:\n        /* \"#utility.yul\":5026:5096   */\n      swap7\n      pop\n        /* \"#utility.yul\":5119:5177   */\n      tag_212\n        /* \"#utility.yul\":5170:5176   */\n      dup4\n        /* \"#utility.yul\":5119:5177   */\n      tag_158\n      jump\t// in\n    tag_212:\n        /* \"#utility.yul\":5109:5177   */\n      swap3\n      pop\n        /* \"#utility.yul\":4965:5187   */\n      pop\n        /* \"#utility.yul\":4952:4953   */\n      0x01\n        /* \"#utility.yul\":4949:4950   */\n      dup2\n        /* \"#utility.yul\":4945:4954   */\n      add\n        /* \"#utility.yul\":4940:4954   */\n      swap1\n      pop\n        /* \"#utility.yul\":4905:5187   */\n      jump(tag_208)\n    tag_210:\n        /* \"#utility.yul\":4909:4923   */\n      pop\n        /* \"#utility.yul\":4612:5194   */\n      pop\n      pop\n      pop\n        /* \"#utility.yul\":4500:5194   */\n      pop\n      pop\n      jump\t// out\n        /* \"#utility.yul\":5200:5515   */\n    tag_46:\n        /* \"#utility.yul\":5339:5343   */\n      0x00\n        /* \"#utility.yul\":5377:5380   */\n      0xa0\n        /* \"#utility.yul\":5366:5375   */\n      dup3\n        /* \"#utility.yul\":5362:5381   */\n      add\n        /* \"#utility.yul\":5354:5381   */\n      swap1\n      pop\n        /* \"#utility.yul\":5391:5508   */\n      tag_214\n        /* \"#utility.yul\":5505:5506   */\n      0x00\n        /* \"#utility.yul\":5494:5503   */\n      dup4\n        /* \"#utility.yul\":5490:5507   */\n      add\n        /* \"#utility.yul\":5481:5487   */\n      dup5\n        /* \"#utility.yul\":5391:5508   */\n      tag_159\n      jump\t// in\n    tag_214:\n        /* \"#utility.yul\":5200:5515   */\n      swap3\n      swap2\n      pop\n      pop\n      jump\t// out\n        /* \"#utility.yul\":5521:5701   */\n    tag_63:\n        /* \"#utility.yul\":5569:5646   */\n      0x4e487b7100000000000000000000000000000000000000000000000000000000\n        /* \"#utility.yul\":5566:5567   */\n      0x00\n        /* \"#utility.yul\":5559:5647   */\n      mstore\n        /* \"#utility.yul\":5666:5670   */\n      0x32\n        /* \"#utility.yul\":5663:5664   */\n      0x04\n        /* \"#utility.yul\":5656:5671   */\n      mstore\n        /* \"#utility.yul\":5690:5694   */\n      0x24\n        /* \"#utility.yul\":5687:5688   */\n      0x00\n        /* \"#utility.yul\":5680:5695   */\n      revert\n        /* \"#utility.yul\":5707:5887   */\n    tag_73:\n        /* \"#utility.yul\":5755:5832   */\n      0x4e487b7100000000000000000000000000000000000000000000000000000000\n        /* \"#utility.yul\":5752:5753   */\n      0x00\n        /* \"#utility.yul\":5745:5833   */\n      mstore\n        /* \"#utility.yul\":5852:5856   */\n      0x41\n        /* \"#utility.yul\":5849:5850   */\n      0x04\n        /* \"#utility.yul\":5842:5857   */\n      mstore\n        /* \"#utility.yul\":5876:5880   */\n      0x24\n        /* \"#utility.yul\":5873:5874   */\n      0x00\n        /* \"#utility.yul\":5866:5881   */\n      revert\n        /* \"#utility.yul\":5893:6073   */\n    tag_103:\n        /* \"#utility.yul\":5941:6018   */\n      0x4e487b7100000000000000000000000000000000000000000000000000000000\n        /* \"#utility.yul\":5938:5939   */\n      0x00\n        /* \"#utility.yul\":5931:6019   */\n      mstore\n        /* \"#utility.yul\":6038:6042   */\n      0x31\n        /* \"#utility.yul\":6035:6036   */\n      0x04\n        /* \"#utility.yul\":6028:6043   */\n      mstore\n        /* \"#utility.yul\":6062:6066   */\n      0x24\n        /* \"#utility.yul\":6059:6060   */\n      0x00\n        /* \"#utility.yul\":6052:6067   */\n      revert\n\n    auxdata: 0xa26469706673582212204aafbb04cf7c7fffd06c7965725e08b18bff9b7bd6bc3e70f16a16fe65c07bb664736f6c634300081e0033\n}\n",
				"bytecode": {
					"linkReferences": {},
					"object": "6080604052348015600e575f5ffd5b50610c258061001c5f395ff3fe608060405260043610610085575f3560e01c80639f5b5e06116100585780639f5b5e0614610125578063bdd234141461014f578063c22eeb6214610179578063d504ea1d146101a3578063e554482e146101cd57610085565b80630ef95ecd146100895780632fef9248146100a757806354afdd7c146100d157806367276cb9146100fb575b5f5ffd5b6100916101f7565b60405161009e91906109de565b60405180910390f35b3480156100b2575f5ffd5b506100bb6102a1565b6040516100c89190610a06565b60405180910390f35b3480156100dc575f5ffd5b506100e56102f9565b6040516100f29190610ab0565b60405180910390f35b348015610106575f5ffd5b5061010f610391565b60405161011c9190610ab0565b60405180910390f35b348015610130575f5ffd5b506101396104af565b6040516101469190610ab0565b60405180910390f35b34801561015a575f5ffd5b5061016361058b565b6040516101709190610a06565b60405180910390f35b348015610184575f5ffd5b5061018d6105da565b60405161019a9190610ab0565b60405180910390f35b3480156101ae575f5ffd5b506101b76106c6565b6040516101c49190610b4f565b60405180910390f35b3480156101d8575f5ffd5b506101e1610704565b6040516101ee9190610a06565b60405180910390f35b6101ff610711565b6040518060e00160405280600a60ff168152602001601460ff168152602001601e60ff168152602001602860ff168152602001603260ff168152602001603c60ff168152602001604660ff16815250600790600761025e929190610733565b5060078080602002604051908101604052809291908260078015610297576020028201915b815481526020019060010190808311610283575b5050505050905090565b5f6040518060a0016040528060328152602001603c8152602001604681526020016050815260200160648152505f9060056102dd929190610778565b505f6001600581106102f2576102f1610b68565b5b0154905090565b60606040518060800160405280600a60ff168152602001601460ff168152602001601e60ff168152602001603260ff16815250600590600461033c9291906107b8565b50600580548060200260200160405190810160405280929190818152602001828054801561038757602002820191905f5260205f20905b815481526020019060010190808311610373575b5050505050905090565b6060600367ffffffffffffffff8111156103ae576103ad610b95565b5b6040519080825280602002602001820160405280156103dc5781602001602082028036833780820191505090505b50600690805190602001906103f2929190610808565b50600a60065f8154811061040957610408610b68565b5b905f5260205f2001819055506014600660018154811061042c5761042b610b68565b5b905f5260205f200181905550601e600660028154811061044f5761044e610b68565b5b905f5260205f20018190555060068054806020026020016040519081016040528092919081815260200182805480156104a557602002820191905f5260205f20905b815481526020019060010190808311610491575b5050505050905090565b60606040518060600160405280600160ff168152602001600260ff168152602001600360ff16815250600e9060036104e8929190610853565b50600e6004908060018154018082558091505060019003905f5260205f20015f9091909190915055600e6005908060018154018082558091505060019003905f5260205f20015f9091909190915055600e80548060200260200160405190810160405280929190818152602001828054801561058157602002820191905f5260205f20905b81548152602001906001019080831161056d575b5050505050905090565b5f5f6040518060a0016040528060328152602001603c8152602001604681526020016050815260200160648152509050806001600581106105cf576105ce610b68565b5b602002015191505090565b60606040518060a00160405280600160ff168152602001600260ff168152602001600360ff168152602001600460ff168152602001600560ff16815250600f9060056106279291906108a3565b50600f80548061063a57610639610bc2565b5b600190038181905f5260205f20015f90559055600f80548061065f5761065e610bc2565b5b600190038181905f5260205f20015f90559055600f8054806020026020016040519081016040528092919081815260200182805480156106bc57602002820191905f5260205f20905b8154815260200190600101908083116106a8575b5050505050905090565b6106ce6108f3565b5f6040518060a0016040528060328152602001603c81526020016046815260200160508152602001606481525090508091505090565b5f5f600790508091505090565b6040518060e00160405280600790602082028036833780820191505090505090565b8260078101928215610767579160200282015b82811115610766578251829060ff16905591602001919060010190610746565b5b5090506107749190610915565b5090565b82600581019282156107a7579160200282015b828111156107a657825182559160200191906001019061078b565b5b5090506107b49190610915565b5090565b828054828255905f5260205f209081019282156107f7579160200282015b828111156107f6578251829060ff169055916020019190600101906107d6565b5b5090506108049190610915565b5090565b828054828255905f5260205f20908101928215610842579160200282015b82811115610841578251825591602001919060010190610826565b5b50905061084f9190610915565b5090565b828054828255905f5260205f20908101928215610892579160200282015b82811115610891578251829060ff16905591602001919060010190610871565b5b50905061089f9190610915565b5090565b828054828255905f5260205f209081019282156108e2579160200282015b828111156108e1578251829060ff169055916020019190600101906108c1565b5b5090506108ef9190610915565b5090565b6040518060a00160405280600590602082028036833780820191505090505090565b5b8082111561092c575f815f905550600101610916565b5090565b5f60079050919050565b5f81905092915050565b5f819050919050565b5f819050919050565b61095f8161094d565b82525050565b5f6109708383610956565b60208301905092915050565b5f602082019050919050565b61099181610930565b61099b818461093a565b92506109a682610944565b805f5b838110156109d65781516109bd8782610965565b96506109c88361097c565b9250506001810190506109a9565b505050505050565b5f60e0820190506109f15f830184610988565b92915050565b610a008161094d565b82525050565b5f602082019050610a195f8301846109f7565b92915050565b5f81519050919050565b5f82825260208201905092915050565b5f819050602082019050919050565b5f602082019050919050565b5f610a5e82610a1f565b610a688185610a29565b9350610a7383610a39565b805f5b83811015610aa3578151610a8a8882610965565b9750610a9583610a48565b925050600181019050610a76565b5085935050505092915050565b5f6020820190508181035f830152610ac88184610a54565b905092915050565b5f60059050919050565b5f81905092915050565b5f819050919050565b5f602082019050919050565b610b0281610ad0565b610b0c8184610ada565b9250610b1782610ae4565b805f5b83811015610b47578151610b2e8782610965565b9650610b3983610aed565b925050600181019050610b1a565b505050505050565b5f60a082019050610b625f830184610af9565b92915050565b7f4e487b71000000000000000000000000000000000000000000000000000000005f52603260045260245ffd5b7f4e487b71000000000000000000000000000000000000000000000000000000005f52604160045260245ffd5b7f4e487b71000000000000000000000000000000000000000000000000000000005f52603160045260245ffdfea26469706673582212204aafbb04cf7c7fffd06c7965725e08b18bff9b7bd6bc3e70f16a16fe65c07bb664736f6c634300081e0033",
					"opcodes": "PUSH1 0x80 PUSH1 0x40 MSTORE CALLVALUE DUP1 ISZERO PUSH1 0xE JUMPI PUSH0 PUSH0 REVERT JUMPDEST POP PUSH2 0xC25 DUP1 PUSH2 0x1C PUSH0 CODECOPY PUSH0 RETURN INVALID PUSH1 0x80 PUSH1 0x40 MSTORE PUSH1 0x4 CALLDATASIZE LT PUSH2 0x85 JUMPI PUSH0 CALLDATALOAD PUSH1 0xE0 SHR DUP1 PUSH4 0x9F5B5E06 GT PUSH2 0x58 JUMPI DUP1 PUSH4 0x9F5B5E06 EQ PUSH2 0x125 JUMPI DUP1 PUSH4 0xBDD23414 EQ PUSH2 0x14F JUMPI DUP1 PUSH4 0xC22EEB62 EQ PUSH2 0x179 JUMPI DUP1 PUSH4 0xD504EA1D EQ PUSH2 0x1A3 JUMPI DUP1 PUSH4 0xE554482E EQ PUSH2 0x1CD JUMPI PUSH2 0x85 JUMP JUMPDEST DUP1 PUSH4 0xEF95ECD EQ PUSH2 0x89 JUMPI DUP1 PUSH4 0x2FEF9248 EQ PUSH2 0xA7 JUMPI DUP1 PUSH4 0x54AFDD7C EQ PUSH2 0xD1 JUMPI DUP1 PUSH4 0x67276CB9 EQ PUSH2 0xFB JUMPI JUMPDEST PUSH0 PUSH0 REVERT JUMPDEST PUSH2 0x91 PUSH2 0x1F7 JUMP JUMPDEST PUSH1 0x40 MLOAD PUSH2 0x9E SWAP2 SWAP1 PUSH2 0x9DE JUMP JUMPDEST PUSH1 0x40 MLOAD DUP1 SWAP2 SUB SWAP1 RETURN JUMPDEST CALLVALUE DUP1 ISZERO PUSH2 0xB2 JUMPI PUSH0 PUSH0 REVERT JUMPDEST POP PUSH2 0xBB PUSH2 0x2A1 JUMP JUMPDEST PUSH1 0x40 MLOAD PUSH2 0xC8 SWAP2 SWAP1 PUSH2 0xA06 JUMP JUMPDEST PUSH1 0x40 MLOAD DUP1 SWAP2 SUB SWAP1 RETURN JUMPDEST CALLVALUE DUP1 ISZERO PUSH2 0xDC JUMPI PUSH0 PUSH0 REVERT JUMPDEST POP PUSH2 0xE5 PUSH2 0x2F9 JUMP JUMPDEST PUSH1 0x40 MLOAD PUSH2 0xF2 SWAP2 SWAP1 PUSH2 0xAB0 JUMP JUMPDEST PUSH1 0x40 MLOAD DUP1 SWAP2 SUB SWAP1 RETURN JUMPDEST CALLVALUE DUP1 ISZERO PUSH2 0x106 JUMPI PUSH0 PUSH0 REVERT JUMPDEST POP PUSH2 0x10F PUSH2 0x391 JUMP JUMPDEST PUSH1 0x40 MLOAD PUSH2 0x11C SWAP2 SWAP1 PUSH2 0xAB0 JUMP JUMPDEST PUSH1 0x40 MLOAD DUP1 SWAP2 SUB SWAP1 RETURN JUMPDEST CALLVALUE DUP1 ISZERO PUSH2 0x130 JUMPI PUSH0 PUSH0 REVERT JUMPDEST POP PUSH2 0x139 PUSH2 0x4AF JUMP JUMPDEST PUSH1 0x40 MLOAD PUSH2 0x146 SWAP2 SWAP1 PUSH2 0xAB0 JUMP JUMPDEST PUSH1 0x40 MLOAD DUP1 SWAP2 SUB SWAP1 RETURN JUMPDEST CALLVALUE DUP1 ISZERO PUSH2 0x15A JUMPI PUSH0 PUSH0 REVERT JUMPDEST POP PUSH2 0x163 PUSH2 0x58B JUMP JUMPDEST PUSH1 0x40 MLOAD PUSH2 0x170 SWAP2 SWAP1 PUSH2 0xA06 JUMP JUMPDEST PUSH1 0x40 MLOAD DUP1 SWAP2 SUB SWAP1 RETURN JUMPDEST CALLVALUE DUP1 ISZERO PUSH2 0x184 JUMPI PUSH0 PUSH0 REVERT JUMPDEST POP PUSH2 0x18D PUSH2 0x5DA JUMP JUMPDEST PUSH1 0x40 MLOAD PUSH2 0x19A SWAP2 SWAP1 PUSH2 0xAB0 JUMP JUMPDEST PUSH1 0x40 MLOAD DUP1 SWAP2 SUB SWAP1 RETURN JUMPDEST CALLVALUE DUP1 ISZERO PUSH2 0x1AE JUMPI PUSH0 PUSH0 REVERT JUMPDEST POP PUSH2 0x1B7 PUSH2 0x6C6 JUMP JUMPDEST PUSH1 0x40 MLOAD PUSH2 0x1C4 SWAP2 SWAP1 PUSH2 0xB4F JUMP JUMPDEST PUSH1 0x40 MLOAD DUP1 SWAP2 SUB SWAP1 RETURN JUMPDEST CALLVALUE DUP1 ISZERO PUSH2 0x1D8 JUMPI PUSH0 PUSH0 REVERT JUMPDEST POP PUSH2 0x1E1 PUSH2 0x704 JUMP JUMPDEST PUSH1 0x40 MLOAD PUSH2 0x1EE SWAP2 SWAP1 PUSH2 0xA06 JUMP JUMPDEST PUSH1 0x40 MLOAD DUP1 SWAP2 SUB SWAP1 RETURN JUMPDEST PUSH2 0x1FF PUSH2 0x711 JUMP JUMPDEST PUSH1 0x40 MLOAD DUP1 PUSH1 0xE0 ADD PUSH1 0x40 MSTORE DUP1 PUSH1 0xA PUSH1 0xFF AND DUP2 MSTORE PUSH1 0x20 ADD PUSH1 0x14 PUSH1 0xFF AND DUP2 MSTORE PUSH1 0x20 ADD PUSH1 0x1E PUSH1 0xFF AND DUP2 MSTORE PUSH1 0x20 ADD PUSH1 0x28 PUSH1 0xFF AND DUP2 MSTORE PUSH1 0x20 ADD PUSH1 0x32 PUSH1 0xFF AND DUP2 MSTORE PUSH1 0x20 ADD PUSH1 0x3C PUSH1 0xFF AND DUP2 MSTORE PUSH1 0x20 ADD PUSH1 0x46 PUSH1 0xFF AND DUP2 MSTORE POP PUSH1 0x7 SWAP1 PUSH1 0x7 PUSH2 0x25E SWAP3 SWAP2 SWAP1 PUSH2 0x733 JUMP JUMPDEST POP PUSH1 0x7 DUP1 DUP1 PUSH1 0x20 MUL PUSH1 0x40 MLOAD SWAP1 DUP2 ADD PUSH1 0x40 MSTORE DUP1 SWAP3 SWAP2 SWAP1 DUP3 PUSH1 0x7 DUP1 ISZERO PUSH2 0x297 JUMPI PUSH1 0x20 MUL DUP3 ADD SWAP2 JUMPDEST DUP2 SLOAD DUP2 MSTORE PUSH1 0x20 ADD SWAP1 PUSH1 0x1 ADD SWAP1 DUP1 DUP4 GT PUSH2 0x283 JUMPI JUMPDEST POP POP POP POP POP SWAP1 POP SWAP1 JUMP JUMPDEST PUSH0 PUSH1 0x40 MLOAD DUP1 PUSH1 0xA0 ADD PUSH1 0x40 MSTORE DUP1 PUSH1 0x32 DUP2 MSTORE PUSH1 0x20 ADD PUSH1 0x3C DUP2 MSTORE PUSH1 0x20 ADD PUSH1 0x46 DUP2 MSTORE PUSH1 0x20 ADD PUSH1 0x50 DUP2 MSTORE PUSH1 0x20 ADD PUSH1 0x64 DUP2 MSTORE POP PUSH0 SWAP1 PUSH1 0x5 PUSH2 0x2DD SWAP3 SWAP2 SWAP1 PUSH2 0x778 JUMP JUMPDEST POP PUSH0 PUSH1 0x1 PUSH1 0x5 DUP2 LT PUSH2 0x2F2 JUMPI PUSH2 0x2F1 PUSH2 0xB68 JUMP JUMPDEST JUMPDEST ADD SLOAD SWAP1 POP SWAP1 JUMP JUMPDEST PUSH1 0x60 PUSH1 0x40 MLOAD DUP1 PUSH1 0x80 ADD PUSH1 0x40 MSTORE DUP1 PUSH1 0xA PUSH1 0xFF AND DUP2 MSTORE PUSH1 0x20 ADD PUSH1 0x14 PUSH1 0xFF AND DUP2 MSTORE PUSH1 0x20 ADD PUSH1 0x1E PUSH1 0xFF AND DUP2 MSTORE PUSH1 0x20 ADD PUSH1 0x32 PUSH1 0xFF AND DUP2 MSTORE POP PUSH1 0x5 SWAP1 PUSH1 0x4 PUSH2 0x33C SWAP3 SWAP2 SWAP1 PUSH2 0x7B8 JUMP JUMPDEST POP PUSH1 0x5 DUP1 SLOAD DUP1 PUSH1 0x20 MUL PUSH1 0x20 ADD PUSH1 0x40 MLOAD SWAP1 DUP2 ADD PUSH1 0x40 MSTORE DUP1 SWAP3 SWAP2 SWAP1 DUP2 DUP2 MSTORE PUSH1 0x20 ADD DUP3 DUP1 SLOAD DUP1 ISZERO PUSH2 0x387 JUMPI PUSH1 0x20 MUL DUP3 ADD SWAP2 SWAP1 PUSH0 MSTORE PUSH1 0x20 PUSH0 KECCAK256 SWAP1 JUMPDEST DUP2 SLOAD DUP2 MSTORE PUSH1 0x20 ADD SWAP1 PUSH1 0x1 ADD SWAP1 DUP1 DUP4 GT PUSH2 0x373 JUMPI JUMPDEST POP POP POP POP POP SWAP1 POP SWAP1 JUMP JUMPDEST PUSH1 0x60 PUSH1 0x3 PUSH8 0xFFFFFFFFFFFFFFFF DUP2 GT ISZERO PUSH2 0x3AE JUMPI PUSH2 0x3AD PUSH2 0xB95 JUMP JUMPDEST JUMPDEST PUSH1 0x40 MLOAD SWAP1 DUP1 DUP3 MSTORE DUP1 PUSH1 0x20 MUL PUSH1 0x20 ADD DUP3 ADD PUSH1 0x40 MSTORE DUP1 ISZERO PUSH2 0x3DC JUMPI DUP2 PUSH1 0x20 ADD PUSH1 0x20 DUP3 MUL DUP1 CALLDATASIZE DUP4 CALLDATACOPY DUP1 DUP3 ADD SWAP2 POP POP SWAP1 POP JUMPDEST POP PUSH1 0x6 SWAP1 DUP1 MLOAD SWAP1 PUSH1 0x20 ADD SWAP1 PUSH2 0x3F2 SWAP3 SWAP2 SWAP1 PUSH2 0x808 JUMP JUMPDEST POP PUSH1 0xA PUSH1 0x6 PUSH0 DUP2 SLOAD DUP2 LT PUSH2 0x409 JUMPI PUSH2 0x408 PUSH2 0xB68 JUMP JUMPDEST JUMPDEST SWAP1 PUSH0 MSTORE PUSH1 0x20 PUSH0 KECCAK256 ADD DUP2 SWAP1 SSTORE POP PUSH1 0x14 PUSH1 0x6 PUSH1 0x1 DUP2 SLOAD DUP2 LT PUSH2 0x42C JUMPI PUSH2 0x42B PUSH2 0xB68 JUMP JUMPDEST JUMPDEST SWAP1 PUSH0 MSTORE PUSH1 0x20 PUSH0 KECCAK256 ADD DUP2 SWAP1 SSTORE POP PUSH1 0x1E PUSH1 0x6 PUSH1 0x2 DUP2 SLOAD DUP2 LT PUSH2 0x44F JUMPI PUSH2 0x44E PUSH2 0xB68 JUMP JUMPDEST JUMPDEST SWAP1 PUSH0 MSTORE PUSH1 0x20 PUSH0 KECCAK256 ADD DUP2 SWAP1 SSTORE POP PUSH1 0x6 DUP1 SLOAD DUP1 PUSH1 0x20 MUL PUSH1 0x20 ADD PUSH1 0x40 MLOAD SWAP1 DUP2 ADD PUSH1 0x40 MSTORE DUP1 SWAP3 SWAP2 SWAP1 DUP2 DUP2 MSTORE PUSH1 0x20 ADD DUP3 DUP1 SLOAD DUP1 ISZERO PUSH2 0x4A5 JUMPI PUSH1 0x20 MUL DUP3 ADD SWAP2 SWAP1 PUSH0 MSTORE PUSH1 0x20 PUSH0 KECCAK256 SWAP1 JUMPDEST DUP2 SLOAD DUP2 MSTORE PUSH1 0x20 ADD SWAP1 PUSH1 0x1 ADD SWAP1 DUP1 DUP4 GT PUSH2 0x491 JUMPI JUMPDEST POP POP POP POP POP SWAP1 POP SWAP1 JUMP JUMPDEST PUSH1 0x60 PUSH1 0x40 MLOAD DUP1 PUSH1 0x60 ADD PUSH1 0x40 MSTORE DUP1 PUSH1 0x1 PUSH1 0xFF AND DUP2 MSTORE PUSH1 0x20 ADD PUSH1 0x2 PUSH1 0xFF AND DUP2 MSTORE PUSH1 0x20 ADD PUSH1 0x3 PUSH1 0xFF AND DUP2 MSTORE POP PUSH1 0xE SWAP1 PUSH1 0x3 PUSH2 0x4E8 SWAP3 SWAP2 SWAP1 PUSH2 0x853 JUMP JUMPDEST POP PUSH1 0xE PUSH1 0x4 SWAP1 DUP1 PUSH1 0x1 DUP2 SLOAD ADD DUP1 DUP3 SSTORE DUP1 SWAP2 POP POP PUSH1 0x1 SWAP1 SUB SWAP1 PUSH0 MSTORE PUSH1 0x20 PUSH0 KECCAK256 ADD PUSH0 SWAP1 SWAP2 SWAP1 SWAP2 SWAP1 SWAP2 POP SSTORE PUSH1 0xE PUSH1 0x5 SWAP1 DUP1 PUSH1 0x1 DUP2 SLOAD ADD DUP1 DUP3 SSTORE DUP1 SWAP2 POP POP PUSH1 0x1 SWAP1 SUB SWAP1 PUSH0 MSTORE PUSH1 0x20 PUSH0 KECCAK256 ADD PUSH0 SWAP1 SWAP2 SWAP1 SWAP2 SWAP1 SWAP2 POP SSTORE PUSH1 0xE DUP1 SLOAD DUP1 PUSH1 0x20 MUL PUSH1 0x20 ADD PUSH1 0x40 MLOAD SWAP1 DUP2 ADD PUSH1 0x40 MSTORE DUP1 SWAP3 SWAP2 SWAP1 DUP2 DUP2 MSTORE PUSH1 0x20 ADD DUP3 DUP1 SLOAD DUP1 ISZERO PUSH2 0x581 JUMPI PUSH1 0x20 MUL DUP3 ADD SWAP2 SWAP1 PUSH0 MSTORE PUSH1 0x20 PUSH0 KECCAK256 SWAP1 JUMPDEST DUP2 SLOAD DUP2 MSTORE PUSH1 0x20 ADD SWAP1 PUSH1 0x1 ADD SWAP1 DUP1 DUP4 GT PUSH2 0x56D JUMPI JUMPDEST POP POP POP POP POP SWAP1 POP SWAP1 JUMP JUMPDEST PUSH0 PUSH0 PUSH1 0x40 MLOAD DUP1 PUSH1 0xA0 ADD PUSH1 0x40 MSTORE DUP1 PUSH1 0x32 DUP2 MSTORE PUSH1 0x20 ADD PUSH1 0x3C DUP2 MSTORE PUSH1 0x20 ADD PUSH1 0x46 DUP2 MSTORE PUSH1 0x20 ADD PUSH1 0x50 DUP2 MSTORE PUSH1 0x20 ADD PUSH1 0x64 DUP2 MSTORE POP SWAP1 POP DUP1 PUSH1 0x1 PUSH1 0x5 DUP2 LT PUSH2 0x5CF JUMPI PUSH2 0x5CE PUSH2 0xB68 JUMP JUMPDEST JUMPDEST PUSH1 0x20 MUL ADD MLOAD SWAP2 POP POP SWAP1 JUMP JUMPDEST PUSH1 0x60 PUSH1 0x40 MLOAD DUP1 PUSH1 0xA0 ADD PUSH1 0x40 MSTORE DUP1 PUSH1 0x1 PUSH1 0xFF AND DUP2 MSTORE PUSH1 0x20 ADD PUSH1 0x2 PUSH1 0xFF AND DUP2 MSTORE PUSH1 0x20 ADD PUSH1 0x3 PUSH1 0xFF AND DUP2 MSTORE PUSH1 0x20 ADD PUSH1 0x4 PUSH1 0xFF AND DUP2 MSTORE PUSH1 0x20 ADD PUSH1 0x5 PUSH1 0xFF AND DUP2 MSTORE POP PUSH1 0xF SWAP1 PUSH1 0x5 PUSH2 0x627 SWAP3 SWAP2 SWAP1 PUSH2 0x8A3 JUMP JUMPDEST POP PUSH1 0xF DUP1 SLOAD DUP1 PUSH2 0x63A JUMPI PUSH2 0x639 PUSH2 0xBC2 JUMP JUMPDEST JUMPDEST PUSH1 0x1 SWAP1 SUB DUP2 DUP2 SWAP1 PUSH0 MSTORE PUSH1 0x20 PUSH0 KECCAK256 ADD PUSH0 SWAP1 SSTORE SWAP1 SSTORE PUSH1 0xF DUP1 SLOAD DUP1 PUSH2 0x65F JUMPI PUSH2 0x65E PUSH2 0xBC2 JUMP JUMPDEST JUMPDEST PUSH1 0x1 SWAP1 SUB DUP2 DUP2 SWAP1 PUSH0 MSTORE PUSH1 0x20 PUSH0 KECCAK256 ADD PUSH0 SWAP1 SSTORE SWAP1 SSTORE PUSH1 0xF DUP1 SLOAD DUP1 PUSH1 0x20 MUL PUSH1 0x20 ADD PUSH1 0x40 MLOAD SWAP1 DUP2 ADD PUSH1 0x40 MSTORE DUP1 SWAP3 SWAP2 SWAP1 DUP2 DUP2 MSTORE PUSH1 0x20 ADD DUP3 DUP1 SLOAD DUP1 ISZERO PUSH2 0x6BC JUMPI PUSH1 0x20 MUL DUP3 ADD SWAP2 SWAP1 PUSH0 MSTORE PUSH1 0x20 PUSH0 KECCAK256 SWAP1 JUMPDEST DUP2 SLOAD DUP2 MSTORE PUSH1 0x20 ADD SWAP1 PUSH1 0x1 ADD SWAP1 DUP1 DUP4 GT PUSH2 0x6A8 JUMPI JUMPDEST POP POP POP POP POP SWAP1 POP SWAP1 JUMP JUMPDEST PUSH2 0x6CE PUSH2 0x8F3 JUMP JUMPDEST PUSH0 PUSH1 0x40 MLOAD DUP1 PUSH1 0xA0 ADD PUSH1 0x40 MSTORE DUP1 PUSH1 0x32 DUP2 MSTORE PUSH1 0x20 ADD PUSH1 0x3C DUP2 MSTORE PUSH1 0x20 ADD PUSH1 0x46 DUP2 MSTORE PUSH1 0x20 ADD PUSH1 0x50 DUP2 MSTORE PUSH1 0x20 ADD PUSH1 0x64 DUP2 MSTORE POP SWAP1 POP DUP1 SWAP2 POP POP SWAP1 JUMP JUMPDEST PUSH0 PUSH0 PUSH1 0x7 SWAP1 POP DUP1 SWAP2 POP POP SWAP1 JUMP JUMPDEST PUSH1 0x40 MLOAD DUP1 PUSH1 0xE0 ADD PUSH1 0x40 MSTORE DUP1 PUSH1 0x7 SWAP1 PUSH1 0x20 DUP3 MUL DUP1 CALLDATASIZE DUP4 CALLDATACOPY DUP1 DUP3 ADD SWAP2 POP POP SWAP1 POP POP SWAP1 JUMP JUMPDEST DUP3 PUSH1 0x7 DUP2 ADD SWAP3 DUP3 ISZERO PUSH2 0x767 JUMPI SWAP2 PUSH1 0x20 MUL DUP3 ADD JUMPDEST DUP3 DUP2 GT ISZERO PUSH2 0x766 JUMPI DUP3 MLOAD DUP3 SWAP1 PUSH1 0xFF AND SWAP1 SSTORE SWAP2 PUSH1 0x20 ADD SWAP2 SWAP1 PUSH1 0x1 ADD SWAP1 PUSH2 0x746 JUMP JUMPDEST JUMPDEST POP SWAP1 POP PUSH2 0x774 SWAP2 SWAP1 PUSH2 0x915 JUMP JUMPDEST POP SWAP1 JUMP JUMPDEST DUP3 PUSH1 0x5 DUP2 ADD SWAP3 DUP3 ISZERO PUSH2 0x7A7 JUMPI SWAP2 PUSH1 0x20 MUL DUP3 ADD JUMPDEST DUP3 DUP2 GT ISZERO PUSH2 0x7A6 JUMPI DUP3 MLOAD DUP3 SSTORE SWAP2 PUSH1 0x20 ADD SWAP2 SWAP1 PUSH1 0x1 ADD SWAP1 PUSH2 0x78B JUMP JUMPDEST JUMPDEST POP SWAP1 POP PUSH2 0x7B4 SWAP2 SWAP1 PUSH2 0x915 JUMP JUMPDEST POP SWAP1 JUMP JUMPDEST DUP3 DUP1 SLOAD DUP3 DUP3 SSTORE SWAP1 PUSH0 MSTORE PUSH1 0x20 PUSH0 KECCAK256 SWAP1 DUP2 ADD SWAP3 DUP3 ISZERO PUSH2 0x7F7 JUMPI SWAP2 PUSH1 0x20 MUL DUP3 ADD JUMPDEST DUP3 DUP2 GT ISZERO PUSH2 0x7F6 JUMPI DUP3 MLOAD DUP3 SWAP1 PUSH1 0xFF AND SWAP1 SSTORE SWAP2 PUSH1 0x20 ADD SWAP2 SWAP1 PUSH1 0x1 ADD SWAP1 PUSH2 0x7D6 JUMP JUMPDEST JUMPDEST POP SWAP1 POP PUSH2 0x804 SWAP2 SWAP1 PUSH2 0x915 JUMP JUMPDEST POP SWAP1 JUMP JUMPDEST DUP3 DUP1 SLOAD DUP3 DUP3 SSTORE SWAP1 PUSH0 MSTORE PUSH1 0x20 PUSH0 KECCAK256 SWAP1 DUP2 ADD SWAP3 DUP3 ISZERO PUSH2 0x842 JUMPI SWAP2 PUSH1 0x20 MUL DUP3 ADD JUMPDEST DUP3 DUP2 GT ISZERO PUSH2 0x841 JUMPI DUP3 MLOAD DUP3 SSTORE SWAP2 PUSH1 0x20 ADD SWAP2 SWAP1 PUSH1 0x1 ADD SWAP1 PUSH2 0x826 JUMP JUMPDEST JUMPDEST POP SWAP1 POP PUSH2 0x84F SWAP2 SWAP1 PUSH2 0x915 JUMP JUMPDEST POP SWAP1 JUMP JUMPDEST DUP3 DUP1 SLOAD DUP3 DUP3 SSTORE SWAP1 PUSH0 MSTORE PUSH1 0x20 PUSH0 KECCAK256 SWAP1 DUP2 ADD SWAP3 DUP3 ISZERO PUSH2 0x892 JUMPI SWAP2 PUSH1 0x20 MUL DUP3 ADD JUMPDEST DUP3 DUP2 GT ISZERO PUSH2 0x891 JUMPI DUP3 MLOAD DUP3 SWAP1 PUSH1 0xFF AND SWAP1 SSTORE SWAP2 PUSH1 0x20 ADD SWAP2 SWAP1 PUSH1 0x1 ADD SWAP1 PUSH2 0x871 JUMP JUMPDEST JUMPDEST POP SWAP1 POP PUSH2 0x89F SWAP2 SWAP1 PUSH2 0x915 JUMP JUMPDEST POP SWAP1 JUMP JUMPDEST DUP3 DUP1 SLOAD DUP3 DUP3 SSTORE SWAP1 PUSH0 MSTORE PUSH1 0x20 PUSH0 KECCAK256 SWAP1 DUP2 ADD SWAP3 DUP3 ISZERO PUSH2 0x8E2 JUMPI SWAP2 PUSH1 0x20 MUL DUP3 ADD JUMPDEST DUP3 DUP2 GT ISZERO PUSH2 0x8E1 JUMPI DUP3 MLOAD DUP3 SWAP1 PUSH1 0xFF AND SWAP1 SSTORE SWAP2 PUSH1 0x20 ADD SWAP2 SWAP1 PUSH1 0x1 ADD SWAP1 PUSH2 0x8C1 JUMP JUMPDEST JUMPDEST POP SWAP1 POP PUSH2 0x8EF SWAP2 SWAP1 PUSH2 0x915 JUMP JUMPDEST POP SWAP1 JUMP JUMPDEST PUSH1 0x40 MLOAD DUP1 PUSH1 0xA0 ADD PUSH1 0x40 MSTORE DUP1 PUSH1 0x5 SWAP1 PUSH1 0x20 DUP3 MUL DUP1 CALLDATASIZE DUP4 CALLDATACOPY DUP1 DUP3 ADD SWAP2 POP POP SWAP1 POP POP SWAP1 JUMP JUMPDEST JUMPDEST DUP1 DUP3 GT ISZERO PUSH2 0x92C JUMPI PUSH0 DUP2 PUSH0 SWAP1 SSTORE POP PUSH1 0x1 ADD PUSH2 0x916 JUMP JUMPDEST POP SWAP1 JUMP JUMPDEST PUSH0 PUSH1 0x7 SWAP1 POP SWAP2 SWAP1 POP JUMP JUMPDEST PUSH0 DUP2 SWAP1 POP SWAP3 SWAP2 POP POP JUMP JUMPDEST PUSH0 DUP2 SWAP1 POP SWAP2 SWAP1 POP JUMP JUMPDEST PUSH0 DUP2 SWAP1 POP SWAP2 SWAP1 POP JUMP JUMPDEST PUSH2 0x95F DUP2 PUSH2 0x94D JUMP JUMPDEST DUP3 MSTORE POP POP JUMP JUMPDEST PUSH0 PUSH2 0x970 DUP4 DUP4 PUSH2 0x956 JUMP JUMPDEST PUSH1 0x20 DUP4 ADD SWAP1 POP SWAP3 SWAP2 POP POP JUMP JUMPDEST PUSH0 PUSH1 0x20 DUP3 ADD SWAP1 POP SWAP2 SWAP1 POP JUMP JUMPDEST PUSH2 0x991 DUP2 PUSH2 0x930 JUMP JUMPDEST PUSH2 0x99B DUP2 DUP5 PUSH2 0x93A JUMP JUMPDEST SWAP3 POP PUSH2 0x9A6 DUP3 PUSH2 0x944 JUMP JUMPDEST DUP1 PUSH0 JUMPDEST DUP4 DUP2 LT ISZERO PUSH2 0x9D6 JUMPI DUP2 MLOAD PUSH2 0x9BD DUP8 DUP3 PUSH2 0x965 JUMP JUMPDEST SWAP7 POP PUSH2 0x9C8 DUP4 PUSH2 0x97C JUMP JUMPDEST SWAP3 POP POP PUSH1 0x1 DUP2 ADD SWAP1 POP PUSH2 0x9A9 JUMP JUMPDEST POP POP POP POP POP POP JUMP JUMPDEST PUSH0 PUSH1 0xE0 DUP3 ADD SWAP1 POP PUSH2 0x9F1 PUSH0 DUP4 ADD DUP5 PUSH2 0x988 JUMP JUMPDEST SWAP3 SWAP2 POP POP JUMP JUMPDEST PUSH2 0xA00 DUP2 PUSH2 0x94D JUMP JUMPDEST DUP3 MSTORE POP POP JUMP JUMPDEST PUSH0 PUSH1 0x20 DUP3 ADD SWAP1 POP PUSH2 0xA19 PUSH0 DUP4 ADD DUP5 PUSH2 0x9F7 JUMP JUMPDEST SWAP3 SWAP2 POP POP JUMP JUMPDEST PUSH0 DUP2 MLOAD SWAP1 POP SWAP2 SWAP1 POP JUMP JUMPDEST PUSH0 DUP3 DUP3 MSTORE PUSH1 0x20 DUP3 ADD SWAP1 POP SWAP3 SWAP2 POP POP JUMP JUMPDEST PUSH0 DUP2 SWAP1 POP PUSH1 0x20 DUP3 ADD SWAP1 POP SWAP2 SWAP1 POP JUMP JUMPDEST PUSH0 PUSH1 0x20 DUP3 ADD SWAP1 POP SWAP2 SWAP1 POP JUMP JUMPDEST PUSH0 PUSH2 0xA5E DUP3 PUSH2 0xA1F JUMP JUMPDEST PUSH2 0xA68 DUP2 DUP6 PUSH2 0xA29 JUMP JUMPDEST SWAP4 POP PUSH2 0xA73 DUP4 PUSH2 0xA39 JUMP JUMPDEST DUP1 PUSH0 JUMPDEST DUP4 DUP2 LT ISZERO PUSH2 0xAA3 JUMPI DUP2 MLOAD PUSH2 0xA8A DUP9 DUP3 PUSH2 0x965 JUMP JUMPDEST SWAP8 POP PUSH2 0xA95 DUP4 PUSH2 0xA48 JUMP JUMPDEST SWAP3 POP POP PUSH1 0x1 DUP2 ADD SWAP1 POP PUSH2 0xA76 JUMP JUMPDEST POP DUP6 SWAP4 POP POP POP POP SWAP3 SWAP2 POP POP JUMP JUMPDEST PUSH0 PUSH1 0x20 DUP3 ADD SWAP1 POP DUP2 DUP2 SUB PUSH0 DUP4 ADD MSTORE PUSH2 0xAC8 DUP2 DUP5 PUSH2 0xA54 JUMP JUMPDEST SWAP1 POP SWAP3 SWAP2 POP POP JUMP JUMPDEST PUSH0 PUSH1 0x5 SWAP1 POP SWAP2 SWAP1 POP JUMP JUMPDEST PUSH0 DUP2 SWAP1 POP SWAP3 SWAP2 POP POP JUMP JUMPDEST PUSH0 DUP2 SWAP1 POP SWAP2 SWAP1 POP JUMP JUMPDEST PUSH0 PUSH1 0x20 DUP3 ADD SWAP1 POP SWAP2 SWAP1 POP JUMP JUMPDEST PUSH2 0xB02 DUP2 PUSH2 0xAD0 JUMP JUMPDEST PUSH2 0xB0C DUP2 DUP5 PUSH2 0xADA JUMP JUMPDEST SWAP3 POP PUSH2 0xB17 DUP3 PUSH2 0xAE4 JUMP JUMPDEST DUP1 PUSH0 JUMPDEST DUP4 DUP2 LT ISZERO PUSH2 0xB47 JUMPI DUP2 MLOAD PUSH2 0xB2E DUP8 DUP3 PUSH2 0x965 JUMP JUMPDEST SWAP7 POP PUSH2 0xB39 DUP4 PUSH2 0xAED JUMP JUMPDEST SWAP3 POP POP PUSH1 0x1 DUP2 ADD SWAP1 POP PUSH2 0xB1A JUMP JUMPDEST POP POP POP POP POP POP JUMP JUMPDEST PUSH0 PUSH1 0xA0 DUP3 ADD SWAP1 POP PUSH2 0xB62 PUSH0 DUP4 ADD DUP5 PUSH2 0xAF9 JUMP JUMPDEST SWAP3 SWAP2 POP POP JUMP JUMPDEST PUSH32 0x4E487B7100000000000000000000000000000000000000000000000000000000 PUSH0 MSTORE PUSH1 0x32 PUSH1 0x4 MSTORE PUSH1 0x24 PUSH0 REVERT JUMPDEST PUSH32 0x4E487B7100000000000000000000000000000000000000000000000000000000 PUSH0 MSTORE PUSH1 0x41 PUSH1 0x4 MSTORE PUSH1 0x24 PUSH0 REVERT JUMPDEST PUSH32 0x4E487B7100000000000000000000000000000000000000000000000000000000 PUSH0 MSTORE PUSH1 0x31 PUSH1 0x4 MSTORE PUSH1 0x24 PUSH0 REVERT INVALID LOG2 PUSH5 0x6970667358 0x22 SLT KECCAK256 BLOBBASEFEE 0xAF 0xBB DIV 0xCF PUSH29 0x7FFFD06C7965725E08B18BFF9B7BD6BC3E70F16A16FE65C07BB664736F PUSH13 0x634300081E0033000000000000 "
				},
				"gasEstimates": {
					"creation": {
						"codeDepositCost": "621800",
						"executionCost": "655",
						"totalCost": "622455"
					},
					"external": {
						"arrayExample()": "infinite",
						"arrayLength()": "432",
						"dinamisArray()": "infinite",
						"getArray()": "infinite",
						"getArrayIndex()": "513",
						"getArrayState()": "infinite",
						"popArrayFunc()": "infinite",
						"pushArrayFunc()": "infinite",
						"tambahArrayFunc()": "infinite"
					}
				},
				"methodIdentifiers": {
					"arrayExample()": "0ef95ecd",
					"arrayLength()": "e554482e",
					"dinamisArray()": "54afdd7c",
					"getArray()": "d504ea1d",
					"getArrayIndex()": "bdd23414",
					"getArrayState()": "2fef9248",
					"popArrayFunc()": "c22eeb62",
					"pushArrayFunc()": "9f5b5e06",
					"tambahArrayFunc()": "67276cb9"
				}
			},
			"storageLayout": {
				"storage": [
					{
						"astId": 57,
						"contract": "contracts/ArrayContract.sol:ArrayContract",
						"label": "dataState",
						"offset": 0,
						"slot": "0",
						"type": "t_array(t_uint256)5_storage"
					},
					{
						"astId": 82,
						"contract": "contracts/ArrayContract.sol:ArrayContract",
						"label": "dinamisArrayInline",
						"offset": 0,
						"slot": "5",
						"type": "t_array(t_uint256)dyn_storage"
					},
					{
						"astId": 102,
						"contract": "contracts/ArrayContract.sol:ArrayContract",
						"label": "tambahArray",
						"offset": 0,
						"slot": "6",
						"type": "t_array(t_uint256)dyn_storage"
					},
					{
						"astId": 142,
						"contract": "contracts/ArrayContract.sol:ArrayContract",
						"label": "data",
						"offset": 0,
						"slot": "7",
						"type": "t_array(t_uint256)7_storage"
					},
					{
						"astId": 179,
						"contract": "contracts/ArrayContract.sol:ArrayContract",
						"label": "pushArray",
						"offset": 0,
						"slot": "14",
						"type": "t_array(t_uint256)dyn_storage"
					},
					{
						"astId": 210,
						"contract": "contracts/ArrayContract.sol:ArrayContract",
						"label": "popArray",
						"offset": 0,
						"slot": "15",
						"type": "t_array(t_uint256)dyn_storage"
					}
				],
				"types": {
					"t_array(t_uint256)5_storage": {
						"base": "t_uint256",
						"encoding": "inplace",
						"label": "uint256[5]",
						"numberOfBytes": "160"
					},
					"t_array(t_uint256)7_storage": {
						"base": "t_uint256",
						"encoding": "inplace",
						"label": "uint256[7]",
						"numberOfBytes": "224"
					},
					"t_array(t_uint256)dyn_storage": {
						"base": "t_uint256",
						"encoding": "dynamic_array",
						"label": "uint256[]",
						"numberOfBytes": "32"
					},
					"t_uint256": {
						"encoding": "inplace",
						"label": "uint256",
						"numberOfBytes": "32"
					}
				}
			},
			"userdoc": {
				"kind": "user",
				"methods": {},
				"version": 1
			}
		}
	}
}