{
	"contracts/Contract.sol": {
		"Child": {
			"abi": [
				{
					"inputs": [],
					"stateMutability": "nonpayable",
					"type": "constructor"
				},
				{
					"inputs": [],
					"name": "getComputeResult",
					"outputs": [],
					"stateMutability": "nonpayable",
					"type": "function"
				},
				{
					"inputs": [],
					"name": "getData",
					"outputs": [
						{
							"internalType": "uint256",
							"name": "",
							"type": "uint256"
						}
					],
					"stateMutability": "view",
					"type": "function"
				},
				{
					"inputs": [],
					"name": "getDataBaru",
					"outputs": [
						{
							"internalType": "uint256",
							"name": "",
							"type": "uint256"
						}
					],
					"stateMutability": "view",
					"type": "function"
				},
				{
					"inputs": [],
					"name": "getResult",
					"outputs": [
						{
							"internalType": "uint256",
							"name": "",
							"type": "uint256"
						}
					],
					"stateMutability": "view",
					"type": "function"
				},
				{
					"inputs": [],
					"name": "info",
					"outputs": [
						{
							"internalType": "uint256",
							"name": "",
							"type": "uint256"
						}
					],
					"stateMutability": "view",
					"type": "function"
				},
				{
					"inputs": [],
					"name": "setIncrement",
					"outputs": [
						{
							"internalType": "uint256",
							"name": "",
							"type": "uint256"
						}
					],
					"stateMutability": "pure",
					"type": "function"
				},
				{
					"inputs": [
						{
							"internalType": "uint256",
							"name": "a",
							"type": "uint256"
						}
					],
					"name": "updateData",
					"outputs": [],
					"stateMutability": "nonpayable",
					"type": "function"
				}
			],
			"devdoc": {
				"kind": "dev",
				"methods": {},
				"version": 1
			},
			"evm": {
				"assembly": "    /* \"contracts/Contract.sol\":1308:1717  contract Child is Parent {... */\n  mstore(0x40, 0x80)\n    /* \"contracts/Contract.sol\":1387:1434  constructor() {... */\n  callvalue\n  dup1\n  iszero\n  tag_1\n  jumpi\n  revert(0x00, 0x00)\ntag_1:\n  pop\n    /* \"contracts/Contract.sol\":564:566  10 */\n  0x0a\n    /* \"contracts/Contract.sol\":557:561  info */\n  0x01\n    /* \"contracts/Contract.sol\":557:566  info = 10 */\n  dup2\n  swap1\n  sstore\n  pop\n    /* \"contracts/Contract.sol\":1415:1427  new Parent() */\n  mload(0x40)\n  tag_6\n  swap1\n  tag_7\n  jump\t// in\ntag_6:\n  mload(0x40)\n  dup1\n  swap2\n  sub\n  swap1\n  0x00\n  create\n  dup1\n  iszero\n  dup1\n  iszero\n  tag_8\n  jumpi\n  returndatacopy(0x00, 0x00, returndatasize)\n  revert(0x00, returndatasize)\ntag_8:\n  pop\n    /* \"contracts/Contract.sol\":1411:1412  p */\n  0x03\n  0x00\n    /* \"contracts/Contract.sol\":1411:1427  p = new Parent() */\n  0x0100\n  exp\n  dup2\n  sload\n  dup2\n  0xffffffffffffffffffffffffffffffffffffffff\n  mul\n  not\n  and\n  swap1\n  dup4\n  0xffffffffffffffffffffffffffffffffffffffff\n  and\n  mul\n  or\n  swap1\n  sstore\n  pop\n    /* \"contracts/Contract.sol\":1308:1717  contract Child is Parent {... */\n  jump(tag_9)\ntag_7:\n  dataSize(sub_1)\n  dup1\n  dataOffset(sub_1)\n  dup4\n  codecopy\n  add\n  swap1\n  jump\t// out\ntag_9:\n  dataSize(sub_0)\n  dup1\n  dataOffset(sub_0)\n  0x00\n  codecopy\n  0x00\n  return\nstop\n\nsub_0: assembly {\n        /* \"contracts/Contract.sol\":1308:1717  contract Child is Parent {... */\n      mstore(0x40, 0x80)\n      callvalue\n      dup1\n      iszero\n      tag_1\n      jumpi\n      revert(0x00, 0x00)\n    tag_1:\n      pop\n      jumpi(tag_2, lt(calldatasize, 0x04))\n      shr(0xe0, calldataload(0x00))\n      dup1\n      0x370158ea\n      gt\n      tag_10\n      jumpi\n      dup1\n      0x370158ea\n      eq\n      tag_6\n      jumpi\n      dup1\n      0x3bc5de30\n      eq\n      tag_7\n      jumpi\n      dup1\n      0x8c747b6d\n      eq\n      tag_8\n      jumpi\n      dup1\n      0xde292789\n      eq\n      tag_9\n      jumpi\n      jump(tag_2)\n    tag_10:\n      dup1\n      0x09e96008\n      eq\n      tag_3\n      jumpi\n      dup1\n      0x0af1e05e\n      eq\n      tag_4\n      jumpi\n      dup1\n      0x2629390f\n      eq\n      tag_5\n      jumpi\n    tag_2:\n      revert(0x00, 0x00)\n        /* \"contracts/Contract.sol\":806:866  function updateData(uint a) public {... */\n    tag_3:\n      tag_11\n      0x04\n      dup1\n      calldatasize\n      sub\n      dup2\n      add\n      swap1\n      tag_12\n      swap2\n      swap1\n      tag_13\n      jump\t// in\n    tag_12:\n      tag_14\n      jump\t// in\n    tag_11:\n      stop\n        /* \"contracts/Contract.sol\":1440:1541  function getComputeResult() public  {... */\n    tag_4:\n      tag_15\n      tag_16\n      jump\t// in\n    tag_15:\n      stop\n        /* \"contracts/Contract.sol\":1632:1715  function getDataBaru() public  view returns (uint) {... */\n    tag_5:\n      tag_17\n      tag_18\n      jump\t// in\n    tag_17:\n      mload(0x40)\n      tag_19\n      swap2\n      swap1\n      tag_20\n      jump\t// in\n    tag_19:\n      mload(0x40)\n      dup1\n      swap2\n      sub\n      swap1\n      return\n        /* \"contracts/Contract.sol\":510:526  uint public info */\n    tag_6:\n      tag_21\n      tag_22\n      jump\t// in\n    tag_21:\n      mload(0x40)\n      tag_23\n      swap2\n      swap1\n      tag_20\n      jump\t// in\n    tag_23:\n      mload(0x40)\n      dup1\n      swap2\n      sub\n      swap1\n      return\n        /* \"contracts/Contract.sol\":871:945  function getData() public view returns (uint) {... */\n    tag_7:\n      tag_24\n      tag_25\n      jump\t// in\n    tag_24:\n      mload(0x40)\n      tag_26\n      swap2\n      swap1\n      tag_20\n      jump\t// in\n    tag_26:\n      mload(0x40)\n      dup1\n      swap2\n      sub\n      swap1\n      return\n        /* \"contracts/Contract.sol\":699:786  function setIncrement() public pure returns (uint) {... */\n    tag_8:\n      tag_27\n      tag_28\n      jump\t// in\n    tag_27:\n      mload(0x40)\n      tag_29\n      swap2\n      swap1\n      tag_20\n      jump\t// in\n    tag_29:\n      mload(0x40)\n      dup1\n      swap2\n      sub\n      swap1\n      return\n        /* \"contracts/Contract.sol\":1547:1626  function getResult() public  view returns (uint) {... */\n    tag_9:\n      tag_30\n      tag_31\n      jump\t// in\n    tag_30:\n      mload(0x40)\n      tag_32\n      swap2\n      swap1\n      tag_20\n      jump\t// in\n    tag_32:\n      mload(0x40)\n      dup1\n      swap2\n      sub\n      swap1\n      return\n        /* \"contracts/Contract.sol\":806:866  function updateData(uint a) public {... */\n    tag_14:\n        /* \"contracts/Contract.sol\":858:859  a */\n      dup1\n        /* \"contracts/Contract.sol\":851:855  data */\n      0x00\n        /* \"contracts/Contract.sol\":851:859  data = a */\n      dup2\n      swap1\n      sstore\n      pop\n        /* \"contracts/Contract.sol\":806:866  function updateData(uint a) public {... */\n      pop\n      jump\t// out\n        /* \"contracts/Contract.sol\":1440:1541  function getComputeResult() public  {... */\n    tag_16:\n        /* \"contracts/Contract.sol\":1495:1510  compute(10, 20) */\n      tag_35\n        /* \"contracts/Contract.sol\":1503:1505  10 */\n      0x0a\n        /* \"contracts/Contract.sol\":1507:1509  20 */\n      0x14\n        /* \"contracts/Contract.sol\":1495:1502  compute */\n      tag_36\n        /* \"contracts/Contract.sol\":1495:1510  compute(10, 20) */\n      jump\t// in\n    tag_35:\n        /* \"contracts/Contract.sol\":1486:1492  result */\n      0x02\n        /* \"contracts/Contract.sol\":1486:1510  result = compute(10, 20) */\n      dup2\n      swap1\n      sstore\n      pop\n        /* \"contracts/Contract.sol\":1440:1541  function getComputeResult() public  {... */\n      jump\t// out\n        /* \"contracts/Contract.sol\":1632:1715  function getDataBaru() public  view returns (uint) {... */\n    tag_18:\n        /* \"contracts/Contract.sol\":1677:1681  uint */\n      0x00\n        /* \"contracts/Contract.sol\":1700:1701  p */\n      0x03\n      0x00\n      swap1\n      sload\n      swap1\n      0x0100\n      exp\n      swap1\n      div\n      0xffffffffffffffffffffffffffffffffffffffff\n      and\n        /* \"contracts/Contract.sol\":1700:1706  p.info */\n      0xffffffffffffffffffffffffffffffffffffffff\n      and\n      0x370158ea\n        /* \"contracts/Contract.sol\":1700:1708  p.info() */\n      mload(0x40)\n      dup2\n      0xffffffff\n      and\n      0xe0\n      shl\n      dup2\n      mstore\n      0x04\n      add\n      0x20\n      mload(0x40)\n      dup1\n      dup4\n      sub\n      dup2\n      dup7\n      gas\n      staticcall\n      iszero\n      dup1\n      iszero\n      tag_39\n      jumpi\n      returndatacopy(0x00, 0x00, returndatasize)\n      revert(0x00, returndatasize)\n    tag_39:\n      pop\n      pop\n      pop\n      pop\n      mload(0x40)\n      returndatasize\n      not(0x1f)\n      0x1f\n      dup3\n      add\n      and\n      dup3\n      add\n      dup1\n      0x40\n      mstore\n      pop\n      dup2\n      add\n      swap1\n      tag_40\n      swap2\n      swap1\n      tag_41\n      jump\t// in\n    tag_40:\n        /* \"contracts/Contract.sol\":1693:1708  return p.info() */\n      swap1\n      pop\n        /* \"contracts/Contract.sol\":1632:1715  function getDataBaru() public  view returns (uint) {... */\n      swap1\n      jump\t// out\n        /* \"contracts/Contract.sol\":510:526  uint public info */\n    tag_22:\n      sload(0x01)\n      dup2\n      jump\t// out\n        /* \"contracts/Contract.sol\":871:945  function getData() public view returns (uint) {... */\n    tag_25:\n        /* \"contracts/Contract.sol\":911:915  uint */\n      0x00\n        /* \"contracts/Contract.sol\":934:938  data */\n      sload(0x00)\n        /* \"contracts/Contract.sol\":927:938  return data */\n      swap1\n      pop\n        /* \"contracts/Contract.sol\":871:945  function getData() public view returns (uint) {... */\n      swap1\n      jump\t// out\n        /* \"contracts/Contract.sol\":699:786  function setIncrement() public pure returns (uint) {... */\n    tag_28:\n        /* \"contracts/Contract.sol\":744:748  uint */\n      0x00\n        /* \"contracts/Contract.sol\":767:779  increment(2) */\n      tag_44\n        /* \"contracts/Contract.sol\":777:778  2 */\n      0x02\n        /* \"contracts/Contract.sol\":767:776  increment */\n      tag_45\n        /* \"contracts/Contract.sol\":767:779  increment(2) */\n      jump\t// in\n    tag_44:\n        /* \"contracts/Contract.sol\":760:779  return increment(2) */\n      swap1\n      pop\n        /* \"contracts/Contract.sol\":699:786  function setIncrement() public pure returns (uint) {... */\n      swap1\n      jump\t// out\n        /* \"contracts/Contract.sol\":1547:1626  function getResult() public  view returns (uint) {... */\n    tag_31:\n        /* \"contracts/Contract.sol\":1590:1594  uint */\n      0x00\n        /* \"contracts/Contract.sol\":1613:1619  result */\n      sload(0x02)\n        /* \"contracts/Contract.sol\":1606:1619  return result */\n      swap1\n      pop\n        /* \"contracts/Contract.sol\":1547:1626  function getResult() public  view returns (uint) {... */\n      swap1\n      jump\t// out\n        /* \"contracts/Contract.sol\":967:1058  function compute(uint a, uint b) internal pure returns (uint) {... */\n    tag_36:\n        /* \"contracts/Contract.sol\":1023:1027  uint */\n      0x00\n        /* \"contracts/Contract.sol\":1050:1051  b */\n      dup2\n        /* \"contracts/Contract.sol\":1046:1047  a */\n      dup4\n        /* \"contracts/Contract.sol\":1046:1051  a + b */\n      tag_48\n      swap2\n      swap1\n      tag_49\n      jump\t// in\n    tag_48:\n        /* \"contracts/Contract.sol\":1039:1051  return a + b */\n      swap1\n      pop\n        /* \"contracts/Contract.sol\":967:1058  function compute(uint a, uint b) internal pure returns (uint) {... */\n      swap3\n      swap2\n      pop\n      pop\n      jump\t// out\n        /* \"contracts/Contract.sol\":594:679  function increment(uint a) private pure returns (uint) {... */\n    tag_45:\n        /* \"contracts/Contract.sol\":643:647  uint */\n      0x00\n        /* \"contracts/Contract.sol\":671:672  1 */\n      0x01\n        /* \"contracts/Contract.sol\":667:668  a */\n      dup3\n        /* \"contracts/Contract.sol\":667:672  a + 1 */\n      tag_51\n      swap2\n      swap1\n      tag_49\n      jump\t// in\n    tag_51:\n        /* \"contracts/Contract.sol\":659:672  return  a + 1 */\n      swap1\n      pop\n        /* \"contracts/Contract.sol\":594:679  function increment(uint a) private pure returns (uint) {... */\n      swap2\n      swap1\n      pop\n      jump\t// out\n        /* \"#utility.yul\":88:205   */\n    tag_53:\n        /* \"#utility.yul\":197:198   */\n      0x00\n        /* \"#utility.yul\":194:195   */\n      0x00\n        /* \"#utility.yul\":187:199   */\n      revert\n        /* \"#utility.yul\":334:411   */\n    tag_55:\n        /* \"#utility.yul\":371:378   */\n      0x00\n        /* \"#utility.yul\":400:405   */\n      dup2\n        /* \"#utility.yul\":389:405   */\n      swap1\n      pop\n        /* \"#utility.yul\":334:411   */\n      swap2\n      swap1\n      pop\n      jump\t// out\n        /* \"#utility.yul\":417:539   */\n    tag_56:\n        /* \"#utility.yul\":490:514   */\n      tag_67\n        /* \"#utility.yul\":508:513   */\n      dup2\n        /* \"#utility.yul\":490:514   */\n      tag_55\n      jump\t// in\n    tag_67:\n        /* \"#utility.yul\":483:488   */\n      dup2\n        /* \"#utility.yul\":480:515   */\n      eq\n        /* \"#utility.yul\":470:533   */\n      tag_68\n      jumpi\n        /* \"#utility.yul\":529:530   */\n      0x00\n        /* \"#utility.yul\":526:527   */\n      0x00\n        /* \"#utility.yul\":519:531   */\n      revert\n        /* \"#utility.yul\":470:533   */\n    tag_68:\n        /* \"#utility.yul\":417:539   */\n      pop\n      jump\t// out\n        /* \"#utility.yul\":545:684   */\n    tag_57:\n        /* \"#utility.yul\":591:596   */\n      0x00\n        /* \"#utility.yul\":629:635   */\n      dup2\n        /* \"#utility.yul\":616:636   */\n      calldataload\n        /* \"#utility.yul\":607:636   */\n      swap1\n      pop\n        /* \"#utility.yul\":645:678   */\n      tag_70\n        /* \"#utility.yul\":672:677   */\n      dup2\n        /* \"#utility.yul\":645:678   */\n      tag_56\n      jump\t// in\n    tag_70:\n        /* \"#utility.yul\":545:684   */\n      swap3\n      swap2\n      pop\n      pop\n      jump\t// out\n        /* \"#utility.yul\":690:1019   */\n    tag_13:\n        /* \"#utility.yul\":749:755   */\n      0x00\n        /* \"#utility.yul\":798:800   */\n      0x20\n        /* \"#utility.yul\":786:795   */\n      dup3\n        /* \"#utility.yul\":777:784   */\n      dup5\n        /* \"#utility.yul\":773:796   */\n      sub\n        /* \"#utility.yul\":769:801   */\n      slt\n        /* \"#utility.yul\":766:885   */\n      iszero\n      tag_72\n      jumpi\n        /* \"#utility.yul\":804:883   */\n      tag_73\n      tag_53\n      jump\t// in\n    tag_73:\n        /* \"#utility.yul\":766:885   */\n    tag_72:\n        /* \"#utility.yul\":924:925   */\n      0x00\n        /* \"#utility.yul\":949:1002   */\n      tag_74\n        /* \"#utility.yul\":994:1001   */\n      dup5\n        /* \"#utility.yul\":985:991   */\n      dup3\n        /* \"#utility.yul\":974:983   */\n      dup6\n        /* \"#utility.yul\":970:992   */\n      add\n        /* \"#utility.yul\":949:1002   */\n      tag_57\n      jump\t// in\n    tag_74:\n        /* \"#utility.yul\":939:1002   */\n      swap2\n      pop\n        /* \"#utility.yul\":895:1012   */\n      pop\n        /* \"#utility.yul\":690:1019   */\n      swap3\n      swap2\n      pop\n      pop\n      jump\t// out\n        /* \"#utility.yul\":1025:1143   */\n    tag_58:\n        /* \"#utility.yul\":1112:1136   */\n      tag_76\n        /* \"#utility.yul\":1130:1135   */\n      dup2\n        /* \"#utility.yul\":1112:1136   */\n      tag_55\n      jump\t// in\n    tag_76:\n        /* \"#utility.yul\":1107:1110   */\n      dup3\n        /* \"#utility.yul\":1100:1137   */\n      mstore\n        /* \"#utility.yul\":1025:1143   */\n      pop\n      pop\n      jump\t// out\n        /* \"#utility.yul\":1149:1371   */\n    tag_20:\n        /* \"#utility.yul\":1242:1246   */\n      0x00\n        /* \"#utility.yul\":1280:1282   */\n      0x20\n        /* \"#utility.yul\":1269:1278   */\n      dup3\n        /* \"#utility.yul\":1265:1283   */\n      add\n        /* \"#utility.yul\":1257:1283   */\n      swap1\n      pop\n        /* \"#utility.yul\":1293:1364   */\n      tag_78\n        /* \"#utility.yul\":1361:1362   */\n      0x00\n        /* \"#utility.yul\":1350:1359   */\n      dup4\n        /* \"#utility.yul\":1346:1363   */\n      add\n        /* \"#utility.yul\":1337:1343   */\n      dup5\n        /* \"#utility.yul\":1293:1364   */\n      tag_58\n      jump\t// in\n    tag_78:\n        /* \"#utility.yul\":1149:1371   */\n      swap3\n      swap2\n      pop\n      pop\n      jump\t// out\n        /* \"#utility.yul\":1377:1520   */\n    tag_59:\n        /* \"#utility.yul\":1434:1439   */\n      0x00\n        /* \"#utility.yul\":1465:1471   */\n      dup2\n        /* \"#utility.yul\":1459:1472   */\n      mload\n        /* \"#utility.yul\":1450:1472   */\n      swap1\n      pop\n        /* \"#utility.yul\":1481:1514   */\n      tag_80\n        /* \"#utility.yul\":1508:1513   */\n      dup2\n        /* \"#utility.yul\":1481:1514   */\n      tag_56\n      jump\t// in\n    tag_80:\n        /* \"#utility.yul\":1377:1520   */\n      swap3\n      swap2\n      pop\n      pop\n      jump\t// out\n        /* \"#utility.yul\":1526:1877   */\n    tag_41:\n        /* \"#utility.yul\":1596:1602   */\n      0x00\n        /* \"#utility.yul\":1645:1647   */\n      0x20\n        /* \"#utility.yul\":1633:1642   */\n      dup3\n        /* \"#utility.yul\":1624:1631   */\n      dup5\n        /* \"#utility.yul\":1620:1643   */\n      sub\n        /* \"#utility.yul\":1616:1648   */\n      slt\n        /* \"#utility.yul\":1613:1732   */\n      iszero\n      tag_82\n      jumpi\n        /* \"#utility.yul\":1651:1730   */\n      tag_83\n      tag_53\n      jump\t// in\n    tag_83:\n        /* \"#utility.yul\":1613:1732   */\n    tag_82:\n        /* \"#utility.yul\":1771:1772   */\n      0x00\n        /* \"#utility.yul\":1796:1860   */\n      tag_84\n        /* \"#utility.yul\":1852:1859   */\n      dup5\n        /* \"#utility.yul\":1843:1849   */\n      dup3\n        /* \"#utility.yul\":1832:1841   */\n      dup6\n        /* \"#utility.yul\":1828:1850   */\n      add\n        /* \"#utility.yul\":1796:1860   */\n      tag_59\n      jump\t// in\n    tag_84:\n        /* \"#utility.yul\":1786:1860   */\n      swap2\n      pop\n        /* \"#utility.yul\":1742:1870   */\n      pop\n        /* \"#utility.yul\":1526:1877   */\n      swap3\n      swap2\n      pop\n      pop\n      jump\t// out\n        /* \"#utility.yul\":1883:2063   */\n    tag_60:\n        /* \"#utility.yul\":1931:2008   */\n      0x4e487b7100000000000000000000000000000000000000000000000000000000\n        /* \"#utility.yul\":1928:1929   */\n      0x00\n        /* \"#utility.yul\":1921:2009   */\n      mstore\n        /* \"#utility.yul\":2028:2032   */\n      0x11\n        /* \"#utility.yul\":2025:2026   */\n      0x04\n        /* \"#utility.yul\":2018:2033   */\n      mstore\n        /* \"#utility.yul\":2052:2056   */\n      0x24\n        /* \"#utility.yul\":2049:2050   */\n      0x00\n        /* \"#utility.yul\":2042:2057   */\n      revert\n        /* \"#utility.yul\":2069:2260   */\n    tag_49:\n        /* \"#utility.yul\":2109:2112   */\n      0x00\n        /* \"#utility.yul\":2128:2148   */\n      tag_87\n        /* \"#utility.yul\":2146:2147   */\n      dup3\n        /* \"#utility.yul\":2128:2148   */\n      tag_55\n      jump\t// in\n    tag_87:\n        /* \"#utility.yul\":2123:2148   */\n      swap2\n      pop\n        /* \"#utility.yul\":2162:2182   */\n      tag_88\n        /* \"#utility.yul\":2180:2181   */\n      dup4\n        /* \"#utility.yul\":2162:2182   */\n      tag_55\n      jump\t// in\n    tag_88:\n        /* \"#utility.yul\":2157:2182   */\n      swap3\n      pop\n        /* \"#utility.yul\":2205:2206   */\n      dup3\n        /* \"#utility.yul\":2202:2203   */\n      dup3\n        /* \"#utility.yul\":2198:2207   */\n      add\n        /* \"#utility.yul\":2191:2207   */\n      swap1\n      pop\n        /* \"#utility.yul\":2226:2229   */\n      dup1\n        /* \"#utility.yul\":2223:2224   */\n      dup3\n        /* \"#utility.yul\":2220:2230   */\n      gt\n        /* \"#utility.yul\":2217:2253   */\n      iszero\n      tag_89\n      jumpi\n        /* \"#utility.yul\":2233:2251   */\n      tag_90\n      tag_60\n      jump\t// in\n    tag_90:\n        /* \"#utility.yul\":2217:2253   */\n    tag_89:\n        /* \"#utility.yul\":2069:2260   */\n      swap3\n      swap2\n      pop\n      pop\n      jump\t// out\n\n    auxdata: 0xa2646970667358221220f458cd07997226d86218036e2e8a19da6a7b0b310585de494cadb0f658bdf73064736f6c634300081e0033\n}\n\nsub_1: assembly {\n        /* \"contracts/Contract.sol\":464:1060  contract Parent {... */\n      mstore(0x40, 0x80)\n        /* \"contracts/Contract.sol\":533:573  constructor() {... */\n      callvalue\n      dup1\n      iszero\n      tag_1\n      jumpi\n      revert(0x00, 0x00)\n    tag_1:\n      pop\n        /* \"contracts/Contract.sol\":564:566  10 */\n      0x0a\n        /* \"contracts/Contract.sol\":557:561  info */\n      0x01\n        /* \"contracts/Contract.sol\":557:566  info = 10 */\n      dup2\n      swap1\n      sstore\n      pop\n        /* \"contracts/Contract.sol\":464:1060  contract Parent {... */\n      dataSize(sub_0)\n      dup1\n      dataOffset(sub_0)\n      0x00\n      codecopy\n      0x00\n      return\n    stop\n\n    sub_0: assembly {\n            /* \"contracts/Contract.sol\":464:1060  contract Parent {... */\n          mstore(0x40, 0x80)\n          callvalue\n          dup1\n          iszero\n          tag_1\n          jumpi\n          revert(0x00, 0x00)\n        tag_1:\n          pop\n          jumpi(tag_2, lt(calldatasize, 0x04))\n          shr(0xe0, calldataload(0x00))\n          dup1\n          0x09e96008\n          eq\n          tag_3\n          jumpi\n          dup1\n          0x370158ea\n          eq\n          tag_4\n          jumpi\n          dup1\n          0x3bc5de30\n          eq\n          tag_5\n          jumpi\n          dup1\n          0x8c747b6d\n          eq\n          tag_6\n          jumpi\n        tag_2:\n          revert(0x00, 0x00)\n            /* \"contracts/Contract.sol\":806:866  function updateData(uint a) public {... */\n        tag_3:\n          tag_7\n          0x04\n          dup1\n          calldatasize\n          sub\n          dup2\n          add\n          swap1\n          tag_8\n          swap2\n          swap1\n          tag_9\n          jump\t// in\n        tag_8:\n          tag_10\n          jump\t// in\n        tag_7:\n          stop\n            /* \"contracts/Contract.sol\":510:526  uint public info */\n        tag_4:\n          tag_11\n          tag_12\n          jump\t// in\n        tag_11:\n          mload(0x40)\n          tag_13\n          swap2\n          swap1\n          tag_14\n          jump\t// in\n        tag_13:\n          mload(0x40)\n          dup1\n          swap2\n          sub\n          swap1\n          return\n            /* \"contracts/Contract.sol\":871:945  function getData() public view returns (uint) {... */\n        tag_5:\n          tag_15\n          tag_16\n          jump\t// in\n        tag_15:\n          mload(0x40)\n          tag_17\n          swap2\n          swap1\n          tag_14\n          jump\t// in\n        tag_17:\n          mload(0x40)\n          dup1\n          swap2\n          sub\n          swap1\n          return\n            /* \"contracts/Contract.sol\":699:786  function setIncrement() public pure returns (uint) {... */\n        tag_6:\n          tag_18\n          tag_19\n          jump\t// in\n        tag_18:\n          mload(0x40)\n          tag_20\n          swap2\n          swap1\n          tag_14\n          jump\t// in\n        tag_20:\n          mload(0x40)\n          dup1\n          swap2\n          sub\n          swap1\n          return\n            /* \"contracts/Contract.sol\":806:866  function updateData(uint a) public {... */\n        tag_10:\n            /* \"contracts/Contract.sol\":858:859  a */\n          dup1\n            /* \"contracts/Contract.sol\":851:855  data */\n          0x00\n            /* \"contracts/Contract.sol\":851:859  data = a */\n          dup2\n          swap1\n          sstore\n          pop\n            /* \"contracts/Contract.sol\":806:866  function updateData(uint a) public {... */\n          pop\n          jump\t// out\n            /* \"contracts/Contract.sol\":510:526  uint public info */\n        tag_12:\n          sload(0x01)\n          dup2\n          jump\t// out\n            /* \"contracts/Contract.sol\":871:945  function getData() public view returns (uint) {... */\n        tag_16:\n            /* \"contracts/Contract.sol\":911:915  uint */\n          0x00\n            /* \"contracts/Contract.sol\":934:938  data */\n          sload(0x00)\n            /* \"contracts/Contract.sol\":927:938  return data */\n          swap1\n          pop\n            /* \"contracts/Contract.sol\":871:945  function getData() public view returns (uint) {... */\n          swap1\n          jump\t// out\n            /* \"contracts/Contract.sol\":699:786  function setIncrement() public pure returns (uint) {... */\n        tag_19:\n            /* \"contracts/Contract.sol\":744:748  uint */\n          0x00\n            /* \"contracts/Contract.sol\":767:779  increment(2) */\n          tag_24\n            /* \"contracts/Contract.sol\":777:778  2 */\n          0x02\n            /* \"contracts/Contract.sol\":767:776  increment */\n          tag_25\n            /* \"contracts/Contract.sol\":767:779  increment(2) */\n          jump\t// in\n        tag_24:\n            /* \"contracts/Contract.sol\":760:779  return increment(2) */\n          swap1\n          pop\n            /* \"contracts/Contract.sol\":699:786  function setIncrement() public pure returns (uint) {... */\n          swap1\n          jump\t// out\n            /* \"contracts/Contract.sol\":594:679  function increment(uint a) private pure returns (uint) {... */\n        tag_25:\n            /* \"contracts/Contract.sol\":643:647  uint */\n          0x00\n            /* \"contracts/Contract.sol\":671:672  1 */\n          0x01\n            /* \"contracts/Contract.sol\":667:668  a */\n          dup3\n            /* \"contracts/Contract.sol\":667:672  a + 1 */\n          tag_27\n          swap2\n          swap1\n          tag_28\n          jump\t// in\n        tag_27:\n            /* \"contracts/Contract.sol\":659:672  return  a + 1 */\n          swap1\n          pop\n            /* \"contracts/Contract.sol\":594:679  function increment(uint a) private pure returns (uint) {... */\n          swap2\n          swap1\n          pop\n          jump\t// out\n            /* \"#utility.yul\":88:205   */\n        tag_30:\n            /* \"#utility.yul\":197:198   */\n          0x00\n            /* \"#utility.yul\":194:195   */\n          0x00\n            /* \"#utility.yul\":187:199   */\n          revert\n            /* \"#utility.yul\":334:411   */\n        tag_32:\n            /* \"#utility.yul\":371:378   */\n          0x00\n            /* \"#utility.yul\":400:405   */\n          dup2\n            /* \"#utility.yul\":389:405   */\n          swap1\n          pop\n            /* \"#utility.yul\":334:411   */\n          swap2\n          swap1\n          pop\n          jump\t// out\n            /* \"#utility.yul\":417:539   */\n        tag_33:\n            /* \"#utility.yul\":490:514   */\n          tag_43\n            /* \"#utility.yul\":508:513   */\n          dup2\n            /* \"#utility.yul\":490:514   */\n          tag_32\n          jump\t// in\n        tag_43:\n            /* \"#utility.yul\":483:488   */\n          dup2\n            /* \"#utility.yul\":480:515   */\n          eq\n            /* \"#utility.yul\":470:533   */\n          tag_44\n          jumpi\n            /* \"#utility.yul\":529:530   */\n          0x00\n            /* \"#utility.yul\":526:527   */\n          0x00\n            /* \"#utility.yul\":519:531   */\n          revert\n            /* \"#utility.yul\":470:533   */\n        tag_44:\n            /* \"#utility.yul\":417:539   */\n          pop\n          jump\t// out\n            /* \"#utility.yul\":545:684   */\n        tag_34:\n            /* \"#utility.yul\":591:596   */\n          0x00\n            /* \"#utility.yul\":629:635   */\n          dup2\n            /* \"#utility.yul\":616:636   */\n          calldataload\n            /* \"#utility.yul\":607:636   */\n          swap1\n          pop\n            /* \"#utility.yul\":645:678   */\n          tag_46\n            /* \"#utility.yul\":672:677   */\n          dup2\n            /* \"#utility.yul\":645:678   */\n          tag_33\n          jump\t// in\n        tag_46:\n            /* \"#utility.yul\":545:684   */\n          swap3\n          swap2\n          pop\n          pop\n          jump\t// out\n            /* \"#utility.yul\":690:1019   */\n        tag_9:\n            /* \"#utility.yul\":749:755   */\n          0x00\n            /* \"#utility.yul\":798:800   */\n          0x20\n            /* \"#utility.yul\":786:795   */\n          dup3\n            /* \"#utility.yul\":777:784   */\n          dup5\n            /* \"#utility.yul\":773:796   */\n          sub\n            /* \"#utility.yul\":769:801   */\n          slt\n            /* \"#utility.yul\":766:885   */\n          iszero\n          tag_48\n          jumpi\n            /* \"#utility.yul\":804:883   */\n          tag_49\n          tag_30\n          jump\t// in\n        tag_49:\n            /* \"#utility.yul\":766:885   */\n        tag_48:\n            /* \"#utility.yul\":924:925   */\n          0x00\n            /* \"#utility.yul\":949:1002   */\n          tag_50\n            /* \"#utility.yul\":994:1001   */\n          dup5\n            /* \"#utility.yul\":985:991   */\n          dup3\n            /* \"#utility.yul\":974:983   */\n          dup6\n            /* \"#utility.yul\":970:992   */\n          add\n            /* \"#utility.yul\":949:1002   */\n          tag_34\n          jump\t// in\n        tag_50:\n            /* \"#utility.yul\":939:1002   */\n          swap2\n          pop\n            /* \"#utility.yul\":895:1012   */\n          pop\n            /* \"#utility.yul\":690:1019   */\n          swap3\n          swap2\n          pop\n          pop\n          jump\t// out\n            /* \"#utility.yul\":1025:1143   */\n        tag_35:\n            /* \"#utility.yul\":1112:1136   */\n          tag_52\n            /* \"#utility.yul\":1130:1135   */\n          dup2\n            /* \"#utility.yul\":1112:1136   */\n          tag_32\n          jump\t// in\n        tag_52:\n            /* \"#utility.yul\":1107:1110   */\n          dup3\n            /* \"#utility.yul\":1100:1137   */\n          mstore\n            /* \"#utility.yul\":1025:1143   */\n          pop\n          pop\n          jump\t// out\n            /* \"#utility.yul\":1149:1371   */\n        tag_14:\n            /* \"#utility.yul\":1242:1246   */\n          0x00\n            /* \"#utility.yul\":1280:1282   */\n          0x20\n            /* \"#utility.yul\":1269:1278   */\n          dup3\n            /* \"#utility.yul\":1265:1283   */\n          add\n            /* \"#utility.yul\":1257:1283   */\n          swap1\n          pop\n            /* \"#utility.yul\":1293:1364   */\n          tag_54\n            /* \"#utility.yul\":1361:1362   */\n          0x00\n            /* \"#utility.yul\":1350:1359   */\n          dup4\n            /* \"#utility.yul\":1346:1363   */\n          add\n            /* \"#utility.yul\":1337:1343   */\n          dup5\n            /* \"#utility.yul\":1293:1364   */\n          tag_35\n          jump\t// in\n        tag_54:\n            /* \"#utility.yul\":1149:1371   */\n          swap3\n          swap2\n          pop\n          pop\n          jump\t// out\n            /* \"#utility.yul\":1377:1557   */\n        tag_36:\n            /* \"#utility.yul\":1425:1502   */\n          0x4e487b7100000000000000000000000000000000000000000000000000000000\n            /* \"#utility.yul\":1422:1423   */\n          0x00\n            /* \"#utility.yul\":1415:1503   */\n          mstore\n            /* \"#utility.yul\":1522:1526   */\n          0x11\n            /* \"#utility.yul\":1519:1520   */\n          0x04\n            /* \"#utility.yul\":1512:1527   */\n          mstore\n            /* \"#utility.yul\":1546:1550   */\n          0x24\n            /* \"#utility.yul\":1543:1544   */\n          0x00\n            /* \"#utility.yul\":1536:1551   */\n          revert\n            /* \"#utility.yul\":1563:1754   */\n        tag_28:\n            /* \"#utility.yul\":1603:1606   */\n          0x00\n            /* \"#utility.yul\":1622:1642   */\n          tag_57\n            /* \"#utility.yul\":1640:1641   */\n          dup3\n            /* \"#utility.yul\":1622:1642   */\n          tag_32\n          jump\t// in\n        tag_57:\n            /* \"#utility.yul\":1617:1642   */\n          swap2\n          pop\n            /* \"#utility.yul\":1656:1676   */\n          tag_58\n            /* \"#utility.yul\":1674:1675   */\n          dup4\n            /* \"#utility.yul\":1656:1676   */\n          tag_32\n          jump\t// in\n        tag_58:\n            /* \"#utility.yul\":1651:1676   */\n          swap3\n          pop\n            /* \"#utility.yul\":1699:1700   */\n          dup3\n            /* \"#utility.yul\":1696:1697   */\n          dup3\n            /* \"#utility.yul\":1692:1701   */\n          add\n            /* \"#utility.yul\":1685:1701   */\n          swap1\n          pop\n            /* \"#utility.yul\":1720:1723   */\n          dup1\n            /* \"#utility.yul\":1717:1718   */\n          dup3\n            /* \"#utility.yul\":1714:1724   */\n          gt\n            /* \"#utility.yul\":1711:1747   */\n          iszero\n          tag_59\n          jumpi\n            /* \"#utility.yul\":1727:1745   */\n          tag_60\n          tag_36\n          jump\t// in\n        tag_60:\n            /* \"#utility.yul\":1711:1747   */\n        tag_59:\n            /* \"#utility.yul\":1563:1754   */\n          swap3\n          swap2\n          pop\n          pop\n          jump\t// out\n\n        auxdata: 0xa2646970667358221220eaed0cc34fefdeeac497f337f6a07a6c6cdc25424ac0d827d871719a1133929a64736f6c634300081e0033\n    }\n}\n",
				"bytecode": {
					"linkReferences": {},
					"object": "6080604052348015600e575f5ffd5b50600a600181905550604051602190607d565b604051809103905ff0801580156039573d5f5f3e3d5ffd5b5060035f6101000a81548173ffffffffffffffffffffffffffffffffffffffff021916908373ffffffffffffffffffffffffffffffffffffffff160217905550608a565b6102448061043383390190565b61039c806100975f395ff3fe608060405234801561000f575f5ffd5b506004361061007b575f3560e01c8063370158ea11610059578063370158ea146100c35780633bc5de30146100e15780638c747b6d146100ff578063de2927891461011d5761007b565b806309e960081461007f5780630af1e05e1461009b5780632629390f146100a5575b5f5ffd5b61009960048036038101906100949190610274565b61013b565b005b6100a3610144565b005b6100ad610158565b6040516100ba91906102ae565b60405180910390f35b6100cb6101ec565b6040516100d891906102ae565b60405180910390f35b6100e96101f2565b6040516100f691906102ae565b60405180910390f35b6101076101fa565b60405161011491906102ae565b60405180910390f35b61012561020a565b60405161013291906102ae565b60405180910390f35b805f8190555050565b610150600a6014610213565b600281905550565b5f60035f9054906101000a900473ffffffffffffffffffffffffffffffffffffffff1673ffffffffffffffffffffffffffffffffffffffff1663370158ea6040518163ffffffff1660e01b8152600401602060405180830381865afa1580156101c3573d5f5f3e3d5ffd5b505050506040513d601f19601f820116820180604052508101906101e791906102db565b905090565b60015481565b5f5f54905090565b5f6102056002610228565b905090565b5f600254905090565b5f81836102209190610333565b905092915050565b5f6001826102369190610333565b9050919050565b5f5ffd5b5f819050919050565b61025381610241565b811461025d575f5ffd5b50565b5f8135905061026e8161024a565b92915050565b5f602082840312156102895761028861023d565b5b5f61029684828501610260565b91505092915050565b6102a881610241565b82525050565b5f6020820190506102c15f83018461029f565b92915050565b5f815190506102d58161024a565b92915050565b5f602082840312156102f0576102ef61023d565b5b5f6102fd848285016102c7565b91505092915050565b7f4e487b71000000000000000000000000000000000000000000000000000000005f52601160045260245ffd5b5f61033d82610241565b915061034883610241565b92508282019050808211156103605761035f610306565b5b9291505056fea2646970667358221220f458cd07997226d86218036e2e8a19da6a7b0b310585de494cadb0f658bdf73064736f6c634300081e00336080604052348015600e575f5ffd5b50600a600181905550610220806100245f395ff3fe608060405234801561000f575f5ffd5b506004361061004a575f3560e01c806309e960081461004e578063370158ea1461006a5780633bc5de30146100885780638c747b6d146100a6575b5f5ffd5b61006860048036038101906100639190610137565b6100c4565b005b6100726100cd565b60405161007f9190610171565b60405180910390f35b6100906100d3565b60405161009d9190610171565b60405180910390f35b6100ae6100db565b6040516100bb9190610171565b60405180910390f35b805f8190555050565b60015481565b5f5f54905090565b5f6100e660026100eb565b905090565b5f6001826100f991906101b7565b9050919050565b5f5ffd5b5f819050919050565b61011681610104565b8114610120575f5ffd5b50565b5f813590506101318161010d565b92915050565b5f6020828403121561014c5761014b610100565b5b5f61015984828501610123565b91505092915050565b61016b81610104565b82525050565b5f6020820190506101845f830184610162565b92915050565b7f4e487b71000000000000000000000000000000000000000000000000000000005f52601160045260245ffd5b5f6101c182610104565b91506101cc83610104565b92508282019050808211156101e4576101e361018a565b5b9291505056fea2646970667358221220eaed0cc34fefdeeac497f337f6a07a6c6cdc25424ac0d827d871719a1133929a64736f6c634300081e0033",
					"opcodes": "PUSH1 0x80 PUSH1 0x40 MSTORE CALLVALUE DUP1 ISZERO PUSH1 0xE JUMPI PUSH0 PUSH0 REVERT JUMPDEST POP PUSH1 0xA PUSH1 0x1 DUP2 SWAP1 SSTORE POP PUSH1 0x40 MLOAD PUSH1 0x21 SWAP1 PUSH1 0x7D JUMP JUMPDEST PUSH1 0x40 MLOAD DUP1 SWAP2 SUB SWAP1 PUSH0 CREATE DUP1 ISZERO DUP1 ISZERO PUSH1 0x39 JUMPI RETURNDATASIZE PUSH0 PUSH0 RETURNDATACOPY RETURNDATASIZE PUSH0 REVERT JUMPDEST POP PUSH1 0x3 PUSH0 PUSH2 0x100 EXP DUP2 SLOAD DUP2 PUSH20 0xFFFFFFFFFFFFFFFFFFFFFFFFFFFFFFFFFFFFFFFF MUL NOT AND SWAP1 DUP4 PUSH20 0xFFFFFFFFFFFFFFFFFFFFFFFFFFFFFFFFFFFFFFFF AND MUL OR SWAP1 SSTORE POP PUSH1 0x8A JUMP JUMPDEST PUSH2 0x244 DUP1 PUSH2 0x433 DUP4 CODECOPY ADD SWAP1 JUMP JUMPDEST PUSH2 0x39C DUP1 PUSH2 0x97 PUSH0 CODECOPY PUSH0 RETURN INVALID PUSH1 0x80 PUSH1 0x40 MSTORE CALLVALUE DUP1 ISZERO PUSH2 0xF JUMPI PUSH0 PUSH0 REVERT JUMPDEST POP PUSH1 0x4 CALLDATASIZE LT PUSH2 0x7B JUMPI PUSH0 CALLDATALOAD PUSH1 0xE0 SHR DUP1 PUSH4 0x370158EA GT PUSH2 0x59 JUMPI DUP1 PUSH4 0x370158EA EQ PUSH2 0xC3 JUMPI DUP1 PUSH4 0x3BC5DE30 EQ PUSH2 0xE1 JUMPI DUP1 PUSH4 0x8C747B6D EQ PUSH2 0xFF JUMPI DUP1 PUSH4 0xDE292789 EQ PUSH2 0x11D JUMPI PUSH2 0x7B JUMP JUMPDEST DUP1 PUSH4 0x9E96008 EQ PUSH2 0x7F JUMPI DUP1 PUSH4 0xAF1E05E EQ PUSH2 0x9B JUMPI DUP1 PUSH4 0x2629390F EQ PUSH2 0xA5 JUMPI JUMPDEST PUSH0 PUSH0 REVERT JUMPDEST PUSH2 0x99 PUSH1 0x4 DUP1 CALLDATASIZE SUB DUP2 ADD SWAP1 PUSH2 0x94 SWAP2 SWAP1 PUSH2 0x274 JUMP JUMPDEST PUSH2 0x13B JUMP JUMPDEST STOP JUMPDEST PUSH2 0xA3 PUSH2 0x144 JUMP JUMPDEST STOP JUMPDEST PUSH2 0xAD PUSH2 0x158 JUMP JUMPDEST PUSH1 0x40 MLOAD PUSH2 0xBA SWAP2 SWAP1 PUSH2 0x2AE JUMP JUMPDEST PUSH1 0x40 MLOAD DUP1 SWAP2 SUB SWAP1 RETURN JUMPDEST PUSH2 0xCB PUSH2 0x1EC JUMP JUMPDEST PUSH1 0x40 MLOAD PUSH2 0xD8 SWAP2 SWAP1 PUSH2 0x2AE JUMP JUMPDEST PUSH1 0x40 MLOAD DUP1 SWAP2 SUB SWAP1 RETURN JUMPDEST PUSH2 0xE9 PUSH2 0x1F2 JUMP JUMPDEST PUSH1 0x40 MLOAD PUSH2 0xF6 SWAP2 SWAP1 PUSH2 0x2AE JUMP JUMPDEST PUSH1 0x40 MLOAD DUP1 SWAP2 SUB SWAP1 RETURN JUMPDEST PUSH2 0x107 PUSH2 0x1FA JUMP JUMPDEST PUSH1 0x40 MLOAD PUSH2 0x114 SWAP2 SWAP1 PUSH2 0x2AE JUMP JUMPDEST PUSH1 0x40 MLOAD DUP1 SWAP2 SUB SWAP1 RETURN JUMPDEST PUSH2 0x125 PUSH2 0x20A JUMP JUMPDEST PUSH1 0x40 MLOAD PUSH2 0x132 SWAP2 SWAP1 PUSH2 0x2AE JUMP JUMPDEST PUSH1 0x40 MLOAD DUP1 SWAP2 SUB SWAP1 RETURN JUMPDEST DUP1 PUSH0 DUP2 SWAP1 SSTORE POP POP JUMP JUMPDEST PUSH2 0x150 PUSH1 0xA PUSH1 0x14 PUSH2 0x213 JUMP JUMPDEST PUSH1 0x2 DUP2 SWAP1 SSTORE POP JUMP JUMPDEST PUSH0 PUSH1 0x3 PUSH0 SWAP1 SLOAD SWAP1 PUSH2 0x100 EXP SWAP1 DIV PUSH20 0xFFFFFFFFFFFFFFFFFFFFFFFFFFFFFFFFFFFFFFFF AND PUSH20 0xFFFFFFFFFFFFFFFFFFFFFFFFFFFFFFFFFFFFFFFF AND PUSH4 0x370158EA PUSH1 0x40 MLOAD DUP2 PUSH4 0xFFFFFFFF AND PUSH1 0xE0 SHL DUP2 MSTORE PUSH1 0x4 ADD PUSH1 0x20 PUSH1 0x40 MLOAD DUP1 DUP4 SUB DUP2 DUP7 GAS STATICCALL ISZERO DUP1 ISZERO PUSH2 0x1C3 JUMPI RETURNDATASIZE PUSH0 PUSH0 RETURNDATACOPY RETURNDATASIZE PUSH0 REVERT JUMPDEST POP POP POP POP PUSH1 0x40 MLOAD RETURNDATASIZE PUSH1 0x1F NOT PUSH1 0x1F DUP3 ADD AND DUP3 ADD DUP1 PUSH1 0x40 MSTORE POP DUP2 ADD SWAP1 PUSH2 0x1E7 SWAP2 SWAP1 PUSH2 0x2DB JUMP JUMPDEST SWAP1 POP SWAP1 JUMP JUMPDEST PUSH1 0x1 SLOAD DUP2 JUMP JUMPDEST PUSH0 PUSH0 SLOAD SWAP1 POP SWAP1 JUMP JUMPDEST PUSH0 PUSH2 0x205 PUSH1 0x2 PUSH2 0x228 JUMP JUMPDEST SWAP1 POP SWAP1 JUMP JUMPDEST PUSH0 PUSH1 0x2 SLOAD SWAP1 POP SWAP1 JUMP JUMPDEST PUSH0 DUP2 DUP4 PUSH2 0x220 SWAP2 SWAP1 PUSH2 0x333 JUMP JUMPDEST SWAP1 POP SWAP3 SWAP2 POP POP JUMP JUMPDEST PUSH0 PUSH1 0x1 DUP3 PUSH2 0x236 SWAP2 SWAP1 PUSH2 0x333 JUMP JUMPDEST SWAP1 POP SWAP2 SWAP1 POP JUMP JUMPDEST PUSH0 PUSH0 REVERT JUMPDEST PUSH0 DUP2 SWAP1 POP SWAP2 SWAP1 POP JUMP JUMPDEST PUSH2 0x253 DUP2 PUSH2 0x241 JUMP JUMPDEST DUP2 EQ PUSH2 0x25D JUMPI PUSH0 PUSH0 REVERT JUMPDEST POP JUMP JUMPDEST PUSH0 DUP2 CALLDATALOAD SWAP1 POP PUSH2 0x26E DUP2 PUSH2 0x24A JUMP JUMPDEST SWAP3 SWAP2 POP POP JUMP JUMPDEST PUSH0 PUSH1 0x20 DUP3 DUP5 SUB SLT ISZERO PUSH2 0x289 JUMPI PUSH2 0x288 PUSH2 0x23D JUMP JUMPDEST JUMPDEST PUSH0 PUSH2 0x296 DUP5 DUP3 DUP6 ADD PUSH2 0x260 JUMP JUMPDEST SWAP2 POP POP SWAP3 SWAP2 POP POP JUMP JUMPDEST PUSH2 0x2A8 DUP2 PUSH2 0x241 JUMP JUMPDEST DUP3 MSTORE POP POP JUMP JUMPDEST PUSH0 PUSH1 0x20 DUP3 ADD SWAP1 POP PUSH2 0x2C1 PUSH0 DUP4 ADD DUP5 PUSH2 0x29F JUMP JUMPDEST SWAP3 SWAP2 POP POP JUMP JUMPDEST PUSH0 DUP2 MLOAD SWAP1 POP PUSH2 0x2D5 DUP2 PUSH2 0x24A JUMP JUMPDEST SWAP3 SWAP2 POP POP JUMP JUMPDEST PUSH0 PUSH1 0x20 DUP3 DUP5 SUB SLT ISZERO PUSH2 0x2F0 JUMPI PUSH2 0x2EF PUSH2 0x23D JUMP JUMPDEST JUMPDEST PUSH0 PUSH2 0x2FD DUP5 DUP3 DUP6 ADD PUSH2 0x2C7 JUMP JUMPDEST SWAP2 POP POP SWAP3 SWAP2 POP POP JUMP JUMPDEST PUSH32 0x4E487B7100000000000000000000000000000000000000000000000000000000 PUSH0 MSTORE PUSH1 0x11 PUSH1 0x4 MSTORE PUSH1 0x24 PUSH0 REVERT JUMPDEST PUSH0 PUSH2 0x33D DUP3 PUSH2 0x241 JUMP JUMPDEST SWAP2 POP PUSH2 0x348 DUP4 PUSH2 0x241 JUMP JUMPDEST SWAP3 POP DUP3 DUP3 ADD SWAP1 POP DUP1 DUP3 GT ISZERO PUSH2 0x360 JUMPI PUSH2 0x35F PUSH2 0x306 JUMP JUMPDEST JUMPDEST SWAP3 SWAP2 POP POP JUMP INVALID LOG2 PUSH5 0x6970667358 0x22 SLT KECCAK256 DELEGATECALL PC 0xCD SMOD SWAP10 PUSH19 0x26D86218036E2E8A19DA6A7B0B310585DE494C 0xAD 0xB0 0xF6 PC 0xBD 0xF7 ADDRESS PUSH5 0x736F6C6343 STOP ADDMOD 0x1E STOP CALLER PUSH1 0x80 PUSH1 0x40 MSTORE CALLVALUE DUP1 ISZERO PUSH1 0xE JUMPI PUSH0 PUSH0 REVERT JUMPDEST POP PUSH1 0xA PUSH1 0x1 DUP2 SWAP1 SSTORE POP PUSH2 0x220 DUP1 PUSH2 0x24 PUSH0 CODECOPY PUSH0 RETURN INVALID PUSH1 0x80 PUSH1 0x40 MSTORE CALLVALUE DUP1 ISZERO PUSH2 0xF JUMPI PUSH0 PUSH0 REVERT JUMPDEST POP PUSH1 0x4 CALLDATASIZE LT PUSH2 0x4A JUMPI PUSH0 CALLDATALOAD PUSH1 0xE0 SHR DUP1 PUSH4 0x9E96008 EQ PUSH2 0x4E JUMPI DUP1 PUSH4 0x370158EA EQ PUSH2 0x6A JUMPI DUP1 PUSH4 0x3BC5DE30 EQ PUSH2 0x88 JUMPI DUP1 PUSH4 0x8C747B6D EQ PUSH2 0xA6 JUMPI JUMPDEST PUSH0 PUSH0 REVERT JUMPDEST PUSH2 0x68 PUSH1 0x4 DUP1 CALLDATASIZE SUB DUP2 ADD SWAP1 PUSH2 0x63 SWAP2 SWAP1 PUSH2 0x137 JUMP JUMPDEST PUSH2 0xC4 JUMP JUMPDEST STOP JUMPDEST PUSH2 0x72 PUSH2 0xCD JUMP JUMPDEST PUSH1 0x40 MLOAD PUSH2 0x7F SWAP2 SWAP1 PUSH2 0x171 JUMP JUMPDEST PUSH1 0x40 MLOAD DUP1 SWAP2 SUB SWAP1 RETURN JUMPDEST PUSH2 0x90 PUSH2 0xD3 JUMP JUMPDEST PUSH1 0x40 MLOAD PUSH2 0x9D SWAP2 SWAP1 PUSH2 0x171 JUMP JUMPDEST PUSH1 0x40 MLOAD DUP1 SWAP2 SUB SWAP1 RETURN JUMPDEST PUSH2 0xAE PUSH2 0xDB JUMP JUMPDEST PUSH1 0x40 MLOAD PUSH2 0xBB SWAP2 SWAP1 PUSH2 0x171 JUMP JUMPDEST PUSH1 0x40 MLOAD DUP1 SWAP2 SUB SWAP1 RETURN JUMPDEST DUP1 PUSH0 DUP2 SWAP1 SSTORE POP POP JUMP JUMPDEST PUSH1 0x1 SLOAD DUP2 JUMP JUMPDEST PUSH0 PUSH0 SLOAD SWAP1 POP SWAP1 JUMP JUMPDEST PUSH0 PUSH2 0xE6 PUSH1 0x2 PUSH2 0xEB JUMP JUMPDEST SWAP1 POP SWAP1 JUMP JUMPDEST PUSH0 PUSH1 0x1 DUP3 PUSH2 0xF9 SWAP2 SWAP1 PUSH2 0x1B7 JUMP JUMPDEST SWAP1 POP SWAP2 SWAP1 POP JUMP JUMPDEST PUSH0 PUSH0 REVERT JUMPDEST PUSH0 DUP2 SWAP1 POP SWAP2 SWAP1 POP JUMP JUMPDEST PUSH2 0x116 DUP2 PUSH2 0x104 JUMP JUMPDEST DUP2 EQ PUSH2 0x120 JUMPI PUSH0 PUSH0 REVERT JUMPDEST POP JUMP JUMPDEST PUSH0 DUP2 CALLDATALOAD SWAP1 POP PUSH2 0x131 DUP2 PUSH2 0x10D JUMP JUMPDEST SWAP3 SWAP2 POP POP JUMP JUMPDEST PUSH0 PUSH1 0x20 DUP3 DUP5 SUB SLT ISZERO PUSH2 0x14C JUMPI PUSH2 0x14B PUSH2 0x100 JUMP JUMPDEST JUMPDEST PUSH0 PUSH2 0x159 DUP5 DUP3 DUP6 ADD PUSH2 0x123 JUMP JUMPDEST SWAP2 POP POP SWAP3 SWAP2 POP POP JUMP JUMPDEST PUSH2 0x16B DUP2 PUSH2 0x104 JUMP JUMPDEST DUP3 MSTORE POP POP JUMP JUMPDEST PUSH0 PUSH1 0x20 DUP3 ADD SWAP1 POP PUSH2 0x184 PUSH0 DUP4 ADD DUP5 PUSH2 0x162 JUMP JUMPDEST SWAP3 SWAP2 POP POP JUMP JUMPDEST PUSH32 0x4E487B7100000000000000000000000000000000000000000000000000000000 PUSH0 MSTORE PUSH1 0x11 PUSH1 0x4 MSTORE PUSH1 0x24 PUSH0 REVERT JUMPDEST PUSH0 PUSH2 0x1C1 DUP3 PUSH2 0x104 JUMP JUMPDEST SWAP2 POP PUSH2 0x1CC DUP4 PUSH2 0x104 JUMP JUMPDEST SWAP3 POP DUP3 DUP3 ADD SWAP1 POP DUP1 DUP3 GT ISZERO PUSH2 0x1E4 JUMPI PUSH2 0x1E3 PUSH2 0x18A JUMP JUMPDEST JUMPDEST SWAP3 SWAP2 POP POP JUMP INVALID LOG2 PUSH5 0x6970667358 0x22 SLT KECCAK256 0xEA 0xED 0xC 0xC3 0x4F 0xEF 0xDE 0xEA 0xC4 SWAP8 RETURN CALLDATACOPY 0xF6 LOG0 PUSH27 0x6C6CDC25424AC0D827D871719A1133929A64736F6C634300081E00 CALLER "
				},
				"gasEstimates": {
					"creation": {
						"codeDepositCost": "184800",
						"executionCost": "infinite",
						"totalCost": "infinite"
					},
					"external": {
						"getComputeResult()": "infinite",
						"getData()": "2453",
						"getDataBaru()": "infinite",
						"getResult()": "2498",
						"info()": "2425",
						"setIncrement()": "infinite",
						"updateData(uint256)": "22515"
					}
				},
				"methodIdentifiers": {
					"getComputeResult()": "0af1e05e",
					"getData()": "3bc5de30",
					"getDataBaru()": "2629390f",
					"getResult()": "de292789",
					"info()": "370158ea",
					"setIncrement()": "8c747b6d",
					"updateData(uint256)": "09e96008"
				}
			},
			"storageLayout": {
				"storage": [
					{
						"astId": 3,
						"contract": "contracts/Contract.sol:Child",
						"label": "data",
						"offset": 0,
						"slot": "0",
						"type": "t_uint256"
					},
					{
						"astId": 5,
						"contract": "contracts/Contract.sol:Child",
						"label": "info",
						"offset": 0,
						"slot": "1",
						"type": "t_uint256"
					},
					{
						"astId": 97,
						"contract": "contracts/Contract.sol:Child",
						"label": "result",
						"offset": 0,
						"slot": "2",
						"type": "t_uint256"
					},
					{
						"astId": 100,
						"contract": "contracts/Contract.sol:Child",
						"label": "p",
						"offset": 0,
						"slot": "3",
						"type": "t_contract(Parent)68"
					}
				],
				"types": {
					"t_contract(Parent)68": {
						"encoding": "inplace",
						"label": "contract Parent",
						"numberOfBytes": "20"
					},
					"t_uint256": {
						"encoding": "inplace",
						"label": "uint256",
						"numberOfBytes": "32"
					}
				}
			},
			"userdoc": {
				"kind": "user",
				"methods": {},
				"version": 1
			}
		}
	}
}