{
	"contracts/Contract1.sol": {
		"contohDua": {
			"abi": [
				{
					"inputs": [
						{
							"internalType": "int256",
							"name": "_totalSupply",
							"type": "int256"
						}
					],
					"stateMutability": "nonpayable",
					"type": "constructor"
				},
				{
					"inputs": [],
					"name": "getSupply",
					"outputs": [
						{
							"internalType": "int256",
							"name": "",
							"type": "int256"
						}
					],
					"stateMutability": "view",
					"type": "function"
				}
			],
			"devdoc": {
				"kind": "dev",
				"methods": {},
				"version": 1
			},
			"evm": {
				"assembly": "    /* \"contracts/Contract1.sol\":242:575  contract contohDua {... */\n  mstore(0x40, 0x80)\n    /* \"contracts/Contract1.sol\":313:355  0x4B20993Bc481177ec7E8f571ceCaE8A9e22C02db */\n  0x4b20993bc481177ec7e8f571cecae8a9e22c02db\n    /* \"contracts/Contract1.sol\":289:355  address private owner = 0x4B20993Bc481177ec7E8f571ceCaE8A9e22C02db */\n  0x01\n  exp(0x0100, 0x00)\n  dup2\n  sload\n  dup2\n  0xffffffffffffffffffffffffffffffffffffffff\n  mul\n  not\n  and\n  swap1\n  dup4\n  0xffffffffffffffffffffffffffffffffffffffff\n  and\n  mul\n  or\n  swap1\n  sstore\n  pop\n    /* \"contracts/Contract1.sol\":362:484  constructor(int _totalSupply) {... */\n  callvalue\n  dup1\n  iszero\n  tag_1\n  jumpi\n  revert(0x00, 0x00)\ntag_1:\n  pop\n  mload(0x40)\n  sub(codesize, bytecodeSize)\n  dup1\n  bytecodeSize\n  dup4\n  codecopy\n  dup2\n  dup2\n  add\n  0x40\n  mstore\n  dup2\n  add\n  swap1\n  tag_2\n  swap2\n  swap1\n  tag_3\n  jump\t// in\ntag_2:\n    /* \"contracts/Contract1.sol\":420:425  owner */\n  0x01\n  0x00\n  swap1\n  sload\n  swap1\n  0x0100\n  exp\n  swap1\n  div\n  0xffffffffffffffffffffffffffffffffffffffff\n  and\n    /* \"contracts/Contract1.sol\":406:425  msg.sender == owner */\n  0xffffffffffffffffffffffffffffffffffffffff\n  and\n    /* \"contracts/Contract1.sol\":406:416  msg.sender */\n  caller\n    /* \"contracts/Contract1.sol\":406:425  msg.sender == owner */\n  0xffffffffffffffffffffffffffffffffffffffff\n  and\n  sub\n    /* \"contracts/Contract1.sol\":402:478  if (msg.sender == owner) {... */\n  tag_6\n  jumpi\n    /* \"contracts/Contract1.sol\":455:467  _totalSupply */\n  dup1\n    /* \"contracts/Contract1.sol\":441:452  totalSupply */\n  0x00\n    /* \"contracts/Contract1.sol\":441:467  totalSupply = _totalSupply */\n  dup2\n  swap1\n  sstore\n  pop\n    /* \"contracts/Contract1.sol\":402:478  if (msg.sender == owner) {... */\ntag_6:\n    /* \"contracts/Contract1.sol\":362:484  constructor(int _totalSupply) {... */\n  pop\n    /* \"contracts/Contract1.sol\":242:575  contract contohDua {... */\n  jump(tag_7)\n    /* \"#utility.yul\":88:205   */\ntag_9:\n    /* \"#utility.yul\":197:198   */\n  0x00\n    /* \"#utility.yul\":194:195   */\n  0x00\n    /* \"#utility.yul\":187:199   */\n  revert\n    /* \"#utility.yul\":334:410   */\ntag_11:\n    /* \"#utility.yul\":370:377   */\n  0x00\n    /* \"#utility.yul\":399:404   */\n  dup2\n    /* \"#utility.yul\":388:404   */\n  swap1\n  pop\n    /* \"#utility.yul\":334:410   */\n  swap2\n  swap1\n  pop\n  jump\t// out\n    /* \"#utility.yul\":416:536   */\ntag_12:\n    /* \"#utility.yul\":488:511   */\n  tag_20\n    /* \"#utility.yul\":505:510   */\n  dup2\n    /* \"#utility.yul\":488:511   */\n  tag_11\n  jump\t// in\ntag_20:\n    /* \"#utility.yul\":481:486   */\n  dup2\n    /* \"#utility.yul\":478:512   */\n  eq\n    /* \"#utility.yul\":468:530   */\n  tag_21\n  jumpi\n    /* \"#utility.yul\":526:527   */\n  0x00\n    /* \"#utility.yul\":523:524   */\n  0x00\n    /* \"#utility.yul\":516:528   */\n  revert\n    /* \"#utility.yul\":468:530   */\ntag_21:\n    /* \"#utility.yul\":416:536   */\n  pop\n  jump\t// out\n    /* \"#utility.yul\":542:683   */\ntag_13:\n    /* \"#utility.yul\":598:603   */\n  0x00\n    /* \"#utility.yul\":629:635   */\n  dup2\n    /* \"#utility.yul\":623:636   */\n  mload\n    /* \"#utility.yul\":614:636   */\n  swap1\n  pop\n    /* \"#utility.yul\":645:677   */\n  tag_23\n    /* \"#utility.yul\":671:676   */\n  dup2\n    /* \"#utility.yul\":645:677   */\n  tag_12\n  jump\t// in\ntag_23:\n    /* \"#utility.yul\":542:683   */\n  swap3\n  swap2\n  pop\n  pop\n  jump\t// out\n    /* \"#utility.yul\":689:1038   */\ntag_3:\n    /* \"#utility.yul\":758:764   */\n  0x00\n    /* \"#utility.yul\":807:809   */\n  0x20\n    /* \"#utility.yul\":795:804   */\n  dup3\n    /* \"#utility.yul\":786:793   */\n  dup5\n    /* \"#utility.yul\":782:805   */\n  sub\n    /* \"#utility.yul\":778:810   */\n  slt\n    /* \"#utility.yul\":775:894   */\n  iszero\n  tag_25\n  jumpi\n    /* \"#utility.yul\":813:892   */\n  tag_26\n  tag_9\n  jump\t// in\ntag_26:\n    /* \"#utility.yul\":775:894   */\ntag_25:\n    /* \"#utility.yul\":933:934   */\n  0x00\n    /* \"#utility.yul\":958:1021   */\n  tag_27\n    /* \"#utility.yul\":1013:1020   */\n  dup5\n    /* \"#utility.yul\":1004:1010   */\n  dup3\n    /* \"#utility.yul\":993:1002   */\n  dup6\n    /* \"#utility.yul\":989:1011   */\n  add\n    /* \"#utility.yul\":958:1021   */\n  tag_13\n  jump\t// in\ntag_27:\n    /* \"#utility.yul\":948:1021   */\n  swap2\n  pop\n    /* \"#utility.yul\":904:1031   */\n  pop\n    /* \"#utility.yul\":689:1038   */\n  swap3\n  swap2\n  pop\n  pop\n  jump\t// out\n    /* \"contracts/Contract1.sol\":242:575  contract contohDua {... */\ntag_7:\n  dataSize(sub_0)\n  dup1\n  dataOffset(sub_0)\n  0x00\n  codecopy\n  0x00\n  return\nstop\n\nsub_0: assembly {\n        /* \"contracts/Contract1.sol\":242:575  contract contohDua {... */\n      mstore(0x40, 0x80)\n      callvalue\n      dup1\n      iszero\n      tag_1\n      jumpi\n      revert(0x00, 0x00)\n    tag_1:\n      pop\n      jumpi(tag_2, lt(calldatasize, 0x04))\n      shr(0xe0, calldataload(0x00))\n      dup1\n      0x6c9c2faf\n      eq\n      tag_3\n      jumpi\n    tag_2:\n      revert(0x00, 0x00)\n        /* \"contracts/Contract1.sol\":490:573  function getSupply() public  view returns (int) {... */\n    tag_3:\n      tag_4\n      tag_5\n      jump\t// in\n    tag_4:\n      mload(0x40)\n      tag_6\n      swap2\n      swap1\n      tag_7\n      jump\t// in\n    tag_6:\n      mload(0x40)\n      dup1\n      swap2\n      sub\n      swap1\n      return\n    tag_5:\n        /* \"contracts/Contract1.sol\":533:536  int */\n      0x00\n        /* \"contracts/Contract1.sol\":555:566  totalSupply */\n      sload(0x00)\n        /* \"contracts/Contract1.sol\":548:566  return totalSupply */\n      swap1\n      pop\n        /* \"contracts/Contract1.sol\":490:573  function getSupply() public  view returns (int) {... */\n      swap1\n      jump\t// out\n        /* \"#utility.yul\":7:83   */\n    tag_9:\n        /* \"#utility.yul\":43:50   */\n      0x00\n        /* \"#utility.yul\":72:77   */\n      dup2\n        /* \"#utility.yul\":61:77   */\n      swap1\n      pop\n        /* \"#utility.yul\":7:83   */\n      swap2\n      swap1\n      pop\n      jump\t// out\n        /* \"#utility.yul\":89:204   */\n    tag_10:\n        /* \"#utility.yul\":174:197   */\n      tag_14\n        /* \"#utility.yul\":191:196   */\n      dup2\n        /* \"#utility.yul\":174:197   */\n      tag_9\n      jump\t// in\n    tag_14:\n        /* \"#utility.yul\":169:172   */\n      dup3\n        /* \"#utility.yul\":162:198   */\n      mstore\n        /* \"#utility.yul\":89:204   */\n      pop\n      pop\n      jump\t// out\n        /* \"#utility.yul\":210:428   */\n    tag_7:\n        /* \"#utility.yul\":301:305   */\n      0x00\n        /* \"#utility.yul\":339:341   */\n      0x20\n        /* \"#utility.yul\":328:337   */\n      dup3\n        /* \"#utility.yul\":324:342   */\n      add\n        /* \"#utility.yul\":316:342   */\n      swap1\n      pop\n        /* \"#utility.yul\":352:421   */\n      tag_16\n        /* \"#utility.yul\":418:419   */\n      0x00\n        /* \"#utility.yul\":407:416   */\n      dup4\n        /* \"#utility.yul\":403:420   */\n      add\n        /* \"#utility.yul\":394:400   */\n      dup5\n        /* \"#utility.yul\":352:421   */\n      tag_10\n      jump\t// in\n    tag_16:\n        /* \"#utility.yul\":210:428   */\n      swap3\n      swap2\n      pop\n      pop\n      jump\t// out\n\n    auxdata: 0xa26469706673582212209c0afdb4a85ebbb342b46e8ca141cf20532da0b32f0d04faefa8a1a38162677664736f6c634300081e0033\n}\n",
				"bytecode": {
					"linkReferences": {},
					"object": "6080604052734b20993bc481177ec7e8f571cecae8a9e22c02db60015f6101000a81548173ffffffffffffffffffffffffffffffffffffffff021916908373ffffffffffffffffffffffffffffffffffffffff160217905550348015610063575f5ffd5b506040516102033803806102038339818101604052810190610085919061011d565b60015f9054906101000a900473ffffffffffffffffffffffffffffffffffffffff1673ffffffffffffffffffffffffffffffffffffffff163373ffffffffffffffffffffffffffffffffffffffff16036100e057805f819055505b50610148565b5f5ffd5b5f819050919050565b6100fc816100ea565b8114610106575f5ffd5b50565b5f81519050610117816100f3565b92915050565b5f60208284031215610132576101316100e6565b5b5f61013f84828501610109565b91505092915050565b60af806101545f395ff3fe6080604052348015600e575f5ffd5b50600436106026575f3560e01c80636c9c2faf14602a575b5f5ffd5b60306044565b604051603b91906062565b60405180910390f35b5f5f54905090565b5f819050919050565b605c81604c565b82525050565b5f60208201905060735f8301846055565b9291505056fea26469706673582212209c0afdb4a85ebbb342b46e8ca141cf20532da0b32f0d04faefa8a1a38162677664736f6c634300081e0033",
					"opcodes": "PUSH1 0x80 PUSH1 0x40 MSTORE PUSH20 0x4B20993BC481177EC7E8F571CECAE8A9E22C02DB PUSH1 0x1 PUSH0 PUSH2 0x100 EXP DUP2 SLOAD DUP2 PUSH20 0xFFFFFFFFFFFFFFFFFFFFFFFFFFFFFFFFFFFFFFFF MUL NOT AND SWAP1 DUP4 PUSH20 0xFFFFFFFFFFFFFFFFFFFFFFFFFFFFFFFFFFFFFFFF AND MUL OR SWAP1 SSTORE POP CALLVALUE DUP1 ISZERO PUSH2 0x63 JUMPI PUSH0 PUSH0 REVERT JUMPDEST POP PUSH1 0x40 MLOAD PUSH2 0x203 CODESIZE SUB DUP1 PUSH2 0x203 DUP4 CODECOPY DUP2 DUP2 ADD PUSH1 0x40 MSTORE DUP2 ADD SWAP1 PUSH2 0x85 SWAP2 SWAP1 PUSH2 0x11D JUMP JUMPDEST PUSH1 0x1 PUSH0 SWAP1 SLOAD SWAP1 PUSH2 0x100 EXP SWAP1 DIV PUSH20 0xFFFFFFFFFFFFFFFFFFFFFFFFFFFFFFFFFFFFFFFF AND PUSH20 0xFFFFFFFFFFFFFFFFFFFFFFFFFFFFFFFFFFFFFFFF AND CALLER PUSH20 0xFFFFFFFFFFFFFFFFFFFFFFFFFFFFFFFFFFFFFFFF AND SUB PUSH2 0xE0 JUMPI DUP1 PUSH0 DUP2 SWAP1 SSTORE POP JUMPDEST POP PUSH2 0x148 JUMP JUMPDEST PUSH0 PUSH0 REVERT JUMPDEST PUSH0 DUP2 SWAP1 POP SWAP2 SWAP1 POP JUMP JUMPDEST PUSH2 0xFC DUP2 PUSH2 0xEA JUMP JUMPDEST DUP2 EQ PUSH2 0x106 JUMPI PUSH0 PUSH0 REVERT JUMPDEST POP JUMP JUMPDEST PUSH0 DUP2 MLOAD SWAP1 POP PUSH2 0x117 DUP2 PUSH2 0xF3 JUMP JUMPDEST SWAP3 SWAP2 POP POP JUMP JUMPDEST PUSH0 PUSH1 0x20 DUP3 DUP5 SUB SLT ISZERO PUSH2 0x132 JUMPI PUSH2 0x131 PUSH2 0xE6 JUMP JUMPDEST JUMPDEST PUSH0 PUSH2 0x13F DUP5 DUP3 DUP6 ADD PUSH2 0x109 JUMP JUMPDEST SWAP2 POP POP SWAP3 SWAP2 POP POP JUMP JUMPDEST PUSH1 0xAF DUP1 PUSH2 0x154 PUSH0 CODECOPY PUSH0 RETURN INVALID PUSH1 0x80 PUSH1 0x40 MSTORE CALLVALUE DUP1 ISZERO PUSH1 0xE JUMPI PUSH0 PUSH0 REVERT JUMPDEST POP PUSH1 0x4 CALLDATASIZE LT PUSH1 0x26 JUMPI PUSH0 CALLDATALOAD PUSH1 0xE0 SHR DUP1 PUSH4 0x6C9C2FAF EQ PUSH1 0x2A JUMPI JUMPDEST PUSH0 PUSH0 REVERT JUMPDEST PUSH1 0x30 PUSH1 0x44 JUMP JUMPDEST PUSH1 0x40 MLOAD PUSH1 0x3B SWAP2 SWAP1 PUSH1 0x62 JUMP JUMPDEST PUSH1 0x40 MLOAD DUP1 SWAP2 SUB SWAP1 RETURN JUMPDEST PUSH0 PUSH0 SLOAD SWAP1 POP SWAP1 JUMP JUMPDEST PUSH0 DUP2 SWAP1 POP SWAP2 SWAP1 POP JUMP JUMPDEST PUSH1 0x5C DUP2 PUSH1 0x4C JUMP JUMPDEST DUP3 MSTORE POP POP JUMP JUMPDEST PUSH0 PUSH1 0x20 DUP3 ADD SWAP1 POP PUSH1 0x73 PUSH0 DUP4 ADD DUP5 PUSH1 0x55 JUMP JUMPDEST SWAP3 SWAP2 POP POP JUMP INVALID LOG2 PUSH5 0x6970667358 0x22 SLT KECCAK256 SWAP13 EXP REVERT 0xB4 0xA8 MCOPY 0xBB 0xB3 TIMESTAMP 0xB4 PUSH15 0x8CA141CF20532DA0B32F0D04FAEFA8 LOG1 LOG3 DUP2 PUSH3 0x677664 PUSH20 0x6F6C634300081E00330000000000000000000000 "
				},
				"gasEstimates": {
					"creation": {
						"codeDepositCost": "35000",
						"executionCost": "infinite",
						"totalCost": "infinite"
					},
					"external": {
						"getSupply()": "2409"
					}
				},
				"methodIdentifiers": {
					"getSupply()": "6c9c2faf"
				}
			},
			"storageLayout": {
				"storage": [
					{
						"astId": 22,
						"contract": "contracts/Contract1.sol:contohDua",
						"label": "totalSupply",
						"offset": 0,
						"slot": "0",
						"type": "t_int256"
					},
					{
						"astId": 25,
						"contract": "contracts/Contract1.sol:contohDua",
						"label": "owner",
						"offset": 0,
						"slot": "1",
						"type": "t_address"
					}
				],
				"types": {
					"t_address": {
						"encoding": "inplace",
						"label": "address",
						"numberOfBytes": "20"
					},
					"t_int256": {
						"encoding": "inplace",
						"label": "int256",
						"numberOfBytes": "32"
					}
				}
			},
			"userdoc": {
				"kind": "user",
				"methods": {},
				"version": 1
			}
		}
	}
}