{
	"contracts/evoting.sol": {
		"evoting": {
			"abi": [
				{
					"inputs": [],
					"stateMutability": "nonpayable",
					"type": "constructor"
				},
				{
					"inputs": [
						{
							"internalType": "address",
							"name": "_addr",
							"type": "address"
						}
					],
					"name": "daftarkanKandidat",
					"outputs": [],
					"stateMutability": "nonpayable",
					"type": "function"
				},
				{
					"inputs": [
						{
							"internalType": "address",
							"name": "",
							"type": "address"
						}
					],
					"name": "isKandidatTerdaftar",
					"outputs": [
						{
							"internalType": "bool",
							"name": "",
							"type": "bool"
						}
					],
					"stateMutability": "view",
					"type": "function"
				},
				{
					"inputs": [],
					"name": "isSudahBisaVoting",
					"outputs": [
						{
							"internalType": "bool",
							"name": "",
							"type": "bool"
						}
					],
					"stateMutability": "view",
					"type": "function"
				},
				{
					"inputs": [
						{
							"internalType": "address",
							"name": "",
							"type": "address"
						}
					],
					"name": "isUserSudahMemilih",
					"outputs": [
						{
							"internalType": "bool",
							"name": "",
							"type": "bool"
						}
					],
					"stateMutability": "view",
					"type": "function"
				},
				{
					"inputs": [],
					"name": "isVotingSelesai",
					"outputs": [
						{
							"internalType": "bool",
							"name": "",
							"type": "bool"
						}
					],
					"stateMutability": "view",
					"type": "function"
				},
				{
					"inputs": [
						{
							"internalType": "uint256",
							"name": "",
							"type": "uint256"
						}
					],
					"name": "kandidat",
					"outputs": [
						{
							"internalType": "address",
							"name": "_addr",
							"type": "address"
						},
						{
							"internalType": "uint256",
							"name": "jumlahSuara",
							"type": "uint256"
						}
					],
					"stateMutability": "view",
					"type": "function"
				},
				{
					"inputs": [
						{
							"internalType": "bool",
							"name": "_voting",
							"type": "bool"
						}
					],
					"name": "mulaiVoting",
					"outputs": [],
					"stateMutability": "nonpayable",
					"type": "function"
				},
				{
					"inputs": [],
					"name": "owner",
					"outputs": [
						{
							"internalType": "address",
							"name": "",
							"type": "address"
						}
					],
					"stateMutability": "view",
					"type": "function"
				},
				{
					"inputs": [],
					"name": "pemenang",
					"outputs": [
						{
							"internalType": "address",
							"name": "",
							"type": "address"
						},
						{
							"internalType": "uint256",
							"name": "",
							"type": "uint256"
						}
					],
					"stateMutability": "view",
					"type": "function"
				},
				{
					"inputs": [],
					"name": "totalKandidat",
					"outputs": [
						{
							"internalType": "uint256",
							"name": "",
							"type": "uint256"
						}
					],
					"stateMutability": "view",
					"type": "function"
				},
				{
					"inputs": [
						{
							"internalType": "uint256",
							"name": "_urutanKandidat",
							"type": "uint256"
						}
					],
					"name": "voting",
					"outputs": [],
					"stateMutability": "nonpayable",
					"type": "function"
				},
				{
					"inputs": [],
					"name": "votingSelesai",
					"outputs": [],
					"stateMutability": "nonpayable",
					"type": "function"
				}
			],
			"devdoc": {
				"kind": "dev",
				"methods": {},
				"version": 1
			},
			"evm": {
				"assembly": "    /* \"contracts/evoting.sol\":78:2935  contract evoting {... */\n  mstore(0x40, 0x80)\n    /* \"contracts/evoting.sol\":243:361  constructor() {... */\n  callvalue\n  dup1\n  iszero\n  tag_1\n  jumpi\n  revert(0x00, 0x00)\ntag_1:\n  pop\n    /* \"contracts/evoting.sol\":275:285  msg.sender */\n  caller\n    /* \"contracts/evoting.sol\":267:272  owner */\n  0x00\n  0x00\n    /* \"contracts/evoting.sol\":267:285  owner = msg.sender */\n  0x0100\n  exp\n  dup2\n  sload\n  dup2\n  0xffffffffffffffffffffffffffffffffffffffff\n  mul\n  not\n  and\n  swap1\n  dup4\n  0xffffffffffffffffffffffffffffffffffffffff\n  and\n  mul\n  or\n  swap1\n  sstore\n  pop\n    /* \"contracts/evoting.sol\":316:321  false */\n  0x00\n    /* \"contracts/evoting.sol\":295:312  isSudahBisaVoting */\n  0x00\n  0x14\n    /* \"contracts/evoting.sol\":295:321  isSudahBisaVoting  = false */\n  0x0100\n  exp\n  dup2\n  sload\n  dup2\n  0xff\n  mul\n  not\n  and\n  swap1\n  dup4\n  iszero\n  iszero\n  mul\n  or\n  swap1\n  sstore\n  pop\n    /* \"contracts/evoting.sol\":349:354  false */\n  0x00\n    /* \"contracts/evoting.sol\":331:346  isVotingSelesai */\n  0x00\n  0x15\n    /* \"contracts/evoting.sol\":331:354  isVotingSelesai = false */\n  0x0100\n  exp\n  dup2\n  sload\n  dup2\n  0xff\n  mul\n  not\n  and\n  swap1\n  dup4\n  iszero\n  iszero\n  mul\n  or\n  swap1\n  sstore\n  pop\n    /* \"contracts/evoting.sol\":78:2935  contract evoting {... */\n  dataSize(sub_0)\n  dup1\n  dataOffset(sub_0)\n  0x00\n  codecopy\n  0x00\n  return\nstop\n\nsub_0: assembly {\n        /* \"contracts/evoting.sol\":78:2935  contract evoting {... */\n      mstore(0x40, 0x80)\n      callvalue\n      dup1\n      iszero\n      tag_1\n      jumpi\n      revert(0x00, 0x00)\n    tag_1:\n      pop\n      jumpi(tag_2, lt(calldatasize, 0x04))\n      shr(0xe0, calldataload(0x00))\n      dup1\n      0x8da5cb5b\n      gt\n      tag_15\n      jumpi\n      dup1\n      0x8da5cb5b\n      eq\n      tag_9\n      jumpi\n      dup1\n      0x98eae90b\n      eq\n      tag_10\n      jumpi\n      dup1\n      0xa9cefdfb\n      eq\n      tag_11\n      jumpi\n      dup1\n      0xb718eaaa\n      eq\n      tag_12\n      jumpi\n      dup1\n      0xd1c2bfb4\n      eq\n      tag_13\n      jumpi\n      dup1\n      0xfd4a77f1\n      eq\n      tag_14\n      jumpi\n      jump(tag_2)\n    tag_15:\n      dup1\n      0x2273535e\n      eq\n      tag_3\n      jumpi\n      dup1\n      0x3bfcfa6e\n      eq\n      tag_4\n      jumpi\n      dup1\n      0x51ce77e1\n      eq\n      tag_5\n      jumpi\n      dup1\n      0x657c3ef1\n      eq\n      tag_6\n      jumpi\n      dup1\n      0x67fde272\n      eq\n      tag_7\n      jumpi\n      dup1\n      0x752ea7d4\n      eq\n      tag_8\n      jumpi\n    tag_2:\n      revert(0x00, 0x00)\n        /* \"contracts/evoting.sol\":572:623  mapping (address => bool) public isUserSudahMemilih */\n    tag_3:\n      tag_16\n      0x04\n      dup1\n      calldatasize\n      sub\n      dup2\n      add\n      swap1\n      tag_17\n      swap2\n      swap1\n      tag_18\n      jump\t// in\n    tag_17:\n      tag_19\n      jump\t// in\n    tag_16:\n      mload(0x40)\n      tag_20\n      swap2\n      swap1\n      tag_21\n      jump\t// in\n    tag_20:\n      mload(0x40)\n      dup1\n      swap2\n      sub\n      swap1\n      return\n        /* \"contracts/evoting.sol\":174:203  bool public isSudahBisaVoting */\n    tag_4:\n      tag_22\n      tag_23\n      jump\t// in\n    tag_22:\n      mload(0x40)\n      tag_24\n      swap2\n      swap1\n      tag_21\n      jump\t// in\n    tag_24:\n      mload(0x40)\n      dup1\n      swap2\n      sub\n      swap1\n      return\n        /* \"contracts/evoting.sol\":2094:2258  function votingSelesai() public {... */\n    tag_5:\n      tag_25\n      tag_26\n      jump\t// in\n    tag_25:\n      stop\n        /* \"contracts/evoting.sol\":445:472  Kandidat[] public  kandidat */\n    tag_6:\n      tag_27\n      0x04\n      dup1\n      calldatasize\n      sub\n      dup2\n      add\n      swap1\n      tag_28\n      swap2\n      swap1\n      tag_29\n      jump\t// in\n    tag_28:\n      tag_30\n      jump\t// in\n    tag_27:\n      mload(0x40)\n      tag_31\n      swap3\n      swap2\n      swap1\n      tag_32\n      jump\t// in\n    tag_31:\n      mload(0x40)\n      dup1\n      swap2\n      sub\n      swap1\n      return\n        /* \"contracts/evoting.sol\":782:1211  function daftarkanKandidat(address _addr) public {... */\n    tag_7:\n      tag_33\n      0x04\n      dup1\n      calldatasize\n      sub\n      dup2\n      add\n      swap1\n      tag_34\n      swap2\n      swap1\n      tag_18\n      jump\t// in\n    tag_34:\n      tag_35\n      jump\t// in\n    tag_33:\n      stop\n        /* \"contracts/evoting.sol\":1291:1383  function totalKandidat() public  view returns (uint) {... */\n    tag_8:\n      tag_36\n      tag_37\n      jump\t// in\n    tag_36:\n      mload(0x40)\n      tag_38\n      swap2\n      swap1\n      tag_39\n      jump\t// in\n    tag_38:\n      mload(0x40)\n      dup1\n      swap2\n      sub\n      swap1\n      return\n        /* \"contracts/evoting.sol\":101:121  address public owner */\n    tag_9:\n      tag_40\n      tag_41\n      jump\t// in\n    tag_40:\n      mload(0x40)\n      tag_42\n      swap2\n      swap1\n      tag_43\n      jump\t// in\n    tag_42:\n      mload(0x40)\n      dup1\n      swap2\n      sub\n      swap1\n      return\n        /* \"contracts/evoting.sol\":2264:2933  function pemenang() public  view returns (address, uint) {... */\n    tag_10:\n      tag_44\n      tag_45\n      jump\t// in\n    tag_44:\n      mload(0x40)\n      tag_46\n      swap3\n      swap2\n      swap1\n      tag_32\n      jump\t// in\n    tag_46:\n      mload(0x40)\n      dup1\n      swap2\n      sub\n      swap1\n      return\n        /* \"contracts/evoting.sol\":1442:1631  function mulaiVoting(bool _voting) public {... */\n    tag_11:\n      tag_47\n      0x04\n      dup1\n      calldatasize\n      sub\n      dup2\n      add\n      swap1\n      tag_48\n      swap2\n      swap1\n      tag_49\n      jump\t// in\n    tag_48:\n      tag_50\n      jump\t// in\n    tag_47:\n      stop\n        /* \"contracts/evoting.sol\":209:236  bool public isVotingSelesai */\n    tag_12:\n      tag_51\n      tag_52\n      jump\t// in\n    tag_51:\n      mload(0x40)\n      tag_53\n      swap2\n      swap1\n      tag_21\n      jump\t// in\n    tag_53:\n      mload(0x40)\n      dup1\n      swap2\n      sub\n      swap1\n      return\n        /* \"contracts/evoting.sol\":515:566  mapping(address => bool) public isKandidatTerdaftar */\n    tag_13:\n      tag_54\n      0x04\n      dup1\n      calldatasize\n      sub\n      dup2\n      add\n      swap1\n      tag_55\n      swap2\n      swap1\n      tag_18\n      jump\t// in\n    tag_55:\n      tag_56\n      jump\t// in\n    tag_54:\n      mload(0x40)\n      tag_57\n      swap2\n      swap1\n      tag_21\n      jump\t// in\n    tag_57:\n      mload(0x40)\n      dup1\n      swap2\n      sub\n      swap1\n      return\n        /* \"contracts/evoting.sol\":1684:2087  function voting(uint _urutanKandidat) public {... */\n    tag_14:\n      tag_58\n      0x04\n      dup1\n      calldatasize\n      sub\n      dup2\n      add\n      swap1\n      tag_59\n      swap2\n      swap1\n      tag_29\n      jump\t// in\n    tag_59:\n      tag_60\n      jump\t// in\n    tag_58:\n      stop\n        /* \"contracts/evoting.sol\":572:623  mapping (address => bool) public isUserSudahMemilih */\n    tag_19:\n      mstore(0x20, 0x03)\n      dup1\n      0x00\n      mstore\n      keccak256(0x00, 0x40)\n      0x00\n      swap2\n      pop\n      sload\n      swap1\n      0x0100\n      exp\n      swap1\n      div\n      0xff\n      and\n      dup2\n      jump\t// out\n        /* \"contracts/evoting.sol\":174:203  bool public isSudahBisaVoting */\n    tag_23:\n      0x00\n      0x14\n      swap1\n      sload\n      swap1\n      0x0100\n      exp\n      swap1\n      div\n      0xff\n      and\n      dup2\n      jump\t// out\n        /* \"contracts/evoting.sol\":2094:2258  function votingSelesai() public {... */\n    tag_26:\n        /* \"contracts/evoting.sol\":2158:2163  owner */\n      0x00\n      0x00\n      swap1\n      sload\n      swap1\n      0x0100\n      exp\n      swap1\n      div\n      0xffffffffffffffffffffffffffffffffffffffff\n      and\n        /* \"contracts/evoting.sol\":2144:2163  msg.sender == owner */\n      0xffffffffffffffffffffffffffffffffffffffff\n      and\n        /* \"contracts/evoting.sol\":2144:2154  msg.sender */\n      caller\n        /* \"contracts/evoting.sol\":2144:2163  msg.sender == owner */\n      0xffffffffffffffffffffffffffffffffffffffff\n      and\n      eq\n        /* \"contracts/evoting.sol\":2136:2184  require(msg.sender == owner, \"Anda bukan owner\") */\n      tag_62\n      jumpi\n      mload(0x40)\n      0x08c379a000000000000000000000000000000000000000000000000000000000\n      dup2\n      mstore\n      0x04\n      add\n      tag_63\n      swap1\n      tag_64\n      jump\t// in\n    tag_63:\n      mload(0x40)\n      dup1\n      swap2\n      sub\n      swap1\n      revert\n    tag_62:\n        /* \"contracts/evoting.sol\":2212:2216  true */\n      0x01\n        /* \"contracts/evoting.sol\":2194:2209  isVotingSelesai */\n      0x00\n      0x15\n        /* \"contracts/evoting.sol\":2194:2216  isVotingSelesai = true */\n      0x0100\n      exp\n      dup2\n      sload\n      dup2\n      0xff\n      mul\n      not\n      and\n      swap1\n      dup4\n      iszero\n      iszero\n      mul\n      or\n      swap1\n      sstore\n      pop\n        /* \"contracts/evoting.sol\":2246:2251  false */\n      0x00\n        /* \"contracts/evoting.sol\":2226:2243  isSudahBisaVoting */\n      0x00\n      0x14\n        /* \"contracts/evoting.sol\":2226:2251  isSudahBisaVoting = false */\n      0x0100\n      exp\n      dup2\n      sload\n      dup2\n      0xff\n      mul\n      not\n      and\n      swap1\n      dup4\n      iszero\n      iszero\n      mul\n      or\n      swap1\n      sstore\n      pop\n        /* \"contracts/evoting.sol\":2094:2258  function votingSelesai() public {... */\n      jump\t// out\n        /* \"contracts/evoting.sol\":445:472  Kandidat[] public  kandidat */\n    tag_30:\n      0x01\n      dup2\n      dup2\n      sload\n      dup2\n      lt\n      tag_65\n      jumpi\n      0x00\n      dup1\n      revert\n    tag_65:\n      swap1\n      0x00\n      mstore\n      keccak256(0x00, 0x20)\n      swap1\n      0x02\n      mul\n      add\n      0x00\n      swap2\n      pop\n      swap1\n      pop\n      dup1\n      0x00\n      add\n      0x00\n      swap1\n      sload\n      swap1\n      0x0100\n      exp\n      swap1\n      div\n      0xffffffffffffffffffffffffffffffffffffffff\n      and\n      swap1\n      dup1\n      0x01\n      add\n      sload\n      swap1\n      pop\n      dup3\n      jump\t// out\n        /* \"contracts/evoting.sol\":782:1211  function daftarkanKandidat(address _addr) public {... */\n    tag_35:\n        /* \"contracts/evoting.sol\":863:868  owner */\n      0x00\n      0x00\n      swap1\n      sload\n      swap1\n      0x0100\n      exp\n      swap1\n      div\n      0xffffffffffffffffffffffffffffffffffffffff\n      and\n        /* \"contracts/evoting.sol\":849:868  msg.sender == owner */\n      0xffffffffffffffffffffffffffffffffffffffff\n      and\n        /* \"contracts/evoting.sol\":849:859  msg.sender */\n      caller\n        /* \"contracts/evoting.sol\":849:868  msg.sender == owner */\n      0xffffffffffffffffffffffffffffffffffffffff\n      and\n      eq\n        /* \"contracts/evoting.sol\":841:934  require(msg.sender == owner, \"Anda bukan owner, hanya owner yang bisa mendaftarkan kandidat\") */\n      tag_68\n      jumpi\n      mload(0x40)\n      0x08c379a000000000000000000000000000000000000000000000000000000000\n      dup2\n      mstore\n      0x04\n      add\n      tag_69\n      swap1\n      tag_70\n      jump\t// in\n    tag_69:\n      mload(0x40)\n      dup1\n      swap2\n      sub\n      swap1\n      revert\n    tag_68:\n        /* \"contracts/evoting.sol\":961:966  owner */\n      0x00\n      0x00\n      swap1\n      sload\n      swap1\n      0x0100\n      exp\n      swap1\n      div\n      0xffffffffffffffffffffffffffffffffffffffff\n      and\n        /* \"contracts/evoting.sol\":952:966  _addr != owner */\n      0xffffffffffffffffffffffffffffffffffffffff\n      and\n        /* \"contracts/evoting.sol\":952:957  _addr */\n      dup2\n        /* \"contracts/evoting.sol\":952:966  _addr != owner */\n      0xffffffffffffffffffffffffffffffffffffffff\n      and\n      sub\n        /* \"contracts/evoting.sol\":944:1017  require(_addr != owner, \"Owner tidak boleh mendaftarkan dirinya sendiri\") */\n      tag_71\n      jumpi\n      mload(0x40)\n      0x08c379a000000000000000000000000000000000000000000000000000000000\n      dup2\n      mstore\n      0x04\n      add\n      tag_72\n      swap1\n      tag_73\n      jump\t// in\n    tag_72:\n      mload(0x40)\n      dup1\n      swap2\n      sub\n      swap1\n      revert\n    tag_71:\n        /* \"contracts/evoting.sol\":1036:1055  isKandidatTerdaftar */\n      0x02\n        /* \"contracts/evoting.sol\":1036:1062  isKandidatTerdaftar[_addr] */\n      0x00\n        /* \"contracts/evoting.sol\":1056:1061  _addr */\n      dup3\n        /* \"contracts/evoting.sol\":1036:1062  isKandidatTerdaftar[_addr] */\n      0xffffffffffffffffffffffffffffffffffffffff\n      and\n      0xffffffffffffffffffffffffffffffffffffffff\n      and\n      dup2\n      mstore\n      0x20\n      add\n      swap1\n      dup2\n      mstore\n      0x20\n      add\n      0x00\n      keccak256\n      0x00\n      swap1\n      sload\n      swap1\n      0x0100\n      exp\n      swap1\n      div\n      0xff\n      and\n        /* \"contracts/evoting.sol\":1035:1062  !isKandidatTerdaftar[_addr] */\n      iszero\n        /* \"contracts/evoting.sol\":1027:1091  require(!isKandidatTerdaftar[_addr], \"Kandidat sudah mendaftar\") */\n      tag_74\n      jumpi\n      mload(0x40)\n      0x08c379a000000000000000000000000000000000000000000000000000000000\n      dup2\n      mstore\n      0x04\n      add\n      tag_75\n      swap1\n      tag_76\n      jump\t// in\n    tag_75:\n      mload(0x40)\n      dup1\n      swap2\n      sub\n      swap1\n      revert\n    tag_74:\n        /* \"contracts/evoting.sol\":1101:1109  kandidat */\n      0x01\n        /* \"contracts/evoting.sol\":1115:1133  Kandidat(_addr, 0) */\n      mload(0x40)\n      dup1\n      0x40\n      add\n      0x40\n      mstore\n      dup1\n        /* \"contracts/evoting.sol\":1124:1129  _addr */\n      dup4\n        /* \"contracts/evoting.sol\":1115:1133  Kandidat(_addr, 0) */\n      0xffffffffffffffffffffffffffffffffffffffff\n      and\n      dup2\n      mstore\n      0x20\n      add\n        /* \"contracts/evoting.sol\":1131:1132  0 */\n      0x00\n        /* \"contracts/evoting.sol\":1115:1133  Kandidat(_addr, 0) */\n      dup2\n      mstore\n      pop\n        /* \"contracts/evoting.sol\":1101:1134  kandidat.push(Kandidat(_addr, 0)) */\n      swap1\n      dup1\n      0x01\n      dup2\n      sload\n      add\n      dup1\n      dup3\n      sstore\n      dup1\n      swap2\n      pop\n      pop\n      0x01\n      swap1\n      sub\n      swap1\n      0x00\n      mstore\n      keccak256(0x00, 0x20)\n      swap1\n      0x02\n      mul\n      add\n      0x00\n      swap1\n      swap2\n      swap1\n      swap2\n      swap1\n      swap2\n      pop\n      0x00\n      dup3\n      add\n      mload\n      dup2\n      0x00\n      add\n      exp(0x0100, 0x00)\n      dup2\n      sload\n      dup2\n      0xffffffffffffffffffffffffffffffffffffffff\n      mul\n      not\n      and\n      swap1\n      dup4\n      0xffffffffffffffffffffffffffffffffffffffff\n      and\n      mul\n      or\n      swap1\n      sstore\n      pop\n      0x20\n      dup3\n      add\n      mload\n      dup2\n      0x01\n      add\n      sstore\n      pop\n      pop\n        /* \"contracts/evoting.sol\":1200:1204  true */\n      0x01\n        /* \"contracts/evoting.sol\":1171:1190  isKandidatTerdaftar */\n      0x02\n        /* \"contracts/evoting.sol\":1171:1197  isKandidatTerdaftar[_addr] */\n      0x00\n        /* \"contracts/evoting.sol\":1191:1196  _addr */\n      dup4\n        /* \"contracts/evoting.sol\":1171:1197  isKandidatTerdaftar[_addr] */\n      0xffffffffffffffffffffffffffffffffffffffff\n      and\n      0xffffffffffffffffffffffffffffffffffffffff\n      and\n      dup2\n      mstore\n      0x20\n      add\n      swap1\n      dup2\n      mstore\n      0x20\n      add\n      0x00\n      keccak256\n      0x00\n        /* \"contracts/evoting.sol\":1171:1204  isKandidatTerdaftar[_addr] = true */\n      0x0100\n      exp\n      dup2\n      sload\n      dup2\n      0xff\n      mul\n      not\n      and\n      swap1\n      dup4\n      iszero\n      iszero\n      mul\n      or\n      swap1\n      sstore\n      pop\n        /* \"contracts/evoting.sol\":782:1211  function daftarkanKandidat(address _addr) public {... */\n      pop\n      jump\t// out\n        /* \"contracts/evoting.sol\":1291:1383  function totalKandidat() public  view returns (uint) {... */\n    tag_37:\n        /* \"contracts/evoting.sol\":1338:1342  uint */\n      0x00\n        /* \"contracts/evoting.sol\":1361:1369  kandidat */\n      0x01\n        /* \"contracts/evoting.sol\":1361:1376  kandidat.length */\n      dup1\n      sload\n      swap1\n      pop\n        /* \"contracts/evoting.sol\":1354:1376  return kandidat.length */\n      swap1\n      pop\n        /* \"contracts/evoting.sol\":1291:1383  function totalKandidat() public  view returns (uint) {... */\n      swap1\n      jump\t// out\n        /* \"contracts/evoting.sol\":101:121  address public owner */\n    tag_41:\n      0x00\n      0x00\n      swap1\n      sload\n      swap1\n      0x0100\n      exp\n      swap1\n      div\n      0xffffffffffffffffffffffffffffffffffffffff\n      and\n      dup2\n      jump\t// out\n        /* \"contracts/evoting.sol\":2264:2933  function pemenang() public  view returns (address, uint) {... */\n    tag_45:\n        /* \"contracts/evoting.sol\":2306:2313  address */\n      0x00\n        /* \"contracts/evoting.sol\":2315:2319  uint */\n      0x00\n        /* \"contracts/evoting.sol\":2421:2422  2 */\n      0x02\n        /* \"contracts/evoting.sol\":2402:2410  kandidat */\n      0x01\n        /* \"contracts/evoting.sol\":2402:2417  kandidat.length */\n      dup1\n      sload\n      swap1\n      pop\n        /* \"contracts/evoting.sol\":2402:2422  kandidat.length >= 2 */\n      lt\n      iszero\n        /* \"contracts/evoting.sol\":2394:2445  require(kandidat.length >= 2, \"Kandidat tidak ada\") */\n      tag_80\n      jumpi\n      mload(0x40)\n      0x08c379a000000000000000000000000000000000000000000000000000000000\n      dup2\n      mstore\n      0x04\n      add\n      tag_81\n      swap1\n      tag_82\n      jump\t// in\n    tag_81:\n      mload(0x40)\n      dup1\n      swap2\n      sub\n      swap1\n      revert\n    tag_80:\n        /* \"contracts/evoting.sol\":2503:2518  isVotingSelesai */\n      0x00\n      0x15\n      swap1\n      sload\n      swap1\n      0x0100\n      exp\n      swap1\n      div\n      0xff\n      and\n        /* \"contracts/evoting.sol\":2495:2543  require(isVotingSelesai, \"Voting belum selesai\") */\n      tag_83\n      jumpi\n      mload(0x40)\n      0x08c379a000000000000000000000000000000000000000000000000000000000\n      dup2\n      mstore\n      0x04\n      add\n      tag_84\n      swap1\n      tag_85\n      jump\t// in\n    tag_84:\n      mload(0x40)\n      dup1\n      swap2\n      sub\n      swap1\n      revert\n    tag_83:\n        /* \"contracts/evoting.sol\":2554:2573  uint suaraTertinggi */\n      0x00\n        /* \"contracts/evoting.sol\":2576:2577  0 */\n      0x00\n        /* \"contracts/evoting.sol\":2554:2577  uint suaraTertinggi = 0 */\n      swap1\n      pop\n        /* \"contracts/evoting.sol\":2587:2605  uint indexPemenang */\n      0x00\n        /* \"contracts/evoting.sol\":2608:2609  0 */\n      0x00\n        /* \"contracts/evoting.sol\":2587:2609  uint indexPemenang = 0 */\n      swap1\n      pop\n        /* \"contracts/evoting.sol\":2625:2631  uint i */\n      0x00\n        /* \"contracts/evoting.sol\":2634:2635  0 */\n      0x00\n        /* \"contracts/evoting.sol\":2625:2635  uint i = 0 */\n      swap1\n      pop\n        /* \"contracts/evoting.sol\":2620:2841  for (uint i = 0; i < kandidat.length; i++) {... */\n    tag_86:\n        /* \"contracts/evoting.sol\":2641:2649  kandidat */\n      0x01\n        /* \"contracts/evoting.sol\":2641:2656  kandidat.length */\n      dup1\n      sload\n      swap1\n      pop\n        /* \"contracts/evoting.sol\":2637:2638  i */\n      dup2\n        /* \"contracts/evoting.sol\":2637:2656  i < kandidat.length */\n      lt\n        /* \"contracts/evoting.sol\":2620:2841  for (uint i = 0; i < kandidat.length; i++) {... */\n      iszero\n      tag_87\n      jumpi\n        /* \"contracts/evoting.sol\":2707:2721  suaraTertinggi */\n      dup3\n        /* \"contracts/evoting.sol\":2681:2689  kandidat */\n      0x01\n        /* \"contracts/evoting.sol\":2690:2691  i */\n      dup3\n        /* \"contracts/evoting.sol\":2681:2692  kandidat[i] */\n      dup2\n      sload\n      dup2\n      lt\n      tag_89\n      jumpi\n      tag_90\n      tag_91\n      jump\t// in\n    tag_90:\n    tag_89:\n      swap1\n      0x00\n      mstore\n      keccak256(0x00, 0x20)\n      swap1\n      0x02\n      mul\n      add\n        /* \"contracts/evoting.sol\":2681:2704  kandidat[i].jumlahSuara */\n      0x01\n      add\n      sload\n        /* \"contracts/evoting.sol\":2681:2721  kandidat[i].jumlahSuara > suaraTertinggi */\n      gt\n        /* \"contracts/evoting.sol\":2677:2831  if (kandidat[i].jumlahSuara > suaraTertinggi) {... */\n      iszero\n      tag_93\n      jumpi\n        /* \"contracts/evoting.sol\":2758:2766  kandidat */\n      0x01\n        /* \"contracts/evoting.sol\":2767:2768  i */\n      dup2\n        /* \"contracts/evoting.sol\":2758:2769  kandidat[i] */\n      dup2\n      sload\n      dup2\n      lt\n      tag_94\n      jumpi\n      tag_95\n      tag_91\n      jump\t// in\n    tag_95:\n    tag_94:\n      swap1\n      0x00\n      mstore\n      keccak256(0x00, 0x20)\n      swap1\n      0x02\n      mul\n      add\n        /* \"contracts/evoting.sol\":2758:2781  kandidat[i].jumlahSuara */\n      0x01\n      add\n      sload\n        /* \"contracts/evoting.sol\":2741:2781  suaraTertinggi = kandidat[i].jumlahSuara */\n      swap3\n      pop\n        /* \"contracts/evoting.sol\":2815:2816  i */\n      dup1\n        /* \"contracts/evoting.sol\":2799:2816  indexPemenang = i */\n      swap2\n      pop\n        /* \"contracts/evoting.sol\":2677:2831  if (kandidat[i].jumlahSuara > suaraTertinggi) {... */\n    tag_93:\n        /* \"contracts/evoting.sol\":2658:2661  i++ */\n      dup1\n      dup1\n      0x01\n      add\n      swap2\n      pop\n      pop\n        /* \"contracts/evoting.sol\":2620:2841  for (uint i = 0; i < kandidat.length; i++) {... */\n      jump(tag_86)\n    tag_87:\n      pop\n        /* \"contracts/evoting.sol\":2859:2867  kandidat */\n      0x01\n        /* \"contracts/evoting.sol\":2868:2881  indexPemenang */\n      dup2\n        /* \"contracts/evoting.sol\":2859:2882  kandidat[indexPemenang] */\n      dup2\n      sload\n      dup2\n      lt\n      tag_97\n      jumpi\n      tag_98\n      tag_91\n      jump\t// in\n    tag_98:\n    tag_97:\n      swap1\n      0x00\n      mstore\n      keccak256(0x00, 0x20)\n      swap1\n      0x02\n      mul\n      add\n        /* \"contracts/evoting.sol\":2859:2888  kandidat[indexPemenang]._addr */\n      0x00\n      add\n      0x00\n      swap1\n      sload\n      swap1\n      0x0100\n      exp\n      swap1\n      div\n      0xffffffffffffffffffffffffffffffffffffffff\n      and\n        /* \"contracts/evoting.sol\":2890:2898  kandidat */\n      0x01\n        /* \"contracts/evoting.sol\":2899:2912  indexPemenang */\n      dup3\n        /* \"contracts/evoting.sol\":2890:2913  kandidat[indexPemenang] */\n      dup2\n      sload\n      dup2\n      lt\n      tag_100\n      jumpi\n      tag_101\n      tag_91\n      jump\t// in\n    tag_101:\n    tag_100:\n      swap1\n      0x00\n      mstore\n      keccak256(0x00, 0x20)\n      swap1\n      0x02\n      mul\n      add\n        /* \"contracts/evoting.sol\":2890:2925  kandidat[indexPemenang].jumlahSuara */\n      0x01\n      add\n      sload\n        /* \"contracts/evoting.sol\":2851:2926  return (kandidat[indexPemenang]._addr, kandidat[indexPemenang].jumlahSuara) */\n      swap4\n      pop\n      swap4\n      pop\n      pop\n      pop\n        /* \"contracts/evoting.sol\":2264:2933  function pemenang() public  view returns (address, uint) {... */\n      swap1\n      swap2\n      jump\t// out\n        /* \"contracts/evoting.sol\":1442:1631  function mulaiVoting(bool _voting) public {... */\n    tag_50:\n        /* \"contracts/evoting.sol\":1516:1521  owner */\n      0x00\n      0x00\n      swap1\n      sload\n      swap1\n      0x0100\n      exp\n      swap1\n      div\n      0xffffffffffffffffffffffffffffffffffffffff\n      and\n        /* \"contracts/evoting.sol\":1502:1521  msg.sender == owner */\n      0xffffffffffffffffffffffffffffffffffffffff\n      and\n        /* \"contracts/evoting.sol\":1502:1512  msg.sender */\n      caller\n        /* \"contracts/evoting.sol\":1502:1521  msg.sender == owner */\n      0xffffffffffffffffffffffffffffffffffffffff\n      and\n      eq\n        /* \"contracts/evoting.sol\":1494:1587  require(msg.sender == owner, \"Anda bukan owner, hanya owner yang bisa mendaftarkan kandidat\") */\n      tag_104\n      jumpi\n      mload(0x40)\n      0x08c379a000000000000000000000000000000000000000000000000000000000\n      dup2\n      mstore\n      0x04\n      add\n      tag_105\n      swap1\n      tag_70\n      jump\t// in\n    tag_105:\n      mload(0x40)\n      dup1\n      swap2\n      sub\n      swap1\n      revert\n    tag_104:\n        /* \"contracts/evoting.sol\":1617:1624  _voting */\n      dup1\n        /* \"contracts/evoting.sol\":1597:1614  isSudahBisaVoting */\n      0x00\n      0x14\n        /* \"contracts/evoting.sol\":1597:1624  isSudahBisaVoting = _voting */\n      0x0100\n      exp\n      dup2\n      sload\n      dup2\n      0xff\n      mul\n      not\n      and\n      swap1\n      dup4\n      iszero\n      iszero\n      mul\n      or\n      swap1\n      sstore\n      pop\n        /* \"contracts/evoting.sol\":1442:1631  function mulaiVoting(bool _voting) public {... */\n      pop\n      jump\t// out\n        /* \"contracts/evoting.sol\":209:236  bool public isVotingSelesai */\n    tag_52:\n      0x00\n      0x15\n      swap1\n      sload\n      swap1\n      0x0100\n      exp\n      swap1\n      div\n      0xff\n      and\n      dup2\n      jump\t// out\n        /* \"contracts/evoting.sol\":515:566  mapping(address => bool) public isKandidatTerdaftar */\n    tag_56:\n      mstore(0x20, 0x02)\n      dup1\n      0x00\n      mstore\n      keccak256(0x00, 0x40)\n      0x00\n      swap2\n      pop\n      sload\n      swap1\n      0x0100\n      exp\n      swap1\n      div\n      0xff\n      and\n      dup2\n      jump\t// out\n        /* \"contracts/evoting.sol\":1684:2087  function voting(uint _urutanKandidat) public {... */\n    tag_60:\n        /* \"contracts/evoting.sol\":1768:1772  true */\n      0x01\n        /* \"contracts/evoting.sol\":1747:1772  isSudahBisaVoting == true */\n      iszero\n      iszero\n        /* \"contracts/evoting.sol\":1747:1764  isSudahBisaVoting */\n      0x00\n      0x14\n      swap1\n      sload\n      swap1\n      0x0100\n      exp\n      swap1\n      div\n      0xff\n      and\n        /* \"contracts/evoting.sol\":1747:1772  isSudahBisaVoting == true */\n      iszero\n      iszero\n      eq\n        /* \"contracts/evoting.sol\":1739:1797  require(isSudahBisaVoting == true, \"Voting belum dimulai\") */\n      tag_107\n      jumpi\n      mload(0x40)\n      0x08c379a000000000000000000000000000000000000000000000000000000000\n      dup2\n      mstore\n      0x04\n      add\n      tag_108\n      swap1\n      tag_109\n      jump\t// in\n    tag_108:\n      mload(0x40)\n      dup1\n      swap2\n      sub\n      swap1\n      revert\n    tag_107:\n        /* \"contracts/evoting.sol\":1833:1841  kandidat */\n      0x01\n        /* \"contracts/evoting.sol\":1833:1848  kandidat.length */\n      dup1\n      sload\n      swap1\n      pop\n        /* \"contracts/evoting.sol\":1815:1830  _urutanKandidat */\n      dup2\n        /* \"contracts/evoting.sol\":1815:1848  _urutanKandidat < kandidat.length */\n      lt\n        /* \"contracts/evoting.sol\":1807:1877  require(_urutanKandidat < kandidat.length, \"Kandidat tidak ditemukan\") */\n      tag_110\n      jumpi\n      mload(0x40)\n      0x08c379a000000000000000000000000000000000000000000000000000000000\n      dup2\n      mstore\n      0x04\n      add\n      tag_111\n      swap1\n      tag_112\n      jump\t// in\n    tag_111:\n      mload(0x40)\n      dup1\n      swap2\n      sub\n      swap1\n      revert\n    tag_110:\n        /* \"contracts/evoting.sol\":1896:1914  isUserSudahMemilih */\n      0x03\n        /* \"contracts/evoting.sol\":1896:1926  isUserSudahMemilih[msg.sender] */\n      0x00\n        /* \"contracts/evoting.sol\":1915:1925  msg.sender */\n      caller\n        /* \"contracts/evoting.sol\":1896:1926  isUserSudahMemilih[msg.sender] */\n      0xffffffffffffffffffffffffffffffffffffffff\n      and\n      0xffffffffffffffffffffffffffffffffffffffff\n      and\n      dup2\n      mstore\n      0x20\n      add\n      swap1\n      dup2\n      mstore\n      0x20\n      add\n      0x00\n      keccak256\n      0x00\n      swap1\n      sload\n      swap1\n      0x0100\n      exp\n      swap1\n      div\n      0xff\n      and\n        /* \"contracts/evoting.sol\":1895:1926  !isUserSudahMemilih[msg.sender] */\n      iszero\n        /* \"contracts/evoting.sol\":1887:1949  require(!isUserSudahMemilih[msg.sender], \"User sudah memilih\") */\n      tag_113\n      jumpi\n      mload(0x40)\n      0x08c379a000000000000000000000000000000000000000000000000000000000\n      dup2\n      mstore\n      0x04\n      add\n      tag_114\n      swap1\n      tag_115\n      jump\t// in\n    tag_114:\n      mload(0x40)\n      dup1\n      swap2\n      sub\n      swap1\n      revert\n    tag_113:\n        /* \"contracts/evoting.sol\":1959:1967  kandidat */\n      0x01\n        /* \"contracts/evoting.sol\":1968:1983  _urutanKandidat */\n      dup2\n        /* \"contracts/evoting.sol\":1959:1984  kandidat[_urutanKandidat] */\n      dup2\n      sload\n      dup2\n      lt\n      tag_116\n      jumpi\n      tag_117\n      tag_91\n      jump\t// in\n    tag_117:\n    tag_116:\n      swap1\n      0x00\n      mstore\n      keccak256(0x00, 0x20)\n      swap1\n      0x02\n      mul\n      add\n        /* \"contracts/evoting.sol\":1959:1996  kandidat[_urutanKandidat].jumlahSuara */\n      0x01\n      add\n      0x00\n        /* \"contracts/evoting.sol\":1959:1998  kandidat[_urutanKandidat].jumlahSuara++ */\n      dup2\n      sload\n      dup1\n      swap3\n      swap2\n      swap1\n      tag_119\n      swap1\n      tag_120\n      jump\t// in\n    tag_119:\n      swap2\n      swap1\n      pop\n      sstore\n      pop\n        /* \"contracts/evoting.sol\":2041:2045  true */\n      0x01\n        /* \"contracts/evoting.sol\":2008:2026  isUserSudahMemilih */\n      0x03\n        /* \"contracts/evoting.sol\":2008:2038  isUserSudahMemilih[msg.sender] */\n      0x00\n        /* \"contracts/evoting.sol\":2027:2037  msg.sender */\n      caller\n        /* \"contracts/evoting.sol\":2008:2038  isUserSudahMemilih[msg.sender] */\n      0xffffffffffffffffffffffffffffffffffffffff\n      and\n      0xffffffffffffffffffffffffffffffffffffffff\n      and\n      dup2\n      mstore\n      0x20\n      add\n      swap1\n      dup2\n      mstore\n      0x20\n      add\n      0x00\n      keccak256\n      0x00\n        /* \"contracts/evoting.sol\":2008:2045  isUserSudahMemilih[msg.sender] = true */\n      0x0100\n      exp\n      dup2\n      sload\n      dup2\n      0xff\n      mul\n      not\n      and\n      swap1\n      dup4\n      iszero\n      iszero\n      mul\n      or\n      swap1\n      sstore\n      pop\n        /* \"contracts/evoting.sol\":1684:2087  function voting(uint _urutanKandidat) public {... */\n      pop\n      jump\t// out\n        /* \"#utility.yul\":88:205   */\n    tag_122:\n        /* \"#utility.yul\":197:198   */\n      0x00\n        /* \"#utility.yul\":194:195   */\n      0x00\n        /* \"#utility.yul\":187:199   */\n      revert\n        /* \"#utility.yul\":334:460   */\n    tag_124:\n        /* \"#utility.yul\":371:378   */\n      0x00\n        /* \"#utility.yul\":411:453   */\n      0xffffffffffffffffffffffffffffffffffffffff\n        /* \"#utility.yul\":404:409   */\n      dup3\n        /* \"#utility.yul\":400:454   */\n      and\n        /* \"#utility.yul\":389:454   */\n      swap1\n      pop\n        /* \"#utility.yul\":334:460   */\n      swap2\n      swap1\n      pop\n      jump\t// out\n        /* \"#utility.yul\":466:562   */\n    tag_125:\n        /* \"#utility.yul\":503:510   */\n      0x00\n        /* \"#utility.yul\":532:556   */\n      tag_163\n        /* \"#utility.yul\":550:555   */\n      dup3\n        /* \"#utility.yul\":532:556   */\n      tag_124\n      jump\t// in\n    tag_163:\n        /* \"#utility.yul\":521:556   */\n      swap1\n      pop\n        /* \"#utility.yul\":466:562   */\n      swap2\n      swap1\n      pop\n      jump\t// out\n        /* \"#utility.yul\":568:690   */\n    tag_126:\n        /* \"#utility.yul\":641:665   */\n      tag_165\n        /* \"#utility.yul\":659:664   */\n      dup2\n        /* \"#utility.yul\":641:665   */\n      tag_125\n      jump\t// in\n    tag_165:\n        /* \"#utility.yul\":634:639   */\n      dup2\n        /* \"#utility.yul\":631:666   */\n      eq\n        /* \"#utility.yul\":621:684   */\n      tag_166\n      jumpi\n        /* \"#utility.yul\":680:681   */\n      0x00\n        /* \"#utility.yul\":677:678   */\n      0x00\n        /* \"#utility.yul\":670:682   */\n      revert\n        /* \"#utility.yul\":621:684   */\n    tag_166:\n        /* \"#utility.yul\":568:690   */\n      pop\n      jump\t// out\n        /* \"#utility.yul\":696:835   */\n    tag_127:\n        /* \"#utility.yul\":742:747   */\n      0x00\n        /* \"#utility.yul\":780:786   */\n      dup2\n        /* \"#utility.yul\":767:787   */\n      calldataload\n        /* \"#utility.yul\":758:787   */\n      swap1\n      pop\n        /* \"#utility.yul\":796:829   */\n      tag_168\n        /* \"#utility.yul\":823:828   */\n      dup2\n        /* \"#utility.yul\":796:829   */\n      tag_126\n      jump\t// in\n    tag_168:\n        /* \"#utility.yul\":696:835   */\n      swap3\n      swap2\n      pop\n      pop\n      jump\t// out\n        /* \"#utility.yul\":841:1170   */\n    tag_18:\n        /* \"#utility.yul\":900:906   */\n      0x00\n        /* \"#utility.yul\":949:951   */\n      0x20\n        /* \"#utility.yul\":937:946   */\n      dup3\n        /* \"#utility.yul\":928:935   */\n      dup5\n        /* \"#utility.yul\":924:947   */\n      sub\n        /* \"#utility.yul\":920:952   */\n      slt\n        /* \"#utility.yul\":917:1036   */\n      iszero\n      tag_170\n      jumpi\n        /* \"#utility.yul\":955:1034   */\n      tag_171\n      tag_122\n      jump\t// in\n    tag_171:\n        /* \"#utility.yul\":917:1036   */\n    tag_170:\n        /* \"#utility.yul\":1075:1076   */\n      0x00\n        /* \"#utility.yul\":1100:1153   */\n      tag_172\n        /* \"#utility.yul\":1145:1152   */\n      dup5\n        /* \"#utility.yul\":1136:1142   */\n      dup3\n        /* \"#utility.yul\":1125:1134   */\n      dup6\n        /* \"#utility.yul\":1121:1143   */\n      add\n        /* \"#utility.yul\":1100:1153   */\n      tag_127\n      jump\t// in\n    tag_172:\n        /* \"#utility.yul\":1090:1153   */\n      swap2\n      pop\n        /* \"#utility.yul\":1046:1163   */\n      pop\n        /* \"#utility.yul\":841:1170   */\n      swap3\n      swap2\n      pop\n      pop\n      jump\t// out\n        /* \"#utility.yul\":1176:1266   */\n    tag_128:\n        /* \"#utility.yul\":1210:1217   */\n      0x00\n        /* \"#utility.yul\":1253:1258   */\n      dup2\n        /* \"#utility.yul\":1246:1259   */\n      iszero\n        /* \"#utility.yul\":1239:1260   */\n      iszero\n        /* \"#utility.yul\":1228:1260   */\n      swap1\n      pop\n        /* \"#utility.yul\":1176:1266   */\n      swap2\n      swap1\n      pop\n      jump\t// out\n        /* \"#utility.yul\":1272:1381   */\n    tag_129:\n        /* \"#utility.yul\":1353:1374   */\n      tag_175\n        /* \"#utility.yul\":1368:1373   */\n      dup2\n        /* \"#utility.yul\":1353:1374   */\n      tag_128\n      jump\t// in\n    tag_175:\n        /* \"#utility.yul\":1348:1351   */\n      dup3\n        /* \"#utility.yul\":1341:1375   */\n      mstore\n        /* \"#utility.yul\":1272:1381   */\n      pop\n      pop\n      jump\t// out\n        /* \"#utility.yul\":1387:1597   */\n    tag_21:\n        /* \"#utility.yul\":1474:1478   */\n      0x00\n        /* \"#utility.yul\":1512:1514   */\n      0x20\n        /* \"#utility.yul\":1501:1510   */\n      dup3\n        /* \"#utility.yul\":1497:1515   */\n      add\n        /* \"#utility.yul\":1489:1515   */\n      swap1\n      pop\n        /* \"#utility.yul\":1525:1590   */\n      tag_177\n        /* \"#utility.yul\":1587:1588   */\n      0x00\n        /* \"#utility.yul\":1576:1585   */\n      dup4\n        /* \"#utility.yul\":1572:1589   */\n      add\n        /* \"#utility.yul\":1563:1569   */\n      dup5\n        /* \"#utility.yul\":1525:1590   */\n      tag_129\n      jump\t// in\n    tag_177:\n        /* \"#utility.yul\":1387:1597   */\n      swap3\n      swap2\n      pop\n      pop\n      jump\t// out\n        /* \"#utility.yul\":1603:1680   */\n    tag_130:\n        /* \"#utility.yul\":1640:1647   */\n      0x00\n        /* \"#utility.yul\":1669:1674   */\n      dup2\n        /* \"#utility.yul\":1658:1674   */\n      swap1\n      pop\n        /* \"#utility.yul\":1603:1680   */\n      swap2\n      swap1\n      pop\n      jump\t// out\n        /* \"#utility.yul\":1686:1808   */\n    tag_131:\n        /* \"#utility.yul\":1759:1783   */\n      tag_180\n        /* \"#utility.yul\":1777:1782   */\n      dup2\n        /* \"#utility.yul\":1759:1783   */\n      tag_130\n      jump\t// in\n    tag_180:\n        /* \"#utility.yul\":1752:1757   */\n      dup2\n        /* \"#utility.yul\":1749:1784   */\n      eq\n        /* \"#utility.yul\":1739:1802   */\n      tag_181\n      jumpi\n        /* \"#utility.yul\":1798:1799   */\n      0x00\n        /* \"#utility.yul\":1795:1796   */\n      0x00\n        /* \"#utility.yul\":1788:1800   */\n      revert\n        /* \"#utility.yul\":1739:1802   */\n    tag_181:\n        /* \"#utility.yul\":1686:1808   */\n      pop\n      jump\t// out\n        /* \"#utility.yul\":1814:1953   */\n    tag_132:\n        /* \"#utility.yul\":1860:1865   */\n      0x00\n        /* \"#utility.yul\":1898:1904   */\n      dup2\n        /* \"#utility.yul\":1885:1905   */\n      calldataload\n        /* \"#utility.yul\":1876:1905   */\n      swap1\n      pop\n        /* \"#utility.yul\":1914:1947   */\n      tag_183\n        /* \"#utility.yul\":1941:1946   */\n      dup2\n        /* \"#utility.yul\":1914:1947   */\n      tag_131\n      jump\t// in\n    tag_183:\n        /* \"#utility.yul\":1814:1953   */\n      swap3\n      swap2\n      pop\n      pop\n      jump\t// out\n        /* \"#utility.yul\":1959:2288   */\n    tag_29:\n        /* \"#utility.yul\":2018:2024   */\n      0x00\n        /* \"#utility.yul\":2067:2069   */\n      0x20\n        /* \"#utility.yul\":2055:2064   */\n      dup3\n        /* \"#utility.yul\":2046:2053   */\n      dup5\n        /* \"#utility.yul\":2042:2065   */\n      sub\n        /* \"#utility.yul\":2038:2070   */\n      slt\n        /* \"#utility.yul\":2035:2154   */\n      iszero\n      tag_185\n      jumpi\n        /* \"#utility.yul\":2073:2152   */\n      tag_186\n      tag_122\n      jump\t// in\n    tag_186:\n        /* \"#utility.yul\":2035:2154   */\n    tag_185:\n        /* \"#utility.yul\":2193:2194   */\n      0x00\n        /* \"#utility.yul\":2218:2271   */\n      tag_187\n        /* \"#utility.yul\":2263:2270   */\n      dup5\n        /* \"#utility.yul\":2254:2260   */\n      dup3\n        /* \"#utility.yul\":2243:2252   */\n      dup6\n        /* \"#utility.yul\":2239:2261   */\n      add\n        /* \"#utility.yul\":2218:2271   */\n      tag_132\n      jump\t// in\n    tag_187:\n        /* \"#utility.yul\":2208:2271   */\n      swap2\n      pop\n        /* \"#utility.yul\":2164:2281   */\n      pop\n        /* \"#utility.yul\":1959:2288   */\n      swap3\n      swap2\n      pop\n      pop\n      jump\t// out\n        /* \"#utility.yul\":2294:2412   */\n    tag_133:\n        /* \"#utility.yul\":2381:2405   */\n      tag_189\n        /* \"#utility.yul\":2399:2404   */\n      dup2\n        /* \"#utility.yul\":2381:2405   */\n      tag_125\n      jump\t// in\n    tag_189:\n        /* \"#utility.yul\":2376:2379   */\n      dup3\n        /* \"#utility.yul\":2369:2406   */\n      mstore\n        /* \"#utility.yul\":2294:2412   */\n      pop\n      pop\n      jump\t// out\n        /* \"#utility.yul\":2418:2536   */\n    tag_134:\n        /* \"#utility.yul\":2505:2529   */\n      tag_191\n        /* \"#utility.yul\":2523:2528   */\n      dup2\n        /* \"#utility.yul\":2505:2529   */\n      tag_130\n      jump\t// in\n    tag_191:\n        /* \"#utility.yul\":2500:2503   */\n      dup3\n        /* \"#utility.yul\":2493:2530   */\n      mstore\n        /* \"#utility.yul\":2418:2536   */\n      pop\n      pop\n      jump\t// out\n        /* \"#utility.yul\":2542:2874   */\n    tag_32:\n        /* \"#utility.yul\":2663:2667   */\n      0x00\n        /* \"#utility.yul\":2701:2703   */\n      0x40\n        /* \"#utility.yul\":2690:2699   */\n      dup3\n        /* \"#utility.yul\":2686:2704   */\n      add\n        /* \"#utility.yul\":2678:2704   */\n      swap1\n      pop\n        /* \"#utility.yul\":2714:2785   */\n      tag_193\n        /* \"#utility.yul\":2782:2783   */\n      0x00\n        /* \"#utility.yul\":2771:2780   */\n      dup4\n        /* \"#utility.yul\":2767:2784   */\n      add\n        /* \"#utility.yul\":2758:2764   */\n      dup6\n        /* \"#utility.yul\":2714:2785   */\n      tag_133\n      jump\t// in\n    tag_193:\n        /* \"#utility.yul\":2795:2867   */\n      tag_194\n        /* \"#utility.yul\":2863:2865   */\n      0x20\n        /* \"#utility.yul\":2852:2861   */\n      dup4\n        /* \"#utility.yul\":2848:2866   */\n      add\n        /* \"#utility.yul\":2839:2845   */\n      dup5\n        /* \"#utility.yul\":2795:2867   */\n      tag_134\n      jump\t// in\n    tag_194:\n        /* \"#utility.yul\":2542:2874   */\n      swap4\n      swap3\n      pop\n      pop\n      pop\n      jump\t// out\n        /* \"#utility.yul\":2880:3102   */\n    tag_39:\n        /* \"#utility.yul\":2973:2977   */\n      0x00\n        /* \"#utility.yul\":3011:3013   */\n      0x20\n        /* \"#utility.yul\":3000:3009   */\n      dup3\n        /* \"#utility.yul\":2996:3014   */\n      add\n        /* \"#utility.yul\":2988:3014   */\n      swap1\n      pop\n        /* \"#utility.yul\":3024:3095   */\n      tag_196\n        /* \"#utility.yul\":3092:3093   */\n      0x00\n        /* \"#utility.yul\":3081:3090   */\n      dup4\n        /* \"#utility.yul\":3077:3094   */\n      add\n        /* \"#utility.yul\":3068:3074   */\n      dup5\n        /* \"#utility.yul\":3024:3095   */\n      tag_134\n      jump\t// in\n    tag_196:\n        /* \"#utility.yul\":2880:3102   */\n      swap3\n      swap2\n      pop\n      pop\n      jump\t// out\n        /* \"#utility.yul\":3108:3330   */\n    tag_43:\n        /* \"#utility.yul\":3201:3205   */\n      0x00\n        /* \"#utility.yul\":3239:3241   */\n      0x20\n        /* \"#utility.yul\":3228:3237   */\n      dup3\n        /* \"#utility.yul\":3224:3242   */\n      add\n        /* \"#utility.yul\":3216:3242   */\n      swap1\n      pop\n        /* \"#utility.yul\":3252:3323   */\n      tag_198\n        /* \"#utility.yul\":3320:3321   */\n      0x00\n        /* \"#utility.yul\":3309:3318   */\n      dup4\n        /* \"#utility.yul\":3305:3322   */\n      add\n        /* \"#utility.yul\":3296:3302   */\n      dup5\n        /* \"#utility.yul\":3252:3323   */\n      tag_133\n      jump\t// in\n    tag_198:\n        /* \"#utility.yul\":3108:3330   */\n      swap3\n      swap2\n      pop\n      pop\n      jump\t// out\n        /* \"#utility.yul\":3336:3452   */\n    tag_135:\n        /* \"#utility.yul\":3406:3427   */\n      tag_200\n        /* \"#utility.yul\":3421:3426   */\n      dup2\n        /* \"#utility.yul\":3406:3427   */\n      tag_128\n      jump\t// in\n    tag_200:\n        /* \"#utility.yul\":3399:3404   */\n      dup2\n        /* \"#utility.yul\":3396:3428   */\n      eq\n        /* \"#utility.yul\":3386:3446   */\n      tag_201\n      jumpi\n        /* \"#utility.yul\":3442:3443   */\n      0x00\n        /* \"#utility.yul\":3439:3440   */\n      0x00\n        /* \"#utility.yul\":3432:3444   */\n      revert\n        /* \"#utility.yul\":3386:3446   */\n    tag_201:\n        /* \"#utility.yul\":3336:3452   */\n      pop\n      jump\t// out\n        /* \"#utility.yul\":3458:3591   */\n    tag_136:\n        /* \"#utility.yul\":3501:3506   */\n      0x00\n        /* \"#utility.yul\":3539:3545   */\n      dup2\n        /* \"#utility.yul\":3526:3546   */\n      calldataload\n        /* \"#utility.yul\":3517:3546   */\n      swap1\n      pop\n        /* \"#utility.yul\":3555:3585   */\n      tag_203\n        /* \"#utility.yul\":3579:3584   */\n      dup2\n        /* \"#utility.yul\":3555:3585   */\n      tag_135\n      jump\t// in\n    tag_203:\n        /* \"#utility.yul\":3458:3591   */\n      swap3\n      swap2\n      pop\n      pop\n      jump\t// out\n        /* \"#utility.yul\":3597:3920   */\n    tag_49:\n        /* \"#utility.yul\":3653:3659   */\n      0x00\n        /* \"#utility.yul\":3702:3704   */\n      0x20\n        /* \"#utility.yul\":3690:3699   */\n      dup3\n        /* \"#utility.yul\":3681:3688   */\n      dup5\n        /* \"#utility.yul\":3677:3700   */\n      sub\n        /* \"#utility.yul\":3673:3705   */\n      slt\n        /* \"#utility.yul\":3670:3789   */\n      iszero\n      tag_205\n      jumpi\n        /* \"#utility.yul\":3708:3787   */\n      tag_206\n      tag_122\n      jump\t// in\n    tag_206:\n        /* \"#utility.yul\":3670:3789   */\n    tag_205:\n        /* \"#utility.yul\":3828:3829   */\n      0x00\n        /* \"#utility.yul\":3853:3903   */\n      tag_207\n        /* \"#utility.yul\":3895:3902   */\n      dup5\n        /* \"#utility.yul\":3886:3892   */\n      dup3\n        /* \"#utility.yul\":3875:3884   */\n      dup6\n        /* \"#utility.yul\":3871:3893   */\n      add\n        /* \"#utility.yul\":3853:3903   */\n      tag_136\n      jump\t// in\n    tag_207:\n        /* \"#utility.yul\":3843:3903   */\n      swap2\n      pop\n        /* \"#utility.yul\":3799:3913   */\n      pop\n        /* \"#utility.yul\":3597:3920   */\n      swap3\n      swap2\n      pop\n      pop\n      jump\t// out\n        /* \"#utility.yul\":3926:4095   */\n    tag_137:\n        /* \"#utility.yul\":4010:4021   */\n      0x00\n        /* \"#utility.yul\":4044:4050   */\n      dup3\n        /* \"#utility.yul\":4039:4042   */\n      dup3\n        /* \"#utility.yul\":4032:4051   */\n      mstore\n        /* \"#utility.yul\":4084:4088   */\n      0x20\n        /* \"#utility.yul\":4079:4082   */\n      dup3\n        /* \"#utility.yul\":4075:4089   */\n      add\n        /* \"#utility.yul\":4060:4089   */\n      swap1\n      pop\n        /* \"#utility.yul\":3926:4095   */\n      swap3\n      swap2\n      pop\n      pop\n      jump\t// out\n        /* \"#utility.yul\":4101:4267   */\n    tag_138:\n        /* \"#utility.yul\":4241:4259   */\n      0x416e64612062756b616e206f776e657200000000000000000000000000000000\n        /* \"#utility.yul\":4237:4238   */\n      0x00\n        /* \"#utility.yul\":4229:4235   */\n      dup3\n        /* \"#utility.yul\":4225:4239   */\n      add\n        /* \"#utility.yul\":4218:4260   */\n      mstore\n        /* \"#utility.yul\":4101:4267   */\n      pop\n      jump\t// out\n        /* \"#utility.yul\":4273:4639   */\n    tag_139:\n        /* \"#utility.yul\":4415:4418   */\n      0x00\n        /* \"#utility.yul\":4436:4503   */\n      tag_211\n        /* \"#utility.yul\":4500:4502   */\n      0x10\n        /* \"#utility.yul\":4495:4498   */\n      dup4\n        /* \"#utility.yul\":4436:4503   */\n      tag_137\n      jump\t// in\n    tag_211:\n        /* \"#utility.yul\":4429:4503   */\n      swap2\n      pop\n        /* \"#utility.yul\":4512:4605   */\n      tag_212\n        /* \"#utility.yul\":4601:4604   */\n      dup3\n        /* \"#utility.yul\":4512:4605   */\n      tag_138\n      jump\t// in\n    tag_212:\n        /* \"#utility.yul\":4630:4632   */\n      0x20\n        /* \"#utility.yul\":4625:4628   */\n      dup3\n        /* \"#utility.yul\":4621:4633   */\n      add\n        /* \"#utility.yul\":4614:4633   */\n      swap1\n      pop\n        /* \"#utility.yul\":4273:4639   */\n      swap2\n      swap1\n      pop\n      jump\t// out\n        /* \"#utility.yul\":4645:5064   */\n    tag_64:\n        /* \"#utility.yul\":4811:4815   */\n      0x00\n        /* \"#utility.yul\":4849:4851   */\n      0x20\n        /* \"#utility.yul\":4838:4847   */\n      dup3\n        /* \"#utility.yul\":4834:4852   */\n      add\n        /* \"#utility.yul\":4826:4852   */\n      swap1\n      pop\n        /* \"#utility.yul\":4898:4907   */\n      dup2\n        /* \"#utility.yul\":4892:4896   */\n      dup2\n        /* \"#utility.yul\":4888:4908   */\n      sub\n        /* \"#utility.yul\":4884:4885   */\n      0x00\n        /* \"#utility.yul\":4873:4882   */\n      dup4\n        /* \"#utility.yul\":4869:4886   */\n      add\n        /* \"#utility.yul\":4862:4909   */\n      mstore\n        /* \"#utility.yul\":4926:5057   */\n      tag_214\n        /* \"#utility.yul\":5052:5056   */\n      dup2\n        /* \"#utility.yul\":4926:5057   */\n      tag_139\n      jump\t// in\n    tag_214:\n        /* \"#utility.yul\":4918:5057   */\n      swap1\n      pop\n        /* \"#utility.yul\":4645:5064   */\n      swap2\n      swap1\n      pop\n      jump\t// out\n        /* \"#utility.yul\":5070:5318   */\n    tag_140:\n        /* \"#utility.yul\":5210:5244   */\n      0x416e64612062756b616e206f776e65722c2068616e7961206f776e6572207961\n        /* \"#utility.yul\":5206:5207   */\n      0x00\n        /* \"#utility.yul\":5198:5204   */\n      dup3\n        /* \"#utility.yul\":5194:5208   */\n      add\n        /* \"#utility.yul\":5187:5245   */\n      mstore\n        /* \"#utility.yul\":5279:5310   */\n      0x6e672062697361206d656e6461667461726b616e206b616e6469646174000000\n        /* \"#utility.yul\":5274:5276   */\n      0x20\n        /* \"#utility.yul\":5266:5272   */\n      dup3\n        /* \"#utility.yul\":5262:5277   */\n      add\n        /* \"#utility.yul\":5255:5311   */\n      mstore\n        /* \"#utility.yul\":5070:5318   */\n      pop\n      jump\t// out\n        /* \"#utility.yul\":5324:5690   */\n    tag_141:\n        /* \"#utility.yul\":5466:5469   */\n      0x00\n        /* \"#utility.yul\":5487:5554   */\n      tag_217\n        /* \"#utility.yul\":5551:5553   */\n      0x3d\n        /* \"#utility.yul\":5546:5549   */\n      dup4\n        /* \"#utility.yul\":5487:5554   */\n      tag_137\n      jump\t// in\n    tag_217:\n        /* \"#utility.yul\":5480:5554   */\n      swap2\n      pop\n        /* \"#utility.yul\":5563:5656   */\n      tag_218\n        /* \"#utility.yul\":5652:5655   */\n      dup3\n        /* \"#utility.yul\":5563:5656   */\n      tag_140\n      jump\t// in\n    tag_218:\n        /* \"#utility.yul\":5681:5683   */\n      0x40\n        /* \"#utility.yul\":5676:5679   */\n      dup3\n        /* \"#utility.yul\":5672:5684   */\n      add\n        /* \"#utility.yul\":5665:5684   */\n      swap1\n      pop\n        /* \"#utility.yul\":5324:5690   */\n      swap2\n      swap1\n      pop\n      jump\t// out\n        /* \"#utility.yul\":5696:6115   */\n    tag_70:\n        /* \"#utility.yul\":5862:5866   */\n      0x00\n        /* \"#utility.yul\":5900:5902   */\n      0x20\n        /* \"#utility.yul\":5889:5898   */\n      dup3\n        /* \"#utility.yul\":5885:5903   */\n      add\n        /* \"#utility.yul\":5877:5903   */\n      swap1\n      pop\n        /* \"#utility.yul\":5949:5958   */\n      dup2\n        /* \"#utility.yul\":5943:5947   */\n      dup2\n        /* \"#utility.yul\":5939:5959   */\n      sub\n        /* \"#utility.yul\":5935:5936   */\n      0x00\n        /* \"#utility.yul\":5924:5933   */\n      dup4\n        /* \"#utility.yul\":5920:5937   */\n      add\n        /* \"#utility.yul\":5913:5960   */\n      mstore\n        /* \"#utility.yul\":5977:6108   */\n      tag_220\n        /* \"#utility.yul\":6103:6107   */\n      dup2\n        /* \"#utility.yul\":5977:6108   */\n      tag_141\n      jump\t// in\n    tag_220:\n        /* \"#utility.yul\":5969:6108   */\n      swap1\n      pop\n        /* \"#utility.yul\":5696:6115   */\n      swap2\n      swap1\n      pop\n      jump\t// out\n        /* \"#utility.yul\":6121:6354   */\n    tag_142:\n        /* \"#utility.yul\":6261:6295   */\n      0x4f776e657220746964616b20626f6c6568206d656e6461667461726b616e2064\n        /* \"#utility.yul\":6257:6258   */\n      0x00\n        /* \"#utility.yul\":6249:6255   */\n      dup3\n        /* \"#utility.yul\":6245:6259   */\n      add\n        /* \"#utility.yul\":6238:6296   */\n      mstore\n        /* \"#utility.yul\":6330:6346   */\n      0x6972696e79612073656e64697269000000000000000000000000000000000000\n        /* \"#utility.yul\":6325:6327   */\n      0x20\n        /* \"#utility.yul\":6317:6323   */\n      dup3\n        /* \"#utility.yul\":6313:6328   */\n      add\n        /* \"#utility.yul\":6306:6347   */\n      mstore\n        /* \"#utility.yul\":6121:6354   */\n      pop\n      jump\t// out\n        /* \"#utility.yul\":6360:6726   */\n    tag_143:\n        /* \"#utility.yul\":6502:6505   */\n      0x00\n        /* \"#utility.yul\":6523:6590   */\n      tag_223\n        /* \"#utility.yul\":6587:6589   */\n      0x2e\n        /* \"#utility.yul\":6582:6585   */\n      dup4\n        /* \"#utility.yul\":6523:6590   */\n      tag_137\n      jump\t// in\n    tag_223:\n        /* \"#utility.yul\":6516:6590   */\n      swap2\n      pop\n        /* \"#utility.yul\":6599:6692   */\n      tag_224\n        /* \"#utility.yul\":6688:6691   */\n      dup3\n        /* \"#utility.yul\":6599:6692   */\n      tag_142\n      jump\t// in\n    tag_224:\n        /* \"#utility.yul\":6717:6719   */\n      0x40\n        /* \"#utility.yul\":6712:6715   */\n      dup3\n        /* \"#utility.yul\":6708:6720   */\n      add\n        /* \"#utility.yul\":6701:6720   */\n      swap1\n      pop\n        /* \"#utility.yul\":6360:6726   */\n      swap2\n      swap1\n      pop\n      jump\t// out\n        /* \"#utility.yul\":6732:7151   */\n    tag_73:\n        /* \"#utility.yul\":6898:6902   */\n      0x00\n        /* \"#utility.yul\":6936:6938   */\n      0x20\n        /* \"#utility.yul\":6925:6934   */\n      dup3\n        /* \"#utility.yul\":6921:6939   */\n      add\n        /* \"#utility.yul\":6913:6939   */\n      swap1\n      pop\n        /* \"#utility.yul\":6985:6994   */\n      dup2\n        /* \"#utility.yul\":6979:6983   */\n      dup2\n        /* \"#utility.yul\":6975:6995   */\n      sub\n        /* \"#utility.yul\":6971:6972   */\n      0x00\n        /* \"#utility.yul\":6960:6969   */\n      dup4\n        /* \"#utility.yul\":6956:6973   */\n      add\n        /* \"#utility.yul\":6949:6996   */\n      mstore\n        /* \"#utility.yul\":7013:7144   */\n      tag_226\n        /* \"#utility.yul\":7139:7143   */\n      dup2\n        /* \"#utility.yul\":7013:7144   */\n      tag_143\n      jump\t// in\n    tag_226:\n        /* \"#utility.yul\":7005:7144   */\n      swap1\n      pop\n        /* \"#utility.yul\":6732:7151   */\n      swap2\n      swap1\n      pop\n      jump\t// out\n        /* \"#utility.yul\":7157:7331   */\n    tag_144:\n        /* \"#utility.yul\":7297:7323   */\n      0x4b616e6469646174207375646168206d656e6461667461720000000000000000\n        /* \"#utility.yul\":7293:7294   */\n      0x00\n        /* \"#utility.yul\":7285:7291   */\n      dup3\n        /* \"#utility.yul\":7281:7295   */\n      add\n        /* \"#utility.yul\":7274:7324   */\n      mstore\n        /* \"#utility.yul\":7157:7331   */\n      pop\n      jump\t// out\n        /* \"#utility.yul\":7337:7703   */\n    tag_145:\n        /* \"#utility.yul\":7479:7482   */\n      0x00\n        /* \"#utility.yul\":7500:7567   */\n      tag_229\n        /* \"#utility.yul\":7564:7566   */\n      0x18\n        /* \"#utility.yul\":7559:7562   */\n      dup4\n        /* \"#utility.yul\":7500:7567   */\n      tag_137\n      jump\t// in\n    tag_229:\n        /* \"#utility.yul\":7493:7567   */\n      swap2\n      pop\n        /* \"#utility.yul\":7576:7669   */\n      tag_230\n        /* \"#utility.yul\":7665:7668   */\n      dup3\n        /* \"#utility.yul\":7576:7669   */\n      tag_144\n      jump\t// in\n    tag_230:\n        /* \"#utility.yul\":7694:7696   */\n      0x20\n        /* \"#utility.yul\":7689:7692   */\n      dup3\n        /* \"#utility.yul\":7685:7697   */\n      add\n        /* \"#utility.yul\":7678:7697   */\n      swap1\n      pop\n        /* \"#utility.yul\":7337:7703   */\n      swap2\n      swap1\n      pop\n      jump\t// out\n        /* \"#utility.yul\":7709:8128   */\n    tag_76:\n        /* \"#utility.yul\":7875:7879   */\n      0x00\n        /* \"#utility.yul\":7913:7915   */\n      0x20\n        /* \"#utility.yul\":7902:7911   */\n      dup3\n        /* \"#utility.yul\":7898:7916   */\n      add\n        /* \"#utility.yul\":7890:7916   */\n      swap1\n      pop\n        /* \"#utility.yul\":7962:7971   */\n      dup2\n        /* \"#utility.yul\":7956:7960   */\n      dup2\n        /* \"#utility.yul\":7952:7972   */\n      sub\n        /* \"#utility.yul\":7948:7949   */\n      0x00\n        /* \"#utility.yul\":7937:7946   */\n      dup4\n        /* \"#utility.yul\":7933:7950   */\n      add\n        /* \"#utility.yul\":7926:7973   */\n      mstore\n        /* \"#utility.yul\":7990:8121   */\n      tag_232\n        /* \"#utility.yul\":8116:8120   */\n      dup2\n        /* \"#utility.yul\":7990:8121   */\n      tag_145\n      jump\t// in\n    tag_232:\n        /* \"#utility.yul\":7982:8121   */\n      swap1\n      pop\n        /* \"#utility.yul\":7709:8128   */\n      swap2\n      swap1\n      pop\n      jump\t// out\n        /* \"#utility.yul\":8134:8302   */\n    tag_146:\n        /* \"#utility.yul\":8274:8294   */\n      0x4b616e646964617420746964616b206164610000000000000000000000000000\n        /* \"#utility.yul\":8270:8271   */\n      0x00\n        /* \"#utility.yul\":8262:8268   */\n      dup3\n        /* \"#utility.yul\":8258:8272   */\n      add\n        /* \"#utility.yul\":8251:8295   */\n      mstore\n        /* \"#utility.yul\":8134:8302   */\n      pop\n      jump\t// out\n        /* \"#utility.yul\":8308:8674   */\n    tag_147:\n        /* \"#utility.yul\":8450:8453   */\n      0x00\n        /* \"#utility.yul\":8471:8538   */\n      tag_235\n        /* \"#utility.yul\":8535:8537   */\n      0x12\n        /* \"#utility.yul\":8530:8533   */\n      dup4\n        /* \"#utility.yul\":8471:8538   */\n      tag_137\n      jump\t// in\n    tag_235:\n        /* \"#utility.yul\":8464:8538   */\n      swap2\n      pop\n        /* \"#utility.yul\":8547:8640   */\n      tag_236\n        /* \"#utility.yul\":8636:8639   */\n      dup3\n        /* \"#utility.yul\":8547:8640   */\n      tag_146\n      jump\t// in\n    tag_236:\n        /* \"#utility.yul\":8665:8667   */\n      0x20\n        /* \"#utility.yul\":8660:8663   */\n      dup3\n        /* \"#utility.yul\":8656:8668   */\n      add\n        /* \"#utility.yul\":8649:8668   */\n      swap1\n      pop\n        /* \"#utility.yul\":8308:8674   */\n      swap2\n      swap1\n      pop\n      jump\t// out\n        /* \"#utility.yul\":8680:9099   */\n    tag_82:\n        /* \"#utility.yul\":8846:8850   */\n      0x00\n        /* \"#utility.yul\":8884:8886   */\n      0x20\n        /* \"#utility.yul\":8873:8882   */\n      dup3\n        /* \"#utility.yul\":8869:8887   */\n      add\n        /* \"#utility.yul\":8861:8887   */\n      swap1\n      pop\n        /* \"#utility.yul\":8933:8942   */\n      dup2\n        /* \"#utility.yul\":8927:8931   */\n      dup2\n        /* \"#utility.yul\":8923:8943   */\n      sub\n        /* \"#utility.yul\":8919:8920   */\n      0x00\n        /* \"#utility.yul\":8908:8917   */\n      dup4\n        /* \"#utility.yul\":8904:8921   */\n      add\n        /* \"#utility.yul\":8897:8944   */\n      mstore\n        /* \"#utility.yul\":8961:9092   */\n      tag_238\n        /* \"#utility.yul\":9087:9091   */\n      dup2\n        /* \"#utility.yul\":8961:9092   */\n      tag_147\n      jump\t// in\n    tag_238:\n        /* \"#utility.yul\":8953:9092   */\n      swap1\n      pop\n        /* \"#utility.yul\":8680:9099   */\n      swap2\n      swap1\n      pop\n      jump\t// out\n        /* \"#utility.yul\":9105:9275   */\n    tag_148:\n        /* \"#utility.yul\":9245:9267   */\n      0x566f74696e672062656c756d2073656c65736169000000000000000000000000\n        /* \"#utility.yul\":9241:9242   */\n      0x00\n        /* \"#utility.yul\":9233:9239   */\n      dup3\n        /* \"#utility.yul\":9229:9243   */\n      add\n        /* \"#utility.yul\":9222:9268   */\n      mstore\n        /* \"#utility.yul\":9105:9275   */\n      pop\n      jump\t// out\n        /* \"#utility.yul\":9281:9647   */\n    tag_149:\n        /* \"#utility.yul\":9423:9426   */\n      0x00\n        /* \"#utility.yul\":9444:9511   */\n      tag_241\n        /* \"#utility.yul\":9508:9510   */\n      0x14\n        /* \"#utility.yul\":9503:9506   */\n      dup4\n        /* \"#utility.yul\":9444:9511   */\n      tag_137\n      jump\t// in\n    tag_241:\n        /* \"#utility.yul\":9437:9511   */\n      swap2\n      pop\n        /* \"#utility.yul\":9520:9613   */\n      tag_242\n        /* \"#utility.yul\":9609:9612   */\n      dup3\n        /* \"#utility.yul\":9520:9613   */\n      tag_148\n      jump\t// in\n    tag_242:\n        /* \"#utility.yul\":9638:9640   */\n      0x20\n        /* \"#utility.yul\":9633:9636   */\n      dup3\n        /* \"#utility.yul\":9629:9641   */\n      add\n        /* \"#utility.yul\":9622:9641   */\n      swap1\n      pop\n        /* \"#utility.yul\":9281:9647   */\n      swap2\n      swap1\n      pop\n      jump\t// out\n        /* \"#utility.yul\":9653:10072   */\n    tag_85:\n        /* \"#utility.yul\":9819:9823   */\n      0x00\n        /* \"#utility.yul\":9857:9859   */\n      0x20\n        /* \"#utility.yul\":9846:9855   */\n      dup3\n        /* \"#utility.yul\":9842:9860   */\n      add\n        /* \"#utility.yul\":9834:9860   */\n      swap1\n      pop\n        /* \"#utility.yul\":9906:9915   */\n      dup2\n        /* \"#utility.yul\":9900:9904   */\n      dup2\n        /* \"#utility.yul\":9896:9916   */\n      sub\n        /* \"#utility.yul\":9892:9893   */\n      0x00\n        /* \"#utility.yul\":9881:9890   */\n      dup4\n        /* \"#utility.yul\":9877:9894   */\n      add\n        /* \"#utility.yul\":9870:9917   */\n      mstore\n        /* \"#utility.yul\":9934:10065   */\n      tag_244\n        /* \"#utility.yul\":10060:10064   */\n      dup2\n        /* \"#utility.yul\":9934:10065   */\n      tag_149\n      jump\t// in\n    tag_244:\n        /* \"#utility.yul\":9926:10065   */\n      swap1\n      pop\n        /* \"#utility.yul\":9653:10072   */\n      swap2\n      swap1\n      pop\n      jump\t// out\n        /* \"#utility.yul\":10078:10258   */\n    tag_91:\n        /* \"#utility.yul\":10126:10203   */\n      0x4e487b7100000000000000000000000000000000000000000000000000000000\n        /* \"#utility.yul\":10123:10124   */\n      0x00\n        /* \"#utility.yul\":10116:10204   */\n      mstore\n        /* \"#utility.yul\":10223:10227   */\n      0x32\n        /* \"#utility.yul\":10220:10221   */\n      0x04\n        /* \"#utility.yul\":10213:10228   */\n      mstore\n        /* \"#utility.yul\":10247:10251   */\n      0x24\n        /* \"#utility.yul\":10244:10245   */\n      0x00\n        /* \"#utility.yul\":10237:10252   */\n      revert\n        /* \"#utility.yul\":10264:10434   */\n    tag_150:\n        /* \"#utility.yul\":10404:10426   */\n      0x566f74696e672062656c756d2064696d756c6169000000000000000000000000\n        /* \"#utility.yul\":10400:10401   */\n      0x00\n        /* \"#utility.yul\":10392:10398   */\n      dup3\n        /* \"#utility.yul\":10388:10402   */\n      add\n        /* \"#utility.yul\":10381:10427   */\n      mstore\n        /* \"#utility.yul\":10264:10434   */\n      pop\n      jump\t// out\n        /* \"#utility.yul\":10440:10806   */\n    tag_151:\n        /* \"#utility.yul\":10582:10585   */\n      0x00\n        /* \"#utility.yul\":10603:10670   */\n      tag_248\n        /* \"#utility.yul\":10667:10669   */\n      0x14\n        /* \"#utility.yul\":10662:10665   */\n      dup4\n        /* \"#utility.yul\":10603:10670   */\n      tag_137\n      jump\t// in\n    tag_248:\n        /* \"#utility.yul\":10596:10670   */\n      swap2\n      pop\n        /* \"#utility.yul\":10679:10772   */\n      tag_249\n        /* \"#utility.yul\":10768:10771   */\n      dup3\n        /* \"#utility.yul\":10679:10772   */\n      tag_150\n      jump\t// in\n    tag_249:\n        /* \"#utility.yul\":10797:10799   */\n      0x20\n        /* \"#utility.yul\":10792:10795   */\n      dup3\n        /* \"#utility.yul\":10788:10800   */\n      add\n        /* \"#utility.yul\":10781:10800   */\n      swap1\n      pop\n        /* \"#utility.yul\":10440:10806   */\n      swap2\n      swap1\n      pop\n      jump\t// out\n        /* \"#utility.yul\":10812:11231   */\n    tag_109:\n        /* \"#utility.yul\":10978:10982   */\n      0x00\n        /* \"#utility.yul\":11016:11018   */\n      0x20\n        /* \"#utility.yul\":11005:11014   */\n      dup3\n        /* \"#utility.yul\":11001:11019   */\n      add\n        /* \"#utility.yul\":10993:11019   */\n      swap1\n      pop\n        /* \"#utility.yul\":11065:11074   */\n      dup2\n        /* \"#utility.yul\":11059:11063   */\n      dup2\n        /* \"#utility.yul\":11055:11075   */\n      sub\n        /* \"#utility.yul\":11051:11052   */\n      0x00\n        /* \"#utility.yul\":11040:11049   */\n      dup4\n        /* \"#utility.yul\":11036:11053   */\n      add\n        /* \"#utility.yul\":11029:11076   */\n      mstore\n        /* \"#utility.yul\":11093:11224   */\n      tag_251\n        /* \"#utility.yul\":11219:11223   */\n      dup2\n        /* \"#utility.yul\":11093:11224   */\n      tag_151\n      jump\t// in\n    tag_251:\n        /* \"#utility.yul\":11085:11224   */\n      swap1\n      pop\n        /* \"#utility.yul\":10812:11231   */\n      swap2\n      swap1\n      pop\n      jump\t// out\n        /* \"#utility.yul\":11237:11411   */\n    tag_152:\n        /* \"#utility.yul\":11377:11403   */\n      0x4b616e646964617420746964616b20646974656d756b616e0000000000000000\n        /* \"#utility.yul\":11373:11374   */\n      0x00\n        /* \"#utility.yul\":11365:11371   */\n      dup3\n        /* \"#utility.yul\":11361:11375   */\n      add\n        /* \"#utility.yul\":11354:11404   */\n      mstore\n        /* \"#utility.yul\":11237:11411   */\n      pop\n      jump\t// out\n        /* \"#utility.yul\":11417:11783   */\n    tag_153:\n        /* \"#utility.yul\":11559:11562   */\n      0x00\n        /* \"#utility.yul\":11580:11647   */\n      tag_254\n        /* \"#utility.yul\":11644:11646   */\n      0x18\n        /* \"#utility.yul\":11639:11642   */\n      dup4\n        /* \"#utility.yul\":11580:11647   */\n      tag_137\n      jump\t// in\n    tag_254:\n        /* \"#utility.yul\":11573:11647   */\n      swap2\n      pop\n        /* \"#utility.yul\":11656:11749   */\n      tag_255\n        /* \"#utility.yul\":11745:11748   */\n      dup3\n        /* \"#utility.yul\":11656:11749   */\n      tag_152\n      jump\t// in\n    tag_255:\n        /* \"#utility.yul\":11774:11776   */\n      0x20\n        /* \"#utility.yul\":11769:11772   */\n      dup3\n        /* \"#utility.yul\":11765:11777   */\n      add\n        /* \"#utility.yul\":11758:11777   */\n      swap1\n      pop\n        /* \"#utility.yul\":11417:11783   */\n      swap2\n      swap1\n      pop\n      jump\t// out\n        /* \"#utility.yul\":11789:12208   */\n    tag_112:\n        /* \"#utility.yul\":11955:11959   */\n      0x00\n        /* \"#utility.yul\":11993:11995   */\n      0x20\n        /* \"#utility.yul\":11982:11991   */\n      dup3\n        /* \"#utility.yul\":11978:11996   */\n      add\n        /* \"#utility.yul\":11970:11996   */\n      swap1\n      pop\n        /* \"#utility.yul\":12042:12051   */\n      dup2\n        /* \"#utility.yul\":12036:12040   */\n      dup2\n        /* \"#utility.yul\":12032:12052   */\n      sub\n        /* \"#utility.yul\":12028:12029   */\n      0x00\n        /* \"#utility.yul\":12017:12026   */\n      dup4\n        /* \"#utility.yul\":12013:12030   */\n      add\n        /* \"#utility.yul\":12006:12053   */\n      mstore\n        /* \"#utility.yul\":12070:12201   */\n      tag_257\n        /* \"#utility.yul\":12196:12200   */\n      dup2\n        /* \"#utility.yul\":12070:12201   */\n      tag_153\n      jump\t// in\n    tag_257:\n        /* \"#utility.yul\":12062:12201   */\n      swap1\n      pop\n        /* \"#utility.yul\":11789:12208   */\n      swap2\n      swap1\n      pop\n      jump\t// out\n        /* \"#utility.yul\":12214:12382   */\n    tag_154:\n        /* \"#utility.yul\":12354:12374   */\n      0x55736572207375646168206d656d696c69680000000000000000000000000000\n        /* \"#utility.yul\":12350:12351   */\n      0x00\n        /* \"#utility.yul\":12342:12348   */\n      dup3\n        /* \"#utility.yul\":12338:12352   */\n      add\n        /* \"#utility.yul\":12331:12375   */\n      mstore\n        /* \"#utility.yul\":12214:12382   */\n      pop\n      jump\t// out\n        /* \"#utility.yul\":12388:12754   */\n    tag_155:\n        /* \"#utility.yul\":12530:12533   */\n      0x00\n        /* \"#utility.yul\":12551:12618   */\n      tag_260\n        /* \"#utility.yul\":12615:12617   */\n      0x12\n        /* \"#utility.yul\":12610:12613   */\n      dup4\n        /* \"#utility.yul\":12551:12618   */\n      tag_137\n      jump\t// in\n    tag_260:\n        /* \"#utility.yul\":12544:12618   */\n      swap2\n      pop\n        /* \"#utility.yul\":12627:12720   */\n      tag_261\n        /* \"#utility.yul\":12716:12719   */\n      dup3\n        /* \"#utility.yul\":12627:12720   */\n      tag_154\n      jump\t// in\n    tag_261:\n        /* \"#utility.yul\":12745:12747   */\n      0x20\n        /* \"#utility.yul\":12740:12743   */\n      dup3\n        /* \"#utility.yul\":12736:12748   */\n      add\n        /* \"#utility.yul\":12729:12748   */\n      swap1\n      pop\n        /* \"#utility.yul\":12388:12754   */\n      swap2\n      swap1\n      pop\n      jump\t// out\n        /* \"#utility.yul\":12760:13179   */\n    tag_115:\n        /* \"#utility.yul\":12926:12930   */\n      0x00\n        /* \"#utility.yul\":12964:12966   */\n      0x20\n        /* \"#utility.yul\":12953:12962   */\n      dup3\n        /* \"#utility.yul\":12949:12967   */\n      add\n        /* \"#utility.yul\":12941:12967   */\n      swap1\n      pop\n        /* \"#utility.yul\":13013:13022   */\n      dup2\n        /* \"#utility.yul\":13007:13011   */\n      dup2\n        /* \"#utility.yul\":13003:13023   */\n      sub\n        /* \"#utility.yul\":12999:13000   */\n      0x00\n        /* \"#utility.yul\":12988:12997   */\n      dup4\n        /* \"#utility.yul\":12984:13001   */\n      add\n        /* \"#utility.yul\":12977:13024   */\n      mstore\n        /* \"#utility.yul\":13041:13172   */\n      tag_263\n        /* \"#utility.yul\":13167:13171   */\n      dup2\n        /* \"#utility.yul\":13041:13172   */\n      tag_155\n      jump\t// in\n    tag_263:\n        /* \"#utility.yul\":13033:13172   */\n      swap1\n      pop\n        /* \"#utility.yul\":12760:13179   */\n      swap2\n      swap1\n      pop\n      jump\t// out\n        /* \"#utility.yul\":13185:13365   */\n    tag_156:\n        /* \"#utility.yul\":13233:13310   */\n      0x4e487b7100000000000000000000000000000000000000000000000000000000\n        /* \"#utility.yul\":13230:13231   */\n      0x00\n        /* \"#utility.yul\":13223:13311   */\n      mstore\n        /* \"#utility.yul\":13330:13334   */\n      0x11\n        /* \"#utility.yul\":13327:13328   */\n      0x04\n        /* \"#utility.yul\":13320:13335   */\n      mstore\n        /* \"#utility.yul\":13354:13358   */\n      0x24\n        /* \"#utility.yul\":13351:13352   */\n      0x00\n        /* \"#utility.yul\":13344:13359   */\n      revert\n        /* \"#utility.yul\":13371:13604   */\n    tag_120:\n        /* \"#utility.yul\":13410:13413   */\n      0x00\n        /* \"#utility.yul\":13433:13457   */\n      tag_266\n        /* \"#utility.yul\":13451:13456   */\n      dup3\n        /* \"#utility.yul\":13433:13457   */\n      tag_130\n      jump\t// in\n    tag_266:\n        /* \"#utility.yul\":13424:13457   */\n      swap2\n      pop\n        /* \"#utility.yul\":13479:13545   */\n      0xffffffffffffffffffffffffffffffffffffffffffffffffffffffffffffffff\n        /* \"#utility.yul\":13472:13477   */\n      dup3\n        /* \"#utility.yul\":13469:13546   */\n      sub\n        /* \"#utility.yul\":13466:13569   */\n      tag_267\n      jumpi\n        /* \"#utility.yul\":13549:13567   */\n      tag_268\n      tag_156\n      jump\t// in\n    tag_268:\n        /* \"#utility.yul\":13466:13569   */\n    tag_267:\n        /* \"#utility.yul\":13596:13597   */\n      0x01\n        /* \"#utility.yul\":13589:13594   */\n      dup3\n        /* \"#utility.yul\":13585:13598   */\n      add\n        /* \"#utility.yul\":13578:13598   */\n      swap1\n      pop\n        /* \"#utility.yul\":13371:13604   */\n      swap2\n      swap1\n      pop\n      jump\t// out\n\n    auxdata: 0xa2646970667358221220ea28016a8ecb4b3bc8f6c9c745c2f6b8f6b2cc23381972185f37dae3fd3cfea664736f6c634300081e0033\n}\n",
				"bytecode": {
					"linkReferences": {},
					"object": "6080604052348015600e575f5ffd5b50335f5f6101000a81548173ffffffffffffffffffffffffffffffffffffffff021916908373ffffffffffffffffffffffffffffffffffffffff1602179055505f5f60146101000a81548160ff0219169083151502179055505f5f60156101000a81548160ff0219169083151502179055506111238061008d5f395ff3fe608060405234801561000f575f5ffd5b50600436106100b2575f3560e01c80638da5cb5b1161006f5780638da5cb5b1461017957806398eae90b14610197578063a9cefdfb146101b6578063b718eaaa146101d2578063d1c2bfb4146101f0578063fd4a77f114610220576100b2565b80632273535e146100b65780633bfcfa6e146100e657806351ce77e114610104578063657c3ef11461010e57806367fde2721461013f578063752ea7d41461015b575b5f5ffd5b6100d060048036038101906100cb9190610ac0565b61023c565b6040516100dd9190610b05565b60405180910390f35b6100ee610259565b6040516100fb9190610b05565b60405180910390f35b61010c61026b565b005b61012860048036038101906101239190610b51565b61032e565b604051610136929190610b9a565b60405180910390f35b61015960048036038101906101549190610ac0565b61037c565b005b61016361061d565b6040516101709190610bc1565b60405180910390f35b610181610629565b60405161018e9190610bda565b60405180910390f35b61019f61064d565b6040516101ad929190610b9a565b60405180910390f35b6101d060048036038101906101cb9190610c1d565b6107d3565b005b6101da61087d565b6040516101e79190610b05565b60405180910390f35b61020a60048036038101906102059190610ac0565b61088f565b6040516102179190610b05565b60405180910390f35b61023a60048036038101906102359190610b51565b6108ac565b005b6003602052805f5260405f205f915054906101000a900460ff1681565b5f60149054906101000a900460ff1681565b5f5f9054906101000a900473ffffffffffffffffffffffffffffffffffffffff1673ffffffffffffffffffffffffffffffffffffffff163373ffffffffffffffffffffffffffffffffffffffff16146102f9576040517f08c379a00000000000000000000000000000000000000000000000000000000081526004016102f090610ca2565b60405180910390fd5b60015f60156101000a81548160ff0219169083151502179055505f5f60146101000a81548160ff021916908315150217905550565b6001818154811061033d575f80fd5b905f5260205f2090600202015f91509050805f015f9054906101000a900473ffffffffffffffffffffffffffffffffffffffff16908060010154905082565b5f5f9054906101000a900473ffffffffffffffffffffffffffffffffffffffff1673ffffffffffffffffffffffffffffffffffffffff163373ffffffffffffffffffffffffffffffffffffffff161461040a576040517f08c379a000000000000000000000000000000000000000000000000000000000815260040161040190610d30565b60405180910390fd5b5f5f9054906101000a900473ffffffffffffffffffffffffffffffffffffffff1673ffffffffffffffffffffffffffffffffffffffff168173ffffffffffffffffffffffffffffffffffffffff1603610498576040517f08c379a000000000000000000000000000000000000000000000000000000000815260040161048f90610dbe565b60405180910390fd5b60025f8273ffffffffffffffffffffffffffffffffffffffff1673ffffffffffffffffffffffffffffffffffffffff1681526020019081526020015f205f9054906101000a900460ff1615610522576040517f08c379a000000000000000000000000000000000000000000000000000000000815260040161051990610e26565b60405180910390fd5b600160405180604001604052808373ffffffffffffffffffffffffffffffffffffffff1681526020015f815250908060018154018082558091505060019003905f5260205f2090600202015f909190919091505f820151815f015f6101000a81548173ffffffffffffffffffffffffffffffffffffffff021916908373ffffffffffffffffffffffffffffffffffffffff160217905550602082015181600101555050600160025f8373ffffffffffffffffffffffffffffffffffffffff1673ffffffffffffffffffffffffffffffffffffffff1681526020019081526020015f205f6101000a81548160ff02191690831515021790555050565b5f600180549050905090565b5f5f9054906101000a900473ffffffffffffffffffffffffffffffffffffffff1681565b5f5f60026001805490501015610698576040517f08c379a000000000000000000000000000000000000000000000000000000000815260040161068f90610e8e565b60405180910390fd5b5f60159054906101000a900460ff166106e6576040517f08c379a00000000000000000000000000000000000000000000000000000000081526004016106dd90610ef6565b60405180910390fd5b5f5f90505f5f90505f5f90505b60018054905081101561076257826001828154811061071557610714610f14565b5b905f5260205f209060020201600101541115610755576001818154811061073f5761073e610f14565b5b905f5260205f2090600202016001015492508091505b80806001019150506106f3565b506001818154811061077757610776610f14565b5b905f5260205f2090600202015f015f9054906101000a900473ffffffffffffffffffffffffffffffffffffffff16600182815481106107b9576107b8610f14565b5b905f5260205f209060020201600101549350935050509091565b5f5f9054906101000a900473ffffffffffffffffffffffffffffffffffffffff1673ffffffffffffffffffffffffffffffffffffffff163373ffffffffffffffffffffffffffffffffffffffff1614610861576040517f08c379a000000000000000000000000000000000000000000000000000000000815260040161085890610d30565b60405180910390fd5b805f60146101000a81548160ff02191690831515021790555050565b5f60159054906101000a900460ff1681565b6002602052805f5260405f205f915054906101000a900460ff1681565b600115155f60149054906101000a900460ff16151514610901576040517f08c379a00000000000000000000000000000000000000000000000000000000081526004016108f890610f8b565b60405180910390fd5b6001805490508110610948576040517f08c379a000000000000000000000000000000000000000000000000000000000815260040161093f90610ff3565b60405180910390fd5b60035f3373ffffffffffffffffffffffffffffffffffffffff1673ffffffffffffffffffffffffffffffffffffffff1681526020019081526020015f205f9054906101000a900460ff16156109d2576040517f08c379a00000000000000000000000000000000000000000000000000000000081526004016109c99061105b565b60405180910390fd5b600181815481106109e6576109e5610f14565b5b905f5260205f2090600202016001015f815480929190610a05906110a6565b9190505550600160035f3373ffffffffffffffffffffffffffffffffffffffff1673ffffffffffffffffffffffffffffffffffffffff1681526020019081526020015f205f6101000a81548160ff02191690831515021790555050565b5f5ffd5b5f73ffffffffffffffffffffffffffffffffffffffff82169050919050565b5f610a8f82610a66565b9050919050565b610a9f81610a85565b8114610aa9575f5ffd5b50565b5f81359050610aba81610a96565b92915050565b5f60208284031215610ad557610ad4610a62565b5b5f610ae284828501610aac565b91505092915050565b5f8115159050919050565b610aff81610aeb565b82525050565b5f602082019050610b185f830184610af6565b92915050565b5f819050919050565b610b3081610b1e565b8114610b3a575f5ffd5b50565b5f81359050610b4b81610b27565b92915050565b5f60208284031215610b6657610b65610a62565b5b5f610b7384828501610b3d565b91505092915050565b610b8581610a85565b82525050565b610b9481610b1e565b82525050565b5f604082019050610bad5f830185610b7c565b610bba6020830184610b8b565b9392505050565b5f602082019050610bd45f830184610b8b565b92915050565b5f602082019050610bed5f830184610b7c565b92915050565b610bfc81610aeb565b8114610c06575f5ffd5b50565b5f81359050610c1781610bf3565b92915050565b5f60208284031215610c3257610c31610a62565b5b5f610c3f84828501610c09565b91505092915050565b5f82825260208201905092915050565b7f416e64612062756b616e206f776e6572000000000000000000000000000000005f82015250565b5f610c8c601083610c48565b9150610c9782610c58565b602082019050919050565b5f6020820190508181035f830152610cb981610c80565b9050919050565b7f416e64612062756b616e206f776e65722c2068616e7961206f776e65722079615f8201527f6e672062697361206d656e6461667461726b616e206b616e6469646174000000602082015250565b5f610d1a603d83610c48565b9150610d2582610cc0565b604082019050919050565b5f6020820190508181035f830152610d4781610d0e565b9050919050565b7f4f776e657220746964616b20626f6c6568206d656e6461667461726b616e20645f8201527f6972696e79612073656e64697269000000000000000000000000000000000000602082015250565b5f610da8602e83610c48565b9150610db382610d4e565b604082019050919050565b5f6020820190508181035f830152610dd581610d9c565b9050919050565b7f4b616e6469646174207375646168206d656e64616674617200000000000000005f82015250565b5f610e10601883610c48565b9150610e1b82610ddc565b602082019050919050565b5f6020820190508181035f830152610e3d81610e04565b9050919050565b7f4b616e646964617420746964616b2061646100000000000000000000000000005f82015250565b5f610e78601283610c48565b9150610e8382610e44565b602082019050919050565b5f6020820190508181035f830152610ea581610e6c565b9050919050565b7f566f74696e672062656c756d2073656c657361690000000000000000000000005f82015250565b5f610ee0601483610c48565b9150610eeb82610eac565b602082019050919050565b5f6020820190508181035f830152610f0d81610ed4565b9050919050565b7f4e487b71000000000000000000000000000000000000000000000000000000005f52603260045260245ffd5b7f566f74696e672062656c756d2064696d756c61690000000000000000000000005f82015250565b5f610f75601483610c48565b9150610f8082610f41565b602082019050919050565b5f6020820190508181035f830152610fa281610f69565b9050919050565b7f4b616e646964617420746964616b20646974656d756b616e00000000000000005f82015250565b5f610fdd601883610c48565b9150610fe882610fa9565b602082019050919050565b5f6020820190508181035f83015261100a81610fd1565b9050919050565b7f55736572207375646168206d656d696c696800000000000000000000000000005f82015250565b5f611045601283610c48565b915061105082611011565b602082019050919050565b5f6020820190508181035f83015261107281611039565b9050919050565b7f4e487b71000000000000000000000000000000000000000000000000000000005f52601160045260245ffd5b5f6110b082610b1e565b91507fffffffffffffffffffffffffffffffffffffffffffffffffffffffffffffffff82036110e2576110e1611079565b5b60018201905091905056fea2646970667358221220ea28016a8ecb4b3bc8f6c9c745c2f6b8f6b2cc23381972185f37dae3fd3cfea664736f6c634300081e0033",
					"opcodes": "PUSH1 0x80 PUSH1 0x40 MSTORE CALLVALUE DUP1 ISZERO PUSH1 0xE JUMPI PUSH0 PUSH0 REVERT JUMPDEST POP CALLER PUSH0 PUSH0 PUSH2 0x100 EXP DUP2 SLOAD DUP2 PUSH20 0xFFFFFFFFFFFFFFFFFFFFFFFFFFFFFFFFFFFFFFFF MUL NOT AND SWAP1 DUP4 PUSH20 0xFFFFFFFFFFFFFFFFFFFFFFFFFFFFFFFFFFFFFFFF AND MUL OR SWAP1 SSTORE POP PUSH0 PUSH0 PUSH1 0x14 PUSH2 0x100 EXP DUP2 SLOAD DUP2 PUSH1 0xFF MUL NOT AND SWAP1 DUP4 ISZERO ISZERO MUL OR SWAP1 SSTORE POP PUSH0 PUSH0 PUSH1 0x15 PUSH2 0x100 EXP DUP2 SLOAD DUP2 PUSH1 0xFF MUL NOT AND SWAP1 DUP4 ISZERO ISZERO MUL OR SWAP1 SSTORE POP PUSH2 0x1123 DUP1 PUSH2 0x8D PUSH0 CODECOPY PUSH0 RETURN INVALID PUSH1 0x80 PUSH1 0x40 MSTORE CALLVALUE DUP1 ISZERO PUSH2 0xF JUMPI PUSH0 PUSH0 REVERT JUMPDEST POP PUSH1 0x4 CALLDATASIZE LT PUSH2 0xB2 JUMPI PUSH0 CALLDATALOAD PUSH1 0xE0 SHR DUP1 PUSH4 0x8DA5CB5B GT PUSH2 0x6F JUMPI DUP1 PUSH4 0x8DA5CB5B EQ PUSH2 0x179 JUMPI DUP1 PUSH4 0x98EAE90B EQ PUSH2 0x197 JUMPI DUP1 PUSH4 0xA9CEFDFB EQ PUSH2 0x1B6 JUMPI DUP1 PUSH4 0xB718EAAA EQ PUSH2 0x1D2 JUMPI DUP1 PUSH4 0xD1C2BFB4 EQ PUSH2 0x1F0 JUMPI DUP1 PUSH4 0xFD4A77F1 EQ PUSH2 0x220 JUMPI PUSH2 0xB2 JUMP JUMPDEST DUP1 PUSH4 0x2273535E EQ PUSH2 0xB6 JUMPI DUP1 PUSH4 0x3BFCFA6E EQ PUSH2 0xE6 JUMPI DUP1 PUSH4 0x51CE77E1 EQ PUSH2 0x104 JUMPI DUP1 PUSH4 0x657C3EF1 EQ PUSH2 0x10E JUMPI DUP1 PUSH4 0x67FDE272 EQ PUSH2 0x13F JUMPI DUP1 PUSH4 0x752EA7D4 EQ PUSH2 0x15B JUMPI JUMPDEST PUSH0 PUSH0 REVERT JUMPDEST PUSH2 0xD0 PUSH1 0x4 DUP1 CALLDATASIZE SUB DUP2 ADD SWAP1 PUSH2 0xCB SWAP2 SWAP1 PUSH2 0xAC0 JUMP JUMPDEST PUSH2 0x23C JUMP JUMPDEST PUSH1 0x40 MLOAD PUSH2 0xDD SWAP2 SWAP1 PUSH2 0xB05 JUMP JUMPDEST PUSH1 0x40 MLOAD DUP1 SWAP2 SUB SWAP1 RETURN JUMPDEST PUSH2 0xEE PUSH2 0x259 JUMP JUMPDEST PUSH1 0x40 MLOAD PUSH2 0xFB SWAP2 SWAP1 PUSH2 0xB05 JUMP JUMPDEST PUSH1 0x40 MLOAD DUP1 SWAP2 SUB SWAP1 RETURN JUMPDEST PUSH2 0x10C PUSH2 0x26B JUMP JUMPDEST STOP JUMPDEST PUSH2 0x128 PUSH1 0x4 DUP1 CALLDATASIZE SUB DUP2 ADD SWAP1 PUSH2 0x123 SWAP2 SWAP1 PUSH2 0xB51 JUMP JUMPDEST PUSH2 0x32E JUMP JUMPDEST PUSH1 0x40 MLOAD PUSH2 0x136 SWAP3 SWAP2 SWAP1 PUSH2 0xB9A JUMP JUMPDEST PUSH1 0x40 MLOAD DUP1 SWAP2 SUB SWAP1 RETURN JUMPDEST PUSH2 0x159 PUSH1 0x4 DUP1 CALLDATASIZE SUB DUP2 ADD SWAP1 PUSH2 0x154 SWAP2 SWAP1 PUSH2 0xAC0 JUMP JUMPDEST PUSH2 0x37C JUMP JUMPDEST STOP JUMPDEST PUSH2 0x163 PUSH2 0x61D JUMP JUMPDEST PUSH1 0x40 MLOAD PUSH2 0x170 SWAP2 SWAP1 PUSH2 0xBC1 JUMP JUMPDEST PUSH1 0x40 MLOAD DUP1 SWAP2 SUB SWAP1 RETURN JUMPDEST PUSH2 0x181 PUSH2 0x629 JUMP JUMPDEST PUSH1 0x40 MLOAD PUSH2 0x18E SWAP2 SWAP1 PUSH2 0xBDA JUMP JUMPDEST PUSH1 0x40 MLOAD DUP1 SWAP2 SUB SWAP1 RETURN JUMPDEST PUSH2 0x19F PUSH2 0x64D JUMP JUMPDEST PUSH1 0x40 MLOAD PUSH2 0x1AD SWAP3 SWAP2 SWAP1 PUSH2 0xB9A JUMP JUMPDEST PUSH1 0x40 MLOAD DUP1 SWAP2 SUB SWAP1 RETURN JUMPDEST PUSH2 0x1D0 PUSH1 0x4 DUP1 CALLDATASIZE SUB DUP2 ADD SWAP1 PUSH2 0x1CB SWAP2 SWAP1 PUSH2 0xC1D JUMP JUMPDEST PUSH2 0x7D3 JUMP JUMPDEST STOP JUMPDEST PUSH2 0x1DA PUSH2 0x87D JUMP JUMPDEST PUSH1 0x40 MLOAD PUSH2 0x1E7 SWAP2 SWAP1 PUSH2 0xB05 JUMP JUMPDEST PUSH1 0x40 MLOAD DUP1 SWAP2 SUB SWAP1 RETURN JUMPDEST PUSH2 0x20A PUSH1 0x4 DUP1 CALLDATASIZE SUB DUP2 ADD SWAP1 PUSH2 0x205 SWAP2 SWAP1 PUSH2 0xAC0 JUMP JUMPDEST PUSH2 0x88F JUMP JUMPDEST PUSH1 0x40 MLOAD PUSH2 0x217 SWAP2 SWAP1 PUSH2 0xB05 JUMP JUMPDEST PUSH1 0x40 MLOAD DUP1 SWAP2 SUB SWAP1 RETURN JUMPDEST PUSH2 0x23A PUSH1 0x4 DUP1 CALLDATASIZE SUB DUP2 ADD SWAP1 PUSH2 0x235 SWAP2 SWAP1 PUSH2 0xB51 JUMP JUMPDEST PUSH2 0x8AC JUMP JUMPDEST STOP JUMPDEST PUSH1 0x3 PUSH1 0x20 MSTORE DUP1 PUSH0 MSTORE PUSH1 0x40 PUSH0 KECCAK256 PUSH0 SWAP2 POP SLOAD SWAP1 PUSH2 0x100 EXP SWAP1 DIV PUSH1 0xFF AND DUP2 JUMP JUMPDEST PUSH0 PUSH1 0x14 SWAP1 SLOAD SWAP1 PUSH2 0x100 EXP SWAP1 DIV PUSH1 0xFF AND DUP2 JUMP JUMPDEST PUSH0 PUSH0 SWAP1 SLOAD SWAP1 PUSH2 0x100 EXP SWAP1 DIV PUSH20 0xFFFFFFFFFFFFFFFFFFFFFFFFFFFFFFFFFFFFFFFF AND PUSH20 0xFFFFFFFFFFFFFFFFFFFFFFFFFFFFFFFFFFFFFFFF AND CALLER PUSH20 0xFFFFFFFFFFFFFFFFFFFFFFFFFFFFFFFFFFFFFFFF AND EQ PUSH2 0x2F9 JUMPI PUSH1 0x40 MLOAD PUSH32 0x8C379A000000000000000000000000000000000000000000000000000000000 DUP2 MSTORE PUSH1 0x4 ADD PUSH2 0x2F0 SWAP1 PUSH2 0xCA2 JUMP JUMPDEST PUSH1 0x40 MLOAD DUP1 SWAP2 SUB SWAP1 REVERT JUMPDEST PUSH1 0x1 PUSH0 PUSH1 0x15 PUSH2 0x100 EXP DUP2 SLOAD DUP2 PUSH1 0xFF MUL NOT AND SWAP1 DUP4 ISZERO ISZERO MUL OR SWAP1 SSTORE POP PUSH0 PUSH0 PUSH1 0x14 PUSH2 0x100 EXP DUP2 SLOAD DUP2 PUSH1 0xFF MUL NOT AND SWAP1 DUP4 ISZERO ISZERO MUL OR SWAP1 SSTORE POP JUMP JUMPDEST PUSH1 0x1 DUP2 DUP2 SLOAD DUP2 LT PUSH2 0x33D JUMPI PUSH0 DUP1 REVERT JUMPDEST SWAP1 PUSH0 MSTORE PUSH1 0x20 PUSH0 KECCAK256 SWAP1 PUSH1 0x2 MUL ADD PUSH0 SWAP2 POP SWAP1 POP DUP1 PUSH0 ADD PUSH0 SWAP1 SLOAD SWAP1 PUSH2 0x100 EXP SWAP1 DIV PUSH20 0xFFFFFFFFFFFFFFFFFFFFFFFFFFFFFFFFFFFFFFFF AND SWAP1 DUP1 PUSH1 0x1 ADD SLOAD SWAP1 POP DUP3 JUMP JUMPDEST PUSH0 PUSH0 SWAP1 SLOAD SWAP1 PUSH2 0x100 EXP SWAP1 DIV PUSH20 0xFFFFFFFFFFFFFFFFFFFFFFFFFFFFFFFFFFFFFFFF AND PUSH20 0xFFFFFFFFFFFFFFFFFFFFFFFFFFFFFFFFFFFFFFFF AND CALLER PUSH20 0xFFFFFFFFFFFFFFFFFFFFFFFFFFFFFFFFFFFFFFFF AND EQ PUSH2 0x40A JUMPI PUSH1 0x40 MLOAD PUSH32 0x8C379A000000000000000000000000000000000000000000000000000000000 DUP2 MSTORE PUSH1 0x4 ADD PUSH2 0x401 SWAP1 PUSH2 0xD30 JUMP JUMPDEST PUSH1 0x40 MLOAD DUP1 SWAP2 SUB SWAP1 REVERT JUMPDEST PUSH0 PUSH0 SWAP1 SLOAD SWAP1 PUSH2 0x100 EXP SWAP1 DIV PUSH20 0xFFFFFFFFFFFFFFFFFFFFFFFFFFFFFFFFFFFFFFFF AND PUSH20 0xFFFFFFFFFFFFFFFFFFFFFFFFFFFFFFFFFFFFFFFF AND DUP2 PUSH20 0xFFFFFFFFFFFFFFFFFFFFFFFFFFFFFFFFFFFFFFFF AND SUB PUSH2 0x498 JUMPI PUSH1 0x40 MLOAD PUSH32 0x8C379A000000000000000000000000000000000000000000000000000000000 DUP2 MSTORE PUSH1 0x4 ADD PUSH2 0x48F SWAP1 PUSH2 0xDBE JUMP JUMPDEST PUSH1 0x40 MLOAD DUP1 SWAP2 SUB SWAP1 REVERT JUMPDEST PUSH1 0x2 PUSH0 DUP3 PUSH20 0xFFFFFFFFFFFFFFFFFFFFFFFFFFFFFFFFFFFFFFFF AND PUSH20 0xFFFFFFFFFFFFFFFFFFFFFFFFFFFFFFFFFFFFFFFF AND DUP2 MSTORE PUSH1 0x20 ADD SWAP1 DUP2 MSTORE PUSH1 0x20 ADD PUSH0 KECCAK256 PUSH0 SWAP1 SLOAD SWAP1 PUSH2 0x100 EXP SWAP1 DIV PUSH1 0xFF AND ISZERO PUSH2 0x522 JUMPI PUSH1 0x40 MLOAD PUSH32 0x8C379A000000000000000000000000000000000000000000000000000000000 DUP2 MSTORE PUSH1 0x4 ADD PUSH2 0x519 SWAP1 PUSH2 0xE26 JUMP JUMPDEST PUSH1 0x40 MLOAD DUP1 SWAP2 SUB SWAP1 REVERT JUMPDEST PUSH1 0x1 PUSH1 0x40 MLOAD DUP1 PUSH1 0x40 ADD PUSH1 0x40 MSTORE DUP1 DUP4 PUSH20 0xFFFFFFFFFFFFFFFFFFFFFFFFFFFFFFFFFFFFFFFF AND DUP2 MSTORE PUSH1 0x20 ADD PUSH0 DUP2 MSTORE POP SWAP1 DUP1 PUSH1 0x1 DUP2 SLOAD ADD DUP1 DUP3 SSTORE DUP1 SWAP2 POP POP PUSH1 0x1 SWAP1 SUB SWAP1 PUSH0 MSTORE PUSH1 0x20 PUSH0 KECCAK256 SWAP1 PUSH1 0x2 MUL ADD PUSH0 SWAP1 SWAP2 SWAP1 SWAP2 SWAP1 SWAP2 POP PUSH0 DUP3 ADD MLOAD DUP2 PUSH0 ADD PUSH0 PUSH2 0x100 EXP DUP2 SLOAD DUP2 PUSH20 0xFFFFFFFFFFFFFFFFFFFFFFFFFFFFFFFFFFFFFFFF MUL NOT AND SWAP1 DUP4 PUSH20 0xFFFFFFFFFFFFFFFFFFFFFFFFFFFFFFFFFFFFFFFF AND MUL OR SWAP1 SSTORE POP PUSH1 0x20 DUP3 ADD MLOAD DUP2 PUSH1 0x1 ADD SSTORE POP POP PUSH1 0x1 PUSH1 0x2 PUSH0 DUP4 PUSH20 0xFFFFFFFFFFFFFFFFFFFFFFFFFFFFFFFFFFFFFFFF AND PUSH20 0xFFFFFFFFFFFFFFFFFFFFFFFFFFFFFFFFFFFFFFFF AND DUP2 MSTORE PUSH1 0x20 ADD SWAP1 DUP2 MSTORE PUSH1 0x20 ADD PUSH0 KECCAK256 PUSH0 PUSH2 0x100 EXP DUP2 SLOAD DUP2 PUSH1 0xFF MUL NOT AND SWAP1 DUP4 ISZERO ISZERO MUL OR SWAP1 SSTORE POP POP JUMP JUMPDEST PUSH0 PUSH1 0x1 DUP1 SLOAD SWAP1 POP SWAP1 POP SWAP1 JUMP JUMPDEST PUSH0 PUSH0 SWAP1 SLOAD SWAP1 PUSH2 0x100 EXP SWAP1 DIV PUSH20 0xFFFFFFFFFFFFFFFFFFFFFFFFFFFFFFFFFFFFFFFF AND DUP2 JUMP JUMPDEST PUSH0 PUSH0 PUSH1 0x2 PUSH1 0x1 DUP1 SLOAD SWAP1 POP LT ISZERO PUSH2 0x698 JUMPI PUSH1 0x40 MLOAD PUSH32 0x8C379A000000000000000000000000000000000000000000000000000000000 DUP2 MSTORE PUSH1 0x4 ADD PUSH2 0x68F SWAP1 PUSH2 0xE8E JUMP JUMPDEST PUSH1 0x40 MLOAD DUP1 SWAP2 SUB SWAP1 REVERT JUMPDEST PUSH0 PUSH1 0x15 SWAP1 SLOAD SWAP1 PUSH2 0x100 EXP SWAP1 DIV PUSH1 0xFF AND PUSH2 0x6E6 JUMPI PUSH1 0x40 MLOAD PUSH32 0x8C379A000000000000000000000000000000000000000000000000000000000 DUP2 MSTORE PUSH1 0x4 ADD PUSH2 0x6DD SWAP1 PUSH2 0xEF6 JUMP JUMPDEST PUSH1 0x40 MLOAD DUP1 SWAP2 SUB SWAP1 REVERT JUMPDEST PUSH0 PUSH0 SWAP1 POP PUSH0 PUSH0 SWAP1 POP PUSH0 PUSH0 SWAP1 POP JUMPDEST PUSH1 0x1 DUP1 SLOAD SWAP1 POP DUP2 LT ISZERO PUSH2 0x762 JUMPI DUP3 PUSH1 0x1 DUP3 DUP2 SLOAD DUP2 LT PUSH2 0x715 JUMPI PUSH2 0x714 PUSH2 0xF14 JUMP JUMPDEST JUMPDEST SWAP1 PUSH0 MSTORE PUSH1 0x20 PUSH0 KECCAK256 SWAP1 PUSH1 0x2 MUL ADD PUSH1 0x1 ADD SLOAD GT ISZERO PUSH2 0x755 JUMPI PUSH1 0x1 DUP2 DUP2 SLOAD DUP2 LT PUSH2 0x73F JUMPI PUSH2 0x73E PUSH2 0xF14 JUMP JUMPDEST JUMPDEST SWAP1 PUSH0 MSTORE PUSH1 0x20 PUSH0 KECCAK256 SWAP1 PUSH1 0x2 MUL ADD PUSH1 0x1 ADD SLOAD SWAP3 POP DUP1 SWAP2 POP JUMPDEST DUP1 DUP1 PUSH1 0x1 ADD SWAP2 POP POP PUSH2 0x6F3 JUMP JUMPDEST POP PUSH1 0x1 DUP2 DUP2 SLOAD DUP2 LT PUSH2 0x777 JUMPI PUSH2 0x776 PUSH2 0xF14 JUMP JUMPDEST JUMPDEST SWAP1 PUSH0 MSTORE PUSH1 0x20 PUSH0 KECCAK256 SWAP1 PUSH1 0x2 MUL ADD PUSH0 ADD PUSH0 SWAP1 SLOAD SWAP1 PUSH2 0x100 EXP SWAP1 DIV PUSH20 0xFFFFFFFFFFFFFFFFFFFFFFFFFFFFFFFFFFFFFFFF AND PUSH1 0x1 DUP3 DUP2 SLOAD DUP2 LT PUSH2 0x7B9 JUMPI PUSH2 0x7B8 PUSH2 0xF14 JUMP JUMPDEST JUMPDEST SWAP1 PUSH0 MSTORE PUSH1 0x20 PUSH0 KECCAK256 SWAP1 PUSH1 0x2 MUL ADD PUSH1 0x1 ADD SLOAD SWAP4 POP SWAP4 POP POP POP SWAP1 SWAP2 JUMP JUMPDEST PUSH0 PUSH0 SWAP1 SLOAD SWAP1 PUSH2 0x100 EXP SWAP1 DIV PUSH20 0xFFFFFFFFFFFFFFFFFFFFFFFFFFFFFFFFFFFFFFFF AND PUSH20 0xFFFFFFFFFFFFFFFFFFFFFFFFFFFFFFFFFFFFFFFF AND CALLER PUSH20 0xFFFFFFFFFFFFFFFFFFFFFFFFFFFFFFFFFFFFFFFF AND EQ PUSH2 0x861 JUMPI PUSH1 0x40 MLOAD PUSH32 0x8C379A000000000000000000000000000000000000000000000000000000000 DUP2 MSTORE PUSH1 0x4 ADD PUSH2 0x858 SWAP1 PUSH2 0xD30 JUMP JUMPDEST PUSH1 0x40 MLOAD DUP1 SWAP2 SUB SWAP1 REVERT JUMPDEST DUP1 PUSH0 PUSH1 0x14 PUSH2 0x100 EXP DUP2 SLOAD DUP2 PUSH1 0xFF MUL NOT AND SWAP1 DUP4 ISZERO ISZERO MUL OR SWAP1 SSTORE POP POP JUMP JUMPDEST PUSH0 PUSH1 0x15 SWAP1 SLOAD SWAP1 PUSH2 0x100 EXP SWAP1 DIV PUSH1 0xFF AND DUP2 JUMP JUMPDEST PUSH1 0x2 PUSH1 0x20 MSTORE DUP1 PUSH0 MSTORE PUSH1 0x40 PUSH0 KECCAK256 PUSH0 SWAP2 POP SLOAD SWAP1 PUSH2 0x100 EXP SWAP1 DIV PUSH1 0xFF AND DUP2 JUMP JUMPDEST PUSH1 0x1 ISZERO ISZERO PUSH0 PUSH1 0x14 SWAP1 SLOAD SWAP1 PUSH2 0x100 EXP SWAP1 DIV PUSH1 0xFF AND ISZERO ISZERO EQ PUSH2 0x901 JUMPI PUSH1 0x40 MLOAD PUSH32 0x8C379A000000000000000000000000000000000000000000000000000000000 DUP2 MSTORE PUSH1 0x4 ADD PUSH2 0x8F8 SWAP1 PUSH2 0xF8B JUMP JUMPDEST PUSH1 0x40 MLOAD DUP1 SWAP2 SUB SWAP1 REVERT JUMPDEST PUSH1 0x1 DUP1 SLOAD SWAP1 POP DUP2 LT PUSH2 0x948 JUMPI PUSH1 0x40 MLOAD PUSH32 0x8C379A000000000000000000000000000000000000000000000000000000000 DUP2 MSTORE PUSH1 0x4 ADD PUSH2 0x93F SWAP1 PUSH2 0xFF3 JUMP JUMPDEST PUSH1 0x40 MLOAD DUP1 SWAP2 SUB SWAP1 REVERT JUMPDEST PUSH1 0x3 PUSH0 CALLER PUSH20 0xFFFFFFFFFFFFFFFFFFFFFFFFFFFFFFFFFFFFFFFF AND PUSH20 0xFFFFFFFFFFFFFFFFFFFFFFFFFFFFFFFFFFFFFFFF AND DUP2 MSTORE PUSH1 0x20 ADD SWAP1 DUP2 MSTORE PUSH1 0x20 ADD PUSH0 KECCAK256 PUSH0 SWAP1 SLOAD SWAP1 PUSH2 0x100 EXP SWAP1 DIV PUSH1 0xFF AND ISZERO PUSH2 0x9D2 JUMPI PUSH1 0x40 MLOAD PUSH32 0x8C379A000000000000000000000000000000000000000000000000000000000 DUP2 MSTORE PUSH1 0x4 ADD PUSH2 0x9C9 SWAP1 PUSH2 0x105B JUMP JUMPDEST PUSH1 0x40 MLOAD DUP1 SWAP2 SUB SWAP1 REVERT JUMPDEST PUSH1 0x1 DUP2 DUP2 SLOAD DUP2 LT PUSH2 0x9E6 JUMPI PUSH2 0x9E5 PUSH2 0xF14 JUMP JUMPDEST JUMPDEST SWAP1 PUSH0 MSTORE PUSH1 0x20 PUSH0 KECCAK256 SWAP1 PUSH1 0x2 MUL ADD PUSH1 0x1 ADD PUSH0 DUP2 SLOAD DUP1 SWAP3 SWAP2 SWAP1 PUSH2 0xA05 SWAP1 PUSH2 0x10A6 JUMP JUMPDEST SWAP2 SWAP1 POP SSTORE POP PUSH1 0x1 PUSH1 0x3 PUSH0 CALLER PUSH20 0xFFFFFFFFFFFFFFFFFFFFFFFFFFFFFFFFFFFFFFFF AND PUSH20 0xFFFFFFFFFFFFFFFFFFFFFFFFFFFFFFFFFFFFFFFF AND DUP2 MSTORE PUSH1 0x20 ADD SWAP1 DUP2 MSTORE PUSH1 0x20 ADD PUSH0 KECCAK256 PUSH0 PUSH2 0x100 EXP DUP2 SLOAD DUP2 PUSH1 0xFF MUL NOT AND SWAP1 DUP4 ISZERO ISZERO MUL OR SWAP1 SSTORE POP POP JUMP JUMPDEST PUSH0 PUSH0 REVERT JUMPDEST PUSH0 PUSH20 0xFFFFFFFFFFFFFFFFFFFFFFFFFFFFFFFFFFFFFFFF DUP3 AND SWAP1 POP SWAP2 SWAP1 POP JUMP JUMPDEST PUSH0 PUSH2 0xA8F DUP3 PUSH2 0xA66 JUMP JUMPDEST SWAP1 POP SWAP2 SWAP1 POP JUMP JUMPDEST PUSH2 0xA9F DUP2 PUSH2 0xA85 JUMP JUMPDEST DUP2 EQ PUSH2 0xAA9 JUMPI PUSH0 PUSH0 REVERT JUMPDEST POP JUMP JUMPDEST PUSH0 DUP2 CALLDATALOAD SWAP1 POP PUSH2 0xABA DUP2 PUSH2 0xA96 JUMP JUMPDEST SWAP3 SWAP2 POP POP JUMP JUMPDEST PUSH0 PUSH1 0x20 DUP3 DUP5 SUB SLT ISZERO PUSH2 0xAD5 JUMPI PUSH2 0xAD4 PUSH2 0xA62 JUMP JUMPDEST JUMPDEST PUSH0 PUSH2 0xAE2 DUP5 DUP3 DUP6 ADD PUSH2 0xAAC JUMP JUMPDEST SWAP2 POP POP SWAP3 SWAP2 POP POP JUMP JUMPDEST PUSH0 DUP2 ISZERO ISZERO SWAP1 POP SWAP2 SWAP1 POP JUMP JUMPDEST PUSH2 0xAFF DUP2 PUSH2 0xAEB JUMP JUMPDEST DUP3 MSTORE POP POP JUMP JUMPDEST PUSH0 PUSH1 0x20 DUP3 ADD SWAP1 POP PUSH2 0xB18 PUSH0 DUP4 ADD DUP5 PUSH2 0xAF6 JUMP JUMPDEST SWAP3 SWAP2 POP POP JUMP JUMPDEST PUSH0 DUP2 SWAP1 POP SWAP2 SWAP1 POP JUMP JUMPDEST PUSH2 0xB30 DUP2 PUSH2 0xB1E JUMP JUMPDEST DUP2 EQ PUSH2 0xB3A JUMPI PUSH0 PUSH0 REVERT JUMPDEST POP JUMP JUMPDEST PUSH0 DUP2 CALLDATALOAD SWAP1 POP PUSH2 0xB4B DUP2 PUSH2 0xB27 JUMP JUMPDEST SWAP3 SWAP2 POP POP JUMP JUMPDEST PUSH0 PUSH1 0x20 DUP3 DUP5 SUB SLT ISZERO PUSH2 0xB66 JUMPI PUSH2 0xB65 PUSH2 0xA62 JUMP JUMPDEST JUMPDEST PUSH0 PUSH2 0xB73 DUP5 DUP3 DUP6 ADD PUSH2 0xB3D JUMP JUMPDEST SWAP2 POP POP SWAP3 SWAP2 POP POP JUMP JUMPDEST PUSH2 0xB85 DUP2 PUSH2 0xA85 JUMP JUMPDEST DUP3 MSTORE POP POP JUMP JUMPDEST PUSH2 0xB94 DUP2 PUSH2 0xB1E JUMP JUMPDEST DUP3 MSTORE POP POP JUMP JUMPDEST PUSH0 PUSH1 0x40 DUP3 ADD SWAP1 POP PUSH2 0xBAD PUSH0 DUP4 ADD DUP6 PUSH2 0xB7C JUMP JUMPDEST PUSH2 0xBBA PUSH1 0x20 DUP4 ADD DUP5 PUSH2 0xB8B JUMP JUMPDEST SWAP4 SWAP3 POP POP POP JUMP JUMPDEST PUSH0 PUSH1 0x20 DUP3 ADD SWAP1 POP PUSH2 0xBD4 PUSH0 DUP4 ADD DUP5 PUSH2 0xB8B JUMP JUMPDEST SWAP3 SWAP2 POP POP JUMP JUMPDEST PUSH0 PUSH1 0x20 DUP3 ADD SWAP1 POP PUSH2 0xBED PUSH0 DUP4 ADD DUP5 PUSH2 0xB7C JUMP JUMPDEST SWAP3 SWAP2 POP POP JUMP JUMPDEST PUSH2 0xBFC DUP2 PUSH2 0xAEB JUMP JUMPDEST DUP2 EQ PUSH2 0xC06 JUMPI PUSH0 PUSH0 REVERT JUMPDEST POP JUMP JUMPDEST PUSH0 DUP2 CALLDATALOAD SWAP1 POP PUSH2 0xC17 DUP2 PUSH2 0xBF3 JUMP JUMPDEST SWAP3 SWAP2 POP POP JUMP JUMPDEST PUSH0 PUSH1 0x20 DUP3 DUP5 SUB SLT ISZERO PUSH2 0xC32 JUMPI PUSH2 0xC31 PUSH2 0xA62 JUMP JUMPDEST JUMPDEST PUSH0 PUSH2 0xC3F DUP5 DUP3 DUP6 ADD PUSH2 0xC09 JUMP JUMPDEST SWAP2 POP POP SWAP3 SWAP2 POP POP JUMP JUMPDEST PUSH0 DUP3 DUP3 MSTORE PUSH1 0x20 DUP3 ADD SWAP1 POP SWAP3 SWAP2 POP POP JUMP JUMPDEST PUSH32 0x416E64612062756B616E206F776E657200000000000000000000000000000000 PUSH0 DUP3 ADD MSTORE POP JUMP JUMPDEST PUSH0 PUSH2 0xC8C PUSH1 0x10 DUP4 PUSH2 0xC48 JUMP JUMPDEST SWAP2 POP PUSH2 0xC97 DUP3 PUSH2 0xC58 JUMP JUMPDEST PUSH1 0x20 DUP3 ADD SWAP1 POP SWAP2 SWAP1 POP JUMP JUMPDEST PUSH0 PUSH1 0x20 DUP3 ADD SWAP1 POP DUP2 DUP2 SUB PUSH0 DUP4 ADD MSTORE PUSH2 0xCB9 DUP2 PUSH2 0xC80 JUMP JUMPDEST SWAP1 POP SWAP2 SWAP1 POP JUMP JUMPDEST PUSH32 0x416E64612062756B616E206F776E65722C2068616E7961206F776E6572207961 PUSH0 DUP3 ADD MSTORE PUSH32 0x6E672062697361206D656E6461667461726B616E206B616E6469646174000000 PUSH1 0x20 DUP3 ADD MSTORE POP JUMP JUMPDEST PUSH0 PUSH2 0xD1A PUSH1 0x3D DUP4 PUSH2 0xC48 JUMP JUMPDEST SWAP2 POP PUSH2 0xD25 DUP3 PUSH2 0xCC0 JUMP JUMPDEST PUSH1 0x40 DUP3 ADD SWAP1 POP SWAP2 SWAP1 POP JUMP JUMPDEST PUSH0 PUSH1 0x20 DUP3 ADD SWAP1 POP DUP2 DUP2 SUB PUSH0 DUP4 ADD MSTORE PUSH2 0xD47 DUP2 PUSH2 0xD0E JUMP JUMPDEST SWAP1 POP SWAP2 SWAP1 POP JUMP JUMPDEST PUSH32 0x4F776E657220746964616B20626F6C6568206D656E6461667461726B616E2064 PUSH0 DUP3 ADD MSTORE PUSH32 0x6972696E79612073656E64697269000000000000000000000000000000000000 PUSH1 0x20 DUP3 ADD MSTORE POP JUMP JUMPDEST PUSH0 PUSH2 0xDA8 PUSH1 0x2E DUP4 PUSH2 0xC48 JUMP JUMPDEST SWAP2 POP PUSH2 0xDB3 DUP3 PUSH2 0xD4E JUMP JUMPDEST PUSH1 0x40 DUP3 ADD SWAP1 POP SWAP2 SWAP1 POP JUMP JUMPDEST PUSH0 PUSH1 0x20 DUP3 ADD SWAP1 POP DUP2 DUP2 SUB PUSH0 DUP4 ADD MSTORE PUSH2 0xDD5 DUP2 PUSH2 0xD9C JUMP JUMPDEST SWAP1 POP SWAP2 SWAP1 POP JUMP JUMPDEST PUSH32 0x4B616E6469646174207375646168206D656E6461667461720000000000000000 PUSH0 DUP3 ADD MSTORE POP JUMP JUMPDEST PUSH0 PUSH2 0xE10 PUSH1 0x18 DUP4 PUSH2 0xC48 JUMP JUMPDEST SWAP2 POP PUSH2 0xE1B DUP3 PUSH2 0xDDC JUMP JUMPDEST PUSH1 0x20 DUP3 ADD SWAP1 POP SWAP2 SWAP1 POP JUMP JUMPDEST PUSH0 PUSH1 0x20 DUP3 ADD SWAP1 POP DUP2 DUP2 SUB PUSH0 DUP4 ADD MSTORE PUSH2 0xE3D DUP2 PUSH2 0xE04 JUMP JUMPDEST SWAP1 POP SWAP2 SWAP1 POP JUMP JUMPDEST PUSH32 0x4B616E646964617420746964616B206164610000000000000000000000000000 PUSH0 DUP3 ADD MSTORE POP JUMP JUMPDEST PUSH0 PUSH2 0xE78 PUSH1 0x12 DUP4 PUSH2 0xC48 JUMP JUMPDEST SWAP2 POP PUSH2 0xE83 DUP3 PUSH2 0xE44 JUMP JUMPDEST PUSH1 0x20 DUP3 ADD SWAP1 POP SWAP2 SWAP1 POP JUMP JUMPDEST PUSH0 PUSH1 0x20 DUP3 ADD SWAP1 POP DUP2 DUP2 SUB PUSH0 DUP4 ADD MSTORE PUSH2 0xEA5 DUP2 PUSH2 0xE6C JUMP JUMPDEST SWAP1 POP SWAP2 SWAP1 POP JUMP JUMPDEST PUSH32 0x566F74696E672062656C756D2073656C65736169000000000000000000000000 PUSH0 DUP3 ADD MSTORE POP JUMP JUMPDEST PUSH0 PUSH2 0xEE0 PUSH1 0x14 DUP4 PUSH2 0xC48 JUMP JUMPDEST SWAP2 POP PUSH2 0xEEB DUP3 PUSH2 0xEAC JUMP JUMPDEST PUSH1 0x20 DUP3 ADD SWAP1 POP SWAP2 SWAP1 POP JUMP JUMPDEST PUSH0 PUSH1 0x20 DUP3 ADD SWAP1 POP DUP2 DUP2 SUB PUSH0 DUP4 ADD MSTORE PUSH2 0xF0D DUP2 PUSH2 0xED4 JUMP JUMPDEST SWAP1 POP SWAP2 SWAP1 POP JUMP JUMPDEST PUSH32 0x4E487B7100000000000000000000000000000000000000000000000000000000 PUSH0 MSTORE PUSH1 0x32 PUSH1 0x4 MSTORE PUSH1 0x24 PUSH0 REVERT JUMPDEST PUSH32 0x566F74696E672062656C756D2064696D756C6169000000000000000000000000 PUSH0 DUP3 ADD MSTORE POP JUMP JUMPDEST PUSH0 PUSH2 0xF75 PUSH1 0x14 DUP4 PUSH2 0xC48 JUMP JUMPDEST SWAP2 POP PUSH2 0xF80 DUP3 PUSH2 0xF41 JUMP JUMPDEST PUSH1 0x20 DUP3 ADD SWAP1 POP SWAP2 SWAP1 POP JUMP JUMPDEST PUSH0 PUSH1 0x20 DUP3 ADD SWAP1 POP DUP2 DUP2 SUB PUSH0 DUP4 ADD MSTORE PUSH2 0xFA2 DUP2 PUSH2 0xF69 JUMP JUMPDEST SWAP1 POP SWAP2 SWAP1 POP JUMP JUMPDEST PUSH32 0x4B616E646964617420746964616B20646974656D756B616E0000000000000000 PUSH0 DUP3 ADD MSTORE POP JUMP JUMPDEST PUSH0 PUSH2 0xFDD PUSH1 0x18 DUP4 PUSH2 0xC48 JUMP JUMPDEST SWAP2 POP PUSH2 0xFE8 DUP3 PUSH2 0xFA9 JUMP JUMPDEST PUSH1 0x20 DUP3 ADD SWAP1 POP SWAP2 SWAP1 POP JUMP JUMPDEST PUSH0 PUSH1 0x20 DUP3 ADD SWAP1 POP DUP2 DUP2 SUB PUSH0 DUP4 ADD MSTORE PUSH2 0x100A DUP2 PUSH2 0xFD1 JUMP JUMPDEST SWAP1 POP SWAP2 SWAP1 POP JUMP JUMPDEST PUSH32 0x55736572207375646168206D656D696C69680000000000000000000000000000 PUSH0 DUP3 ADD MSTORE POP JUMP JUMPDEST PUSH0 PUSH2 0x1045 PUSH1 0x12 DUP4 PUSH2 0xC48 JUMP JUMPDEST SWAP2 POP PUSH2 0x1050 DUP3 PUSH2 0x1011 JUMP JUMPDEST PUSH1 0x20 DUP3 ADD SWAP1 POP SWAP2 SWAP1 POP JUMP JUMPDEST PUSH0 PUSH1 0x20 DUP3 ADD SWAP1 POP DUP2 DUP2 SUB PUSH0 DUP4 ADD MSTORE PUSH2 0x1072 DUP2 PUSH2 0x1039 JUMP JUMPDEST SWAP1 POP SWAP2 SWAP1 POP JUMP JUMPDEST PUSH32 0x4E487B7100000000000000000000000000000000000000000000000000000000 PUSH0 MSTORE PUSH1 0x11 PUSH1 0x4 MSTORE PUSH1 0x24 PUSH0 REVERT JUMPDEST PUSH0 PUSH2 0x10B0 DUP3 PUSH2 0xB1E JUMP JUMPDEST SWAP2 POP PUSH32 0xFFFFFFFFFFFFFFFFFFFFFFFFFFFFFFFFFFFFFFFFFFFFFFFFFFFFFFFFFFFFFFFF DUP3 SUB PUSH2 0x10E2 JUMPI PUSH2 0x10E1 PUSH2 0x1079 JUMP JUMPDEST JUMPDEST PUSH1 0x1 DUP3 ADD SWAP1 POP SWAP2 SWAP1 POP JUMP INVALID LOG2 PUSH5 0x6970667358 0x22 SLT KECCAK256 0xEA 0x28 ADD PUSH11 0x8ECB4B3BC8F6C9C745C2F6 0xB8 0xF6 0xB2 0xCC 0x23 CODESIZE NOT PUSH19 0x185F37DAE3FD3CFEA664736F6C634300081E00 CALLER "
				},
				"gasEstimates": {
					"creation": {
						"codeDepositCost": "877400",
						"executionCost": "73808",
						"totalCost": "951208"
					},
					"external": {
						"daftarkanKandidat(address)": "85168",
						"isKandidatTerdaftar(address)": "2921",
						"isSudahBisaVoting()": "2539",
						"isUserSudahMemilih(address)": "2834",
						"isVotingSelesai()": "2582",
						"kandidat(uint256)": "infinite",
						"mulaiVoting(bool)": "26935",
						"owner()": "2507",
						"pemenang()": "infinite",
						"totalKandidat()": "2551",
						"voting(uint256)": "infinite",
						"votingSelesai()": "50987"
					}
				},
				"methodIdentifiers": {
					"daftarkanKandidat(address)": "67fde272",
					"isKandidatTerdaftar(address)": "d1c2bfb4",
					"isSudahBisaVoting()": "3bfcfa6e",
					"isUserSudahMemilih(address)": "2273535e",
					"isVotingSelesai()": "b718eaaa",
					"kandidat(uint256)": "657c3ef1",
					"mulaiVoting(bool)": "a9cefdfb",
					"owner()": "8da5cb5b",
					"pemenang()": "98eae90b",
					"totalKandidat()": "752ea7d4",
					"voting(uint256)": "fd4a77f1",
					"votingSelesai()": "51ce77e1"
				}
			},
			"storageLayout": {
				"storage": [
					{
						"astId": 3,
						"contract": "contracts/evoting.sol:evoting",
						"label": "owner",
						"offset": 0,
						"slot": "0",
						"type": "t_address"
					},
					{
						"astId": 5,
						"contract": "contracts/evoting.sol:evoting",
						"label": "isSudahBisaVoting",
						"offset": 20,
						"slot": "0",
						"type": "t_bool"
					},
					{
						"astId": 7,
						"contract": "contracts/evoting.sol:evoting",
						"label": "isVotingSelesai",
						"offset": 21,
						"slot": "0",
						"type": "t_bool"
					},
					{
						"astId": 33,
						"contract": "contracts/evoting.sol:evoting",
						"label": "kandidat",
						"offset": 0,
						"slot": "1",
						"type": "t_array(t_struct(Kandidat)29_storage)dyn_storage"
					},
					{
						"astId": 37,
						"contract": "contracts/evoting.sol:evoting",
						"label": "isKandidatTerdaftar",
						"offset": 0,
						"slot": "2",
						"type": "t_mapping(t_address,t_bool)"
					},
					{
						"astId": 41,
						"contract": "contracts/evoting.sol:evoting",
						"label": "isUserSudahMemilih",
						"offset": 0,
						"slot": "3",
						"type": "t_mapping(t_address,t_bool)"
					}
				],
				"types": {
					"t_address": {
						"encoding": "inplace",
						"label": "address",
						"numberOfBytes": "20"
					},
					"t_array(t_struct(Kandidat)29_storage)dyn_storage": {
						"base": "t_struct(Kandidat)29_storage",
						"encoding": "dynamic_array",
						"label": "struct evoting.Kandidat[]",
						"numberOfBytes": "32"
					},
					"t_bool": {
						"encoding": "inplace",
						"label": "bool",
						"numberOfBytes": "1"
					},
					"t_mapping(t_address,t_bool)": {
						"encoding": "mapping",
						"key": "t_address",
						"label": "mapping(address => bool)",
						"numberOfBytes": "32",
						"value": "t_bool"
					},
					"t_struct(Kandidat)29_storage": {
						"encoding": "inplace",
						"label": "struct evoting.Kandidat",
						"members": [
							{
								"astId": 26,
								"contract": "contracts/evoting.sol:evoting",
								"label": "_addr",
								"offset": 0,
								"slot": "0",
								"type": "t_address"
							},
							{
								"astId": 28,
								"contract": "contracts/evoting.sol:evoting",
								"label": "jumlahSuara",
								"offset": 0,
								"slot": "1",
								"type": "t_uint256"
							}
						],
						"numberOfBytes": "64"
					},
					"t_uint256": {
						"encoding": "inplace",
						"label": "uint256",
						"numberOfBytes": "32"
					}
				}
			},
			"userdoc": {
				"kind": "user",
				"methods": {},
				"version": 1
			}
		}
	}
}