{
	"data": {
		"bytecode": {
			"linkReferences": {},
			"object": "608060405260405180608001604052806040518060400160405280601581526020017f50656d6f6772616d616e20426c6f636b636861696e000000000000000000000081525081526020016040518060400160405280600581526020017f52697a6b790000000000000000000000000000000000000000000000000000008152508152602001600d81526020015f151581525060045f820151815f0190816100a79190610337565b5060208201518160010190816100bd9190610337565b50604082015181600201556060820151816003015f6101000a81548160ff02191690831515021790555050503480156100f4575f5ffd5b50610406565b5f81519050919050565b7f4e487b71000000000000000000000000000000000000000000000000000000005f52604160045260245ffd5b7f4e487b71000000000000000000000000000000000000000000000000000000005f52602260045260245ffd5b5f600282049050600182168061017557607f821691505b60208210810361018857610187610131565b5b50919050565b5f819050815f5260205f209050919050565b5f6020601f8301049050919050565b5f82821b905092915050565b5f600883026101ea7fffffffffffffffffffffffffffffffffffffffffffffffffffffffffffffffff826101af565b6101f486836101af565b95508019841693508086168417925050509392505050565b5f819050919050565b5f819050919050565b5f61023861023361022e8461020c565b610215565b61020c565b9050919050565b5f819050919050565b6102518361021e565b61026561025d8261023f565b8484546101bb565b825550505050565b5f5f905090565b61027c61026d565b610287818484610248565b505050565b5b818110156102aa5761029f5f82610274565b60018101905061028d565b5050565b601f8211156102ef576102c08161018e565b6102c9846101a0565b810160208510156102d8578190505b6102ec6102e4856101a0565b83018261028c565b50505b505050565b5f82821c905092915050565b5f61030f5f19846008026102f4565b1980831691505092915050565b5f6103278383610300565b9150826002028217905092915050565b610340826100fa565b67ffffffffffffffff81111561035957610358610104565b5b610363825461015e565b61036e8282856102ae565b5f60209050601f83116001811461039f575f841561038d578287015190505b610397858261031c565b8655506103fe565b601f1984166103ad8661018e565b5f5b828110156103d4578489015182556001820191506020850194506020810190506103af565b868310156103f157848901516103ed601f891682610300565b8355505b6001600288020188555050505b505050505050565b610e1b806104135f395ff3fe608060405234801561000f575f5ffd5b5060043610610060575f3560e01c8063262a39cb146100645780632654ef881461009557806397ca46121461009f5780639a301922146100c0578063ea625179146100df578063f5974f8314610112575b5f5ffd5b61007e60048036038101906100799190610782565b61012e565b60405161008c92919061081d565b60405180910390f35b61009d610279565b005b6100a7610361565b6040516100b7949392919061087b565b60405180910390f35b6100c86104a5565b6040516100d69291906108cc565b60405180910390f35b6100f960048036038101906100f49190610782565b610545565b604051610109949392919061087b565b60405180910390f35b61012c60048036038101906101279190610a50565b610698565b005b6060805f6008848154811061014657610145610aec565b5b905f5260205f2090600402019050805f018160010181805461016790610b46565b80601f016020809104026020016040519081016040528092919081815260200182805461019390610b46565b80156101de5780601f106101b5576101008083540402835291602001916101de565b820191905f5260205f20905b8154815290600101906020018083116101c157829003601f168201915b505050505091508080546101f190610b46565b80601f016020809104026020016040519081016040528092919081815260200182805461021d90610b46565b80156102685780601f1061023f57610100808354040283529160200191610268565b820191905f5260205f20905b81548152906001019060200180831161024b57829003601f168201915b505050505090509250925050915091565b60405180608001604052806040518060400160405280600481526020017f42756d690000000000000000000000000000000000000000000000000000000081525081526020016040518060400160405280600981526020017f54657265204c69796500000000000000000000000000000000000000000000008152508152602001600c8152602001600115158152505f5f820151815f01908161031c9190610d16565b5060208201518160010190816103329190610d16565b50604082015181600201556060820151816003015f6101000a81548160ff021916908315150217905550905050565b6060805f5f5f6001015f5f015f600201545f6003015f9054906101000a900460ff1683805461038f90610b46565b80601f01602080910402602001604051908101604052809291908181526020018280546103bb90610b46565b80156104065780601f106103dd57610100808354040283529160200191610406565b820191905f5260205f20905b8154815290600101906020018083116103e957829003601f168201915b5050505050935082805461041990610b46565b80601f016020809104026020016040519081016040528092919081815260200182805461044590610b46565b80156104905780601f1061046757610100808354040283529160200191610490565b820191905f5260205f20905b81548152906001019060200180831161047357829003601f168201915b50505050509250935093509350935090919293565b60605f60046001016004600201548180546104bf90610b46565b80601f01602080910402602001604051908101604052809291908181526020018280546104eb90610b46565b80156105365780601f1061050d57610100808354040283529160200191610536565b820191905f5260205f20905b81548152906001019060200180831161051957829003601f168201915b50505050509150915091509091565b60088181548110610554575f80fd5b905f5260205f2090600402015f91509050805f01805461057390610b46565b80601f016020809104026020016040519081016040528092919081815260200182805461059f90610b46565b80156105ea5780601f106105c1576101008083540402835291602001916105ea565b820191905f5260205f20905b8154815290600101906020018083116105cd57829003601f168201915b5050505050908060010180546105ff90610b46565b80601f016020809104026020016040519081016040528092919081815260200182805461062b90610b46565b80156106765780601f1061064d57610100808354040283529160200191610676565b820191905f5260205f20905b81548152906001019060200180831161065957829003601f168201915b505050505090806002015490806003015f9054906101000a900460ff16905084565b60086040518060800160405280868152602001858152602001848152602001831515815250908060018154018082558091505060019003905f5260205f2090600402015f909190919091505f820151815f0190816106f69190610d16565b50602082015181600101908161070c9190610d16565b50604082015181600201556060820151816003015f6101000a81548160ff021916908315150217905550505050505050565b5f604051905090565b5f5ffd5b5f5ffd5b5f819050919050565b6107618161074f565b811461076b575f5ffd5b50565b5f8135905061077c81610758565b92915050565b5f6020828403121561079757610796610747565b5b5f6107a48482850161076e565b91505092915050565b5f81519050919050565b5f82825260208201905092915050565b8281835e5f83830152505050565b5f601f19601f8301169050919050565b5f6107ef826107ad565b6107f981856107b7565b93506108098185602086016107c7565b610812816107d5565b840191505092915050565b5f6040820190508181035f83015261083581856107e5565b9050818103602083015261084981846107e5565b90509392505050565b61085b8161074f565b82525050565b5f8115159050919050565b61087581610861565b82525050565b5f6080820190508181035f83015261089381876107e5565b905081810360208301526108a781866107e5565b90506108b66040830185610852565b6108c3606083018461086c565b95945050505050565b5f6040820190508181035f8301526108e481856107e5565b90506108f36020830184610852565b9392505050565b5f5ffd5b5f5ffd5b7f4e487b71000000000000000000000000000000000000000000000000000000005f52604160045260245ffd5b610938826107d5565b810181811067ffffffffffffffff8211171561095757610956610902565b5b80604052505050565b5f61096961073e565b9050610975828261092f565b919050565b5f67ffffffffffffffff82111561099457610993610902565b5b61099d826107d5565b9050602081019050919050565b828183375f83830152505050565b5f6109ca6109c58461097a565b610960565b9050828152602081018484840111156109e6576109e56108fe565b5b6109f18482856109aa565b509392505050565b5f82601f830112610a0d57610a0c6108fa565b5b8135610a1d8482602086016109b8565b91505092915050565b610a2f81610861565b8114610a39575f5ffd5b50565b5f81359050610a4a81610a26565b92915050565b5f5f5f5f60808587031215610a6857610a67610747565b5b5f85013567ffffffffffffffff811115610a8557610a8461074b565b5b610a91878288016109f9565b945050602085013567ffffffffffffffff811115610ab257610ab161074b565b5b610abe878288016109f9565b9350506040610acf8782880161076e565b9250506060610ae087828801610a3c565b91505092959194509250565b7f4e487b71000000000000000000000000000000000000000000000000000000005f52603260045260245ffd5b7f4e487b71000000000000000000000000000000000000000000000000000000005f52602260045260245ffd5b5f6002820490506001821680610b5d57607f821691505b602082108103610b7057610b6f610b19565b5b50919050565b5f819050815f5260205f209050919050565b5f6020601f8301049050919050565b5f82821b905092915050565b5f60088302610bd27fffffffffffffffffffffffffffffffffffffffffffffffffffffffffffffffff82610b97565b610bdc8683610b97565b95508019841693508086168417925050509392505050565b5f819050919050565b5f610c17610c12610c0d8461074f565b610bf4565b61074f565b9050919050565b5f819050919050565b610c3083610bfd565b610c44610c3c82610c1e565b848454610ba3565b825550505050565b5f5f905090565b610c5b610c4c565b610c66818484610c27565b505050565b5b81811015610c8957610c7e5f82610c53565b600181019050610c6c565b5050565b601f821115610cce57610c9f81610b76565b610ca884610b88565b81016020851015610cb7578190505b610ccb610cc385610b88565b830182610c6b565b50505b505050565b5f82821c905092915050565b5f610cee5f1984600802610cd3565b1980831691505092915050565b5f610d068383610cdf565b9150826002028217905092915050565b610d1f826107ad565b67ffffffffffffffff811115610d3857610d37610902565b5b610d428254610b46565b610d4d828285610c8d565b5f60209050601f831160018114610d7e575f8415610d6c578287015190505b610d768582610cfb565b865550610ddd565b601f198416610d8c86610b76565b5f5b82811015610db357848901518255600182019150602085019450602081019050610d8e565b86831015610dd05784890151610dcc601f891682610cdf565b8355505b6001600288020188555050505b50505050505056fea2646970667358221220b1031c029084c021d01cb0b5ab207d7e798b6174b3606973c613a97217b57cc364736f6c634300081e0033",
			"opcodes": "PUSH1 0x80 PUSH1 0x40 MSTORE PUSH1 0x40 MLOAD DUP1 PUSH1 0x80 ADD PUSH1 0x40 MSTORE DUP1 PUSH1 0x40 MLOAD DUP1 PUSH1 0x40 ADD PUSH1 0x40 MSTORE DUP1 PUSH1 0x15 DUP2 MSTORE PUSH1 0x20 ADD PUSH32 0x50656D6F6772616D616E20426C6F636B636861696E0000000000000000000000 DUP2 MSTORE POP DUP2 MSTORE PUSH1 0x20 ADD PUSH1 0x40 MLOAD DUP1 PUSH1 0x40 ADD PUSH1 0x40 MSTORE DUP1 PUSH1 0x5 DUP2 MSTORE PUSH1 0x20 ADD PUSH32 0x52697A6B79000000000000000000000000000000000000000000000000000000 DUP2 MSTORE POP DUP2 MSTORE PUSH1 0x20 ADD PUSH1 0xD DUP2 MSTORE PUSH1 0x20 ADD PUSH0 ISZERO ISZERO DUP2 MSTORE POP PUSH1 0x4 PUSH0 DUP3 ADD MLOAD DUP2 PUSH0 ADD SWAP1 DUP2 PUSH2 0xA7 SWAP2 SWAP1 PUSH2 0x337 JUMP JUMPDEST POP PUSH1 0x20 DUP3 ADD MLOAD DUP2 PUSH1 0x1 ADD SWAP1 DUP2 PUSH2 0xBD SWAP2 SWAP1 PUSH2 0x337 JUMP JUMPDEST POP PUSH1 0x40 DUP3 ADD MLOAD DUP2 PUSH1 0x2 ADD SSTORE PUSH1 0x60 DUP3 ADD MLOAD DUP2 PUSH1 0x3 ADD PUSH0 PUSH2 0x100 EXP DUP2 SLOAD DUP2 PUSH1 0xFF MUL NOT AND SWAP1 DUP4 ISZERO ISZERO MUL OR SWAP1 SSTORE POP POP POP CALLVALUE DUP1 ISZERO PUSH2 0xF4 JUMPI PUSH0 PUSH0 REVERT JUMPDEST POP PUSH2 0x406 JUMP JUMPDEST PUSH0 DUP2 MLOAD SWAP1 POP SWAP2 SWAP1 POP JUMP JUMPDEST PUSH32 0x4E487B7100000000000000000000000000000000000000000000000000000000 PUSH0 MSTORE PUSH1 0x41 PUSH1 0x4 MSTORE PUSH1 0x24 PUSH0 REVERT JUMPDEST PUSH32 0x4E487B7100000000000000000000000000000000000000000000000000000000 PUSH0 MSTORE PUSH1 0x22 PUSH1 0x4 MSTORE PUSH1 0x24 PUSH0 REVERT JUMPDEST PUSH0 PUSH1 0x2 DUP3 DIV SWAP1 POP PUSH1 0x1 DUP3 AND DUP1 PUSH2 0x175 JUMPI PUSH1 0x7F DUP3 AND SWAP2 POP JUMPDEST PUSH1 0x20 DUP3 LT DUP2 SUB PUSH2 0x188 JUMPI PUSH2 0x187 PUSH2 0x131 JUMP JUMPDEST JUMPDEST POP SWAP2 SWAP1 POP JUMP JUMPDEST PUSH0 DUP2 SWAP1 POP DUP2 PUSH0 MSTORE PUSH1 0x20 PUSH0 KECCAK256 SWAP1 POP SWAP2 SWAP1 POP JUMP JUMPDEST PUSH0 PUSH1 0x20 PUSH1 0x1F DUP4 ADD DIV SWAP1 POP SWAP2 SWAP1 POP JUMP JUMPDEST PUSH0 DUP3 DUP3 SHL SWAP1 POP SWAP3 SWAP2 POP POP JUMP JUMPDEST PUSH0 PUSH1 0x8 DUP4 MUL PUSH2 0x1EA PUSH32 0xFFFFFFFFFFFFFFFFFFFFFFFFFFFFFFFFFFFFFFFFFFFFFFFFFFFFFFFFFFFFFFFF DUP3 PUSH2 0x1AF JUMP JUMPDEST PUSH2 0x1F4 DUP7 DUP4 PUSH2 0x1AF JUMP JUMPDEST SWAP6 POP DUP1 NOT DUP5 AND SWAP4 POP DUP1 DUP7 AND DUP5 OR SWAP3 POP POP POP SWAP4 SWAP3 POP POP POP JUMP JUMPDEST PUSH0 DUP2 SWAP1 POP SWAP2 SWAP1 POP JUMP JUMPDEST PUSH0 DUP2 SWAP1 POP SWAP2 SWAP1 POP JUMP JUMPDEST PUSH0 PUSH2 0x238 PUSH2 0x233 PUSH2 0x22E DUP5 PUSH2 0x20C JUMP JUMPDEST PUSH2 0x215 JUMP JUMPDEST PUSH2 0x20C JUMP JUMPDEST SWAP1 POP SWAP2 SWAP1 POP JUMP JUMPDEST PUSH0 DUP2 SWAP1 POP SWAP2 SWAP1 POP JUMP JUMPDEST PUSH2 0x251 DUP4 PUSH2 0x21E JUMP JUMPDEST PUSH2 0x265 PUSH2 0x25D DUP3 PUSH2 0x23F JUMP JUMPDEST DUP5 DUP5 SLOAD PUSH2 0x1BB JUMP JUMPDEST DUP3 SSTORE POP POP POP POP JUMP JUMPDEST PUSH0 PUSH0 SWAP1 POP SWAP1 JUMP JUMPDEST PUSH2 0x27C PUSH2 0x26D JUMP JUMPDEST PUSH2 0x287 DUP2 DUP5 DUP5 PUSH2 0x248 JUMP JUMPDEST POP POP POP JUMP JUMPDEST JUMPDEST DUP2 DUP2 LT ISZERO PUSH2 0x2AA JUMPI PUSH2 0x29F PUSH0 DUP3 PUSH2 0x274 JUMP JUMPDEST PUSH1 0x1 DUP2 ADD SWAP1 POP PUSH2 0x28D JUMP JUMPDEST POP POP JUMP JUMPDEST PUSH1 0x1F DUP3 GT ISZERO PUSH2 0x2EF JUMPI PUSH2 0x2C0 DUP2 PUSH2 0x18E JUMP JUMPDEST PUSH2 0x2C9 DUP5 PUSH2 0x1A0 JUMP JUMPDEST DUP2 ADD PUSH1 0x20 DUP6 LT ISZERO PUSH2 0x2D8 JUMPI DUP2 SWAP1 POP JUMPDEST PUSH2 0x2EC PUSH2 0x2E4 DUP6 PUSH2 0x1A0 JUMP JUMPDEST DUP4 ADD DUP3 PUSH2 0x28C JUMP JUMPDEST POP POP JUMPDEST POP POP POP JUMP JUMPDEST PUSH0 DUP3 DUP3 SHR SWAP1 POP SWAP3 SWAP2 POP POP JUMP JUMPDEST PUSH0 PUSH2 0x30F PUSH0 NOT DUP5 PUSH1 0x8 MUL PUSH2 0x2F4 JUMP JUMPDEST NOT DUP1 DUP4 AND SWAP2 POP POP SWAP3 SWAP2 POP POP JUMP JUMPDEST PUSH0 PUSH2 0x327 DUP4 DUP4 PUSH2 0x300 JUMP JUMPDEST SWAP2 POP DUP3 PUSH1 0x2 MUL DUP3 OR SWAP1 POP SWAP3 SWAP2 POP POP JUMP JUMPDEST PUSH2 0x340 DUP3 PUSH2 0xFA JUMP JUMPDEST PUSH8 0xFFFFFFFFFFFFFFFF DUP2 GT ISZERO PUSH2 0x359 JUMPI PUSH2 0x358 PUSH2 0x104 JUMP JUMPDEST JUMPDEST PUSH2 0x363 DUP3 SLOAD PUSH2 0x15E JUMP JUMPDEST PUSH2 0x36E DUP3 DUP3 DUP6 PUSH2 0x2AE JUMP JUMPDEST PUSH0 PUSH1 0x20 SWAP1 POP PUSH1 0x1F DUP4 GT PUSH1 0x1 DUP2 EQ PUSH2 0x39F JUMPI PUSH0 DUP5 ISZERO PUSH2 0x38D JUMPI DUP3 DUP8 ADD MLOAD SWAP1 POP JUMPDEST PUSH2 0x397 DUP6 DUP3 PUSH2 0x31C JUMP JUMPDEST DUP7 SSTORE POP PUSH2 0x3FE JUMP JUMPDEST PUSH1 0x1F NOT DUP5 AND PUSH2 0x3AD DUP7 PUSH2 0x18E JUMP JUMPDEST PUSH0 JUMPDEST DUP3 DUP2 LT ISZERO PUSH2 0x3D4 JUMPI DUP5 DUP10 ADD MLOAD DUP3 SSTORE PUSH1 0x1 DUP3 ADD SWAP2 POP PUSH1 0x20 DUP6 ADD SWAP5 POP PUSH1 0x20 DUP2 ADD SWAP1 POP PUSH2 0x3AF JUMP JUMPDEST DUP7 DUP4 LT ISZERO PUSH2 0x3F1 JUMPI DUP5 DUP10 ADD MLOAD PUSH2 0x3ED PUSH1 0x1F DUP10 AND DUP3 PUSH2 0x300 JUMP JUMPDEST DUP4 SSTORE POP JUMPDEST PUSH1 0x1 PUSH1 0x2 DUP9 MUL ADD DUP9 SSTORE POP POP POP JUMPDEST POP POP POP POP POP POP JUMP JUMPDEST PUSH2 0xE1B DUP1 PUSH2 0x413 PUSH0 CODECOPY PUSH0 RETURN INVALID PUSH1 0x80 PUSH1 0x40 MSTORE CALLVALUE DUP1 ISZERO PUSH2 0xF JUMPI PUSH0 PUSH0 REVERT JUMPDEST POP PUSH1 0x4 CALLDATASIZE LT PUSH2 0x60 JUMPI PUSH0 CALLDATALOAD PUSH1 0xE0 SHR DUP1 PUSH4 0x262A39CB EQ PUSH2 0x64 JUMPI DUP1 PUSH4 0x2654EF88 EQ PUSH2 0x95 JUMPI DUP1 PUSH4 0x97CA4612 EQ PUSH2 0x9F JUMPI DUP1 PUSH4 0x9A301922 EQ PUSH2 0xC0 JUMPI DUP1 PUSH4 0xEA625179 EQ PUSH2 0xDF JUMPI DUP1 PUSH4 0xF5974F83 EQ PUSH2 0x112 JUMPI JUMPDEST PUSH0 PUSH0 REVERT JUMPDEST PUSH2 0x7E PUSH1 0x4 DUP1 CALLDATASIZE SUB DUP2 ADD SWAP1 PUSH2 0x79 SWAP2 SWAP1 PUSH2 0x782 JUMP JUMPDEST PUSH2 0x12E JUMP JUMPDEST PUSH1 0x40 MLOAD PUSH2 0x8C SWAP3 SWAP2 SWAP1 PUSH2 0x81D JUMP JUMPDEST PUSH1 0x40 MLOAD DUP1 SWAP2 SUB SWAP1 RETURN JUMPDEST PUSH2 0x9D PUSH2 0x279 JUMP JUMPDEST STOP JUMPDEST PUSH2 0xA7 PUSH2 0x361 JUMP JUMPDEST PUSH1 0x40 MLOAD PUSH2 0xB7 SWAP5 SWAP4 SWAP3 SWAP2 SWAP1 PUSH2 0x87B JUMP JUMPDEST PUSH1 0x40 MLOAD DUP1 SWAP2 SUB SWAP1 RETURN JUMPDEST PUSH2 0xC8 PUSH2 0x4A5 JUMP JUMPDEST PUSH1 0x40 MLOAD PUSH2 0xD6 SWAP3 SWAP2 SWAP1 PUSH2 0x8CC JUMP JUMPDEST PUSH1 0x40 MLOAD DUP1 SWAP2 SUB SWAP1 RETURN JUMPDEST PUSH2 0xF9 PUSH1 0x4 DUP1 CALLDATASIZE SUB DUP2 ADD SWAP1 PUSH2 0xF4 SWAP2 SWAP1 PUSH2 0x782 JUMP JUMPDEST PUSH2 0x545 JUMP JUMPDEST PUSH1 0x40 MLOAD PUSH2 0x109 SWAP5 SWAP4 SWAP3 SWAP2 SWAP1 PUSH2 0x87B JUMP JUMPDEST PUSH1 0x40 MLOAD DUP1 SWAP2 SUB SWAP1 RETURN JUMPDEST PUSH2 0x12C PUSH1 0x4 DUP1 CALLDATASIZE SUB DUP2 ADD SWAP1 PUSH2 0x127 SWAP2 SWAP1 PUSH2 0xA50 JUMP JUMPDEST PUSH2 0x698 JUMP JUMPDEST STOP JUMPDEST PUSH1 0x60 DUP1 PUSH0 PUSH1 0x8 DUP5 DUP2 SLOAD DUP2 LT PUSH2 0x146 JUMPI PUSH2 0x145 PUSH2 0xAEC JUMP JUMPDEST JUMPDEST SWAP1 PUSH0 MSTORE PUSH1 0x20 PUSH0 KECCAK256 SWAP1 PUSH1 0x4 MUL ADD SWAP1 POP DUP1 PUSH0 ADD DUP2 PUSH1 0x1 ADD DUP2 DUP1 SLOAD PUSH2 0x167 SWAP1 PUSH2 0xB46 JUMP JUMPDEST DUP1 PUSH1 0x1F ADD PUSH1 0x20 DUP1 SWAP2 DIV MUL PUSH1 0x20 ADD PUSH1 0x40 MLOAD SWAP1 DUP2 ADD PUSH1 0x40 MSTORE DUP1 SWAP3 SWAP2 SWAP1 DUP2 DUP2 MSTORE PUSH1 0x20 ADD DUP3 DUP1 SLOAD PUSH2 0x193 SWAP1 PUSH2 0xB46 JUMP JUMPDEST DUP1 ISZERO PUSH2 0x1DE JUMPI DUP1 PUSH1 0x1F LT PUSH2 0x1B5 JUMPI PUSH2 0x100 DUP1 DUP4 SLOAD DIV MUL DUP4 MSTORE SWAP2 PUSH1 0x20 ADD SWAP2 PUSH2 0x1DE JUMP JUMPDEST DUP3 ADD SWAP2 SWAP1 PUSH0 MSTORE PUSH1 0x20 PUSH0 KECCAK256 SWAP1 JUMPDEST DUP2 SLOAD DUP2 MSTORE SWAP1 PUSH1 0x1 ADD SWAP1 PUSH1 0x20 ADD DUP1 DUP4 GT PUSH2 0x1C1 JUMPI DUP3 SWAP1 SUB PUSH1 0x1F AND DUP3 ADD SWAP2 JUMPDEST POP POP POP POP POP SWAP2 POP DUP1 DUP1 SLOAD PUSH2 0x1F1 SWAP1 PUSH2 0xB46 JUMP JUMPDEST DUP1 PUSH1 0x1F ADD PUSH1 0x20 DUP1 SWAP2 DIV MUL PUSH1 0x20 ADD PUSH1 0x40 MLOAD SWAP1 DUP2 ADD PUSH1 0x40 MSTORE DUP1 SWAP3 SWAP2 SWAP1 DUP2 DUP2 MSTORE PUSH1 0x20 ADD DUP3 DUP1 SLOAD PUSH2 0x21D SWAP1 PUSH2 0xB46 JUMP JUMPDEST DUP1 ISZERO PUSH2 0x268 JUMPI DUP1 PUSH1 0x1F LT PUSH2 0x23F JUMPI PUSH2 0x100 DUP1 DUP4 SLOAD DIV MUL DUP4 MSTORE SWAP2 PUSH1 0x20 ADD SWAP2 PUSH2 0x268 JUMP JUMPDEST DUP3 ADD SWAP2 SWAP1 PUSH0 MSTORE PUSH1 0x20 PUSH0 KECCAK256 SWAP1 JUMPDEST DUP2 SLOAD DUP2 MSTORE SWAP1 PUSH1 0x1 ADD SWAP1 PUSH1 0x20 ADD DUP1 DUP4 GT PUSH2 0x24B JUMPI DUP3 SWAP1 SUB PUSH1 0x1F AND DUP3 ADD SWAP2 JUMPDEST POP POP POP POP POP SWAP1 POP SWAP3 POP SWAP3 POP POP SWAP2 POP SWAP2 JUMP JUMPDEST PUSH1 0x40 MLOAD DUP1 PUSH1 0x80 ADD PUSH1 0x40 MSTORE DUP1 PUSH1 0x40 MLOAD DUP1 PUSH1 0x40 ADD PUSH1 0x40 MSTORE DUP1 PUSH1 0x4 DUP2 MSTORE PUSH1 0x20 ADD PUSH32 0x42756D6900000000000000000000000000000000000000000000000000000000 DUP2 MSTORE POP DUP2 MSTORE PUSH1 0x20 ADD PUSH1 0x40 MLOAD DUP1 PUSH1 0x40 ADD PUSH1 0x40 MSTORE DUP1 PUSH1 0x9 DUP2 MSTORE PUSH1 0x20 ADD PUSH32 0x54657265204C6979650000000000000000000000000000000000000000000000 DUP2 MSTORE POP DUP2 MSTORE PUSH1 0x20 ADD PUSH1 0xC DUP2 MSTORE PUSH1 0x20 ADD PUSH1 0x1 ISZERO ISZERO DUP2 MSTORE POP PUSH0 PUSH0 DUP3 ADD MLOAD DUP2 PUSH0 ADD SWAP1 DUP2 PUSH2 0x31C SWAP2 SWAP1 PUSH2 0xD16 JUMP JUMPDEST POP PUSH1 0x20 DUP3 ADD MLOAD DUP2 PUSH1 0x1 ADD SWAP1 DUP2 PUSH2 0x332 SWAP2 SWAP1 PUSH2 0xD16 JUMP JUMPDEST POP PUSH1 0x40 DUP3 ADD MLOAD DUP2 PUSH1 0x2 ADD SSTORE PUSH1 0x60 DUP3 ADD MLOAD DUP2 PUSH1 0x3 ADD PUSH0 PUSH2 0x100 EXP DUP2 SLOAD DUP2 PUSH1 0xFF MUL NOT AND SWAP1 DUP4 ISZERO ISZERO MUL OR SWAP1 SSTORE POP SWAP1 POP POP JUMP JUMPDEST PUSH1 0x60 DUP1 PUSH0 PUSH0 PUSH0 PUSH1 0x1 ADD PUSH0 PUSH0 ADD PUSH0 PUSH1 0x2 ADD SLOAD PUSH0 PUSH1 0x3 ADD PUSH0 SWAP1 SLOAD SWAP1 PUSH2 0x100 EXP SWAP1 DIV PUSH1 0xFF AND DUP4 DUP1 SLOAD PUSH2 0x38F SWAP1 PUSH2 0xB46 JUMP JUMPDEST DUP1 PUSH1 0x1F ADD PUSH1 0x20 DUP1 SWAP2 DIV MUL PUSH1 0x20 ADD PUSH1 0x40 MLOAD SWAP1 DUP2 ADD PUSH1 0x40 MSTORE DUP1 SWAP3 SWAP2 SWAP1 DUP2 DUP2 MSTORE PUSH1 0x20 ADD DUP3 DUP1 SLOAD PUSH2 0x3BB SWAP1 PUSH2 0xB46 JUMP JUMPDEST DUP1 ISZERO PUSH2 0x406 JUMPI DUP1 PUSH1 0x1F LT PUSH2 0x3DD JUMPI PUSH2 0x100 DUP1 DUP4 SLOAD DIV MUL DUP4 MSTORE SWAP2 PUSH1 0x20 ADD SWAP2 PUSH2 0x406 JUMP JUMPDEST DUP3 ADD SWAP2 SWAP1 PUSH0 MSTORE PUSH1 0x20 PUSH0 KECCAK256 SWAP1 JUMPDEST DUP2 SLOAD DUP2 MSTORE SWAP1 PUSH1 0x1 ADD SWAP1 PUSH1 0x20 ADD DUP1 DUP4 GT PUSH2 0x3E9 JUMPI DUP3 SWAP1 SUB PUSH1 0x1F AND DUP3 ADD SWAP2 JUMPDEST POP POP POP POP POP SWAP4 POP DUP3 DUP1 SLOAD PUSH2 0x419 SWAP1 PUSH2 0xB46 JUMP JUMPDEST DUP1 PUSH1 0x1F ADD PUSH1 0x20 DUP1 SWAP2 DIV MUL PUSH1 0x20 ADD PUSH1 0x40 MLOAD SWAP1 DUP2 ADD PUSH1 0x40 MSTORE DUP1 SWAP3 SWAP2 SWAP1 DUP2 DUP2 MSTORE PUSH1 0x20 ADD DUP3 DUP1 SLOAD PUSH2 0x445 SWAP1 PUSH2 0xB46 JUMP JUMPDEST DUP1 ISZERO PUSH2 0x490 JUMPI DUP1 PUSH1 0x1F LT PUSH2 0x467 JUMPI PUSH2 0x100 DUP1 DUP4 SLOAD DIV MUL DUP4 MSTORE SWAP2 PUSH1 0x20 ADD SWAP2 PUSH2 0x490 JUMP JUMPDEST DUP3 ADD SWAP2 SWAP1 PUSH0 MSTORE PUSH1 0x20 PUSH0 KECCAK256 SWAP1 JUMPDEST DUP2 SLOAD DUP2 MSTORE SWAP1 PUSH1 0x1 ADD SWAP1 PUSH1 0x20 ADD DUP1 DUP4 GT PUSH2 0x473 JUMPI DUP3 SWAP1 SUB PUSH1 0x1F AND DUP3 ADD SWAP2 JUMPDEST POP POP POP POP POP SWAP3 POP SWAP4 POP SWAP4 POP SWAP4 POP SWAP4 POP SWAP1 SWAP2 SWAP3 SWAP4 JUMP JUMPDEST PUSH1 0x60 PUSH0 PUSH1 0x4 PUSH1 0x1 ADD PUSH1 0x4 PUSH1 0x2 ADD SLOAD DUP2 DUP1 SLOAD PUSH2 0x4BF SWAP1 PUSH2 0xB46 JUMP JUMPDEST DUP1 PUSH1 0x1F ADD PUSH1 0x20 DUP1 SWAP2 DIV MUL PUSH1 0x20 ADD PUSH1 0x40 MLOAD SWAP1 DUP2 ADD PUSH1 0x40 MSTORE DUP1 SWAP3 SWAP2 SWAP1 DUP2 DUP2 MSTORE PUSH1 0x20 ADD DUP3 DUP1 SLOAD PUSH2 0x4EB SWAP1 PUSH2 0xB46 JUMP JUMPDEST DUP1 ISZERO PUSH2 0x536 JUMPI DUP1 PUSH1 0x1F LT PUSH2 0x50D JUMPI PUSH2 0x100 DUP1 DUP4 SLOAD DIV MUL DUP4 MSTORE SWAP2 PUSH1 0x20 ADD SWAP2 PUSH2 0x536 JUMP JUMPDEST DUP3 ADD SWAP2 SWAP1 PUSH0 MSTORE PUSH1 0x20 PUSH0 KECCAK256 SWAP1 JUMPDEST DUP2 SLOAD DUP2 MSTORE SWAP1 PUSH1 0x1 ADD SWAP1 PUSH1 0x20 ADD DUP1 DUP4 GT PUSH2 0x519 JUMPI DUP3 SWAP1 SUB PUSH1 0x1F AND DUP3 ADD SWAP2 JUMPDEST POP POP POP POP POP SWAP2 POP SWAP2 POP SWAP2 POP SWAP1 SWAP2 JUMP JUMPDEST PUSH1 0x8 DUP2 DUP2 SLOAD DUP2 LT PUSH2 0x554 JUMPI PUSH0 DUP1 REVERT JUMPDEST SWAP1 PUSH0 MSTORE PUSH1 0x20 PUSH0 KECCAK256 SWAP1 PUSH1 0x4 MUL ADD PUSH0 SWAP2 POP SWAP1 POP DUP1 PUSH0 ADD DUP1 SLOAD PUSH2 0x573 SWAP1 PUSH2 0xB46 JUMP JUMPDEST DUP1 PUSH1 0x1F ADD PUSH1 0x20 DUP1 SWAP2 DIV MUL PUSH1 0x20 ADD PUSH1 0x40 MLOAD SWAP1 DUP2 ADD PUSH1 0x40 MSTORE DUP1 SWAP3 SWAP2 SWAP1 DUP2 DUP2 MSTORE PUSH1 0x20 ADD DUP3 DUP1 SLOAD PUSH2 0x59F SWAP1 PUSH2 0xB46 JUMP JUMPDEST DUP1 ISZERO PUSH2 0x5EA JUMPI DUP1 PUSH1 0x1F LT PUSH2 0x5C1 JUMPI PUSH2 0x100 DUP1 DUP4 SLOAD DIV MUL DUP4 MSTORE SWAP2 PUSH1 0x20 ADD SWAP2 PUSH2 0x5EA JUMP JUMPDEST DUP3 ADD SWAP2 SWAP1 PUSH0 MSTORE PUSH1 0x20 PUSH0 KECCAK256 SWAP1 JUMPDEST DUP2 SLOAD DUP2 MSTORE SWAP1 PUSH1 0x1 ADD SWAP1 PUSH1 0x20 ADD DUP1 DUP4 GT PUSH2 0x5CD JUMPI DUP3 SWAP1 SUB PUSH1 0x1F AND DUP3 ADD SWAP2 JUMPDEST POP POP POP POP POP SWAP1 DUP1 PUSH1 0x1 ADD DUP1 SLOAD PUSH2 0x5FF SWAP1 PUSH2 0xB46 JUMP JUMPDEST DUP1 PUSH1 0x1F ADD PUSH1 0x20 DUP1 SWAP2 DIV MUL PUSH1 0x20 ADD PUSH1 0x40 MLOAD SWAP1 DUP2 ADD PUSH1 0x40 MSTORE DUP1 SWAP3 SWAP2 SWAP1 DUP2 DUP2 MSTORE PUSH1 0x20 ADD DUP3 DUP1 SLOAD PUSH2 0x62B SWAP1 PUSH2 0xB46 JUMP JUMPDEST DUP1 ISZERO PUSH2 0x676 JUMPI DUP1 PUSH1 0x1F LT PUSH2 0x64D JUMPI PUSH2 0x100 DUP1 DUP4 SLOAD DIV MUL DUP4 MSTORE SWAP2 PUSH1 0x20 ADD SWAP2 PUSH2 0x676 JUMP JUMPDEST DUP3 ADD SWAP2 SWAP1 PUSH0 MSTORE PUSH1 0x20 PUSH0 KECCAK256 SWAP1 JUMPDEST DUP2 SLOAD DUP2 MSTORE SWAP1 PUSH1 0x1 ADD SWAP1 PUSH1 0x20 ADD DUP1 DUP4 GT PUSH2 0x659 JUMPI DUP3 SWAP1 SUB PUSH1 0x1F AND DUP3 ADD SWAP2 JUMPDEST POP POP POP POP POP SWAP1 DUP1 PUSH1 0x2 ADD SLOAD SWAP1 DUP1 PUSH1 0x3 ADD PUSH0 SWAP1 SLOAD SWAP1 PUSH2 0x100 EXP SWAP1 DIV PUSH1 0xFF AND SWAP1 POP DUP5 JUMP JUMPDEST PUSH1 0x8 PUSH1 0x40 MLOAD DUP1 PUSH1 0x80 ADD PUSH1 0x40 MSTORE DUP1 DUP7 DUP2 MSTORE PUSH1 0x20 ADD DUP6 DUP2 MSTORE PUSH1 0x20 ADD DUP5 DUP2 MSTORE PUSH1 0x20 ADD DUP4 ISZERO ISZERO DUP2 MSTORE POP SWAP1 DUP1 PUSH1 0x1 DUP2 SLOAD ADD DUP1 DUP3 SSTORE DUP1 SWAP2 POP POP PUSH1 0x1 SWAP1 SUB SWAP1 PUSH0 MSTORE PUSH1 0x20 PUSH0 KECCAK256 SWAP1 PUSH1 0x4 MUL ADD PUSH0 SWAP1 SWAP2 SWAP1 SWAP2 SWAP1 SWAP2 POP PUSH0 DUP3 ADD MLOAD DUP2 PUSH0 ADD SWAP1 DUP2 PUSH2 0x6F6 SWAP2 SWAP1 PUSH2 0xD16 JUMP JUMPDEST POP PUSH1 0x20 DUP3 ADD MLOAD DUP2 PUSH1 0x1 ADD SWAP1 DUP2 PUSH2 0x70C SWAP2 SWAP1 PUSH2 0xD16 JUMP JUMPDEST POP PUSH1 0x40 DUP3 ADD MLOAD DUP2 PUSH1 0x2 ADD SSTORE PUSH1 0x60 DUP3 ADD MLOAD DUP2 PUSH1 0x3 ADD PUSH0 PUSH2 0x100 EXP DUP2 SLOAD DUP2 PUSH1 0xFF MUL NOT AND SWAP1 DUP4 ISZERO ISZERO MUL OR SWAP1 SSTORE POP POP POP POP POP POP POP JUMP JUMPDEST PUSH0 PUSH1 0x40 MLOAD SWAP1 POP SWAP1 JUMP JUMPDEST PUSH0 PUSH0 REVERT JUMPDEST PUSH0 PUSH0 REVERT JUMPDEST PUSH0 DUP2 SWAP1 POP SWAP2 SWAP1 POP JUMP JUMPDEST PUSH2 0x761 DUP2 PUSH2 0x74F JUMP JUMPDEST DUP2 EQ PUSH2 0x76B JUMPI PUSH0 PUSH0 REVERT JUMPDEST POP JUMP JUMPDEST PUSH0 DUP2 CALLDATALOAD SWAP1 POP PUSH2 0x77C DUP2 PUSH2 0x758 JUMP JUMPDEST SWAP3 SWAP2 POP POP JUMP JUMPDEST PUSH0 PUSH1 0x20 DUP3 DUP5 SUB SLT ISZERO PUSH2 0x797 JUMPI PUSH2 0x796 PUSH2 0x747 JUMP JUMPDEST JUMPDEST PUSH0 PUSH2 0x7A4 DUP5 DUP3 DUP6 ADD PUSH2 0x76E JUMP JUMPDEST SWAP2 POP POP SWAP3 SWAP2 POP POP JUMP JUMPDEST PUSH0 DUP2 MLOAD SWAP1 POP SWAP2 SWAP1 POP JUMP JUMPDEST PUSH0 DUP3 DUP3 MSTORE PUSH1 0x20 DUP3 ADD SWAP1 POP SWAP3 SWAP2 POP POP JUMP JUMPDEST DUP3 DUP2 DUP4 MCOPY PUSH0 DUP4 DUP4 ADD MSTORE POP POP POP JUMP JUMPDEST PUSH0 PUSH1 0x1F NOT PUSH1 0x1F DUP4 ADD AND SWAP1 POP SWAP2 SWAP1 POP JUMP JUMPDEST PUSH0 PUSH2 0x7EF DUP3 PUSH2 0x7AD JUMP JUMPDEST PUSH2 0x7F9 DUP2 DUP6 PUSH2 0x7B7 JUMP JUMPDEST SWAP4 POP PUSH2 0x809 DUP2 DUP6 PUSH1 0x20 DUP7 ADD PUSH2 0x7C7 JUMP JUMPDEST PUSH2 0x812 DUP2 PUSH2 0x7D5 JUMP JUMPDEST DUP5 ADD SWAP2 POP POP SWAP3 SWAP2 POP POP JUMP JUMPDEST PUSH0 PUSH1 0x40 DUP3 ADD SWAP1 POP DUP2 DUP2 SUB PUSH0 DUP4 ADD MSTORE PUSH2 0x835 DUP2 DUP6 PUSH2 0x7E5 JUMP JUMPDEST SWAP1 POP DUP2 DUP2 SUB PUSH1 0x20 DUP4 ADD MSTORE PUSH2 0x849 DUP2 DUP5 PUSH2 0x7E5 JUMP JUMPDEST SWAP1 POP SWAP4 SWAP3 POP POP POP JUMP JUMPDEST PUSH2 0x85B DUP2 PUSH2 0x74F JUMP JUMPDEST DUP3 MSTORE POP POP JUMP JUMPDEST PUSH0 DUP2 ISZERO ISZERO SWAP1 POP SWAP2 SWAP1 POP JUMP JUMPDEST PUSH2 0x875 DUP2 PUSH2 0x861 JUMP JUMPDEST DUP3 MSTORE POP POP JUMP JUMPDEST PUSH0 PUSH1 0x80 DUP3 ADD SWAP1 POP DUP2 DUP2 SUB PUSH0 DUP4 ADD MSTORE PUSH2 0x893 DUP2 DUP8 PUSH2 0x7E5 JUMP JUMPDEST SWAP1 POP DUP2 DUP2 SUB PUSH1 0x20 DUP4 ADD MSTORE PUSH2 0x8A7 DUP2 DUP7 PUSH2 0x7E5 JUMP JUMPDEST SWAP1 POP PUSH2 0x8B6 PUSH1 0x40 DUP4 ADD DUP6 PUSH2 0x852 JUMP JUMPDEST PUSH2 0x8C3 PUSH1 0x60 DUP4 ADD DUP5 PUSH2 0x86C JUMP JUMPDEST SWAP6 SWAP5 POP POP POP POP POP JUMP JUMPDEST PUSH0 PUSH1 0x40 DUP3 ADD SWAP1 POP DUP2 DUP2 SUB PUSH0 DUP4 ADD MSTORE PUSH2 0x8E4 DUP2 DUP6 PUSH2 0x7E5 JUMP JUMPDEST SWAP1 POP PUSH2 0x8F3 PUSH1 0x20 DUP4 ADD DUP5 PUSH2 0x852 JUMP JUMPDEST SWAP4 SWAP3 POP POP POP JUMP JUMPDEST PUSH0 PUSH0 REVERT JUMPDEST PUSH0 PUSH0 REVERT JUMPDEST PUSH32 0x4E487B7100000000000000000000000000000000000000000000000000000000 PUSH0 MSTORE PUSH1 0x41 PUSH1 0x4 MSTORE PUSH1 0x24 PUSH0 REVERT JUMPDEST PUSH2 0x938 DUP3 PUSH2 0x7D5 JUMP JUMPDEST DUP2 ADD DUP2 DUP2 LT PUSH8 0xFFFFFFFFFFFFFFFF DUP3 GT OR ISZERO PUSH2 0x957 JUMPI PUSH2 0x956 PUSH2 0x902 JUMP JUMPDEST JUMPDEST DUP1 PUSH1 0x40 MSTORE POP POP POP JUMP JUMPDEST PUSH0 PUSH2 0x969 PUSH2 0x73E JUMP JUMPDEST SWAP1 POP PUSH2 0x975 DUP3 DUP3 PUSH2 0x92F JUMP JUMPDEST SWAP2 SWAP1 POP JUMP JUMPDEST PUSH0 PUSH8 0xFFFFFFFFFFFFFFFF DUP3 GT ISZERO PUSH2 0x994 JUMPI PUSH2 0x993 PUSH2 0x902 JUMP JUMPDEST JUMPDEST PUSH2 0x99D DUP3 PUSH2 0x7D5 JUMP JUMPDEST SWAP1 POP PUSH1 0x20 DUP2 ADD SWAP1 POP SWAP2 SWAP1 POP JUMP JUMPDEST DUP3 DUP2 DUP4 CALLDATACOPY PUSH0 DUP4 DUP4 ADD MSTORE POP POP POP JUMP JUMPDEST PUSH0 PUSH2 0x9CA PUSH2 0x9C5 DUP5 PUSH2 0x97A JUMP JUMPDEST PUSH2 0x960 JUMP JUMPDEST SWAP1 POP DUP3 DUP2 MSTORE PUSH1 0x20 DUP2 ADD DUP5 DUP5 DUP5 ADD GT ISZERO PUSH2 0x9E6 JUMPI PUSH2 0x9E5 PUSH2 0x8FE JUMP JUMPDEST JUMPDEST PUSH2 0x9F1 DUP5 DUP3 DUP6 PUSH2 0x9AA JUMP JUMPDEST POP SWAP4 SWAP3 POP POP POP JUMP JUMPDEST PUSH0 DUP3 PUSH1 0x1F DUP4 ADD SLT PUSH2 0xA0D JUMPI PUSH2 0xA0C PUSH2 0x8FA JUMP JUMPDEST JUMPDEST DUP2 CALLDATALOAD PUSH2 0xA1D DUP5 DUP3 PUSH1 0x20 DUP7 ADD PUSH2 0x9B8 JUMP JUMPDEST SWAP2 POP POP SWAP3 SWAP2 POP POP JUMP JUMPDEST PUSH2 0xA2F DUP2 PUSH2 0x861 JUMP JUMPDEST DUP2 EQ PUSH2 0xA39 JUMPI PUSH0 PUSH0 REVERT JUMPDEST POP JUMP JUMPDEST PUSH0 DUP2 CALLDATALOAD SWAP1 POP PUSH2 0xA4A DUP2 PUSH2 0xA26 JUMP JUMPDEST SWAP3 SWAP2 POP POP JUMP JUMPDEST PUSH0 PUSH0 PUSH0 PUSH0 PUSH1 0x80 DUP6 DUP8 SUB SLT ISZERO PUSH2 0xA68 JUMPI PUSH2 0xA67 PUSH2 0x747 JUMP JUMPDEST JUMPDEST PUSH0 DUP6 ADD CALLDATALOAD PUSH8 0xFFFFFFFFFFFFFFFF DUP2 GT ISZERO PUSH2 0xA85 JUMPI PUSH2 0xA84 PUSH2 0x74B JUMP JUMPDEST JUMPDEST PUSH2 0xA91 DUP8 DUP3 DUP9 ADD PUSH2 0x9F9 JUMP JUMPDEST SWAP5 POP POP PUSH1 0x20 DUP6 ADD CALLDATALOAD PUSH8 0xFFFFFFFFFFFFFFFF DUP2 GT ISZERO PUSH2 0xAB2 JUMPI PUSH2 0xAB1 PUSH2 0x74B JUMP JUMPDEST JUMPDEST PUSH2 0xABE DUP8 DUP3 DUP9 ADD PUSH2 0x9F9 JUMP JUMPDEST SWAP4 POP POP PUSH1 0x40 PUSH2 0xACF DUP8 DUP3 DUP9 ADD PUSH2 0x76E JUMP JUMPDEST SWAP3 POP POP PUSH1 0x60 PUSH2 0xAE0 DUP8 DUP3 DUP9 ADD PUSH2 0xA3C JUMP JUMPDEST SWAP2 POP POP SWAP3 SWAP6 SWAP2 SWAP5 POP SWAP3 POP JUMP JUMPDEST PUSH32 0x4E487B7100000000000000000000000000000000000000000000000000000000 PUSH0 MSTORE PUSH1 0x32 PUSH1 0x4 MSTORE PUSH1 0x24 PUSH0 REVERT JUMPDEST PUSH32 0x4E487B7100000000000000000000000000000000000000000000000000000000 PUSH0 MSTORE PUSH1 0x22 PUSH1 0x4 MSTORE PUSH1 0x24 PUSH0 REVERT JUMPDEST PUSH0 PUSH1 0x2 DUP3 DIV SWAP1 POP PUSH1 0x1 DUP3 AND DUP1 PUSH2 0xB5D JUMPI PUSH1 0x7F DUP3 AND SWAP2 POP JUMPDEST PUSH1 0x20 DUP3 LT DUP2 SUB PUSH2 0xB70 JUMPI PUSH2 0xB6F PUSH2 0xB19 JUMP JUMPDEST JUMPDEST POP SWAP2 SWAP1 POP JUMP JUMPDEST PUSH0 DUP2 SWAP1 POP DUP2 PUSH0 MSTORE PUSH1 0x20 PUSH0 KECCAK256 SWAP1 POP SWAP2 SWAP1 POP JUMP JUMPDEST PUSH0 PUSH1 0x20 PUSH1 0x1F DUP4 ADD DIV SWAP1 POP SWAP2 SWAP1 POP JUMP JUMPDEST PUSH0 DUP3 DUP3 SHL SWAP1 POP SWAP3 SWAP2 POP POP JUMP JUMPDEST PUSH0 PUSH1 0x8 DUP4 MUL PUSH2 0xBD2 PUSH32 0xFFFFFFFFFFFFFFFFFFFFFFFFFFFFFFFFFFFFFFFFFFFFFFFFFFFFFFFFFFFFFFFF DUP3 PUSH2 0xB97 JUMP JUMPDEST PUSH2 0xBDC DUP7 DUP4 PUSH2 0xB97 JUMP JUMPDEST SWAP6 POP DUP1 NOT DUP5 AND SWAP4 POP DUP1 DUP7 AND DUP5 OR SWAP3 POP POP POP SWAP4 SWAP3 POP POP POP JUMP JUMPDEST PUSH0 DUP2 SWAP1 POP SWAP2 SWAP1 POP JUMP JUMPDEST PUSH0 PUSH2 0xC17 PUSH2 0xC12 PUSH2 0xC0D DUP5 PUSH2 0x74F JUMP JUMPDEST PUSH2 0xBF4 JUMP JUMPDEST PUSH2 0x74F JUMP JUMPDEST SWAP1 POP SWAP2 SWAP1 POP JUMP JUMPDEST PUSH0 DUP2 SWAP1 POP SWAP2 SWAP1 POP JUMP JUMPDEST PUSH2 0xC30 DUP4 PUSH2 0xBFD JUMP JUMPDEST PUSH2 0xC44 PUSH2 0xC3C DUP3 PUSH2 0xC1E JUMP JUMPDEST DUP5 DUP5 SLOAD PUSH2 0xBA3 JUMP JUMPDEST DUP3 SSTORE POP POP POP POP JUMP JUMPDEST PUSH0 PUSH0 SWAP1 POP SWAP1 JUMP JUMPDEST PUSH2 0xC5B PUSH2 0xC4C JUMP JUMPDEST PUSH2 0xC66 DUP2 DUP5 DUP5 PUSH2 0xC27 JUMP JUMPDEST POP POP POP JUMP JUMPDEST JUMPDEST DUP2 DUP2 LT ISZERO PUSH2 0xC89 JUMPI PUSH2 0xC7E PUSH0 DUP3 PUSH2 0xC53 JUMP JUMPDEST PUSH1 0x1 DUP2 ADD SWAP1 POP PUSH2 0xC6C JUMP JUMPDEST POP POP JUMP JUMPDEST PUSH1 0x1F DUP3 GT ISZERO PUSH2 0xCCE JUMPI PUSH2 0xC9F DUP2 PUSH2 0xB76 JUMP JUMPDEST PUSH2 0xCA8 DUP5 PUSH2 0xB88 JUMP JUMPDEST DUP2 ADD PUSH1 0x20 DUP6 LT ISZERO PUSH2 0xCB7 JUMPI DUP2 SWAP1 POP JUMPDEST PUSH2 0xCCB PUSH2 0xCC3 DUP6 PUSH2 0xB88 JUMP JUMPDEST DUP4 ADD DUP3 PUSH2 0xC6B JUMP JUMPDEST POP POP JUMPDEST POP POP POP JUMP JUMPDEST PUSH0 DUP3 DUP3 SHR SWAP1 POP SWAP3 SWAP2 POP POP JUMP JUMPDEST PUSH0 PUSH2 0xCEE PUSH0 NOT DUP5 PUSH1 0x8 MUL PUSH2 0xCD3 JUMP JUMPDEST NOT DUP1 DUP4 AND SWAP2 POP POP SWAP3 SWAP2 POP POP JUMP JUMPDEST PUSH0 PUSH2 0xD06 DUP4 DUP4 PUSH2 0xCDF JUMP JUMPDEST SWAP2 POP DUP3 PUSH1 0x2 MUL DUP3 OR SWAP1 POP SWAP3 SWAP2 POP POP JUMP JUMPDEST PUSH2 0xD1F DUP3 PUSH2 0x7AD JUMP JUMPDEST PUSH8 0xFFFFFFFFFFFFFFFF DUP2 GT ISZERO PUSH2 0xD38 JUMPI PUSH2 0xD37 PUSH2 0x902 JUMP JUMPDEST JUMPDEST PUSH2 0xD42 DUP3 SLOAD PUSH2 0xB46 JUMP JUMPDEST PUSH2 0xD4D DUP3 DUP3 DUP6 PUSH2 0xC8D JUMP JUMPDEST PUSH0 PUSH1 0x20 SWAP1 POP PUSH1 0x1F DUP4 GT PUSH1 0x1 DUP2 EQ PUSH2 0xD7E JUMPI PUSH0 DUP5 ISZERO PUSH2 0xD6C JUMPI DUP3 DUP8 ADD MLOAD SWAP1 POP JUMPDEST PUSH2 0xD76 DUP6 DUP3 PUSH2 0xCFB JUMP JUMPDEST DUP7 SSTORE POP PUSH2 0xDDD JUMP JUMPDEST PUSH1 0x1F NOT DUP5 AND PUSH2 0xD8C DUP7 PUSH2 0xB76 JUMP JUMPDEST PUSH0 JUMPDEST DUP3 DUP2 LT ISZERO PUSH2 0xDB3 JUMPI DUP5 DUP10 ADD MLOAD DUP3 SSTORE PUSH1 0x1 DUP3 ADD SWAP2 POP PUSH1 0x20 DUP6 ADD SWAP5 POP PUSH1 0x20 DUP2 ADD SWAP1 POP PUSH2 0xD8E JUMP JUMPDEST DUP7 DUP4 LT ISZERO PUSH2 0xDD0 JUMPI DUP5 DUP10 ADD MLOAD PUSH2 0xDCC PUSH1 0x1F DUP10 AND DUP3 PUSH2 0xCDF JUMP JUMPDEST DUP4 SSTORE POP JUMPDEST PUSH1 0x1 PUSH1 0x2 DUP9 MUL ADD DUP9 SSTORE POP POP POP JUMPDEST POP POP POP POP POP POP JUMP INVALID LOG2 PUSH5 0x6970667358 0x22 SLT KECCAK256 0xB1 SUB SHR MUL SWAP1 DUP5 0xC0 0x21 0xD0 SHR 0xB0 0xB5 0xAB KECCAK256 PUSH30 0x7E798B6174B3606973C613A97217B57CC364736F6C634300081E00330000 "
		},
		"gasEstimates": {
			"creation": {
				"codeDepositCost": "722200",
				"executionCost": "infinite",
				"totalCost": "infinite"
			},
			"external": {
				"buku3(uint256)": "infinite",
				"infoBuku(uint256)": "infinite",
				"lihatBuku()": "infinite",
				"lihatBuku2()": "infinite",
				"newBook(string,string,uint256,bool)": "infinite",
				"tambahBuku()": "infinite"
			}
		},
		"methodIdentifiers": {
			"buku3(uint256)": "ea625179",
			"infoBuku(uint256)": "262a39cb",
			"lihatBuku()": "97ca4612",
			"lihatBuku2()": "9a301922",
			"newBook(string,string,uint256,bool)": "f5974f83",
			"tambahBuku()": "2654ef88"
		}
	},
	"abi": [
		{
			"inputs": [
				{
					"internalType": "uint256",
					"name": "",
					"type": "uint256"
				}
			],
			"name": "buku3",
			"outputs": [
				{
					"internalType": "string",
					"name": "judul",
					"type": "string"
				},
				{
					"internalType": "string",
					"name": "author",
					"type": "string"
				},
				{
					"internalType": "uint256",
					"name": "id",
					"type": "uint256"
				},
				{
					"internalType": "bool",
					"name": "isReady",
					"type": "bool"
				}
			],
			"stateMutability": "view",
			"type": "function"
		},
		{
			"inputs": [
				{
					"internalType": "uint256",
					"name": "_index",
					"type": "uint256"
				}
			],
			"name": "infoBuku",
			"outputs": [
				{
					"internalType": "string",
					"name": "judul",
					"type": "string"
				},
				{
					"internalType": "string",
					"name": "author",
					"type": "string"
				}
			],
			"stateMutability": "view",
			"type": "function"
		},
		{
			"inputs": [],
			"name": "lihatBuku",
			"outputs": [
				{
					"internalType": "string",
					"name": "",
					"type": "string"
				},
				{
					"internalType": "string",
					"name": "",
					"type": "string"
				},
				{
					"internalType": "uint256",
					"name": "",
					"type": "uint256"
				},
				{
					"internalType": "bool",
					"name": "",
					"type": "bool"
				}
			],
			"stateMutability": "view",
			"type": "function"
		},
		{
			"inputs": [],
			"name": "lihatBuku2",
			"outputs": [
				{
					"internalType": "string",
					"name": "",
					"type": "string"
				},
				{
					"internalType": "uint256",
					"name": "",
					"type": "uint256"
				}
			],
			"stateMutability": "view",
			"type": "function"
		},
		{
			"inputs": [
				{
					"internalType": "string",
					"name": "judul",
					"type": "string"
				},
				{
					"internalType": "string",
					"name": "author",
					"type": "string"
				},
				{
					"internalType": "uint256",
					"name": "id",
					"type": "uint256"
				},
				{
					"internalType": "bool",
					"name": "isReady",
					"type": "bool"
				}
			],
			"name": "newBook",
			"outputs": [],
			"stateMutability": "nonpayable",
			"type": "function"
		},
		{
			"inputs": [],
			"name": "tambahBuku",
			"outputs": [],
			"stateMutability": "nonpayable",
			"type": "function"
		}
	]
}